:100000006F40F050130000001300000013000000C8
:100010001300000013000000130000001300000094
:100020001300000013000000130000001300000084
:08003000130000007300100032
:100038000000000000000000F8460000084700002B
:1000480000000000544C0000000000000000000008
:10005800564C0000584C0000000000000000000052
:100068005A4C0000000000005C4C0000000000003A
:100078005E4C0000604C0000624C0000644C0000C4
:10008800664C0000684C0000463D0000BA3D000088
:100098002E3E0000A23E0000163F0000744C0000F7
:1000A800764C0000784C00007A4C00007C4C000034
:1000B8007E4C0000804C0000824C0000844C000004
:1000C800864C0000884C00008A4C00008A3F0000E3
:1000D8008E4C00004E410000924C0000944C0000F1
:1000E800DA41000008430000884300009C4C0000EF
:1000F8009E4C0000A04C0000A24C0000A44C000044
:10010800A64C00009C37000020380000A4380000EE
:1001180062400000B04C0000B24C0000B44C00003B
:1001280080450000B84C0000BA4C0000BC4C0000F0
:10013800BE4C0000C04C000008440000C44C000045
:1001480028390000AC390000884400000045000050
:10015800CE4C0000D04C0000D24C0000D44C000023
:10016800D64C0000D84C0000DA4C0000DC4C0000F3
:10017800DE4C0000E04C0000E24C00001C6D00006A
:10018800E64C0000E84C0000B63C00002E3A0000A7
:10019800B23A0000363C0000F24C00000046000075
:1001A800F64C0000F84C0000FA4C000080460000B5
:1001B800FE4C0000004D0000024D0000044D000000
:1001C800064D0000084D00000A4D00000C4D0000CF
:1001D8000000000000000000000000000000000017
:1001E8000000000000000000000000000000000007
:0801F8000000000000000000FF
:100200003D432A876373C3029377F700BDEFADE5E3
:10021000937606FF3D8ABA960CC34CC30CC74CC7F5
:100220004107E36BD7FE11E28280B306C3408A0622
:100230009702000096966780A6002307B700A306E2
:10024000B7002306B700A305B7002305B700A30432
:10025000B7002304B700A303B7002303B700A3022A
:10026000B7002302B700A301B7002301B700A30022
:10027000B7002300B700828093F5F50F93968500B1
:10028000D58D93960501D58D61B79396270097027A
:10029000000096968682E78086FA9680C1171D8FA9
:1002A0003E96E374C3F8A5B7011122CE00102326B1
:1002B000A4FE2324B4FE37F600E04C4237F600E0FB
:1002C000F9994CC20326C4FEB2860147032684FE78
:1002D000B287014837F600E03305F702B305D802CC
:1002E000AA953385F602B3B3F6022A83B387750065
:1002F000BE8323286600232A7600B7F700E09843E0
:10030000B7F700E01367070198C3B7F700E0984319
:10031000B7F700E01367170298C30100B7F700E0D2
:10032000DC4313F717008547E31AF7FEB7F700E041
:100330009843B7F700E0799B98C3010072440561C8
:100340008280797106D622D40018232EA4FC232C97
:10035000B4FC8327C4FD93B7070493F7F70F3E87D8
:1003600013067003D967938507E13A85EF20207063
:10037000832784FD93B7470093F7F70F3E87130653
:100380008003D967938507E13A85EF20406EA30784
:1003900004FE0327C4FDA167BA971397270083279C
:1003A00084FDBA97AA072324F4FE231604FE35A081
:1003B0000357C4FE832784FEBA979843B7E739E30F
:1003C000938797336306F7008547A307F4FE21A8B8
:1003D0008357C4FE91072316F4FE0357C4FE930708
:1003E000F03FE3F7E7FC8347F4FE3E85B25022542A
:1003F00045618280797106D622D40018232EA4FC90
:10040000232CB4FC8327C4FD93B7070493F7F70F9D
:100410003E8713064005D967938507E13A85EF20AB
:100420000065832784FD93B7470093F7F70F3E8756
:1004300013065005D967938507E13A85EF202063BD
:10044000A30704FE0327C4FDA167BA9713972700EB
:10045000832784FDBA97AA072324F4FEEF40301BBC
:1004600013054003EF407031032584FEEF40B01EBA
:100470002A87B707002023A4E72613050002EF40D0
:10048000D02FEF40701BB707002003A787269147A6
:100490006305F7008547A307F4FE8347F4FE3E8516
:1004A000B250225445618280797106D622D4001858
:1004B000232EA4FC232CB4FC8327C4FD93B707048C
:1004C00093F7F70F3E871306800BD967938507E1F3
:1004D0003A85EF20C059832784FD93B7470093F7EF
:1004E000F70F3E871306900BD967938507E13A858E
:1004F000EF20E0570327C4FDA167BA9713972700A1
:10050000832784FDBA97AA072324F4FE231704FE49
:100510003DA08357E4FE8A073E87832784FEBA976F
:100520008356E4FE9843B70700208A069387473B2B
:10053000B69798C38357E4FE85072317F4FE035745
:10054000E4FE9307F00FE3F6E7FC0100B2502254FB
:1005500045618280797106D622D40018232EA4FC2E
:10056000232CB4FC8327C4FD93B7070493F7F70F3C
:100570003E871306D00CD967938507E13A85EF20B3
:10058000004F832784FD93B7470093F7F70F3E870B
:100590001306E00CD967938507E13A85EF20204DDB
:1005A000A30704FE232404FE231304FE0327C4FD33
:1005B000A167BA9713972700832784FDBA97AA07E4
:1005C0002324F4FE832584FD0325C4FD9D3BAA87D7
:1005D00091C7832584FD0325C4FD293DEF403003E9
:1005E00089A8035764FEB70700200A079387473B93
:1005F000BA979C43BE85032584FEEF40300D2A87C1
:10060000B707002023A6E726B707002003A7C726C1
:1006100091476306F7008547A307F4FE0DA08357B3
:1006200064FE85072313F4FE832784FE91072324A9
:10063000F4FE035764FE9307F00FE3F4E7FAEF408C
:10064000A07F8347F4FE3E85B250225445618280EC
:10065000411106C622C40008130600409305F00F9E
:10066000B70700201385473B613E0100B24022449A
:1006700041018280011122CE00102326A4FE83278F
:10068000C4FE958313F77700B70700200A07938706
:100690000700BA979C439C470327C4FE7D8B854681
:1006A0003397E600F98FB337F00093F7F70F3E85E5
:1006B000724405618280797106D622D40018232EF7
:1006C000A4FC232CB4FCB2872328D4FCA30BF4FC99
:1006D000232004FE232204FE232404FE8327C4FDDA
:1006E000958393F7F70F9D8BA307F4FE8327C4FD33
:1006F00093F7F70FFD8B2307F4FE8347F4FE91E792
:1007000085451145EF50000391A80347F4FE854746
:100710006317F70085452145EF50C00181A00347CD
:10072000F4FE89476317F70085454145EF50800087
:1007300035A00347F4FE8D476318F7008545130580
:100740000002EF40307F19A80347F4FE914763177A
:10075000F700854513050004EF40D07D8347E4FE94
:100760000547B317F700C207C1832310F4FE032720
:1007700084FD85476317F702832704FDC207C18301
:10078000A183C207C18389E78D472322F4FE11A804
:10079000832704FDC207C183A183C207C18323222B
:1007A000F4FE832704FDC207C18393F7F70F2324C8
:1007B000F4FE0347F4FEB70700200A0793870700FB
:1007C000BA979C43130704FEBA853E85EF40900715
:1007D000032784FD85476319F7020347F4FEB70733
:1007E00000200A0793870700BA9794438347E4FEE3
:1007F0000547B317F700C207C183034774FD3A8664
:10080000BE853685EF40B0260100B25022544561C6
:1008100082805D7186C6A2C48008232EA4FAD9679F
:1008200003AE07E7138707E703234700138707E7AC
:1008300083288700138707E70328C700138707E784
:10084000084B138707E74C4B138707E7104F1387B5
:1008500007E7544F138707E71853938707E7DC53DD
:100860002324C4FD232664FC232814FD232A04FD2D
:10087000232CA4FC232EB4FC2320C4FE2322D4FE6C
:100880002324E4FE2326F4FE8327C4FB8A071307F0
:1008900004FFBA9783A787FD3E85EF2030630100F0
:1008A000B6402644616182805D7186C6A2C480081C
:1008B000232EA4FAD96703AE07E7138707E70323BC
:1008C0004700138707E783288700138707E7032874
:1008D000C700138707E7084B138707E74C4B1387BD
:1008E00007E7104F138707E7544F138707E718539D
:1008F000938707E7DC532324C4FD232664FC2328C5
:1009000014FD232A04FD232CA4FC232EB4FC232055
:10091000C4FE2322D4FE2324E4FE2326F4FE8327F0
:10092000C4FB8A07130704FFBA9783A787FD3E8598
:10093000EF20905B0100B6402644616182801D710A
:1009400086CEA2CC80102326A4FA2324B4FA8545AF
:100950000325C4FAEF00F037AA873E871306D006B6
:10096000D967938587E93A85EF206010832784FA59
:10097000B337F00093F7F70F3E871306F006D967F9
:10098000938587E93A85EF20800E832784FABD831B
:100990002315F4FE8357A4FE85073E87832784FA38
:1009A000B3D7E7022314F4FE0325C4FAEF00D038CE
:1009B000B7370140938707C02326F4FE0327C4FA04
:1009C000A54763ECE7088327C4FA13972700D96784
:1009D00093878753BA979C438287B73701409387A1
:1009E00007C02326F4FE95A8B70700402326F4FE8F
:1009F000ADA0B7070040938707402326F4FEB1A8B7
:100A0000B7170040938707802326F4FEB9A0B717D5
:100A10000040938707C02326F4FE81A0B71700404B
:100A20002326F4FE1DA8B71700409387074023260E
:100A3000F4FE25A0B7370140938707402326F4FE34
:100A400029A8B7570140938707C02326F4FE31A099
:100A5000B75701402326F4FE0100232E04FC232077
:100A600004FE231204FE835784FE2310F4FE8357F2
:100A7000A4FE231EF4FC231104FE231F04FC230206
:100A800004FE9307C4FDBE850325C4FEEF409078A5
:100A9000054685450325C4FEEF50300885450325EE
:100AA000C4FEEF50903ED96703AE07E7138707E710
:100AB00003234700138707E783288700138707E787
:100AC0000328C700138707E7084B138707E74C4B3A
:100AD000138707E7104F138707E7544F138707E77C
:100AE0001853938707E7DC53232AC4FB232C64FAAB
:100AF000232E14FB232004FD2322A4FC2324B4FC76
:100B00002326C4FC2328D4FC232AE4FC232CF4FC55
:100B10008327C4FA93F7F70F8A07130704FFBA97DE
:100B200083A747FC8D453E85EF20D03D8327C4FA3F
:100B30008A07130704FFBA9783A747FC3E85EF2077
:100B4000F03885450325C4FEEF50A0710100F64042
:100B5000664425618280797106D622D40018232E3E
:100B6000A4FC232CB4FC032784FD896793871771A9
:100B7000B337F70093F7F70F3E8713065003D96793
:100B8000938547EF3A85EF10906EB7370140938712
:100B900007C02326F4FE8327C4FDC183BD8B2547F0
:100BA000636EF70613972700D96793870756BA979E
:100BB0009C438287B7370140938707C02326F4FE02
:100BC000B1A8B70700402326F4FE89A8B707004064
:100BD000938707402326F4FE91A0B7170040938720
:100BE00007802326F4FE1DA8B7170040938707C08F
:100BF0002326F4FE25A0B73701409387074023261C
:100C0000F4FE29A8B7570140938707C02326F4FEB6
:100C100031A0B75701402326F4FE01008327C4FE0C
:100C200083D7C7022315F4FE0357A4FE832784FD50
:100C30003307F702896793870771B357F7022314C5
:100C4000F4FE8327C4FDA1838D8B81EB8327C4FE33
:100C5000035784FE239AE702A9A88327C4FDA18332
:100C600013F7370085476319F7008327C4FE03573E
:100C700084FE239CE70235A88327C4FDA18313F7D4
:100C8000370089476319F7008327C4FE035784FEA2
:100C9000239EE70239A88327C4FDA18313F73700F9
:100CA0008D476318F7008327C4FE035784FE239003
:100CB000E7040100B2502254456182805D7186C60E
:100CC000A2C48008232EA4FA232CB4FA232AC4FA3F
:100CD0008327C4FBC1838D453E85EF00807FAA87B3
:100CE0003E871306D00AD967938547EF3A85EF1000
:100CF0001058032744FB896793871771B337F700B0
:100D000093F7F70F3E871306F00AD967938547EFED
:100D10003A85EF10D055232E04FC232004FE231225
:100D200004FE232604FC232804FC232A04FC232C91
:100D300004FC231504FE8327C4FBC183BD8B3E85C1
:100D4000EF00807F8327C4FB93F7F70F9306803172
:100D5000014685453E85853285450545EF40901D18
:100D6000B7370140938707C02326F4FE8327C4FBCF
:100D7000C183BD8B2547636EF70613972700D9679C
:100D800093878758BA979C438287B73701409387E8
:100D900007C02326F4FEB1A8B70700402326F4FEBF
:100DA00089A8B7070040938707402326F4FE91A047
:100DB000B7170040938707802326F4FE1DA8B717B6
:100DC0000040938707C02326F4FE25A0B7370140D3
:100DD000938707402326F4FE29A8B757014093873D
:100DE00007C02326F4FE31A0B75701402326F4FEA6
:100DF00001008327C4FB13D7C7008D47631AF70090
:100E00008545B70716001385070CEF40C04915AAA2
:100E10008327C4FB13D7C700C547631AF70085456E
:100E2000B707180013850710EF40E04719AA83277A
:100E3000C4FB13D7C700C947631AF7008545B70736
:100E4000180013850720EF400046E5A88327C4FB60
:100E500013D7C700CD47631AF7008545B7071800B9
:100E600013850730EF402044E9A88327C4FB13D73C
:100E7000C70093072002631AF7008545B7171A00C9
:100E800013850780EF4020426DA88327C4FB13D74A
:100E9000C70093073002631AF7008545B7171A0099
:100EA000138507C0EF40204069A88327C4FB13D7F0
:100EB000C700930710036317F70085450565EF40EA
:100EC000803E41A08327C4FB13D7C70093071007B8
:100ED000631AF7008545B707008013854700EF4088
:100EE000803C85A08327C4FB13D7C7009307300835
:100EF000631AF7008545B707138013850701EF4094
:100F0000803A81A08327C4FB13D7C7009307100939
:100F1000631AF7008545B707158013850702EF4070
:100F2000803805A08327C4FB13D7C7009307300977
:100F30006319F7008545B707158013850704EF404F
:100F4000803603A74181832784FBB357F702C1830F
:100F50002315F4FE03A741818357A4FE8507BE86AF
:100F6000832784FBB387F602B357F7022314F4FEFA
:100F7000035784FE832744FB3307F702896793876F
:100F80000771B357F7022313F4FE835784FEFD174E
:100F9000C207C1832310F4FE8357A4FE231EF4FC72
:100FA000231104FE231F04FC230204FE9307C4FD47
:100FB000BE850325C4FEEF40F025930700072316E6
:100FC000F4FC85472317F4FC231804FC835764FEC4
:100FD0002319F4FC8947231AF4FC8947231BF4FCEA
:100FE000231C04FC231D04FC8327C4FBA1838D8BDD
:100FF0009DE39307C4FCBE850325C4FEEF40703912
:10100000A1450325C4FEEF50403891450325C4FE99
:10101000EF50604C45A08327C4FBA18313F7370032
:1010200085476315F7029307C4FCBE850325C4FEFC
:10103000EF40F04FA1450325C4FEEF50C0399305A2
:1010400000400325C4FEEF50C04DADA08327C4FB74
:10105000A18313F7370089476314F7029307C4FC91
:10106000BE850325C4FEEF40B06AA1450325C4FE3A
:10107000EF50003C91450325C4FEEF50E04F1DA802
:101080008327C4FBA18313F737008D476314F7024E
:101090009307C4FCBE850325C4FEEF502005A1457F
:1010A0000325C4FEEF50803D930500400325C4FE98
:1010B000EF50405185450325C4FEEF500020854583
:1010C0000325C4FEEF50E0190100B64026446161DB
:1010D0008280011122CE00102326A4FEAE87A30534
:1010E000F4FED9670327C4FE0A079387075BBA9704
:1010F0009C433E878347B4FEC207C1832316F70093
:101100000100D9670327C4FE0A079387075BBA97D4
:101110009C4383D78700C207C18393F70708F5F381
:10112000D9670327C4FE0A079387075BBA979C43D6
:1011300083D7C7000100724405618280011122CE6D
:1011400000102326A4FEAE872315F4FE8357A4FEC9
:10115000A183C207C18393F6F70FD9670327C4FEA3
:101160000A079387075BBA979C433E8793970601CC
:10117000C1832316F7000100D9670327C4FE0A07BD
:101180009387075BBA979C4383D78700C207C183C5
:1011900093F70708F5F38357A4FE93F6F70FD96783
:1011A0000327C4FE0A079387075BBA979C433E87D1
:1011B00093970601C1832316F7000100D96703271F
:1011C000C4FE0A079387075BBA979C4383D78700BF
:1011D000C207C18393F70708F5F301007244056164
:1011E00082805D7186C6A2C480082326A4FC2324C5
:1011F000B4FC2322C4FC2320D4FC232EE4FA232CA9
:10120000F4FA232A04FBD9670327C4FC0A0793874F
:10121000075BBA979C433E85EF4040638545054593
:10122000EF404051032704FC930730126313F70289
:10123000032784FB93074012631DF7000327C4FBB9
:10124000930750126317F70085450545EF40A00549
:101250001DA8032704FC89679387A7146315F70269
:10126000032784FB89679387B714631EF70003275E
:10127000C4FB89679387C7146317F7008545371543
:101280002000EF4040028327C4FC91E785450565B7
:10129000EF40404A25A00327C4FC85476317F700A9
:1012A00085451165EF40604D11A80327C4FC8947AF
:1012B0006316F70085452165EF40204C832704FC29
:1012C00093F7F70F93068031054685453E85EFF08D
:1012D0008FBE8327C4FB93F7F70F93068031054633
:1012E00085453E85EFF02FBD032784FBC167F917C5
:1012F000630DF700832784FB93F7F70F9306803481
:10130000054681453E85EFF00FBB032744FB93075D
:10131000F00F630DF700832744FB93F7F70F930655
:101320000031014685453E85EFF0EFB8232E04FCE1
:10133000232004FE232204FE232404FE231604FE9D
:10134000231E04FC93074010231FF4FC231004FE0B
:10135000032784FC85476305F702832784FC81CF3C
:10136000032784FC89476303F702032784FC8D4726
:101370006304F7020DA8231104FE231204FE25A026
:10138000231104FE85472312F4FE31A88947231157
:10139000F4FE231204FE01A889472311F4FE8547B9
:1013A0002312F4FE0100231704FE03A741818327C3
:1013B00044FCB357F7022317F4FE03A741818327A8
:1013C00044FCB377F70291E78357E4FEFD17231738
:1013D000F4FE0357E4FE9307F00763F7E700930773
:1013E00080032317F4FE49A80357E4FE9307F00394
:1013F00063F7E700930700032317F4FEB5A803572C
:10140000E4FEFD4763F7E700930780022317F4FE2D
:10141000A5A00357E4FEBD4763F7E700930700026A
:101420002317F4FE91A80357E4FE9D4763F6E700F7
:10143000E1472317F4FE89A00357E4FE8D4763F6C6
:10144000E700C1472317F4FE05A80357E4FE8547CC
:1014500063F6E700A1472317F4FE39A88357E4FE9B
:1014600081C7231704FE09A813067021D967938545
:1014700007F50145EF10A05F8357E4FE2314F4FE47
:10148000930700202313F4FE231504FE9D47231623
:10149000F4FED9670327C4FC0A079387075BBA9752
:1014A0009C433E879307C4FDBE853A85EF4060416B
:1014B000D9670327C4FC0A079387075BBA979C4345
:1014C00085453E85EF40604F0100B640264461618E
:1014D0008280797122D60018232EA4FC232CB4FC20
:1014E0008547A307F4FE0327C4FD0A079387C1D4E9
:1014F000BA979C4399EB0327C4FD0A079387C1D48D
:10150000BA97032784FD98C315A00327C4FD0A07D3
:101510009387C1D4BA979C43032784FD6316F700D1
:101520008547A307F4FE19A0A30704FE8347F4FE32
:101530003E85325445618280011106CE22CC0010D6
:101540002326A4FE8327C4FE81EB8545856713858A
:101550000780EF40201E6DA80327C4FE8547631750
:10156000F70085450545EF4040215DA00327C4FEF7
:1015700089476317F70085450945EF40002049A8D2
:101580000327C4FE8D476317F70085451145EF40DB
:10159000C01EBDA80327C4FE91476317F700854509
:1015A0002145EF40801DADA00327C4FE954763177A
:1015B000F70085454145EF40401C99A80327C4FE2C
:1015C00099476318F700854513050002EF40E01ABC
:1015D00081A00327C4FE9D476317F7008545096571
:1015E000EF40401535A00327C4FEA1476318F7005C
:1015F000854537050800EF40E01319A80327C4FE0E
:10160000A5476317F700854537051000EF408012A6
:101610000100F240624405618280797122D600188F
:10162000232EA4FCB7370140938707C02326F4FE7E
:10163000231504FE0327C4FDA54763ECE7088327B1
:10164000C4FD13972700D9679387C75BBA979C435C
:101650008287B7370140938707C02326F4FE95A8F9
:10166000B70700402326F4FEADA0B70700409387DC
:1016700007402326F4FEB1A8B717004093870780E0
:101680002326F4FEB9A0B7170040938707C023268E
:10169000F4FE81A0B71700402326F4FE1DA8B7175B
:1016A0000040938707402326F4FE25A0B73701406A
:1016B000938707402326F4FE29A8B7570140938754
:1016C00007C02326F4FE31A0B75701402326F4FEBD
:1016D00001000327C4FD0A07938741D7BA979843AF
:1016E0008947631FF7008327C4FE83D747021397F8
:1016F000070141838D47B357F7022315F4FE39A044
:101700008327C4FE83D747022315F4FE8357A4FE24
:101710003E85325445618280797122D60018232E8D
:10172000A4FCB7370140938707C02326F4FE0327A4
:10173000C4FDA54763ECE7088327C4FD1397270082
:10174000D9679387475EBA979C438287B737014032
:10175000938707C02326F4FE95A8B70700402326E9
:10176000F4FEADA0B7070040938707402326F4FEA0
:10177000B1A8B7170040938707802326F4FEB9A0CD
:10178000B7170040938707C02326F4FE81A0B71740
:1017900000402326F4FE1DA8B7170040938707409A
:1017A0002326F4FE25A0B737014093870740232660
:1017B000F4FE29A8B7570140938707C02326F4FEFB
:1017C00031A0B75701402326F4FE01008327C4FE51
:1017D000239207020100325445618280011122CE1A
:1017E00000102326A4FEAE87A305F4FE0100D967EE
:1017F0000327C4FE0A079387C760BA979C4383D721
:101800000700C207C18393F70708F5D3D9670327F9
:10181000C4FE0A079387C760BA979C433E878347F5
:10182000B4FEC207C1832312F700010072440561B0
:101830008280011106CE22CC00102326A4FE232490
:10184000B4FE2322C4FE832784FEB337F00093F74F
:10185000F70F3E8713061004D9679385C7FA3A85B8
:10186000EF10E02029A8832784FE13871700232484
:10187000E4FE83C70700BE850325C4FE85378327A2
:1018800044FE1387F7FF2322E4FEF1FF0100F2403C
:10189000624405618280011106CE22CC001023260D
:1018A000A4FE2324B4FE832784FEB337F00093F70D
:1018B000F70F3E8713060005D9679385C7FA3A8567
:1018C000EF10E01A39A8832784FE1387170023241A
:1018D000E4FE8387070093F7F70FBE850325C4FE58
:1018E000F53D832784FE83870700F1FF0100F24066
:1018F000624405618280011106CE22CC00102326AD
:10190000A4FEAE87A305F4FED9670327C4FE0A0729
:101910009387C760BA979C433E878347B4FE3E8651
:10192000930550523A85EF50600213870186832752
:10193000C4FEBA9783C7070081453E85EF10905CCF
:101940008347B4FE81CF138701868327C4FEBA97ED
:1019500083C707003E85EF10705719A813870186CB
:101960008327C4FEBA9783C707003E85EF10D05780
:101970000100F240624405618280011122CE001014
:101980002326A4FE2324B4FED9670327C4FE0A0736
:101990009387C760BA979C4383D70700C207C18368
:1019A00093F707028DC7D9670327C4FE0A079387F9
:1019B000C760BA979C4383D74700C207C18313F718
:1019C000F70F832784FE2380E700854711A0814716
:1019D0003E85724405618280797106D622D4001852
:1019E000232EA4FC232CB4FC232AC4FC2328D4FCDF
:1019F000032744FD832704FD3D8F8327C4FDB207E1
:101A0000F98F93B7170093F7F70F3E871306A00AD5
:101A1000D9679385C7FA3A85EF106005832744FD9F
:101A200013D78700832704FDA183B307F74093B73B
:101A3000170093F7F70F3E871306B00AD96793850F
:101A4000C7FA3A85EF10A002832744FD93F7F70FFA
:101A5000E146014685453E85EFE0FFC5832704FD4D
:101A600093F7F70F93068004014681453E85EFE02A
:101A70009FC485450545EF30F04B032744FDC16702
:101A8000FD17F98F0D67130707386385E7200D678A
:101A9000130707386369F70405671307571663814F
:101AA000E716056713075716636FF7001307F02251
:101AB000638AE70C130760306381E7101307601235
:101AC0006388E70855A6096713078736638AE71610
:101AD0000D67130707126385E71809671307A71433
:101AE0006380E71451A615671307A738638CE726B0
:101AF00015671307A7386362F70211671307873862
:101B0000638EE71E1567130787126383E722116749
:101B100013074712638AE71A81AE19671307C7389C
:101B20006386E72A19671307C7386368F7001967E0
:101B3000130767106382E72605AE1D671307E710DA
:101B40006380E72C1D671307E7386385E72E29AE0E
:101B5000B7070140D44FB7070140370700FC7D1796
:101B6000758FD8CFB7070140D843B70701406D9BA9
:101B7000D8C3B7070140D843B707014013674700F0
:101B8000D8C3DDA4B7070140D44FB70701403707DA
:101B900000FC7D17758FD8CFB7070140D44FB7072A
:101BA000014037070004558FD8CFB7070140D8430D
:101BB000B70701406D9BD8C345ACB7070140D44F70
:101BC000B7070140370700FC7D17758FD8CFB707DF
:101BD0000140D44FB707014037070004558FD8CFD5
:101BE000B7070140D843B70701406D9BD8C3B7077B
:101BF0000140D843B707014013674700D8C3ADA4DD
:101C0000B7070140D843B70701405D9BD8C3B7076A
:101C10000140D843B707014013678700D8C3A9A480
:101C2000B7070140D843B70701401D9BD8C3B7078A
:101C30000140D843B707014013678700D8C32DA4DC
:101C4000B7070140D843B70701401D9BD8C3B7076A
:101C50000140D843B707014013678701D8C329A4BF
:101C6000B7070140D44FB70701403707FDFF7D1785
:101C7000758FD8CFB7070140D44F832744FDA18388
:101C800013970701B70703007D8FB7070140558FF2
:101C9000D8CFD9AAB7070140D44FB70701403707BB
:101CA000FDFF7D17758FD8CFB7070140D44F83272D
:101CB00044FDA18313970701B70703007D8FB70782
:101CC0000140558FD8CF4DA2B7070140D44FB70779
:101CD00001403707F4FF7D17758FD8CFB707014054
:101CE000D44F832744FDA18313972701B7070C0026
:101CF0007D8FB7070140558FD8CFBDA2B7070140F0
:101D0000D44FB70701403707F4FF7D17758FD8CF41
:101D1000B7070140D44F832744FDA18313972701C0
:101D2000B7070C007D8FB7070140558FD8CF2DAA7C
:101D3000B7070140D44FB70701403707D0FF7D17E1
:101D4000758FD8CFB7070140D44F832744FDA183B7
:101D500013974701B70730007D8FB7070140558FB4
:101D6000D8CF19A2B7070140D44FB70701403707B2
:101D7000D0FF7D17758FD8CFB7070140D44F832789
:101D800044FDA18313974701B70730007D8FB70744
:101D90000140558FD8CFC9A8B7070140D44FB70726
:101DA0000140370740FF7D17758FD8CFB707014037
:101DB000D44F832744FDA18313976701B707C00061
:101DC0007D8FB7070140558FD8CF79A8B70701405D
:101DD000D44FB7070140370740FF7D17758FD8CF25
:101DE000B7070140D44F832744FDA18313976701B0
:101DF000B707C0007D8FB7070140558FD8CFADA082
:101E0000B7070140D44FB7070140370700FD7D17E2
:101E1000758FD8CFB7070140D44F832744FDA183E6
:101E200013978701B70700037D8FB7070140558FD0
:101E3000D8CF1DA8B7070140D44FB70701403707D7
:101E400000FD7D17758FD8CFB7070140D44F83278A
:101E500044FDA18313978701B70700037D8FB70760
:101E60000140558FD8CF01008327C4FD91E78545F8
:101E70001165EF30300C69A80327C4FD854763184E
:101E8000F700854537050200EF30300F51A00327DA
:101E9000C4FD89476318F700854537050400EF3016
:101EA000D00DBDA00327C4FD8D476318F7008545FD
:101EB00037050800EF30700CA1A80327C4FD914737
:101EC0006318F700854537051000EF30100B89A027
:101ED0000327C4FD95476318F700854513050004E3
:101EE000EF30B00935A00327C4FD99476318F70008
:101EF000854513050008EF30500819A80327C4FDD5
:101F00009D476317F700854513050010EF30F00675
:101F1000232004FE232204FE232404FE232604FEA1
:101F2000832784FD2320F4FE231204FE231304FEE2
:101F3000231404FE231604FEB1472315F4FED967CB
:101F40000327C4FD0A079387C760BA979C433E875F
:101F5000930704FEBE853A85EF400076D9670327D4
:101F6000C4FD0A079387C760BA979C4385453E85A1
:101F7000EF40D0170100B2502254456182804111D8
:101F800006C622C4000883A741870547638BE70084
:101F90006388070C0947638DE7000D47638FE702ED
:101FA000E9A083A701871387170023A8E18675A8F6
:101FB00083A701871387170023A8E18603A701875A
:101FC000A54763F1E70AB7070020938707009C4BFA
:101FD0001167D8CB23A8018671A003A78187854705
:101FE0006314F7081305F008EFE0CFE8AA87ADC344
:101FF0001945EFF08FE2AA873E8783A701871D8FDF
:102000009307600963F2E7061945EFF0EFF083A745
:102010000187D3F717D05385F720EF002137D96711
:1020200003A6870083A6C700EFE0B07BAA872E88AF
:102030003E85C285EF00411EAA87139707014183A1
:10204000B70700202398E726094723ACE18629A893
:102050001945EFF08FDCAA873E8723A8E18629A0E7
:10206000010021A0010011A001000100B2402244A2
:1020700041018280411106C622C4000883A741871E
:102080000947637CF7000D47639AE7001945EFF0B5
:10209000AFE8054723ACE18611A001000100B24082
:1020A000224441018280011106CE22CC001083C758
:1020B000D187638A070E09A8930734FE0546BE85BB
:1020C0001385C1D9EF007051930734FEBE851D45BD
:1020D000EFF0BF8AAA87EDF3034734FEA9476314E4
:1020E000F70C99472322F4FE130744FE930784FE5E
:1020F00085463A86BE851385C1D9EF00907D93074A
:1021000084FE138737000D46D967938507013A850A
:10211000EF106124AA879DEB03A741888947630DCF
:10212000F706054723A2E1881385C1D9EF00D04601
:10213000AA872322F4FE930744FE81463E869385B8
:1021400081E31385C1D9EF00D078B9A0930784FE4D
:10215000138737000D46D967938547013A85EF10FD
:10216000811FAA8795EB03A7018889476306F702B9
:10217000054723A0E1881385C1D9EF00F041AA8764
:102180002322F4FE930744FE81463E86938581DB3D
:102190001385C1D9EF00F0731385C1D9EF00F02F7B
:1021A0000547238EE1860100F2406244056182808A
:1021B000411122C6000801003244410182804111D0
:1021C00022C60008B71702409843B71702401367AA
:1021D000170098C3B7170240D443B7170240370718
:1021E000FFF8758FD8C3B71702409443B717024062
:1021F0003707F7FE7D17758F98C3B71702409443D2
:10220000B71702403707FCFF7D17758F98C3B717C4
:102210000240D443B7170240370781FF7D17758FFF
:10222000D8C3B717024037079F0098C70100324450
:1022300041018280797122D60018232EA4FC232626
:1022400004FE232404FEB71702409443B71702404C
:102250004167558F98C3B71702409843B7070200EC
:10226000F98F2324F4FE8327C4FE85072326F4FE7A
:10227000832784FE91E70327C4FE8567E31DF7FCEF
:10228000B71702409843B7070200F98F89C78547FF
:102290002324F4FE19A0232404FE032784FE85478B
:1022A0006312F71637170240B71702405843D8C3D6
:1022B00037170240B71702405843D8C337170240B8
:1022C000B71702405843D8C3B7170240D443B717D3
:1022D00002403707C1FF7D17758FD8C30327C4FDA0
:1022E000B747950893870740631BF700B71702406D
:1022F000D443B71702404167558FD8C355A8032769
:10230000C4FDB7172707938707E0631CF700B717CB
:102310000240D443B717024037073900558FD8C35E
:1023200041A80327C4FDB7E7B80593870780631C5E
:10233000F700B7170240D443B71702403707290008
:10234000558FD8C3B5A00327C4FDB7A74A04938708
:102350000720631CF700B7170240D443B7170240A9
:1023600037071D00558FD8C3A1A00327C4FDB77739
:10237000DC02938707C0631CF700B7170240D44301
:10238000B717024037071100558FD8C315A0032790
:10239000C4FDB7376E0193870760631BF700B7175B
:1023A0000240D443B717024037070500558FD8C302
:1023B000B71702409443B717024037070001558F03
:1023C00098C30100B71702409843B7070002F98F7E
:1023D000F5DBB7170240D843B7170240719BD8C34B
:1023E000B7170240D843B717024013672700D8C376
:1023F0000100B7170240DC4313F7C700A147E31AF7
:10240000F7FE11A001A0325445618280011106CE71
:1024100022CC00102326A4FE0327C4FE23AAE180B9
:10242000793B0325C4FE3935EF10E0350100F24059
:10243000624405618280411122C60008010001004A
:10244000324441018280011106CE22CC00102326A5
:1024500004FE232404FE232604FE25A0232404FED8
:1024600039A0D13F832784FE85072324F4FE032768
:1024700084FEC167E367F7FE8327C4FE8507232632
:10248000F4FE0327C4FE9307F00FE3F9E7FC010015
:10249000F240624405618280411122C600080100B9
:1024A000324441018280011106CE22CC0010232645
:1024B000A4FE8325C4FE0945EFF0EFBD0100F24004
:1024C000624405618280130101D923261126232449
:1024D000812623229126801C232EA4D8232CB4D815
:1024E000232AC4D82328D4D8231504FE231404FE99
:1024F000231304FE231204FE231104FE032584D9B2
:10250000EF005164AA87C207C1872313F4FE83D763
:1025100081EB89C7938781EB9C4B829783C7818826
:1025200093F7F70F638D074A83D781EB63870744DF
:10253000938781EBD447835724FE13970701418784
:1025400093170701C1838507C207C183C207C187EB
:102550002311F4FE93170701C1830326C4D9BE8556
:1025600001458296832784D92326F4FE032584D946
:10257000EF00515DAA87C207C1872313F4FE93873A
:1025800081EB83D727003E87938781EB83C7670062
:10259000B347F702C207C1872312F4FE0100832765
:1025A000C4FE138717002326E4FE83870700E5FB9C
:1025B000231404FEA1A88327C4FEFD172326F4FEDE
:1025C0008327C4FE038707009307F002630AF7001E
:1025D0008327C4FE038707009307C005631BF7002A
:1025E000835784FEC207C1838507C207C1832314B2
:1025F000F4FE835764FEC207C187C207C183FD177B
:10260000C207C183C207C1872313F4FE835784FE28
:10261000139707014183854763E8E700835764FE0A
:10262000C207C187E3D907F8835764FEC207C18791
:1026300063C207028327C4FE85072326F4FE13071F
:1026400004EE0326C4FED967938507103A85EF0090
:10265000114B1DA8835784FEC207C18381EF130766
:1026600004EE0326C4FED9679385C7103A85EF00B0
:10267000114919A8130704EE0326C4FED9679385F0
:1026800007103A85EF00B147231504FE21AA231451
:1026900004FE59A0930704EE3E85EF00B14A2A8755
:1026A000835784FEC207C183BE868357A4FEC20738
:1026B000C1833E86835744FEC207C187B307F60233
:1026C000B6976367F706835784FEC207C1833E87C8
:1026D0008357A4FEC207C183BE86835744FEC20748
:1026E000C187B387F602BA97035784FE4207418336
:1026F000BA86130704FFBA97038707EF930704FF0F
:10270000B6972388E7EA835784FEC207C18385070B
:10271000C207C1832314F4FE835784FEC207C1831A
:102720003E87835744FEC207C187E345F7F611A0F1
:102730000100835784FEC207C183130704FFBA97C1
:10274000238807EA938781EB03A8C700938781EB6F
:1027500083C77700139707014183835724FE93961D
:102760000701C18693970601C1838507C207C1830C
:10277000C207C1872311F4FE93970601C183B307F3
:10278000F702C207C183130704EA3A86BE850145F2
:1027900002988357A4FEC207C1838507C207C1837D
:1027A0002315F4FE8357A4FEC207C183BE8493079A
:1027B00004EE3E85EF0011392A87835744FEC20795
:1027C000C187B357F7028507E3E3F4EC130704EE80
:1027D000032644D9D9679385C7113A85EF00313272
:1027E000938781EB03A8C700938781EB83C77700AA
:1027F000139707014183835724FE93960701C186EF
:1028000093970601C1838507C207C183C207C187A9
:102810002311F4FE93970601C183B307F702C207A1
:10282000C183130704EE3A86BE85014502988327CB
:1028300004D96386071A231504FE21AA231404FE73
:1028400059A0032504D9EF00F12F2A87835784FE6E
:10285000C207C183BE868357A4FEC207C1833E86DA
:10286000835744FEC207C187B307F602B697636871
:10287000F706835784FEC207C1833E878357A4FEB1
:10288000C207C183BE86835744FEC207C187B38790
:10289000F602BA973E87832704D9BA97035784FE76
:1028A00042074183BA8603870700930704FFB69760
:1028B0002388E7EA835784FEC207C1838507C207DE
:1028C000C1832314F4FE835784FEC207C1833E876D
:1028D000835744FEC207C187E345F7F611A0010004
:1028E000835784FEC207C183130704FFBA97238866
:1028F00007EA938781EB03A8C700938781EB83C71F
:102900007700139707014183835724FE93960701AD
:10291000C18693970601C1838507C207C183C20799
:10292000C1872311F4FE93970601C183B307F70211
:10293000C207C183130704EA3A86BE85014502989F
:102940008357A4FEC207C1838507C207C18323152D
:10295000F4FE8357A4FEC207C183BE84032504D9B5
:10296000EF00511E2A87835744FEC207C187B35721
:10297000F7028507E3E4F4EC9DA0930704DA13065D
:10298000001081453E85EFD0BF87938781EB9C4740
:102990000325C4D98297832704D999CF130504DA74
:1029A000032704D9832644D9032684D9D96793857C
:1029B0008712EF00D11429A8130704DA832644D91B
:1029C000032684D9D967938547143A85EF003113DC
:1029D000938781EB9847930704DA3E8502970100BD
:1029E0008320C12603248126832441261301012745
:1029F0008280797106D622D40018232EA4FC232CC1
:102A0000B4FC232AC4FC232604FEA9A00100D96734
:102A10009387C7609C47930500043E85EF402002E2
:102A2000AA87F5D7D9679387C7609C47BE86832757
:102A300084FD13871700232CE4FC83870700C2075B
:102A4000C183BE853685EF30B07C8327C4FE850701
:102A50002326F4FE0327C4FE832744FDE348F7FA48
:102A6000832744FD3E85B250225445618280011186
:102A700006CE22CC0010AA872324B4FE2322C4FE53
:102A8000A307F4FE8347F4FEB1E383C7818193F784
:102A9000F70F8DCF83C7918891C301A083C7918819
:102AA000850713F7F70FA384E188EF00304BEFF0B1
:102AB000BF9E8146032644FE832584FED967138585
:102AC000C715EFF05FA0EFF01F98E5B70100F240E7
:102AD000624405618280011122CE00102326A4FEEB
:102AE0008327C4FE239007008327C4FE7D572391CC
:102AF000E7008327C4FE7D572392E7008327C4FEA7
:102B00007D572383E7008327C4FE7D57A383E70017
:102B10008327C4FE23A407008327C4FE23A607003F
:102B20008327C4FE23A80700010072440561828048
:102B3000011122CE00102326A4FE8327C4FE03D752
:102B40000700239CE1EA8327C4FE03D7270093876D
:102B500081EB2391E7008327C4FE03D747009387C7
:102B600081EB2392E7008327C4FE03C767009387A6
:102B700081EB2383E7008327C4FE03C77700938795
:102B800081EBA383E7008327C4FE9847938781EBFB
:102B900098C78327C4FED847938781EBD8C783277C
:102BA000C4FE984B938781EB98CB05472384E1883B
:102BB0000100724405618280797106D622D4001822
:102BC0009307C4FD3E85013FB72700009387674AFE
:102BD0002322F4FE9307C4FD3E85993F89679386BF
:102BE000B70289671386A702F16793850720094515
:102BF000EFE09FDE0100B250225445618280011156
:102C000022CE00102326A4FE2324B4FE8327C4FE74
:102C1000D847832784FE3E978327C4FED8C719A8C8
:102C20008327C4FED8478327C4FE9C4F1D8F83276C
:102C3000C4FED8C78327C4FE984F8327C4FEDC4751
:102C4000E3F0E7FE0100724405618280011122CEAB
:102C500000102326A4FE2324B4FE8327C4FE984B31
:102C6000832784FE3E978327C4FE98CB19A8832729
:102C7000C4FE984B8327C4FE9C4F1D8F8327C4FE40
:102C800098CB8327C4FE984F8327C4FE9C4BE3F068
:102C9000E7FE0100724405618280797106D622D474
:102CA0000018232EA4FC8327C4FDB337F00093F74C
:102CB000F70F3E8713064005D967938587173A8536
:102CC0007D33232604FE8327C4FD83C70700858B3D
:102CD00093F7F70F89C789472326F4FE7DA0832742
:102CE000C4FD83C7070093E7170013F7F70F832787
:102CF000C4FD2380E7008327C4FD23A607008327A4
:102D0000C4FD23A807008327C4FD984F8327C4FD73
:102D1000D8CB8327C4FDDC4305476383E70289C71B
:102D20000947638CE702B9A08327C4FD984783272E
:102D3000C4FD9C4F3E8681453A85EFD06FCC1DA8DF
:102D40008327C4FD98478327C4FD9C4F86073E8692
:102D500081453A85EFD0CFCA31A88327C4FD984773
:102D60008327C4FD9C4F8A073E8681453A85EFD074
:102D70002FC901008327C4FD83C70700F99B13F700
:102D8000F70F8327C4FD2380E7008327C4FE3E8519
:102D9000B250225445618280011106CE22CC00102F
:102DA0002326A4FE8327C4FEB337F00093F7F70F62
:102DB0003E871306C007D967938587173A8545393B
:102DC0008327C4FE984F8327C4FEDC4BB307F7402C
:102DD0003E85F240624405618280797106D622D434
:102DE0000018232EA4FC232CB4FC232AC4FC832724
:102DF000C4FDB337F00093F7F70F3E871306C00BFF
:102E0000D967938587173A859D31232604FE2324AD
:102E100004FE832784FD89E78D472326F4FE5DA405
:102E20008327C4FD83C70700898B93F7F70F89C7F2
:102E300085472326F4FE79A48327C4FD83C70700B2
:102E400093E7270013F7F70F8327C4FD2380E700DC
:102E50008327C4FDDC4B032744FD63E7E724832776
:102E6000C4FD984F8327C4FDDC47B307F7402324F4
:102E7000F4FE032744FD832784FE63FDE7168327C2
:102E8000C4FDDC430547638DE70689C709476385B1
:102E9000E70E09A48327C4FD98478327C4FDDC47B8
:102EA000BA97032684FE832584FD3E85EFF05016F5
:102EB000832584FE0325C4FD99338327C4FD9847E9
:102EC0008327C4FDDC47B306F700032784FD83276F
:102ED00084FEB305F700032744FD832784FEB30770
:102EE000F7403E863685EFF0B012032744FD832776
:102EF00084FEB307F740BE850325C4FD093359AAF4
:102F00008327C4FD98478327C4FDDC4786073E9787
:102F1000832784FE86073E86832584FD3A85EFF06D
:102F2000300F832584FE0325C4FDD1398327C4FDDA
:102F300098478327C4FDDC478607B306F70083273D
:102F400084FE8607032784FDB305F700032744FDAD
:102F5000832784FEB307F74086073E863685EFF069
:102F6000300B032744FD832784FEB307F740BE855B
:102F70000325C4FD693139AA8327C4FD98478327F7
:102F8000C4FDDC478A073E97832784FE8A073E8676
:102F9000832584FD3A85EFF0B007832584FE032561
:102FA000C4FDB1398327C4FD98478327C4FDDC479E
:102FB0008A07B306F700832784FE8A07032784FD68
:102FC000B305F700032744FD832784FEB307F740CA
:102FD0008A073E863685EFF0B003032744FD83273A
:102FE00084FEB307F740BE850325C4FDEFF03FC163
:102FF00001004DA08327C4FDDC430547638CE70235
:1030000089C709476380E70671A08327C4FD9847F5
:103010008327C4FDDC47BA97032644FD832584FD3E
:103020003E85EFF0E07E832544FD0325C4FDEFF0EF
:103030001FBD8DA08327C4FD98478327C4FDDC47AF
:1030400086073E97832744FD86073E86832584FDB9
:103050003A85EFF0E07B832544FD0325C4FDEFF0C6
:103060001FBA0DA88327C4FD98478327C4FDDC47FA
:103070008A073E97832744FD8A073E86832584FD81
:103080003A85EFF0E078832544FD0325C4FDEFF099
:103090001FB701008327C4FDD84B832744FD1D8F34
:1030A0008327C4FDD8CB21A091472326F4FE832794
:1030B000C4FD83C70700F59B13F7F70F8327C4FDF3
:1030C0002380E7008327C4FE3E85B2502254456129
:1030D0008280797106D622D40018232EA4FC232CDA
:1030E000B4FC232AC4FC2328D4FC8327C4FDB337B3
:1030F000F00093F7F70F3E8713067016D967938594
:1031000087173A85EFF0BF96832744FDB337F00069
:1031100093F7F70F3E8713068016D96793858717B5
:103120003A85EFF0DF94232604FE832784FD89E7A8
:103130008D472326F4FEA1AC8327C4FD83C7070077
:1031400093E7470013F7F70F8327C4FD2380E700B9
:103150000325C4FDEFF05FC42324A4FE832744FDB0
:103160009C43032784FE637AF700832744FD0327EB
:1031700084FE98C395472326F4FE8327C4FD984F09
:103180008327C4FD9C4BB307F7402322F4FE83271B
:1031900044FD9C43032744FE6365F7088327C4FD71
:1031A000DC4305476388E70289C709476387E7046B
:1031B000BDA28327C4FD98478327C4FD9C4B3E973F
:1031C000832744FD9C433E86BA85032584FDEFF0AA
:1031D0002064B1A28327C4FD98478327C4FD9C4B7C
:1031E00086073E97832744FD9C4386073E86BA8523
:1031F000032584FDEFF0C0611DA28327C4FD98471D
:103200008327C4FD9C4B8A073E97832744FD9C433C
:103210008A073E86BA85032584FDEFF0605F0100D2
:10322000FDA88327C4FDDC430547638AE70489C7FB
:103230000947638EE708E5A08327C4FD98478327E5
:10324000C4FD9C4BBA97032644FEBE85032584FD2E
:10325000EFF0005C032784FD832744FEB306F700EC
:103260008327C4FD8C47832744FD9843832744FE6E
:10327000B307F7403E863685EFF080594DA083278F
:10328000C4FD98478327C4FD9C4B86073E97832740
:1032900044FE86073E86BA85032584FDEFF040573D
:1032A000832744FE8607032784FDB306F7008327A0
:1032B000C4FD8C47832744FD9843832744FEB3070E
:1032C000F74086073E863685EFF0805489A883272D
:1032D000C4FD98478327C4FD9C4B8A073E978327EC
:1032E00044FE8A073E86BA85032584FDEFF04052EE
:1032F000832744FE8A07032784FDB306F70083274C
:10330000C4FD8C47832744FD9843832744FEB307BD
:10331000F7408A073E863685EFF0804F010083270D
:1033200004FDB5E78327C4FD83C70700858B93F7AA
:10333000F70F89C789472326F4FE91A88327C4FD88
:1033400083C7070093E7170013F7F70F8327C4FD20
:103350002380E700832744FD9C43BE850325C4FDED
:10336000EFF0DF8E8327C4FDD84B832744FD9C43B9
:103370003E978327C4FDD8CB8327C4FD83C70700AE
:10338000F99B13F7F70F8327C4FD2380E7008327FA
:10339000C4FD83C70700918B13F7F70F8327C4FD84
:1033A0002380E7008327C4FE3E85B2502254456146
:1033B0008280597186D6A2D48018232EA4F8272C97
:1033C000A4F8AE87A30BF4F88327C4F9B337F00051
:1033D00093F7F70F3E8713060013D9679385871D70
:1033E0003A85EFF0CFE8232604FE232404FE83472A
:1033F00074F9A303F4FE8327C4F9638607208727A3
:1034000084F9D39707C02326F4FE872784F953074E
:1034100000F0D397E7A081CF8327C4F91387170063
:10342000232EE4F81307D0022380E70099A0872712
:1034300084F9530700F0D3A7E7A085CF8327C4F909
:1034400013871700232EE4F8130700032380E700F7
:103450008327C4F913871700232EE4F81307E0022B
:103460002380E7008327C4F9130700032380E700C4
:1034700061AA8327C4FED3F707D0072784F9D3773F
:10348000F708272CF4F811A8072784F9D96787A72C
:10349000C724D377F710272CF4F8834774FE1387DB
:1034A000F7FFA303E4FEEDF3872784F9D39707C062
:1034B0002324F4FEA30304FE834774FE138717003E
:1034C000A303E4FEBE860327C4FEA9473367F702C1
:1034D00093972600930604FFB69723AAE7FC0327D9
:1034E000C4FEA947B347F7022326F4FE8327C4FE90
:1034F000E1F7A1A0834774FEFD178A07130704FFB5
:10350000BA9783A747FD13D7F741B98F998F93F7E0
:10351000F70F9387070393F6F70F8327C4F91387F1
:103520001700232EE4F81397860161872380E700B4
:10353000834774FEFD17A303F4FE834774FEDDFB8F
:10354000834774F9F1C3A30304FE8327C4F91387E7
:103550001700232EE4F81307E0022380E7008327F7
:1035600084FEB9E78327C4F9130700032380E7002B
:1035700061A8834774FE13871700A303E4FEBE8689
:10358000032784FEA9473367F70293972600930623
:1035900004FFB69723AEE7FA032784FEA947B34793
:1035A000F7022324F4FE834774F9FD17A30BF4F804
:1035B000834774F9DDFFA1A0834774FEFD178A07D6
:1035C000130704FFBA9783A7C7FB13D7F741B98F37
:1035D000998F93F7F70F9387070393F6F70F8327D6
:1035E000C4F913871700232EE4F813978601618727
:1035F0002380E700834774FEFD17A303F4FE83478F
:1036000074FEDDFB11A001000100B6502654656177
:103610008280411122C600089967938787087390BA
:1036200007800100324441018280411122C6000816
:103630009967739007800100324441018280011133
:1036400022CE00102326A4FE8327C4FEFD8B05474F
:10365000B316F70037E700E08327C4FE958393870E
:1036600007048A07BA9794C30100724405618280F7
:10367000011122CE00102326A4FE8327C4FEFD8B59
:103680000547B316F70037E700E08327C4FE9583AC
:10369000938707068A07BA9794C3010072440561AD
:1036A0008280011122CE00102326A4FEAE87A3053E
:1036B000F4FE37E700E08327C4FEBA970347B4FE61
:1036C0002380E7400100724405618280011106CE2B
:1036D00022CC00102326A4FE0325C4FE8D37010052
:1036E000F240624405618280011106CE22CC0010B6
:1036F0002326A4FE0325C4FEA53F0100F240624438
:1037000005618280011106CE22CC00102326A4FE82
:10371000AE87A305F4FE8347B4FEBE850325C4FE31
:1037200049370100F240624405618280011106CEF2
:1037300022CC00102326A4FE8327C4FE99C783A7AA
:10374000C1881387F7FF23A6E18883A7C18891E387
:10375000C9350100F240624405618280411106C60C
:1037600022C4000883A7C18891E3C13583A7C1881B
:103770001387170023A6E18883A7C1883E85B2403E
:10378000224441018280411106C622C4000801453D
:10379000713F0100B2402244410182801D71A2CEDE
:1037A00082E686E48AE28EE012FE16FC1AFA1EF821
:1037B0002AF62EF432F236F03AEE3EEC42EA46E8D1
:1037C00072E676E47AE27EE0801093055052B747C5
:1037D000014013850780EF30E02AAA8789CB930543
:1037E0005052B747014013850780EF30C0390100C0
:1037F00076443660A660166186617272E272527318
:10380000C2733275A275127682767267E267526869
:10381000C268326EA26E126F826F25617300203013
:103820001D71A2CE82E686E48AE28EE012FE16FCCC
:103830001AFA1EF82AF62EF432F236F03AEE3EEC80
:1038400042EA46E872E676E47AE27EE0801093058A
:103850005052B747004013850740EF30A022AA8797
:1038600089CB93055052B747004013850740EF308E
:103870008031010076443660A660166186617272FE
:10388000E2725273C2733275A275127682767267D3
:10389000E2675268C268326EA26E126F826F256153
:1038A000730020301D71A2CE82E686E48AE28EE0AB
:1038B00012FE16FC1AFA1EF82AF62EF432F236F030
:1038C0003AEE3EEC42EA46E872E676E47AE27EE0E0
:1038D000801093055052B757004013850780EF3092
:1038E000601AAA8789CB93055052B75700401385B9
:1038F0000780EF304029010076443660A6601661EB
:1039000086617272E2725273C2733275A275127658
:1039100082767267E2675268C268326EA26E126F78
:10392000826F2561730020301D71A2CE82E686E48D
:103930008AE28EE012FE16FC1AFA1EF82AF62EF41F
:1039400032F236F03AEE3EEC42EA46E872E676E4CF
:103950007AE27EE0801093055052B75700401385FD
:1039600007C0EF302012AA8789CB93055052B75772
:103970000040138507C0EF30002101007644366017
:10398000A660166186617272E2725273C2733275FA
:10399000A275127682767267E2675268C268326EEA
:1039A000A26E126F826F2561730020301D71A2CE4E
:1039B00082E686E48AE28EE012FE16FC1AFA1EF80F
:1039C0002AF62EF432F236F03AEE3EEC42EA46E8BF
:1039D00072E676E47AE27EE0801093055052375525
:1039E0000040EF30200AAA8791CB83A7C18082973D
:1039F0009305505237550040EF30E01801007644EF
:103A00003660A660166186617272E2725273C2738A
:103A10003275A275127682767267E2675268C26862
:103A2000326EA26E126F826F2561730020301D719D
:103A3000A2CE82E686E48AE28EE012FE16FC1AFA34
:103A40001EF82AF62EF432F236F03AEE3EEC42EA56
:103A500046E872E676E47AE27EE080109305505202
:103A6000B727004013850780EF30C001AA8789CBB4
:103A700093055052B727004013850780EF30A01000
:103A8000010076443660A660166186617272E27249
:103A90005273C2733275A275127682767267E267CC
:103AA0005268C268326EA26E126F826F2561730017
:103AB00020305971A2D682EE86EC8AEA8EE892E630
:103AC00096E49AE29EE02AFE2EFC32FA36F83AF6A6
:103AD0003EF442F246F072EE76EC7AEA7EE8801826
:103AE00093055052B7270040138507C0EF20907907
:103AF000AA8763890710A30F04F883C7C193639B48
:103B0000070E9307F4F9BE851945EFD01FE7034769
:103B1000F4F9930750056315F70283C7618913878A
:103B200017009376F70F238BD188BE860347F4F9ED
:103B3000B797002093870708B6972380E70049A826
:103B400003C7618985476314F704B797002003C74B
:103B5000070893075005631CF70283C76189138721
:103B600017009376F70F238BD188BE860347F4F9AD
:103B7000B797002093870708B6972380E70083470D
:103B8000F4F9139707014183239CE18891A083D71F
:103B900081898D0703C7618963CCE702B79700204D
:103BA00003C70708930750056314F70283C76189A9
:103BB000138717009376F70F238BD188BE860347B0
:103BC000F4F9B797002093870708B6972380E7009A
:103BD00083D781898D0703C7618963DDE700238B64
:103BE00001880547238EE192239C01888145194570
:103BF000EFD07FD093055052B7270040138507C000
:103C0000EF207078010036547660E6605661C66138
:103C10003662A662166386637275E2755276C27664
:103C20003277A27712788278726EE26E526FC26F2C
:103C30006561730020301D71A2CE82E686E48AE2BF
:103C40008EE012FE16FC1AFA1EF82AF62EF432F254
:103C500036F03AEE3EEC42EA46E872E676E47AE284
:103C60007EE080109305505237250040EF20906190
:103C7000AA8789CBEFE02FC3930550523725004028
:103C8000EF207070010076443660A6601661866190
:103C90007272E2725273C2733275A27512768276B4
:103CA0007267E2675268C268326EA26E126F826FEC
:103CB0002561730020301D71A2CE82E686E48AE27F
:103CC0008EE012FE16FC1AFA1EF82AF62EF432F2D4
:103CD00036F03AEE3EEC42EA46E872E676E47AE204
:103CE0007EE08010B707055083C7070193F7F70FF1
:103CF000918B8DC383A701818297B707055083C736
:103D0000070113F7F70FB70705506D9B1377F70FF0
:103D10002388E700010076443660A660166186615C
:103D20007272E2725273C2733275A2751276827623
:103D30007267E2675268C268326EA26E126F826F5B
:103D40002561730020301D71A2CE82E686E48AE2EE
:103D50008EE012FE16FC1AFA1EF82AF62EF432F243
:103D600036F03AEE3EEC42EA46E872E676E47AE273
:103D70007EE080100545EF1020022A8785476315F5
:103D8000F7000545EF10A006010076443660A660F6
:103D9000166186617272E2725273C2733275A275D5
:103DA000127682767267E2675268C268326EA26EDD
:103DB000126F826F2561730020301D71A2CE82E6E2
:103DC00086E48AE28EE012FE16FC1AFA1EF82AF643
:103DD0002EF432F236F03AEE3EEC42EA46E872E673
:103DE00076E47AE27EE080100945EF00F07A2A87D7
:103DF00085476315F7000945EF00707F01007644A1
:103E00003660A660166186617272E2725273C27386
:103E10003275A275127682767267E2675268C2685E
:103E2000326EA26E126F826F2561730020301D7199
:103E3000A2CE82E686E48AE28EE012FE16FC1AFA30
:103E40001EF82AF62EF432F236F03AEE3EEC42EA52
:103E500046E872E676E47AE27EE080101145EF00F3
:103E6000B0732A8785476315F7001145EF00307856
:103E7000010076443660A660166186617272E27255
:103E80005273C2733275A275127682767267E267D8
:103E90005268C268326EA26E126F826F2561730023
:103EA00020301D71A2CE82E686E48AE28EE012FE08
:103EB00016FC1AFA1EF82AF62EF432F236F03AEE12
:103EC0003EEC42EA46E872E676E47AE27EE0801072
:103ED0002145EF00706C2A8785476315F70021455F
:103EE000EF00F070010076443660A66016618661CE
:103EF0007272E2725273C2733275A2751276827652
:103F00007267E2675268C268326EA26E126F826F89
:103F10002561730020301D71A2CE82E686E48AE21C
:103F20008EE012FE16FC1AFA1EF82AF62EF432F271
:103F300036F03AEE3EEC42EA46E872E676E47AE2A1
:103F40007EE080104145EF0030652A878547631584
:103F5000F7004145EF00B069010076443660A66085
:103F6000166186617272E2725273C2733275A27503
:103F7000127682767267E2675268C268326EA26E0B
:103F8000126F826F2561730020301D71A2CE82E610
:103F900086E48AE28EE012FE16FC1AFA1EF82AF671
:103FA0002EF432F236F03AEE3EEC42EA46E872E6A1
:103FB00076E47AE27EE0801013050002EF00D05D27
:103FC0002A8785476316F70013050002EF00306269
:103FD00013050004EF00505C2A8785476316F7003D
:103FE00013050004EF00B06013050008EF00D05A7D
:103FF0002A8785476316F70013050008EF00305F36
:1040000013050010EF0050592A8785476316F70003
:1040100013050010EF00B05D13050020EF00D0572E
:104020002A8785476316F70013050020EF00305CF0
:10403000010076443660A660166186617272E27293
:104040005273C2733275A275127682767267E26716
:104050005268C268326EA26E126F826F2561730061
:1040600020301D71A2CE82E686E48AE28EE012FE46
:1040700016FC1AFA1EF82AF62EF432F236F03AEE50
:104080003EEC42EA46E872E676E47AE27EE08010B0
:1040900013050040EF0050502A8785476316F7004C
:1040A00013050040EF00B054856713850780EF00CB
:1040B000B04E2A8785476317F70085671385078009
:1040C000EF00F0520565EF00304D2A8785476315F4
:1040D000F7000565EF00B0510965EF00F04B2A8746
:1040E00085476315F7000965EF0070501165EF0013
:1040F000B04A2A8785476317F700EFD0BFF71165ED
:10410000EF00F04E2165EF0030492A87854763179D
:10411000F700EFD0DFE62165EF00704D0100764437
:104120003660A660166186617272E2725273C27363
:104130003275A275127682767267E2675268C2683B
:10414000326EA26E126F826F2561730020301D7176
:10415000A2CE82E686E48AE28EE012FE16FC1AFA0D
:104160001EF82AF62EF432F236F03AEE3EEC42EA2F
:1041700046E872E676E47AE27EE080108545B7375D
:104180000140138507C0EF204049AA8791CF85459C
:10419000B7370140138507C0EF20204FEF3090392B
:1041A000EF301010EF80E035010076443660A660F5
:1041B000166186617272E2725273C2733275A275B1
:1041C000127682767267E2675268C268326EA26EB9
:1041D000126F826F2561730020301D71A2CE82E6BE
:1041E00086E48AE28EE012FE16FC1AFA1EF82AF61F
:1041F0002EF432F236F03AEE3EEC42EA46E872E64F
:1042000076E47AE27EE08010854537050040EF20B5
:10421000C040AA876382070C854537050040EF2020
:10422000C04603D7018983D721896374F70883D7F0
:104230002189C1C303D721899547631EF70083D71E
:1042400041891387170093160701C182239AD188E9
:104250004D476372F70883D701893E87B7770020FF
:104260000A0793870714BA9783D72700BE85B71725
:1042700003001385C706EF00300383D70189138736
:10428000170093160701C1822398D1883E87B7771C
:1042900000200A0793870714BA9783D70700BE85C3
:1042A000B71703001385E726EF001000239A018853
:1042B00025A00545EFC04FDF239801882399018889
:1042C0008967138607F48145B777002013850714A3
:1042D000EFB01FF311A0010076443660A6601661AE
:1042E00086617272E2725273C2733275A27512766F
:1042F00082767267E2675268C268326EA26E126F8F
:10430000826F2561730020301D71A2CE82E686E4A3
:104310008AE28EE012FE16FC1AFA1EF82AF62EF435
:1043200032F236F03AEE3EEC42EA46E872E676E4E5
:104330007AE27EE080108545B7070040138507408C
:10434000EF20A02DAA8781CB8545B70700401385B4
:104350000740EF208033010076443660A660166186
:1043600086617272E2725273C2733275A2751276EE
:1043700082767267E2675268C268326EA26E126F0E
:10438000826F2561730020301D71A2CE82E686E423
:104390008AE28EE012FE16FC1AFA1EF82AF62EF4B5
:1043A00032F236F03AEE3EEC42EA46E872E676E465
:1043B0007AE27EE080108545B717004013850780BC
:1043C000EF20A025AA8781CB8545B717004013852C
:1043D0000780EF20802B010076443660A6601661CE
:1043E00086617272E2725273C2733275A27512766E
:1043F00082767267E2675268C268326EA26E126F8E
:10440000826F2561730020301D71A2CE82E686E4A2
:104410008AE28EE012FE16FC1AFA1EF82AF62EF434
:1044200032F236F03AEE3EEC42EA46E872E676E4E4
:104430007AE27EE080108545B7170040138507C0FB
:10444000EF20A01DAA8781CB8545B71700401385B3
:1044500007C0EF208023010076443660A660166115
:1044600086617272E2725273C2733275A2751276ED
:1044700082767267E2675268C268326EA26E126F0D
:10448000826F2561730020301D71A2CE82E686E422
:104490008AE28EE012FE16FC1AFA1EF82AF62EF4B4
:1044A00032F236F03AEE3EEC42EA46E872E676E464
:1044B0007AE27EE08010854537150040EF20E01558
:1044C000AA8791C7854537150040EF20001C0100E1
:1044D00076443660A660166186617272E27252732B
:1044E000C2733275A275127682767267E26752687D
:1044F000C268326EA26E126F826F25617300203027
:104500001D71A2CE82E686E48AE28EE012FE16FCDF
:104510001AFA1EF82AF62EF432F236F03AEE3EEC93
:1045200042EA46E872E676E47AE27EE0801085456B
:10453000B717004013850740EF20200EAA8781CBD4
:104540008545B717004013850740EF200014010090
:1045500076443660A660166186617272E2725273AA
:10456000C2733275A275127682767267E2675268FC
:10457000C268326EA26E126F826F256173002030A6
:104580001D71A2CE82E686E48AE28EE012FE16FC5F
:104590001AFA1EF82AF62EF432F236F03AEE3EEC13
:1045A00042EA46E872E676E47AE27EE080108545EB
:1045B000B737014013850740EF202006AA8781CB3B
:1045C0008545B737014013850740EF20000C0100F7
:1045D00076443660A660166186617272E27252732A
:1045E000C2733275A275127682767267E26752687C
:1045F000C268326EA26E126F826F25617300203026
:104600001D71A2CE82E686E48AE28EE012FE16FCDE
:104610001AFA1EF82AF62EF432F236F03AEE3EEC92
:1046200042EA46E872E676E47AE27EE0801085456A
:10463000B7570140138507C0EF10307EAA8781CBA2
:104640008545B7570140138507C0EF2000040100DE
:1046500076443660A660166186617272E2725273A9
:10466000C2733275A275127682767267E2675268FB
:10467000C268326EA26E126F826F256173002030A5
:104680001D71A2CE82E686E48AE28EE012FE16FC5E
:104690001AFA1EF82AF62EF432F236F03AEE3EEC12
:1046A00042EA46E872E676E47AE27EE080108545EA
:1046B00037550140EF107076AA8791C78545375569
:1046C0000140EF10907C010076443660A6601661D0
:1046D00086617272E2725273C2733275A27512767B
:1046E00082767267E2675268C268326EA26E126F9B
:1046F000826F256173002030411122C6000801003D
:104700003244410173002030411122C6000801A04B
:10471000797106D622D400182326A4FEAE8723156D
:10472000F4FE8327C4FE850783C70700A2071397FB
:10473000070141878327C4FE83C70700C207C187DB
:10474000D98F93960701C18613970601418393750C
:10475000F70F03C78193018B3A862E87518F238CE5
:10476000E1921397060141832183131607014182C9
:1047700003C79193018BBA863287558FA38CE19240
:104780008327C4FE8D0783C70700A207139707017D
:1047900041878327C4FE890783C70700C207C187F3
:1047A000D98F93960701C18693878193139706014A
:1047B00041839375F70F03C72700018B3A862E8735
:1047C000518F2381E700139706014183218313163C
:1047D0000701418203C73700018BBA863287558FA4
:1047E000A381E7008327C4FE950783C70700A207BC
:1047F0000327C4FE110703470700D98F9387F7FAF1
:10480000D3F707D0B777002027A8F70E8327C4FE79
:104810009D0783C70700A2070327C4FE19070347A4
:104820000700D98F1307B003B307F740D3F707D0BA
:10483000B77700209387070FDCE38327C4FEA50723
:1048400083C70700A2070327C4FE21070347070009
:10485000D98F9387F7FAD3F707D0B77700209387DC
:10486000070F9CE78327C4FEAD0783C70700A20795
:104870000327C4FE290703470700D98F1307B00396
:10488000B307F740D3F707D0B77700209387070F18
:10489000DCE78327C4FEB50783C70700A207032709
:1048A000C4FE310703470700D98F9387F7FAD3F780
:1048B00007D0B77700209387070F9CEB8327C4FEB0
:1048C000BD0783C70700A2070327C4FE39070347B4
:1048D0000700D98F1307B003B307F740D3F707D00A
:1048E000B77700209387070FDCEB8327C4FEC5074B
:1048F00083C70700A2070327C4FE41070347070039
:10490000D98F9387F7FAD3F707D0B777002093872B
:10491000070F9CEF8327C4FECD0783C70700A207BC
:104920000327C4FE490703470700D98F1307B003C5
:10493000B307F740D3F707D0B77700209387070F67
:10494000DCEF8327C4FE03C74701A38CE18003C7C4
:10495000819383C79193A207D98FC207C187C207EA
:10496000C1873E8E138781930347270093878193E6
:1049700083C73700A207D98FC207C187C207C18783
:10498000BE8E8327C4FE950783C70700A2070327AF
:10499000C4FE110703470700B3E5E7008327C4FE01
:1049A000950783C70700A2070327C4FE1107034723
:1049B000070033E5E7008327C4FEA50783C7070088
:1049C000A2070327C4FE21070347070033E3E700DC
:1049D0008327C4FEAD0783C70700A2070327C4FED1
:1049E00029070347070033E8E7008327C4FEB5071C
:1049F00083C70700A2070327C4FE31070347070048
:104A0000B3E8E7008327C4FEBD0783C70700A207FA
:104A10000327C4FE390703470700D98F0327C4FEC5
:104A200045070347070022078326C4FEC10683C645
:104A30000600558F8326C4FECD0683C60600A20657
:104A40000326C4FE490603460600D18E0326C4FE93
:104A500051060346060032C636C43AC23EC09A87A3
:104A60002A87AE867686F285596513058527EFE09D
:104A7000F0040100B250225445618280011106CE3B
:104A800022CC00102326A4FEAE872315F4FE835704
:104A9000A4FE3E868325C4FE1945EFC09FD90100C0
:104AA000F240624405618280011106CE22CC0010E2
:104AB0002326A4FE2324B4FE032784FE9307F014C8
:104AC00063F7E702032784FE9307804C63EEE70059
:104AD000032584FEEFD03005AA872E883E85C28547
:104AE000EFD08073AA8731A09307804C19A0930759
:104AF000F0142324F4FE832584FE0325C4FEEFC0B6
:104B00008F850100F240624405618280757106C79D
:104B100022C50009B7172707138507E0EFD01F8FBD
:104B2000EFE08F89EF8080770545EF707008996717
:104B30009386D73899671386C738F167938507201E
:104B40001945EFC07FE9930784F72326F4FEB75792
:104B500000001386C7A7B747000093850771032598
:104B6000C4FEEF90807F85451945EFC0DFD803A7CD
:104B700041818967938707F4B357F7029305401F74
:104B80003E85EFB06FF21306603193052003B7172F
:104B900003001385C706EFC06F92130620309305FC
:104BA0002003B71703001385E726EFC02F9103A753
:104BB00041818967938707F4B357F7029305401F34
:104BC0003E85EFB06FEEEF60E03603A741819307BB
:104BD000803E3357F702BA878A07BA978607BE85A1
:104BE0000145EFB0DFD503A741819307803E3357DE
:104BF000F702BA878A07BA978607BE850545EFB0E0
:104C00001FD40545EFB05FCA03C7C1938547631240
:104C1000F70213064006B79700209385070803257F
:104C2000C4FEEF908076238E019285451945EFC032
:104C30009FCC83C7918189CBEF80D001EF80B03CBE
:104C4000AA873E872399E1885145EF7090156DBF83
:104C500001A001A001A001A001A001A001A001A04C
:104C600001A001A001A001A001A001A001A001A03C
:104C700001A001A001A001A001A001A001A001A02C
:104C800001A001A001A001A001A001A001A001A01C
:104C900001A001A001A001A001A001A001A001A00C
:104CA00001A001A001A001A001A001A001A001A0FC
:104CB00001A001A001A001A001A001A001A001A0EC
:104CC00001A001A001A001A001A001A001A001A0DC
:104CD00001A001A001A001A001A001A001A001A0CC
:104CE00001A001A001A001A001A001A001A001A0BC
:104CF00001A001A001A001A001A001A001A001A0AC
:104D000001A001A001A001A001A001A001A097C1E4
:104D1000FF1F9381A1D5173101201301A12E175533
:104D200001001305659597B5FF1F9385A52D138683
:104D3000018763FAC5008322050023A055001105F1
:104D40009105E3EAC5FE1385018797450020938509
:104D5000E5396377B500232005001105E36DB5FE45
:104D6000FD42739002BCFD4273904280B762000026
:104D70009382820873A0023097B2FFFF9382022CC5
:104D800093E232007390523097020000938242D82F
:104D90007390123473002030797122D60018232EBC
:104DA000A4FC232604FE232404FEB70701409387B6
:104DB00007409C430327C4FDF98F2324F4FEB70763
:104DC000014093870740D84B8327C4FDF98F81CBDF
:104DD000832784FE89C785472326F4FE19A023264E
:104DE00004FE8327C4FE3E85325445618280011152
:104DF00022CE00102326A4FEB70701409387074068
:104E00000327C4FED8CB01007244056182804111A2
:104E100022C60008B7270240370767451307371235
:104E2000D8C3B72702403797EFCD1307B79AD8C337
:104E30000100324441018280411122C60008B72797
:104E40000240984BB72702401367070898CB010030
:104E5000324441018280797106D622D40018232E73
:104E6000A4FC91472326F4FE37050B00512223268C
:104E7000A4FE0327C4FE91476313F704B72702403B
:104E8000984BB72702401367270098CBB7270240FB
:104E90000327C4FDD8CBB7270240984BB727024061
:104EA0001367070498CB37050B0099222326A4FE2D
:104EB000B7270240984BB7270240759B98CB8327B2
:104EC000C4FE3E85B250225445618280797106D677
:104ED00022D40018232EA4FC232CB4FC91472326B3
:104EE000F4FE232404FE156521222326A4FE0327B5
:104EF000C4FE9147631CF706B7270240984BB727BB
:104F000002401367170098CB8327C4FD032784FD55
:104F1000420741832390E7001565D9282326A4FE84
:104F20000327C4FE9147631CF7028327C4FD89074A
:104F30002324F4FE832784FDC183032784FEC20754
:104F4000C1832310F700156565202326A4FEB7272B
:104F50000240984BB7270240799B98CB01A8B7270E
:104F60000240984BB7270240799B98CB8327C4FE19
:104F70003E85B250225445618280011122CE00103C
:104F80002326A4FEB72702400327C4FED8C701008A
:104F9000724405618280011122CE001091472326C0
:104FA000F4FEB7270240DC4713F717008547631666
:104FB000F70085472326F4FE35A0B7270240DC47DB
:104FC000918B89C789472326F4FE29A8B727024079
:104FD000DC47C18B89C78D472326F4FE21A091476A
:104FE0002326F4FE8327C4FE3E8572440561828039
:104FF000797106D622D40018232EA4FC91472326CB
:10500000F4FE513F2326A4FE09A871372326A4FEEF
:105010008327C4FDFD17232EF4FC0327C4FE854718
:105020006315F7008327C4FDEDF38327C4FD81E7F3
:1050300095472326F4FE8327C4FE3E85B2502254B2
:1050400045618280397122DE80002326A4FC23245E
:10505000B4FC232604FE232004FE232404FE232E76
:1050600004FC232204FE232C04FC832784FC9C479D
:10507000BD8B2326F4FE832784FC9C47C18B89CB00
:10508000832784FCDC430327C4FED98F2326F4FE48
:10509000832784FC83D7070093F7F70FF1CF83278B
:1050A000C4FC9C432322F4FE232404FE65A883272A
:1050B00084FE0547B317F700232EF4FC832784FCF6
:1050C00083D707003E878327C4FDF98F2320F4FE92
:1050D000032704FE8327C4FD6311F708832784FE9A
:1050E0008A07232EF4FC8327C4FD3D47B317F7003E
:1050F000232CF4FC832784FD93C7F7FF032744FE8A
:10510000F98F2322F4FE8327C4FD0327C4FEB317BF
:10511000F700032744FED98F2322F4FE832784FC63
:10512000984793078002631BF700832784FE054797
:105130003317F7008327C4FCD8CB05A0832784FC52
:10514000984793078004631AF700832784FE054776
:105150003317F7008327C4FC98CB832784FE850789
:105160002324F4FE032784FE9D47E3F2E7F483271C
:10517000C4FC032744FE98C3832784FC03D707009D
:105180009307F00F63F1E70E8327C4FCDC4323226F
:10519000F4FE232404FE75A8832784FEA107054797
:1051A000B317F700232EF4FC832784FC83D7070072
:1051B0003E878327C4FDF98F2320F4FE032704FED6
:1051C0008327C4FD6312F708832784FE8A07232EF2
:1051D000F4FC8327C4FD3D47B317F700232CF4FCF0
:1051E000832784FD93C7F7FF032744FEF98F23220B
:1051F000F4FE8327C4FD0327C4FEB317F70003277B
:1052000044FED98F2322F4FE832784FC984793071A
:105210008002631BF700832784FEA107054733172D
:10522000F7008327C4FCD8CB832784FC98479307D7
:105230008004631BF700832784FEA107054733170B
:10524000F7008327C4FC98CB832784FE850723249B
:10525000F4FE032784FE9D47E3F0E7F48327C4FCB4
:10526000032744FED8C301007254216182800111DA
:1052700022CE00102326A4FEAE872322C4FE2315CF
:10528000F4FE832744FE99C70357A4FE8327C4FE78
:1052900098CB31A00357A4FE8327C4FED8CB0100CE
:1052A000724405618280797122D60018232EA4FCF5
:1052B000232CB4FC232404FE232204FE232604FE14
:1052C000232004FE8327C4FD63D80700B7070140ED
:1052D000DC4F2326F4FE31A0B7070140DC43232630
:1052E000F4FE8327C4FDC183BD8B2320F4FE032776
:1052F000C4FDC167FD17F98F2324F4FE8327C4FD85
:1053000063D407080327C4FDB70730007D8FB707B4
:1053100030006314F702832704FEC1070D47B3175B
:10532000F7002322F4FE832744FE93C7F7FF0327E9
:10533000C4FEF98F2326F4FEC5A80327C4FDB707D2
:105340001000F98F95C3832704FE0D47B317F700AC
:105350002322F4FE832744FE93C7F7FF0327C4FEEE
:10536000F98F2326F4FEC9A08327C4FDD5839207B5
:10537000032784FEB317F70093C7F7FF0327C4FE84
:10538000F98F2326F4FE4DA00327C4FDB707300094
:105390007D8FB70730006315F7020327C4FEB707F8
:1053A00000F1FD17F98F2326F4FEB7070140D4431F
:1053B000B7070140370700F17D17758FD8C3ADA03F
:1053C0000327C4FDB7071000F98F8DCB832704FE98
:1053D0000D47B317F7002322F4FE832744FE93C73B
:1053E000F7FF0327C4FEF98F2326F4FE0327C4FE2C
:1053F000B707000FD98F2326F4FE3DA08327C4FDF5
:10540000D5839207032784FEB317F70093C7F7FFEE
:105410000327C4FEF98F2326F4FE0327C4FEB70733
:10542000000FD98F2326F4FE832784FD91CF832795
:10543000C4FDD5839207032784FEB317F700032723
:10544000C4FED98F2326F4FE8327C4FD63D807004A
:10545000B70701400327C4FED8CF31A0B7070140EA
:105460000327C4FED8C301003254456182803971DC
:1054700022DE80002326A4FC232204FE232604FE31
:10548000232004FE232E04FC232404FEB71702402D
:10549000DC43B18B2322F4FE032744FE91476303D0
:1054A000F702032744FEA1476306F702832744FE61
:1054B000639907148327C4FC37177A001307072062
:1054C00098C389AA8327C4FC37177A0013070720DB
:1054D00098C389A2B7170240D843B7073C00F98F99
:1054E0002326F4FEB7170240D843C167F98F232063
:1054F000F4FE8327C4FEC98389072326F4FEB7F789
:10550000FF1F9387C77098439167F98F91EB03272B
:10551000C4FEC5476319F704C9472326F4FEA1A0BA
:105520000327C4FE89476315F700C9472326F4FE05
:105530000327C4FEBD476318F700B5472326F4FED2
:1055400085472324F4FE0327C4FEC1476315F700F3
:10555000BD472326F4FE0327C4FEC5476315F700A5
:10556000C1472326F4FE832704FEA1E3B747024088
:10557000938707809C43C18B89CF0327C4FEB7174D
:105580007A00938707203307F7028327C4FC98C368
:1055900099A80327C4FEB7173D00938707903307E8
:1055A000F7028327C4FC98C33DA8B7170240D8432D
:1055B000B7070200F98F89CF0327C4FEB7173D0054
:1055C000938707903307F7028327C4FC98C321A869
:1055D0000327C4FEB7177A00938707203307F70223
:1055E0008327C4FC98C3032784FE85476313F7020F
:1055F0008327C4FC9C4313D717008327C4FC98C39C
:1056000009A88327C4FC37177A001307072098C31B
:1056100011A00100B7170240DC4393F7070F2322C4
:10562000F4FE832744FE91832322F4FEB707002073
:1056300013874701832744FEBA9783C7070093F770
:10564000F70F232EF4FC8327C4FC98438327C4FD63
:105650003357F7008327C4FCD8C3B7170240DC4395
:1056600093F707702322F4FE832744FEA1832322AD
:10567000F4FEB707002013874701832744FEBA973B
:1056800083C7070093F7F70F232EF4FC8327C4FC8E
:10569000D8438327C4FD3357F7008327C4FC98C73A
:1056A000B7170240D843916793870780F98F232269
:1056B000F4FE832744FEAD832322F4FEB7070020C7
:1056C00013874701832744FEBA9783C7070093F7E0
:1056D000F70F232EF4FC8327C4FCD8438327C4FD93
:1056E0003357F7008327C4FCD8C7B7170240D84305
:1056F000B167F98F2322F4FE832744FEB983232266
:10570000F4FE1387C181832744FEBA9783C707003D
:1057100093F7F70F232EF4FC8327C4FCD847832785
:10572000C4FD3357F7028327C4FC98CB01007254A1
:1057300021618280011122CE00102326A4FE2324A1
:10574000B4FE832784FE99CBB7170240944FB71756
:1057500002400327C4FE558F98CF21A8B7170240F7
:10576000944F8327C4FE13C7F7FFB7170240758F06
:1057700098CF0100724405618280011122CE001091
:105780002326A4FE2324B4FE832784FE99CBB717D7
:105790000240D44FB71702400327C4FE558FD8CF1D
:1057A00021A8B7170240D44F8327C4FE13C7F7FFC1
:1057B000B7170240758FD8CF01007244056182800F
:1057C000011122CE00102326A4FE2324B4FE832739
:1057D00084FE99CBB7170240D447B717024003277E
:1057E000C4FE558FD8C721A8B7170240D4478327D6
:1057F000C4FE13C7F7FFB7170240758FD8C7010063
:10580000724405618280011122CE00102326A4FE7D
:105810002324B4FE832784FE99CBB7170240944B10
:10582000B71702400327C4FE558F98CB21A8B7179E
:105830000240944B8327C4FE13C7F7FFB7170240FB
:10584000758F98CB0100724405618280011106CEEC
:1058500022CC00102326A4FE0327C4FEB737014044
:10586000631BF70085450565EFF09FF581450565EC
:10587000EFF01FF591A00327C4FEB74700409387C0
:105880000780631BF70085451165EFF0DFF7814561
:105890001165EFF05FF70DA00327C4FEB747004086
:1058A000938707C0631AF70085452165EFF0BFF5C0
:1058B00081452165EFF03FF50100F240624405614A
:1058C0008280797122D60018232EA4FC232CB4FCEC
:1058D000231704FE8327C4FD83D707002317F4FE94
:1058E0000357E4FE8D6793870704F98F2317F4FEAF
:1058F000832784FD03D70700832784FD83D72700F0
:10590000D98F139707014183832784FD83D74700ED
:10591000D98F139707014183832784FD83D76700BD
:10592000D98F139707014183832784FD83D787008D
:10593000D98F139707014183832784FD83D7A7005D
:10594000D98F139707014183832784FD83D7C7002D
:10595000D98F139707014183832784FD83D7E700FD
:10596000D98F1397070141838357E4FED98F2317FB
:10597000F4FE8327C4FD0357E4FE2390E70083274A
:10598000C4FD83D7C701139707014183FD77938730
:10599000F77FF98F1397070141838327C4FD239E67
:1059A000E700832784FD03D707018327C4FD2398DD
:1059B000E7000100325445618280011122CE0010BF
:1059C0002326A4FE2324B4FE832784FE8DC38327CD
:1059D000C4FE83D70700C207C18393E70704139768
:1059E000070141838327C4FE2390E70005A0832796
:1059F000C4FE83D70700C207C18393F7F7FB139751
:105A0000070141838327C4FE2390E700010072440D
:105A100005618280797122D60018232EA4FC232CE4
:105A2000B4FC231704FE8327C4FD83D70700231784
:105A3000F4FE0327C4FDB7370140938707C0630610
:105A4000F7060327C4FDB70700406300F7060327E6
:105A5000C4FDB7070040938707406308F704032796
:105A6000C4FDB7170040938707806300F70403273E
:105A7000C4FDB7170040938707C06308F7020327E8
:105A8000C4FDB7370140938707406300F70203273F
:105A9000C4FDB7570140938707C06308F700032789
:105AA000C4FDB75701406311F7028357E4FE93F733
:105AB000F7F82317F4FE832784FD03D727008357C5
:105AC000E4FED98F2317F4FE0327C4FDB717004067
:105AD0006309F7020327C4FDB71700409387074007
