:100000006F30F07F130000001300000013000000A9
:100010001300000013000000130000001300000094
:100020001300000013000000130000001300000084
:08003000130000007300100032
:100038000000000000000000243C0000343C0000E8
:1000480000000000443F0000000000000000000025
:10005800463F0000483F000000000000000000008C
:100068004A3F0000000000004C3F00000000000074
:100078004E3F0000503F0000523F0000543F000038
:10008800563F0000583F000080320000F432000064
:1000980068330000DC33000050340000643F000087
:1000A800663F0000683F00006A3F00006C3F0000A8
:1000B8006E3F0000703F0000723F0000743F000078
:1000C800763F0000783F00007A3F0000C43400000B
:1000D8007E3F000088360000823F0000843F000019
:1000E8001437000034380000B43800008C3F00009A
:1000F8008E3F0000903F0000923F0000943F0000B8
:10010800963F0000D22C0000562D0000DA2D00008A
:100118009C350000A03F0000A23F0000A43F000063
:10012800AC3A0000A83F0000AA3F0000AC3F000026
:10013800AE3F0000B03F000034390000B43F00007B
:100148005E2E0000E22E0000B43900002C3A0000B8
:10015800BE3F0000C03F0000C23F0000C43F000097
:10016800C63F0000C83F0000CA3F0000CC3F000067
:10017800CE3F0000D03F0000D23F00007E5B000071
:10018800D63F0000D83F0000F0310000682F000083
:10019800EC2F000070310000E23F00002C3B000013
:1001A800E63F0000E83F0000EA3F0000AC3B0000EB
:1001B800EE3F0000F03F0000F23F0000F43F000077
:1001C800F63F0000F83F0000FA3F0000FC3F000047
:1001D8000000000000000000000000000000000017
:1001E8000000000000000000000000000000000007
:0801F8000000000000000000FF
:100200003D432A876373C3029377F700BDEFADE5E3
:10021000937606FF3D8ABA960CC34CC30CC74CC7F5
:100220004107E36BD7FE11E28280B306C3408A0622
:100230009702000096966780A6002307B700A306E2
:10024000B7002306B700A305B7002305B700A30432
:10025000B7002304B700A303B7002303B700A3022A
:10026000B7002302B700A301B7002301B700A30022
:10027000B7002300B700828093F5F50F93968500B1
:10028000D58D93960501D58D61B79396270097027A
:10029000000096968682E78086FA9680C1171D8FA9
:1002A0003E96E374C3F8A5B7011122CE00102326B1
:1002B000A4FE2324B4FE37F600E04C4237F600E0FB
:1002C000F9994CC20326C4FEB2860147032684FE78
:1002D000B287014837F600E03305F702B305D802CC
:1002E000AA953385F602B3B3F6022A83B387750065
:1002F000BE8323286600232A7600B7F700E09843E0
:10030000B7F700E01367070198C3B7F700E0984319
:10031000B7F700E01367170298C30100B7F700E0D2
:10032000DC4313F717008547E31AF7FEB7F700E041
:100330009843B7F700E0799B98C3010072440561C8
:100340008280011122CE00102326A4FE8327C4FE42
:10035000958313F77700B70700200A0793870700F4
:10036000BA979C439C470327C4FE7D8B85463397F1
:10037000E600F98FB337F00093F7F70F3E8572442C
:1003800005618280797106D622D40018232EA4FC40
:10039000232CB4FCB2872328D4FCA30BF4FC232029
:1003A00004FE232204FE232404FE8327C4FD958338
:1003B00093F7F70F9D8BA307F4FE8327C4FD93F7F4
:1003C000F70FFD8B2307F4FE8347F4FE91E7854585
:1003D0001145EF40C04191A80347F4FE85476317DC
:1003E000F70085452145EF40804081A00347F4FE9A
:1003F00089476317F70085454145EF40403F35A0E9
:100400000347F4FE8D476318F70085451305000286
:10041000EF40E03D19A80347F4FE91476317F7004A
:10042000854513050004EF40803C8347E4FE054703
:10043000B317F700C207C1832310F4FE032784FD1E
:1004400085476317F702832704FDC207C183A18391
:10045000C207C18389E78D472322F4FE11A88327B1
:1004600004FDC207C183A183C207C1832322F4FE16
:10047000832704FDC207C18393F7F70F2324F4FEFB
:100480000347F4FEB70700200A0793870700BA97CF
:100490009C43130704FEBA853E85EF305046032780
:1004A00084FD85476319F7020347F4FEB707002070
:1004B0000A0793870700BA9794438347E4FE0547EA
:1004C000B317F700C207C183034774FD3A86BE85A0
:1004D0003685EF3070650100B2502254456182804C
:1004E0001D7186CEA2CC80102326A4FA2324B4FA50
:1004F00085450325C4FAEF00A077AA873E87130637
:10050000D006B967938587CB3A85EF1030508327A3
:1005100084FAB337F00093F7F70F3E871306F0061F
:10052000B967938587CB3A85EF10504E832784FABD
:10053000BD832315F4FE8357A4FE85073E878327DA
:1005400084FAB3D7E7022314F4FE0325C4FAEF00BC
:100550008078B7370140938707C02326F4FE03272E
:10056000C4FAA54763ECE7088327C4FA139727006A
:10057000B96793878701BA979C438287B737014051
:10058000938707C02326F4FE95A8B70700402326CB
:10059000F4FEADA0B7070040938707402326F4FE82
:1005A000B1A8B7170040938707802326F4FEB9A0AF
:1005B000B7170040938707C02326F4FE81A0B71722
:1005C00000402326F4FE1DA8B7170040938707407C
:1005D0002326F4FE25A0B737014093870740232642
:1005E000F4FE29A8B7570140938707C02326F4FEDD
:1005F00031A0B75701402326F4FE0100232E04FC4E
:10060000232004FE231204FE835784FE2310F4FEED
:100610008357A4FE231EF4FC231104FE231F04FCB5
:10062000230204FE9307C4FDBE850325C4FEEF40EC
:10063000C024054685450325C4FEEF40703485453A
:100640000325C4FEEF40D06AB96703AE07C913871C
:1006500007C903234700138707C983288700138727
:1006600007C90328C700138707C9084B138707C9A1
:100670004C4B138707C9104F138707C9544F138773
:1006800007C91853938707C9DC53232AC4FB232CBB
:1006900064FA232E14FB232004FD2322A4FC23242C
:1006A000B4FC2326C4FC2328D4FC232AE4FC232CFA
:1006B000F4FC8327C4FA93F7F70F8A07130704FFA4
:1006C000BA9783A747FC8D453E85EF2000578327C7
:1006D000C4FA8A07130704FFBA9783A747FC3E852D
:1006E000EF20205285450325C4FEEF40F01D010098
:1006F000F640664425618280797106D622D40018BE
:10070000232EA4FC232CB4FC032784FD8967938744
:100710001771B337F70093F7F70F3E8713065003AF
:10072000B967938547D13A85EF10502EB73701400E
:10073000938707C02326F4FE8327C4FDC183BD8BA6
:100740002547636EF70613972700B9679387070459
:10075000BA979C438287B7370140938707C0232607
:10076000F4FEB1A8B70700402326F4FE89A8B70716
:100770000040938707402326F4FE91A0B71700405E
:10078000938707802326F4FE1DA8B71700409387A0
:1007900007C02326F4FE25A0B73701409387074002
:1007A0002326F4FE29A8B7570140938707C02326C4
:1007B000F4FE31A0B75701402326F4FE0100832741
:1007C000C4FE83D7C7022315F4FE0357A4FE832774
:1007D00084FD3307F702896793870771B357F702E0
:1007E0002314F4FE8327C4FDA1838D8B81EB832723
:1007F000C4FE035784FE239AE702A9A88327C4FDF9
:10080000A18313F7370085476319F7008327C4FED8
:10081000035784FE239CE70235A88327C4FDA183E8
:1008200013F7370089476319F7008327C4FE03577E
:1008300084FE239EE70239A88327C4FDA18313F712
:1008400037008D476318F7008327C4FE035784FEE3
:100850002390E7040100B2502254456182805D710B
:1008600086C6A2C48008232EA4FA232CB4FA232A15
:10087000C4FA8327C4FBC1838D453E85D52EAA8744
:100880003E871306D00AB967938547D13A85EF10A2
:10089000F017032744FB896793871771B337F70075
:1008A00093F7F70F3E871306F00AB967938547D190
:1008B0003A85EF10B015232E04FC232004FE2312EA
:1008C00004FE232604FC232804FC232A04FC232CF6
:1008D00004FC231504FE8327C4FBC183BD8B3E8526
:1008E000DD2E8327C4FB93F7F70F93068031014673
:1008F00085453E85413C85450545EF30506FB7370E
:100900000140938707C02326F4FE8327C4FBC183DD
:10091000BD8B2547636EF70613972700B96793874A
:100920008706BA979C438287B7370140938707C0F1
:100930002326F4FEB1A8B70700402326F4FE89A8B9
:10094000B7070040938707402326F4FE91A0B7170E
:100950000040938707802326F4FE1DA8B7170040A8
:10096000938707C02326F4FE25A0B737014093875D
:1009700007402326F4FE29A8B7570140938707C0F4
:100980002326F4FE31A0B75701402326F4FE0100D0
:100990008327C4FB13D7C7008D47631AF70085452B
:1009A000B70716001385070CEF30901B15AA832795
:1009B000C4FB13D7C700C547631AF7008545B707BF
:1009C000180013850710EF30B01919AA8327C4FB4C
:1009D00013D7C700C947631AF7008545B707180042
:1009E00013850720EF30D017E5A88327C4FB13D762
:1009F000C700CD47631AF7008545B7071800138570
:100A00000730EF30F015E9A88327C4FB13D7C700E0
:100A100093072002631AF7008545B7171A0013855C
:100A20000780EF30F0136DA88327C4FB13D7C700EE
:100A300093073002631AF7008545B7171A0013852C
:100A400007C0EF30F01169A88327C4FB13D7C70094
:100A5000930710036317F70085450565EF305010C5
:100A600041A08327C4FB13D7C70093071007631A5D
:100A7000F7008545B707008013854700EF30500E1B
:100A800085A08327C4FB13D7C70093073008631AD8
:100A9000F7008545B707138013850701EF30500C29
:100AA00081A08327C4FB13D7C70093071009631ADB
:100AB000F7008545B707158013850702EF30500A08
:100AC00005A08327C4FB13D7C70093073009631918
:100AD000F7008545B707158013850704EF305008E8
:100AE00003A7C180832784FBB357F702C183231573
:100AF000F4FE03A7C1808357A4FE8507BE86832723
:100B000084FBB387F602B357F7022314F4FE0357AE
:100B100084FE832744FB3307F702896793870771B5
:100B2000B357F7022313F4FE835784FEFD17C20761
:100B3000C1832310F4FE8357A4FE231EF4FC23116B
:100B400004FE231F04FC230204FE9307C4FDBE859C
:100B50000325C4FEEF307052930700072316F4FC00
:100B600085472317F4FC231804FC835764FE2319DC
:100B7000F4FC8947231AF4FC8947231BF4FC231C4B
:100B800004FC231D04FC8327C4FBA1838D8B9DE300
:100B90009307C4FCBE850325C4FEEF30F065A14574
:100BA0000325C4FEEF40C06491450325C4FEEF4019
:100BB000E07845A08327C4FBA18313F7370085475E
:100BC0006315F7029307C4FCBE850325C4FEEF300E
:100BD000707CA1450325C4FEEF40406693050040AC
:100BE0000325C4FEEF40407AADA08327C4FBA18358
:100BF00013F7370089476314F7029307C4FCBE85D7
:100C00000325C4FEEF402017A1450325C4FEEF4095
:100C1000806891450325C4FEEF40607C1DA88327B2
:100C2000C4FBA18313F737008D476314F7029307C2
:100C3000C4FCBE850325C4FEEF40A031A1450325B9
:100C4000C4FEEF40006A930500400325C4FEEF4058
:100C5000C07D85450325C4FEEF40804C85450325B6
:100C6000C4FEEF4060460100B640264461618280C8
:100C7000797122D60018232EA4FC232CB4FC8547BE
:100C8000A307F4FE0327C4FD0A079387818DBA9753
:100C90009C4399EB0327C4FD0A079387818DBA977C
:100CA000032784FD98C315A00327C4FD0A07938773
:100CB000818DBA979C43032784FD6316F70085470F
:100CC000A307F4FE19A0A30704FE8347F4FE3E85A4
:100CD000325445618280011106CE22CC00102326B9
:100CE000A4FE8327C4FE81EB8545856713850780B5
:100CF000EF30F02F6DA80327C4FE85476317F70078
:100D000085450545EF3010335DA00327C4FE8947B4
:100D10006317F70085450945EF30D03149A803270F
:100D2000C4FE8D476317F70085451145EF309030BD
:100D3000BDA80327C4FE91476317F70085452145E9
:100D4000EF30502FADA00327C4FE95476317F7007F
:100D500085454145EF30102E99A80327C4FE9947D9
:100D60006318F700854513050002EF30B02C81A011
:100D70000327C4FE9D476317F70085450965EF30DB
:100D8000102735A00327C4FEA1476318F700854547
:100D900037050800EF30B02519A80327C4FEA54782
:100DA0006317F700854537051000EF305024010028
:100DB000F240624405618280797122D60018232EA8
:100DC000A4FCB7370140938707C02326F4FE231500
:100DD00004FE0327C4FDA54763ECE7088327C4FD91
:100DE00013972700B96793870709BA979C438287AF
:100DF000B7370140938707C02326F4FE95A8B707AD
:100E000000402326F4FEADA0B707004093870740BB
:100E10002326F4FEB1A8B717004093870780232646
:100E2000F4FEB9A0B7170040938707C02326F4FE4D
:100E300081A0B71700402326F4FE1DA8B717004075
:100E4000938707402326F4FE25A0B73701409387F8
:100E500007402326F4FE29A8B7570140938707C00F
:100E60002326F4FE31A0B75701402326F4FE0100EB
:100E70000327C4FD0A0793870190BA9798438947CF
:100E8000631FF7008327C4FE83D747021397070128
:100E900041838D47B357F7022315F4FE39A083270A
:100EA000C4FE83D747022315F4FE8357A4FE3E8574
:100EB000325445618280797122D60018232EA4FC19
:100EC000B7370140938707C02326F4FE0327C4FDEC
:100ED000A54763ECE7088327C4FD13972700B9678C
:100EE0009387870BBA979C438287B73701409387D4
:100EF00007C02326F4FE95A8B70700402326F4FE7A
:100F0000ADA0B7070040938707402326F4FEB1A8A1
:100F1000B7170040938707802326F4FEB9A0B717C0
:100F20000040938707C02326F4FE81A0B717004036
:100F30002326F4FE1DA8B7170040938707402326F9
:100F4000F4FE25A0B7370140938707402326F4FE1F
:100F500029A8B7570140938707C02326F4FE31A084
:100F6000B75701402326F4FE01008327C4FE2392D5
:100F700007020100325445618280011122CE001027
:100F80002326A4FEAE87A305F4FE0100B96703275C
:100F9000C4FE0A079387070EBA979C4383D70700BE
:100FA000C207C18393F70708F5D3B9670327C4FEC7
:100FB0000A079387070EBA979C433E878347B4FE80
:100FC000C207C1832312F7000100724405618280C9
:100FD000011106CE22CC00102326A4FE2324B4FE49
:100FE0002322C4FE832784FEB337F00093F7F70F64
:100FF0003E8713061004B967938507D73A85EF102B
:10100000E02029A8832784FE138717002324E4FE09
:1010100083C70700BE850325C4FE8537832744FEAA
:101020001387F7FF2322E4FEF1FF0100F240624440
:1010300005618280011106CE22CC00102326A4FE79
:101040002324B4FE832784FEB337F00093F7F70F11
:101050003E8713060005B967938507D73A85EF10D9
:10106000E01A39A8832784FE138717002324E4FE9F
:101070008387070093F7F70FBE850325C4FEF53D70
:10108000832784FE83870700F1FF0100F24062445A
:1010900005618280011106CE22CC00102326A4FE19
:1010A000AE87A305F4FEB9670327C4FE0A0793873A
:1010B000070EBA979C433E878347B4FE3E8693054E
:1010C00050523A85EF40E06E1387C1828327C4FEF9
:1010D000BA9783C7070081453E85EF1010368347D6
:1010E000B4FE81CF1387C1828327C4FEBA9783C71A
:1010F00007003E85EF10F03019A81387C1828327BF
:10110000C4FEBA9783C707003E85EF105031010037
:10111000F240624405618280011122CE0010232634
:10112000A4FE2324B4FEB9670327C4FE0A079387ED
:10113000070EBA979C4383D70700C207C18393F772
:1011400007028DC7B9670327C4FE0A079387070EF6
:10115000BA979C4383D74700C207C18313F7F70FA1
:10116000832784FE2380E700854711A081473E85C1
:10117000724405618280797106D622D40018232E2C
:10118000A4FC232CB4FC232AC4FC2328D4FC03276E
:1011900044FD832704FD3D8F8327C4FDB207F98FEB
:1011A00093B7170093F7F70F3E871306A00AB967A6
:1011B000938507D73A85EF106005832744FD13D741
:1011C0008700832704FDA183B307F74093B7170077
:1011D00093F7F70F3E871306B00AB967938507D7D1
:1011E0003A85EF10A002832744FD93F7F70FE146FD
:1011F000014685453E85EFF0EF98832704FD93F780
:10120000F70F93068004014681453E85EFF08F97E6
:1012100085450545EF30A05D032744FDC167FD17F7
:10122000F98F0D67130707386385E7200D671307EC
:1012300007386369F7040567130757166381E716D4
:10124000056713075716636FF7001307F022638AC9
:10125000E70C130760306381E7101307601263889F
:10126000E70855A6096713078736638AE7160D67EF
:10127000130707126385E71809671307A71463802C
:10128000E71451A615671307A738638CE72615677F
:101290001307A7386362F702116713078738638E55
:1012A000E71E1567130787126383E7221167130789
:1012B0004712638AE71A81AE19671307C738638636
:1012C000E72A19671307C7386368F7001967130718
:1012D00067106382E72605AE1D671307E71063807A
:1012E000E72C1D671307E7386385E72E29AEB7079C
:1012F0000140D44FB7070140370700FC7D17758FB9
:10130000D8CFB7070140D843B70701406D9BD8C37A
:10131000B7070140D843B707014013674700D8C358
:10132000DDA4B7070140D44FB7070140370700FCE1
:101330007D17758FD8CFB7070140D44FB70701404D
:1013400037070004558FD8CFB7070140D843B707F8
:1013500001406D9BD8C345ACB7070140D44FB707D8
:101360000140370700FC7D17758FD8CFB7070140C4
:10137000D44FB707014037070004558FD8CFB707C0
:101380000140D843B70701406D9BD8C3B707014060
:10139000D843B707014013674700D8C3ADA4B707C8
:1013A0000140D843B70701405D9BD8C3B707014050
:1013B000D843B707014013678700D8C3A9A4B7076C
:1013C0000140D843B70701401D9BD8C3B707014070
:1013D000D843B707014013678700D8C32DA4B707C8
:1013E0000140D843B70701401D9BD8C3B707014050
:1013F000D843B707014013678701D8C329A4B707AB
:101400000140D44FB70701403707FDFF7D17758FA7
:10141000D8CFB7070140D44F832744FDA18313974A
:101420000701B70703007D8FB7070140558FD8CF5D
:10143000D9AAB7070140D44FB70701403707FDFFCE
:101440007D17758FD8CFB7070140D44F832744FD50
:10145000A18313970701B70703007D8FB7070140EA
:10146000558FD8CF4DA2B7070140D44FB7070140E1
:101470003707F4FF7D17758FD8CFB7070140D44FDA
:10148000832744FDA18313972701B7070C007D8FA5
:10149000B7070140558FD8CFBDA2B7070140D44F41
:1014A000B70701403707F4FF7D17758FD8CFB7070F
:1014B0000140D44F832744FDA18313972701B70729
:1014C0000C007D8FB7070140558FD8CF2DAAB707E5
:1014D0000140D44FB70701403707D0FF7D17758F04
:1014E000D8CFB7070140D44F832744FDA18313977A
:1014F0004701B70730007D8FB7070140558FD8CF20
:1015000019A2B7070140D44FB70701403707D0FFF2
:101510007D17758FD8CFB7070140D44F832744FD7F
:10152000A18313974701B70730007D8FB7070140AC
:10153000558FD8CFC9A8B7070140D44FB70701408E
:10154000370740FF7D17758FD8CFB7070140D44FBD
:10155000832744FDA18313976701B707C0007D8FE0
:10156000B7070140558FD8CF79A8B7070140D44FAE
:10157000B7070140370740FF7D17758FD8CFB707F2
:101580000140D44F832744FDA18313976701B70718
:10159000C0007D8FB7070140558FD8CFADA0B707EA
:1015A0000140D44FB7070140370700FD7D17758F05
:1015B000D8CFB7070140D44F832744FDA1831397A9
:1015C0008701B70700037D8FB7070140558FD8CF3C
:1015D0001DA8B7070140D44FB7070140370700FDEA
:1015E0007D17758FD8CFB7070140D44F832744FDAF
:1015F000A18313978701B70700037D8FB7070140C9
:10160000558FD8CF01008327C4FD91E7854511652B
:10161000EF30E01D69A80327C4FD85476318F70074
:10162000854537050200EF30E02051A00327C4FDB7
:1016300089476318F700854537050400EF30801FA0
:10164000BDA00327C4FD8D476318F7008545370506
:101650000800EF30201EA1A80327C4FD914763189E
:10166000F700854537051000EF30C01C89A003271F
:10167000C4FD95476318F700854513050004EF3056
:10168000601B35A00327C4FD99476318F700854503
:1016900013050008EF30001A19A80327C4FD9D4761
:1016A0006317F700854513050010EF30A0182320BD
:1016B00004FE232204FE232404FE232604FE8327A3
:1016C00084FD2320F4FE231204FE231304FE2314BE
:1016D00004FE231604FEB1472315F4FEB967032761
:1016E000C4FD0A079387070EBA979C433E8793076A
:1016F00004FEBE853A85EF309062B9670327C4FDCA
:101700000A079387070EBA979C4385453E85EF40AD
:1017100040040100B250225445618280411106C646
:1017200022C4000883A781840547638BE700638890
:10173000070C0947638DE7000D47638FE702E9A0B7
:1017400083A741841387170023A2E18475A883A788
:1017500041841387170023A2E18403A74184A5478E
:1017600063F1E70AB7070020938707009C4B1167D6
:10177000D8CB23A2018471A003A7C1848547631439
:10178000F7081305F008EFE0DFBBAA87ADC31945E2
:10179000EFF08FE2AA873E8783A741841D8F9307CE
:1017A000600963F2E7061945EFF0EFF083A7418483
:1017B000D3F717D05385F720EF80D025B96703A65C
:1017C00007DD83A647DDEF70406AAA872E883E8535
:1017D000C285EF80F00CAA87139707014183B707F2
:1017E0000020239CE724094723A6E18429A8194562
:1017F000EFF08FDCAA873E8723A2E18429A00100B5
:1018000021A0010011A001000100B24022444101C9
:101810008280411106C622C4000883A7818409473B
:10182000637CF7000D47639AE7001945EFF0AFE8D6
:10183000054723A6E18411A001000100B240224423
:1018400041018280011106CE22CC001083C7118590
:10185000638A070E09A8930734FE0546BE851385E3
:101860008192EF007051930734FEBE851D45EFF065
:10187000BF8AAA87EDF3034734FEA9476314F70C28
:1018800099472322F4FE130744FE930784FE8546FE
:101890003A86BE8513858192EF00307D930784FEE2
:1018A000138737000D46B967938587DD3A85EF903A
:1018B0009012AA879DEB03A781858947630DF706E0
:1018C000054723ACE18413858192EF00D046AA87B7
:1018D0002322F4FE930744FE81463E869385419C75
:1018E00013858192EF007078B9A0930784FE138767
:1018F00037000D46B9679385C7DD3A85EF90B00D87
:10190000AA8795EB03A7418589476306F702054738
:1019100023AAE18413858192EF00F041AA87232254
:10192000F4FE930744FE81463E86938541941385D9
:101930008192EF00907313858192EF00F02F05479D
:101940002388E1840100F2406244056182804111F4
:1019500022C600080100324441018280411122C6A2
:101960000008B71702409843B717024013671700E3
:1019700098C3B7170240D443B71702403707FFF8A0
:10198000758FD8C3B71702409443B7170240370783
:10199000F7FE7D17758F98C3B71702409443B717AA
:1019A00002403707FCFF7D17758F98C3B7170240B9
:1019B000D443B7170240370781FF7D17758FD8C30F
:1019C000B717024037079F0098C701003244410112
:1019D0008280797122D60018232EA4FC232604FECF
:1019E000232404FEB71702409443B717024041670F
:1019F000558F98C3B71702409843B7070200F98F75
:101A00002324F4FE8327C4FE85072326F4FE8327C0
:101A100084FE91E70327C4FE8567E31DF7FCB71733
:101A200002409843B7070200F98F89C785472324EE
:101A3000F4FE19A0232404FE032784FE85476312C5
:101A4000F71637170240B71702405843D8C3371765
:101A50000240B71702405843D8C337170240B717A0
:101A600002405843D8C3B7170240D443B7170240C7
:101A70003707C1FF7D17758FD8C30327C4FDB7474C
:101A8000950893870740631BF700B7170240D443BC
:101A9000B71702404167558FD8C355A80327C4FD27
:101AA000B7172707938707E0631CF700B7170240B3
:101AB000D443B717024037073900558FD8C341A820
:101AC0000327C4FDB7E7B80593870780631CF700B9
:101AD000B7170240D443B717024037072900558F84
:101AE000D8C3B5A00327C4FDB7A74A04938707202E
:101AF000631CF700B7170240D443B71702403707FB
:101B00001D00558FD8C3A1A00327C4FDB777DC0201
:101B1000938707C0631CF700B7170240D443B71779
:101B2000024037071100558FD8C315A00327C4FD05
:101B3000B7376E0193870760631BF700B717024042
:101B4000D443B717024037070500558FD8C3B717DE
:101B500002409443B717024037070001558F98C3DE
:101B60000100B71702409843B7070002F98FF5DB71
:101B7000B7170240D843B7170240719BD8C3B717B5
:101B80000240D843B717024013672700D8C30100AB
:101B9000B7170240DC4313F7C700A147E31AF7FE6B
:101BA00011A001A0325445618280011106CE22CCE1
:101BB00000102326A4FE0327C4FE23A6E180793B60
:101BC0000325C4FE3935EF10600F0100F240624476
:101BD00005618280411122C60008010001003244E3
:101BE00041018280011106CE22CC0010232604FE82
:101BF000232404FE232604FE25A0232404FE39A06A
:101C0000D13F832784FE85072324F4FE032784FE27
:101C1000C167E367F7FE8327C4FE85072326F4FE2A
:101C20000327C4FE9307F00FE3F9E7FC0100F2403D
:101C3000624405618280411122C6000801003244DD
:101C400041018280011106CE22CC00102326A4FE81
:101C50008325C4FE0945EFF0EFBD0100F240624468
:101C600005618280130101D92326112623248126B0
:101C700023229126801C232EA4D8232CB4D8232AD7
:101C8000C4D82328D4D8231504FE231404FE231318
:101C900004FE231204FE231104FE032584D9EF90D1
:101CA0006052AA87C207C1872313F4FE83D741A4D9
:101CB00089C7938741A49C4B829783C7C18593F7BB
:101CC000F70F638D074A83D741A46387074493873F
:101CD00041A4D447835724FE1397070141879317E4
:101CE0000701C1838507C207C183C207C1872311CA
:101CF000F4FE93170701C1830326C4D9BE850145AD
:101D00008296832784D92326F4FE032584D9EF9075
:101D1000604BAA87C207C1872313F4FE938741A4AF
:101D200083D727003E87938741A483C76700B347C3
:101D3000F702C207C1872312F4FE01008327C4FE05
:101D4000138717002326E4FE83870700E5FB23148F
:101D500004FEA1A88327C4FEFD172326F4FE8327D3
:101D6000C4FE038707009307F002630AF700832786
:101D7000C4FE038707009307C005631BF700835762
:101D800084FEC207C1838507C207C1832314F4FE02
:101D9000835764FEC207C187C207C183FD17C2070C
:101DA000C183C207C1872313F4FE835784FE1397B0
:101DB00007014183854763E8E700835764FEC20754
:101DC000C187E3D907F8835764FEC207C18763C29E
:101DD00007028327C4FE85072326F4FE130704EEBB
:101DE0000326C4FEB967938587EC3A85EF902039C6
:101DF0001DA8835784FEC207C18381EF130704EE39
:101E00000326C4FEB967938547ED3A85EF902037E6
:101E100019A8130704EE0326C4FEB967938587EC5F
:101E20003A85EF90C035231504FE21AA231404FE41
:101E300059A0930704EE3E85EF90C0382A87835758
:101E400084FEC207C183BE868357A4FEC207C18336
:101E50003E86835744FEC207C187B307F602B69792
:101E60006367F706835784FEC207C1833E878357A3
:101E7000A4FEC207C183BE86835744FEC207C18742
:101E8000B387F602BA97035784FE42074183BA86A6
:101E9000130704FFBA97038707EF930704FFB6976A
:101EA0002388E7EA835784FEC207C1838507C207F8
:101EB000C1832314F4FE835784FEC207C1833E8787
:101EC000835744FEC207C187E345F7F611A001001E
:101ED000835784FEC207C183130704FFBA97238880
:101EE00007EA938741A403A8C700938741A483C747
:101EF0007700139707014183835724FE93960701C8
:101F0000C18693970601C1838507C207C183C207B3
:101F1000C1872311F4FE93970601C183B307F7022B
:101F2000C207C183130704EA3A86BE8501450298B9
:101F30008357A4FEC207C1838507C207C183231547
:101F4000F4FE8357A4FEC207C183BE84930704EE48
:101F50003E85EF9020272A87835744FEC207C1871A
:101F6000B357F7028507E3E3F4EC130704EE032607
:101F700044D9B967938547EE3A85EF90402093871F
:101F800041A403A8C700938741A483C77700139790
:101F900007014183835724FE93960701C1869397D7
:101FA0000601C1838507C207C183C207C187231108
:101FB000F4FE93970601C183B307F702C207C183FA
:101FC000130704EE3A86BE8501450298832704D99B
:101FD0006386071A231504FE21AA231404FE59A0C0
:101FE000032504D9EF90001E2A87835784FEC20779
:101FF000C183BE868357A4FEC207C1833E86835732
:1020000044FEC207C187B307F602B6976368F706B6
:10201000835784FEC207C1833E878357A4FEC2074D
:10202000C183BE86835744FEC207C187B387F602C9
:10203000BA973E87832704D9BA97035784FE42078D
:102040004183BA8603870700930704FFB697238866
:10205000E7EA835784FEC207C1838507C207C183AD
:102060002314F4FE835784FEC207C1833E8783573F
:1020700044FEC207C187E345F7F611A0010083576C
:1020800084FEC207C183130704FFBA97238807EAB7
:10209000938741A403A8C700938741A483C777000F
:1020A000139707014183835724FE93960701C18646
:1020B00093970601C1838507C207C183C207C18701
:1020C0002311F4FE93970601C183B307F702C207F9
:1020D000C183130704EA3A86BE85014502988357F7
:1020E000A4FEC207C1838507C207C1832315F4FE7E
:1020F0008357A4FEC207C183BE84032504D9EF9091
:10210000600C2A87835744FEC207C187B357F70282
:102110008507E3E4F4EC9DA0930704DA13060010AE
:1021200081453E85EFE0CF8D938741A49C470325F1
:10213000C4D98297832704D999CF130504DA0327DA
:1021400004D9832644D9032684D9B967938507EF38
:10215000EF90E00229A8130704DA832644D9032666
:1021600084D9B9679385C7F03A85EF90400193878A
:1021700041A49847930704DA3E8502970100832023
:10218000C12603248126832441261301012782804E
:10219000797106D622D40018232EA4FC232CB4FC7B
:1021A000232AC4FC232604FEA9A00100B967938753
:1021B000070E9C47930500043E85EF30A06EAA876A
:1021C000F5D7B9679387070E9C47BE86832784FDA2
:1021D00013871700232CE4FC83870700C207C18301
:1021E000BE853685EF3020698327C4FE8507232608
:1021F000F4FE0327C4FE832744FDE348F7FA832750
:1022000044FD3E85B250225445618280011106CEC4
:1022100022CC0010AA872324B4FE2322C4FEA307E5
:10222000F4FE8347F4FEB1E383C7018193F7F70F10
:102230008DCF83C7D18591C301A083C7D185850781
:1022400013F7F70FA38EE184EF00B024EFF0BF9EE9
:102250008146032644FE832584FEB967138547F231
:10226000EFF05FA0EFF01F98E5B70100F240624485
:1022700005618280011122CE00102326A4FE83274F
:10228000C4FE239007008327C4FE7D572391E700F7
:102290008327C4FE7D572392E7008327C4FE7D5722
:1022A0002383E7008327C4FE7D57A383E7008327AA
:1022B000C4FE23A407008327C4FE23A607008327A8
:1022C000C4FE23A807000100724405618280011149
:1022D00022CE00102326A4FE8327C4FE03D70700C6
:1022E0002392E1A48327C4FE03D72700938741A448
:1022F0002391E7008327C4FE03D74700938741A4B7
:102300002392E7008327C4FE03C76700938741A495
:102310002383E7008327C4FE03C77700938741A484
:10232000A383E7008327C4FE9847938741A498C7F7
:102330008327C4FED847938741A4D8C78327C4FE08
:10234000984B938741A498CB0547238EE1840100E5
:10235000724405618280797106D622D400189307F1
:10236000C4FD3E85013FB7270000938747C4232261
:10237000F4FE9307C4FD3E85993F89679386B702B3
:1023800089671386A702F167938507200945EFE067
:102390009FDE0100B250225445618280011122CE9D
:1023A00000102326A4FE2324B4FE8327C4FED847AE
:1023B000832784FE3E978327C4FED8C719A88327A6
:1023C000C4FED8478327C4FE9C4F1D8F8327C4FEBD
:1023D000D8C78327C4FE984F8327C4FEDC47E3F0A9
:1023E000E7FE0100724405618280011122CE0010D7
:1023F0002326A4FE2324B4FE8327C4FE984B832700
:1024000084FE3E978327C4FE98CB19A88327C4FE79
:10241000984B8327C4FE9C4F1D8F8327C4FE98CB07
:102420008327C4FE984F8327C4FE9C4BE3F0E7FE4E
:102430000100724405618280797106D622D40018A9
:10244000232EA4FC8327C4FDB337F00093F7F70FC6
:102450003E8713064005B967938507F43A857D33B7
:10246000232604FE8327C4FD83C70700858B93F7CB
:10247000F70F89C789472326F4FE7DA08327C4FD73
:1024800083C7070093E7170013F7F70F8327C4FDEF
:102490002380E7008327C4FD23A607008327C4FD0C
:1024A00023A807008327C4FD984F8327C4FDD8CBFA
:1024B0008327C4FDDC4305476383E70289C70947D7
:1024C000638CE702B9A08327C4FD98478327C4FD26
:1024D0009C4F3E8681453A85EFD09FD21DA8832729
:1024E000C4FD98478327C4FD9C4F86073E868145DF
:1024F0003A85EFD0FFD031A88327C4FD98478327C2
:10250000C4FD9C4F8A073E8681453A85EFD05FCF58
:1025100001008327C4FD83C70700F99B13F7F70F5A
:102520008327C4FD2380E7008327C4FE3E85B25085
:10253000225445618280011106CE22CC0010232650
:10254000A4FE8327C4FEB337F00093F7F70F3E874E
:102550001306C007B967938507F43A854539832781
:10256000C4FE984F8327C4FEDC4BB307F7403E857B
:10257000F240624405618280797106D622D4001847
:10258000232EA4FC232CB4FC232AC4FC8327C4FDE3
:10259000B337F00093F7F70F3E871306C00BB96708
:1025A000938507F43A859D31232604FE232404FEF7
:1025B000832784FD89E78D472326F4FE45A48327DE
:1025C000C4FD83C70700898B93F7F70F89C7854739
:1025D0002326F4FE61A48327C4FD83C7070093E785
:1025E000270013F7F70F8327C4FD2380E700832715
:1025F000C4FDDC4B032744FD63E4E7248327C4FDCB
:10260000984F8327C4FDDC47B307F7402324F4FE2B
:10261000032744FD832784FE63FCE7168327C4FD5C
:10262000DC430547638DE70689C709476385E70EE5
:10263000F5AA8327C4FD98478327C4FDDC47BA97D2
:10264000032684FE832584FD3E85EF806004832578
:1026500084FE0325C4FD99338327C4FD984783274F
:10266000C4FDDC47B306F700032784FD832784FEFF
:10267000B305F700032744FD832784FEB307F74023
:102680003E863685EF80C000032744FD832784FE05
:10269000B307F740BE850325C4FD093341AA83274C
:1026A000C4FD98478327C4FDDC4786073E978327F0
:1026B00084FE86073E86832584FD3A85EF70507D33
:1026C000832584FE0325C4FDD1398327C4FD9847A3
:1026D0008327C4FDDC478607B306F700832784FE03
:1026E0008607032784FDB305F700032744FD8327EE
:1026F00084FEB307F74086073E863685EF70507933
:10270000032744FD832784FEB307F740BE850325D6
:10271000C4FD693121AA8327C4FD98478327C4FDDE
:10272000DC478A073E97832784FE8A073E868325F7
:1027300084FD3A85EF70D075832584FE0325C4FDA2
:10274000B1398327C4FD98478327C4FDDC478A0736
:10275000B306F700832784FE8A07032784FDB305A9
:10276000F700032744FD832784FEB307F7408A0759
:102770003E863685EF70D071032744FD832784FEA3
:10278000B307F740BE850325C4FD0939010079A8C8
:102790008327C4FDDC430547638BE70289C70947EC
:1027A000638EE70461A08327C4FD98478327C4FD97
:1027B000DC47BA97032644FD832584FD3E85EF70F0
:1027C000306D832544FD0325C4FDC93E85A08327C4
:1027D000C4FD98478327C4FDDC4786073E978327BF
:1027E00044FD86073E86832584FD3A85EF70506A56
:1027F000832544FD0325C4FD55360DA88327C4FD5C
:1028000098478327C4FDDC478A073E97832744FD0A
:102810008A073E86832584FD3A85EF70706783259D
:1028200044FD0325C4FDEFF07FB701008327C4FDFD
:10283000D84B832744FD1D8F8327C4FDD8CB21A00F
:1028400091472326F4FE8327C4FD83C70700F59B29
:1028500013F7F70F8327C4FD2380E7008327C4FE07
:102860003E85B250225445618280797106D622D4C9
:102870000018232EA4FC232CB4FC232AC4FC2328F8
:10288000D4FC8327C4FDB337F00093F7F70F3E87DE
:1028900013067016B967938507F43A85EFF01F9712
:1028A000832744FDB337F00093F7F70F3E871306F5
:1028B0008016B967938507F43A85EFF03F95232694
:1028C00004FE832784FD89E78D472326F4FE99AC17
:1028D0008327C4FD83C7070093E7470013F7F70F6B
:1028E0008327C4FD2380E7000325C4FDA9312324E9
:1028F000A4FE832744FD9C43032784FE637AF700EC
:10290000832744FD032784FE98C395472326F4FEBE
:102910008327C4FD984F8327C4FD9C4BB307F74022
:102920002322F4FE832744FD9C43032744FE636572
:10293000F7088327C4FDDC4305476388E70289C79E
:1029400009476387E704BDA28327C4FD984783270F
:10295000C4FD9C4B3E97832744FD9C433E86BA852D
:10296000032584FDEF70D052B1A28327C4FD9847A0
:102970008327C4FD9C4B86073E97832744FD9C43D9
:1029800086073E86BA85032584FDEF7070501DA230
:102990008327C4FD98478327C4FD9C4B8A073E9735
:1029A000832744FD9C438A073E86BA85032584FD20
:1029B000EF70104E0100FDA88327C4FDDC430547DE
:1029C000638AE70489C70947638EE708E5A0832780
:1029D000C4FD98478327C4FD9C4BBA97032644FE49
:1029E000BE85032584FDEF70B04A032784FD83274D
:1029F00044FEB306F7008327C4FD8C47832744FDBC
:102A00009843832744FEB307F7403E863685EF7030
:102A100030484DA08327C4FD98478327C4FD9C4BB5
:102A200086073E97832744FE86073E86BA850325A0
:102A300084FDEF70F045832744FE8607032784FD5D
:102A4000B306F7008327C4FD8C47832744FD9843D2
:102A5000832744FEB307F74086073E863685EF702E
:102A6000304389A88327C4FD98478327C4FD9C4B26
:102A70008A073E97832744FE8A073E86BA85032548
:102A800084FDEF70F040832744FE8A07032784FD0E
:102A9000B306F7008327C4FD8C47832744FD984382
:102AA000832744FEB307F7408A073E863685EF70DA
:102AB000303E0100832704FDB5E78327C4FD83C7AB
:102AC0000700858B93F7F70F89C789472326F4FE04
:102AD00091A88327C4FD83C7070093E7170013F766
:102AE000F70F8327C4FD2380E700832744FD9C4321
:102AF000BE850325C4FDEFF05F8F8327C4FDD84B4F
:102B0000832744FD9C433E978327C4FDD8CB83276E
:102B1000C4FD83C70700F99B13F7F70F8327C4FD94
:102B20002380E7008327C4FD83C70700918B13F739
:102B3000F70F8327C4FD2380E7008327C4FE3E856B
:102B4000B250225445618280411122C60008996723
:102B50009387870873900780010032444101828087
:102B6000411122C600089967739007800100324422
:102B700041018280011122CE00102326A4FE83276A
:102B8000C4FEFD8B0547B316F70037E700E0832747
:102B9000C4FE9583938707048A07BA9794C30100FC
:102BA000724405618280011122CE00102326A4FE0A
:102BB0008327C4FEFD8B0547B316F70037E700E017
:102BC0008327C4FE9583938707068A07BA9794C321
:102BD0000100724405618280011122CE001023267B
:102BE000A4FEAE87A305F4FE37E700E08327C4FE0A
:102BF000BA970347B4FE2380E740010072440561A1
:102C00008280011106CE22CC00102326A4FE0325CB
:102C1000C4FE8D370100F2406244056182800111DB
:102C200006CE22CC00102326A4FE0325C4FEA53F19
:102C30000100F240624405618280011106CE22CC7F
:102C400000102326A4FEAE87A305F4FE8347B4FE3E
:102C5000BE850325C4FE49370100F2406244056188
:102C60008280011106CE22CC00102326A4FE8327E9
:102C7000C4FE99C783A701861387F7FF23A0E186C7
:102C800083A7018691E3C9350100F24062440561E2
:102C90008280411106C622C4000883A7018691E301
:102CA000C13583A701861387170023A0E18683A778
:102CB00001863E85B240224441018280411106C610
:102CC00022C400080145713F0100B2402244410185
:102CD00082801D71A2CE82E686E48AE28EE012FE38
:102CE00016FC1AFA1EF82AF62EF432F236F03AEEF4
:102CF0003EEC42EA46E872E676E47AE27EE0801054
:102D000093055052B747014013850780EF20F03DEF
:102D1000AA8789CB93055052B74701401385078096
:102D2000EF20D04C010076443660A66016618661C3
:102D30007272E2725273C2733275A2751276827623
:102D40007267E2675268C268326EA26E126F826F5B
:102D50002561730020301D71A2CE82E686E48AE2EE
:102D60008EE012FE16FC1AFA1EF82AF62EF432F243
:102D700036F03AEE3EEC42EA46E872E676E47AE273
:102D80007EE0801093055052B747004013850740FE
:102D9000EF20B035AA8789CB93055052B747004042
:102DA00013850740EF209044010076443660A6600A
:102DB000166186617272E2725273C2733275A275C5
:102DC000127682767267E2675268C268326EA26ECD
:102DD000126F826F2561730020301D71A2CE82E6D2
:102DE00086E48AE28EE012FE16FC1AFA1EF82AF633
:102DF0002EF432F236F03AEE3EEC42EA46E872E663
:102E000076E47AE27EE0801093055052B757004096
:102E100013850780EF20702DAA8789CB9305505228
:102E2000B757004013850780EF20503C01007644DF
:102E30003660A660166186617272E2725273C27366
:102E40003275A275127682767267E2675268C2683E
:102E5000326EA26E126F826F2561730020301D7179
:102E6000A2CE82E686E48AE28EE012FE16FC1AFA10
:102E70001EF82AF62EF432F236F03AEE3EEC42EA32
:102E800046E872E676E47AE27EE0801093055052DE
:102E9000B7570040138507C0EF203025AA8789CB9C
:102EA00093055052B7570040138507C0EF201034E8
:102EB000010076443660A660166186617272E27225
:102EC0005273C2733275A275127682767267E267A8
:102ED0005268C268326EA26E126F826F25617300F3
:102EE00020301D71A2CE82E686E48AE28EE012FED8
:102EF00016FC1AFA1EF82AF62EF432F236F03AEEE2
:102F00003EEC42EA46E872E676E47AE27EE0801041
:102F10009305505237550040EF20301DAA8781CFCE
:102F2000B707002083A7C7258297930550523755CE
:102F30000040EF20B02B010076443660A660166199
:102F400086617272E2725273C2733275A275127622
:102F500082767267E2675268C268326EA26E126F42
:102F6000826F2561730020301D71A2CE82E686E457
:102F70008AE28EE012FE16FC1AFA1EF82AF62EF4E9
:102F800032F236F03AEE3EEC42EA46E872E676E499
:102F90007AE27EE0801093055052B72700401385F7
:102FA0000780EF209014AA8789CB93055052B7274A
:102FB000004013850780EF207023010076443660BF
:102FC000A660166186617272E2725273C2733275C4
:102FD000A275127682767267E2675268C268326EB4
:102FE000A26E126F826F2561730020305971A2D6D4
:102FF00082EE86EC8AEA8EE892E696E49AE29EE019
:103000002AFE2EFC32FA36F83AF63EF442F246F048
:1030100072EE76EC7AEA7EE8801893055052B72774
:103020000040138507C0EF20500CAA876389071062
:10303000A30F04F883C7818C639B070E9307F4F9F1
:10304000BE851945EFE04F8D0347F4F9930750050E
:103050006315F70283C78186138717009376F70FEE
:103060002384D186BE860347F4F9B71700209387DF
:103070004750B6972380E70049A803C78186854754
:103080006314F704B717002003C747509307500590
:10309000631CF70283C78186138717009376F70FA7
:1030A0002384D186BE860347F4F9B717002093879F
:1030B0004750B6972380E7008347F4F91397070139
:1030C00041832395E18691A083D7A1868D0703C70D
:1030D000818663CCE702B717002003C747509307E8
:1030E00050056314F70283C7818613871700937610
:1030F000F70F2384D186BE860347F4F9B717002063
:1031000093874750B6972380E70083D7A1868D0722
:1031100003C7818663DDE700238401860547238496
:10312000E18C2395018681451945EFD0BFF69305C3
:103130005052B7270040138507C0EF20300B010025
:1031400036547660E6605661C6613662A6621663E2
:1031500086637275E2755276C2763277A2771278FC
:103160008278726EE26E526FC26F656173002030BA
:103170001D71A2CE82E686E48AE28EE012FE16FC83
:103180001AFA1EF82AF62EF432F236F03AEE3EEC37
:1031900042EA46E872E676E47AE27EE08010930541
:1031A000505237250040EF204074AA8789CBEFE0CA
:1031B0006FE99305505237250040EF20300301009E
:1031C00076443660A660166186617272E27252734E
:1031D000C2733275A275127682767267E2675268A0
:1031E000C268326EA26E126F826F2561730020304A
:1031F0001D71A2CE82E686E48AE28EE012FE16FC03
:103200001AFA1EF82AF62EF432F236F03AEE3EECB6
:1032100042EA46E872E676E47AE27EE08010B7079A
:10322000055083C7070193F7F70F918B8DC383A7D1
:1032300081808297B707055083C7070113F7F70FFF
:10324000B70705506D9B1377F70F2388E700010040
:1032500076443660A660166186617272E2725273BD
:10326000C2733275A275127682767267E26752680F
:10327000C268326EA26E126F826F256173002030B9
:103280001D71A2CE82E686E48AE28EE012FE16FC72
:103290001AFA1EF82AF62EF432F236F03AEE3EEC26
:1032A00042EA46E872E676E47AE27EE0801005457E
:1032B000EF00905D2A8785476315F7000545EF000D
:1032C0001062010076443660A660166186617272F3
:1032D000E2725273C2733275A27512768276726789
:1032E000E2675268C268326EA26E126F826F256109
:1032F000730020301D71A2CE82E686E48AE28EE061
:1033000012FE16FC1AFA1EF82AF62EF432F236F0E5
:103310003AEE3EEC42EA46E872E676E47AE27EE095
:1033200080100945EF0050562A8785476315F7003E
:103330000945EF00D05A010076443660A660166158
:1033400086617272E2725273C2733275A27512761E
:1033500082767267E2675268C268326EA26E126F3E
:10336000826F2561730020301D71A2CE82E686E453
:103370008AE28EE012FE16FC1AFA1EF82AF62EF4E5
:1033800032F236F03AEE3EEC42EA46E872E676E495
:103390007AE27EE080101145EF00104F2A878547C2
:1033A0006315F7001145EF00905301007644366035
:1033B000A660166186617272E2725273C2733275D0
:1033C000A275127682767267E2675268C268326EC0
:1033D000A26E126F826F2561730020301D71A2CE24
:1033E00082E686E48AE28EE012FE16FC1AFA1EF8E5
:1033F0002AF62EF432F236F03AEE3EEC42EA46E895
:1034000072E676E47AE27EE080102145EF00D04754
:103410002A8785476315F7002145EF00504C0100CE
:1034200076443660A660166186617272E2725273EB
:10343000C2733275A275127682767267E26752683D
:10344000C268326EA26E126F826F256173002030E7
:103450001D71A2CE82E686E48AE28EE012FE16FCA0
:103460001AFA1EF82AF62EF432F236F03AEE3EEC54
:1034700042EA46E872E676E47AE27EE08010414570
:10348000EF0090402A8785476315F7004145EF001C
:103490001045010076443660A6601661866172723E
:1034A000E2725273C2733275A275127682767267B7
:1034B000E2675268C268326EA26E126F826F256137
:1034C000730020301D71A2CE82E686E48AE28EE08F
:1034D00012FE16FC1AFA1EF82AF62EF432F236F014
:1034E0003AEE3EEC42EA46E872E676E47AE27EE0C4
:1034F000801013050002EF0030392A8785476316D4
:10350000F70013050002EF00903D13050004EF00E3
:10351000B0372A8785476316F70013050004EF00CC
:10352000103C13050008EF0030362A8785476316E4
:10353000F70013050008EF00903A13050010EF00A4
:10354000B0342A8785476316F70013050010EF0093
:10355000103913050020EF0030332A8785476316A2
:10356000F70013050020EF00903701007644366025
:10357000A660166186617272E2725273C27332750E
:10358000A275127682767267E2675268C268326EFE
:10359000A26E126F826F2561730020301D71A2CE62
:1035A00082E686E48AE28EE012FE16FC1AFA1EF823
:1035B0002AF62EF432F236F03AEE3EEC42EA46E8D3
:1035C00072E676E47AE27EE0801013050040EF00B8
:1035D000B02B2A8785476316F70013050040EF00DC
:1035E0001030856713850780EF00102A2A878547EA
:1035F0006317F700856713850780EF00502E056578
:10360000EF0090282A8785476315F7000565EF00CE
:10361000102D0965EF0050272A8785476315F700AD
:103620000965EF00D02B1165EF0010262A8785472A
:103630006317F700EFE0EF9D1165EF00502A216559
:10364000EF0090242A8785476317F700EFE00F8D7E
:103650002165EF00D028010076443660A66016612F
:1036600086617272E2725273C2733275A2751276FB
:1036700082767267E2675268C268326EA26E126F1B
:10368000826F2561730020301D71A2CE82E686E430
:103690008AE28EE012FE16FC1AFA1EF82AF62EF4C2
:1036A00032F236F03AEE3EEC42EA46E872E676E472
:1036B0007AE27EE080108545B7370140138507C068
:1036C000EF10105CAA8791CF8545B737014013856D
:1036D00007C0EF10F061EF306043EF308022EF3031
:1036E0000062010076443660A660166186617272DF
:1036F000E2725273C2733275A27512768276726765
:10370000E2675268C268326EA26E126F826F2561E4
:10371000730020301D71A2CE82E686E48AE28EE03C
:1037200012FE16FC1AFA1EF82AF62EF432F236F0C1
:103730003AEE3EEC42EA46E872E676E47AE27EE071
:103740008010854537050040EF109053AA87D5CBF0
:10375000854537050040EF10B05903D7418683D720
:1037600061866370F70A83D76186C1CF83D74186AC
:103770003E87B70700200A0793874756BA9783D733
:103780000700D3F717D0938781A59CEB83D7418699
:103790003E87B70700200A0793874756BA9783D713
:1037A0000700BE85B71703001385C706E92B83D72B
:1037B00041863E87B70700200A0793874756BA9786
:1037C00083D72700D3F717D0938781A5DCEB83D766
:1037D00041861387170093160701C1822392D18671
:1037E0003E87B70700200A0793874756BA9783D7C3
:1037F0002700BE85B71703001385E7266923EF303E
:10380000A043010076443660A6601661866172723C
:10381000E2725273C2733275A27512768276726743
:10382000E2675268C268326EA26E126F826F2561C3
:10383000730020301D71A2CE82E686E48AE28EE01B
:1038400012FE16FC1AFA1EF82AF62EF432F236F0A0
:103850003AEE3EEC42EA46E872E676E47AE27EE050
:1038600080108545B707004013850740EF10504191
:10387000AA8781CB8545B707004013850740EF1025
:103880003047010076443660A66016618661727228
:10389000E2725273C2733275A275127682767267C3
:1038A000E2675268C268326EA26E126F826F256143
:1038B000730020301D71A2CE82E686E48AE28EE09B
:1038C00012FE16FC1AFA1EF82AF62EF432F236F020
:1038D0003AEE3EEC42EA46E872E676E47AE27EE0D0
:1038E00080108545B717004013850780EF105039C9
:1038F000AA8781CB8545B717004013850780EF1055
:10390000303F010076443660A660166186617272AF
:10391000E2725273C2733275A27512768276726742
:10392000E2675268C268326EA26E126F826F2561C2
:10393000730020301D71A2CE82E686E48AE28EE01A
:1039400012FE16FC1AFA1EF82AF62EF432F236F09F
:103950003AEE3EEC42EA46E872E676E47AE27EE04F
:1039600080108545B7170040138507C0EF10503110
:10397000AA8781CB8545B7170040138507C0EF1094
:103980003037010076443660A66016618661727237
:10399000E2725273C2733275A275127682767267C2
:1039A000E2675268C268326EA26E126F826F256142
:1039B000730020301D71A2CE82E686E48AE28EE09A
:1039C00012FE16FC1AFA1EF82AF62EF432F236F01F
:1039D0003AEE3EEC42EA46E872E676E47AE27EE0CF
:1039E0008010854537150040EF109029AA8791C7B0
:1039F000854537150040EF10B02F01007644366042
:103A0000A660166186617272E2725273C273327579
:103A1000A275127682767267E2675268C268326E69
:103A2000A26E126F826F2561730020301D71A2CECD
:103A300082E686E48AE28EE012FE16FC1AFA1EF88E
:103A40002AF62EF432F236F03AEE3EEC42EA46E83E
:103A500072E676E47AE27EE080108545B717004092
:103A600013850740EF10D021AA8781CB8545B71772
:103A7000004013850740EF10B02701007644366000
:103A8000A660166186617272E2725273C2733275F9
:103A9000A275127682767267E2675268C268326EE9
:103AA000A26E126F826F2561730020301D71A2CE4D
:103AB00082E686E48AE28EE012FE16FC1AFA1EF80E
:103AC0002AF62EF432F236F03AEE3EEC42EA46E8BE
:103AD00072E676E47AE27EE080108545B7370140F1
:103AE00013850740EF10D019AA8781CB8545B737DA
:103AF000014013850740EF10B01F01007644366087
:103B0000A660166186617272E2725273C273327578
:103B1000A275127682767267E2675268C268326E68
:103B2000A26E126F826F2561730020301D71A2CECC
:103B300082E686E48AE28EE012FE16FC1AFA1EF88D
:103B40002AF62EF432F236F03AEE3EEC42EA46E83D
:103B500072E676E47AE27EE080108545B757014050
:103B6000138507C0EF10D011AA8781CB8545B757C1
:103B70000140138507C0EF10B0170100764436608E
:103B8000A660166186617272E2725273C2733275F8
:103B9000A275127682767267E2675268C268326EE8
:103BA000A26E126F826F2561730020301D71A2CE4C
:103BB00082E686E48AE28EE012FE16FC1AFA1EF80D
:103BC0002AF62EF432F236F03AEE3EEC42EA46E8BD
:103BD00072E676E47AE27EE0801085453755014052
:103BE000EF10100AAA8791C7854537550140EF109D
:103BF0003010010076443660A660166186617272EC
:103C0000E2725273C2733275A2751276827672674F
:103C1000E2675268C268326EA26E126F826F2561CF
:103C200073002030411122C60008010032444101D6
:103C300073002030411122C6000801A0011106CEF8
:103C400022CC00102326A4FEAE872315F4FE832782
:103C5000C4FE850783C70700A207139707014187A2
:103C60008327C4FE83C70700C207C187D98F9396F5
:103C70000701C1861397060141839375F70F03C7A8
:103C8000418C018B3A862E87518F2382E18C1397CA
:103C900006014183218313160701418203C7518C1A
:103CA000018BBA863287558FA382E18C8327C4FEAD
:103CB0008D0783C70700A207139707014187832752
:103CC000C4FE890783C70700C207C187D98F9396AF
:103CD0000701C1869387418C139706014183937531
:103CE000F70F03C72700018B3A862E87518F238158
:103CF000E7001397060141832183131607014182D0
:103D000003C73700018BBA863287558FA381E7003E
:103D100003C7418C83C7518CA207D98FC207C187C3
:103D2000C207C187BE861387418C0347270093874C
:103D3000418C83C73700A207D98FC207C187C2074A
:103D4000C1873E86B685B9671385C7F9EF70003F16
:103D50000100F240624405618280011106CE22CC4E
:103D600000102326A4FEAE872315F4FE8357A4FE7D
:103D70003E868325C4FE1945EFD08FA50100F24091
:103D8000624405618280011106CE22CC00102326F8
:103D9000A4FE2324B4FE032784FE9307C01B63EE16
:103DA000E700032584FEEF608040AA872E883E85C9
:103DB000C285EF60E02EAA8719A09307C01B2324B9
:103DC000F4FE832584FE0325C4FEEFC0FF920100AC
:103DD000F240624405618280757106C722C5000900
:103DE000B7172707138507E0EFD03FDCEFE0AFD62A
:103DF000B707002087A7870627ACF1A4B7070020E4
:103E000093878706DC63938781A5DCE3EF20D0628C
:103E1000B7070020938787069C6727ACF1A4B707F4
:103E2000002093878706DC67938781A5DCE3EF207A
:103E3000B060B7070020938787069C6B27ACF1A47E
:103E4000B707002093878706DC6B938781A5DCE3A7
:103E5000EF20905EB7070020938787069C6F27AC02
:103E6000F1A4B707002093878706DC6F938781A5AD
:103E7000DCE3EF20705C99679386D73899671386E7
:103E8000C738F167938507201945EFD0CFAE930768
:103E900084F72326F4FEB74700001386A7D5B7475B
:103EA00000009385C7C30325C4FEEF303018854555
:103EB0001945EFD02F9E03A7C1808967938707F428
:103EC000B357F7029305803E3E85EFC0EFBD130662
:103ED000E02E93052003B71703001385C706EFC034
:103EE0001F981306E02E93052003B71703001385D0
:103EF000E726EFC0DF96EF201069EF308000AA8739
:103F00003E872393E18603A7C1809307803E335702
:103F1000F702BA878A07BA978607BE850145EFC0C0
:103F20002FDC03A7C1809307803E3357F702BA877F
:103F30008A07BA978607BE850545EFC06FDA01A0EC
:103F400001A001A001A001A001A001A001A001A069
:103F500001A001A001A001A001A001A001A001A059
:103F600001A001A001A001A001A001A001A001A049
:103F700001A001A001A001A001A001A001A001A039
:103F800001A001A001A001A001A001A001A001A029
:103F900001A001A001A001A001A001A001A001A019
:103FA00001A001A001A001A001A001A001A001A009
:103FB00001A001A001A001A001A001A001A001A0F9
:103FC00001A001A001A001A001A001A001A001A0E9
:103FD00001A001A001A001A001A001A001A001A0D9
:103FE00001A001A001A001A001A001A001A001A0C9
:103FF00001A001A001A001A001A001A001A097D1F2
:10400000FF1F9381A1A5174101201301A1FF17A54F
:1040100000001305657697C5FF1F9385A5FE1386DF
:10402000418463FAC5008322050023A055001105D1
:104030009105E3EAC5FE1385418497D5FF1F93855B
:1040400025536377B500232005001105E36DB5FE08
:10405000FD42739002BCFD4273904280B762000043
:104060009382820873A0023097C2FFFF938202FD01
:1040700093E232007390523097020000938202D68E
:104080007390123473002030797122D60018232ED9
:10409000A4FC232604FE232404FEB70701409387D3
:1040A00007409C430327C4FDF98F2324F4FEB70780
:1040B000014093870740D84B8327C4FDF98F81CBFC
:1040C000832784FE89C785472326F4FE19A023266B
:1040D00004FE8327C4FE3E8532544561828001116F
:1040E00022CE00102326A4FEB70701409387074085
:1040F0000327C4FED8CB0100724405618280397168
:1041000022DE80002326A4FC2324B4FC232604FE04
:10411000232004FE232404FE232E04FC232204FE79
:10412000232C04FC832784FC9C47BD8B2326F4FEB0
:10413000832784FC9C47C18B89CB832784FCDC4389
:104140000327C4FED98F2326F4FE832784FC83D75C
:10415000070093F7F70FF1CF8327C4FC9C4323227A
:10416000F4FE232404FE65A8832784FE0547B317C5
:10417000F700232EF4FC832784FC83D707003E87B7
:104180008327C4FDF98F2320F4FE032704FE832731
:10419000C4FD6311F708832784FE8A07232EF4FCED
:1041A0008327C4FD3D47B317F700232CF4FC832776
:1041B00084FD93C7F7FF032744FEF98F2322F4FE03
:1041C0008327C4FD0327C4FEB317F700032744FE6B
:1041D000D98F2322F4FE832784FC9847930780021B
:1041E000631BF700832784FE05473317F7008327F7
:1041F000C4FCD8CB05A0832784FC98479307800490
:10420000631AF700832784FE05473317F7008327D7
:10421000C4FC98CB832784FE85072324F4FE032760
:1042200084FE9D47E3F2E7F48327C4FC032744FEA2
:1042300098C3832784FC03D707009307F00F63F12B
:10424000E70E8327C4FCDC432322F4FE232404FE70
:1042500075A8832784FEA1070547B317F700232E0F
:10426000F4FC832784FC83D707003E878327C4FDA3
:10427000F98F2320F4FE032704FE8327C4FD631275
:10428000F708832784FE8A07232EF4FC8327C4FDC6
:104290003D47B317F700232CF4FC832784FD93C715
:1042A000F7FF032744FEF98F2322F4FE8327C4FD82
:1042B0000327C4FEB317F700032744FED98F232238
:1042C000F4FE832784FC984793078002631BF70062
:1042D000832784FEA10705473317F7008327C4FC13
:1042E000D8CB832784FC984793078004631BF7008F
:1042F000832784FEA10705473317F7008327C4FCF3
:1043000098CB832784FE85072324F4FE032784FEAD
:104310009D47E3F0E7F48327C4FC032744FED8C39A
:104320000100725421618280011122CE00102326E7
:10433000A4FEAE872322C4FE2315F4FE832744FE89
:1043400099C70357A4FE8327C4FE98CB31A0035717
:10435000A4FE8327C4FED8CB01007244056182808D
:10436000797122D60018232EA4FC232CB4FC23241C
:1043700004FE232204FE232604FE232004FE8327BA
:10438000C4FD63D80700B7070140DC4F2326F4FEC5
:1043900031A0B7070140DC432326F4FE8327C4FD88
:1043A000C183BD8B2320F4FE0327C4FDC167FD1725
:1043B000F98F2324F4FE8327C4FD63D40708032761
:1043C000C4FDB70730007D8FB70730006314F702D4
:1043D000832704FEC1070D47B317F7002322F4FE1D
:1043E000832744FE93C7F7FF0327C4FEF98F2326D4
:1043F000F4FEC5A80327C4FDB7071000F98F95C3C5
:10440000832704FE0D47B317F7002322F4FE83270A
:1044100044FE93C7F7FF0327C4FEF98F2326F4FE5B
:10442000C9A08327C4FDD5839207032784FEB31751
:10443000F70093C7F7FF0327C4FEF98F2326F4FE86
:104440004DA00327C4FDB70730007D8FB7073000AC
:104450006315F7020327C4FEB70700F1FD17F98FB4
:104460002326F4FEB7070140D443B70701403707BE
:1044700000F17D17758FD8C3ADA00327C4FDB70722
:104480001000F98F8DCB832704FE0D47B317F7007B
:104490002322F4FE832744FE93C7F7FF0327C4FEBD
:1044A000F98F2326F4FE0327C4FEB707000FD98F28
:1044B0002326F4FE3DA08327C4FDD583920703275E
:1044C00084FEB317F70093C7F7FF0327C4FEF98FE5
:1044D0002326F4FE0327C4FEB707000FD98F232637
:1044E000F4FE832784FD91CF8327C4FDD5839207F3
:1044F000032784FEB317F7000327C4FED98F2326B2
:10450000F4FE8327C4FD63D80700B70701400327E3
:10451000C4FED8CF31A0B70701400327C4FED8C3DB
:104520000100325445618280397122DE80002326E9
:10453000A4FC232204FE232604FE232004FE232EB3
:1045400004FC232404FEB7170240DC43B18B232272
:10455000F4FE032744FE91476303F702032744FE5A
:10456000A1476306F702832744FE63990714832754
:10457000C4FC37177A001307072098C389AA83273A
:10458000C4FC37177A001307072098C389A2B7170E
:104590000240D843B7073C00F98F2326F4FEB71733
:1045A0000240D843C167F98F2320F4FE8327C4FE5D
:1045B000C98389072326F4FEB7F7FF1F9387C770C7
:1045C00098439167F98F91EB0327C4FEC5476319A0
:1045D000F704C9472326F4FEA1A00327C4FE894798
:1045E0006315F700C9472326F4FE0327C4FEBD4721
:1045F0006318F700B5472326F4FE85472324F4FE0D
:104600000327C4FEC1476315F700BD472326F4FE08
:104610000327C4FEC5476315F700C1472326F4FEF0
:10462000832704FEA1E3B7470240938707809C439A
:10463000C18B89CF0327C4FEB7177A009387072061
:104640003307F7028327C4FC98C399A80327C4FE45
:10465000B7173D00938707903307F7028327C4FC01
:1046600098C33DA8B7170240D843B7070200F98F97
:1046700089CF0327C4FEB7173D0093870790330700
:10468000F7028327C4FC98C321A80327C4FEB717E9
:104690007A00938707203307F7028327C4FC98C367
:1046A000032784FE85476313F7028327C4FC9C43DA
:1046B00013D717008327C4FC98C309A88327C4FC19
:1046C00037177A001307072098C311A00100B71706
:1046D0000240DC4393F7070F2322F4FE832744FEB6
:1046E00091832322F4FEB707002013874701832715
:1046F00044FEBA9783C7070093F7F70F232EF4FC05
:104700008327C4FC98438327C4FD3357F7008327CE
:10471000C4FCD8C3B7170240DC4393F707702322C9
:10472000F4FE832744FEA1832322F4FEB707002072
:1047300013874701832744FEBA9783C7070093F77F
:10474000F70F232EF4FC8327C4FCD8438327C4FD32
:104750003357F7008327C4FC98C7B7170240D843E4
:10476000916793870780F98F2322F4FE832744FE05
:10477000AD832322F4FEB707002013874701832768
:1047800044FEBA9783C7070093F7F70F232EF4FC74
:104790008327C4FCD8438327C4FD3357F7008327FE
:1047A000C4FCD8C7B7170240D843B167F98F23229A
:1047B000F4FE832744FEB9832322F4FE138741814C
:1047C000832744FEBA9783C7070093F7F70F232E7A
:1047D000F4FC8327C4FCD8478327C4FD3357F70272
:1047E0008327C4FC98CB010072542161828001119F
:1047F00022CE00102326A4FE2324B4FE832784FEA9
:1048000099CBB7170240944FB71702400327C4FE55
:10481000558F98CF21A8B7170240944F8327C4FE25
:1048200013C7F7FFB7170240758F98CF0100724486
:1048300005618280011122CE00102326A4FE2324CC
:10484000B4FE832784FE99CBB7170240D44FB71725
:1048500002400327C4FE558FD8CF21A8B7170240C6
:10486000D44F8327C4FE13C7F7FFB7170240758FD5
:10487000D8CF0100724405618280797122D6001878
:10488000232EA4FC232CB4FC231704FE8327C4FD91
:1048900083D707002317F4FE0327C4FDB737014071
:1048A000938707C06306F7060327C4FDB7070040D8
:1048B0006300F7060327C4FDB7070040938707404E
:1048C0006308F7040327C4FDB717004093870780E8
:1048D0006300F7040327C4FDB7170040938707C0A0
:1048E0006308F7020327C4FDB737014093870740E9
:1048F0006300F7020327C4FDB7570140938707C041
:104900006308F7000327C4FDB75701406311F7029E
:104910008357E4FE93F7F7F82317F4FE832784FD0B
:1049200003D727008357E4FED98F2317F4FE03270C
:10493000C4FDB71700406309F7020327C4FDB7178A
:104940000040938707406301F7028357E4FE93F723
:10495000F7CF2317F4FE832784FD03D7670083571F
:10496000E4FED98F2317F4FE8327C4FD0357E4FE2A
:104970002390E700832784FD03D747008327C4FDE6
:104980002396E702832784FD03D707008327C4FD0E
:104990002394E7020327C4FDB7370140938707C07C
:1049A0006308F7020327C4FDB73701409387074028
:1049B0006300F7020327C4FDB7570140938707C080
:1049C0006308F7000327C4FDB7570140631DF700D4
:1049D000832784FD83C787001397070141838327BB
:1049E000C4FD2398E7028327C4FD0547239AE70007
:1049F0000100325445618280797122D60018232E3D
:104A0000A4FC232CB4FC231504FE231704FE231658
:104A100004FE8327C4FD83D70702C207C183F99B25
:104A20001397070141838327C4FD2390E70283275F
:104A3000C4FD83D707022317F4FE8327C4FD83D761
:104A400047002316F4FE8327C4FD83D7870123156F
:104A5000F4FE8357A4FE93F7F7F82315F4FE83576B
:104A6000A4FEF19B2315F4FE832784FD03D70700E2
:104A70008357A4FED98F2315F4FE8357E4FEF59BDC
:104A80002317F4FE832784FD03D787008357E4FEB2
:104A9000D98F2317F4FE832784FD03D7270083577C
:104AA000E4FED98F2317F4FE0327C4FDB737014076
:104AB000938707C06308F7020327C4FDB737014097
:104AC000938707406300F7020327C4FDB7570140EF
:104AD000938707C06308F7000327C4FDB757014059
:104AE000631CF7068357E4FEDD9B2317F4FE832740
:104AF00084FD03D7A7008357E4FED98F2317F4FE64
:104B00008357E4FEED9B2317F4FE832784FD03D730
:104B100047008357E4FED98F2317F4FE8357C4FE62
:104B200093F7F7EF2316F4FE8357C4FE93F7F7DFEE
:104B30002316F4FE832784FD03D7C7008357C4FEE2
:104B4000D98F2316F4FE832784FD03D7E70083570C
:104B5000C4FED98F2316F4FE8327C4FD0357C4FE79
:104B60002392E7008327C4FD0357A4FE239CE7009C
:104B7000832784FD03D767008327C4FD239AE702B8
:104B80008327C4FD0357E4FE2390E702010032545B
:104B900045618280797122D60018232EA4FC232C33
:104BA000B4FC231504FE231704FE231604FE8327FA
:104BB000C4FD83D70702C207C183BD9B13970701BA
:104BC00041838327C4FD2390E7028327C4FD83D755
:104BD00007022317F4FE8327C4FD83D7470023165B
:104BE000F4FE8327C4FD83D787012315F4FE035702
:104BF000A4FEE577FD17F98F2315F4FE8357A4FE75
:104C000093F7F7CF2315F4FE832784FD83D707009E
:104C1000A2071397070141838357A4FED98F231559
:104C2000F4FE8357E4FE93F7F7FD2317F4FE832782
:104C300084FD83D787009207139707014183835729
:104C4000E4FED98F2317F4FE832784FD83D7270042
:104C500092071397070141838357E4FED98F2317E7
:104C6000F4FE0327C4FDB7370140938707C06308EC
:104C7000F7020327C4FDB73701409387074063005D
:104C8000F7020327C4FDB7570140938707C06308A5
:104C9000F7000327C4FDB75701406310F70A835795
:104CA000E4FE93F7F7F72317F4FE832784FD83D7F9
:104CB000A70092071397070141838357E4FED98F1A
:104CC0002317F4FE8357E4FE93F7F7FB2317F4FE54
:104CD000832784FD83D747009207139707014183F9
:104CE0008357E4FED98F2317F4FE8357C4FE93F74E
:104CF000F7BF2316F4FE0357C4FEFD779387F77FB3
:104D0000F98F2316F4FE832784FD83D7C7008A0713
:104D10001397070141838357C4FED98F2316F4FEEE
:104D2000832784FD83D7E7008A0713970701418310
:104D30008357C4FED98F2316F4FE8327C4FD03577F
:104D4000C4FE2392E7008327C4FD0357A4FE239CDF
:104D5000E700832784FD03D767008327C4FD239CD6
:104D6000E7028327C4FD0357E4FE2390E702010016
:104D7000325445618280797122D60018232EA4FC1A
:104D8000232CB4FC231504FE231704FE231604FE73
:104D90008327C4FD83D70702C207C18393F7F7EFC8
:104DA0001397070141838327C4FD2390E7028327DC
:104DB000C4FD83D707022317F4FE8327C4FD83D7DE
:104DC00047002316F4FE8327C4FD83D7C7012315AC
:104DD000F4FE8357A4FE93F7F7F82315F4FE8357E8
:104DE000A4FEF19B2315F4FE832784FD03D707005F
:104DF0008357A4FED98F2315F4FE8357E4FE93F75F
:104E0000F7DF2317F4FE832784FD83D78700A207EB
:104E10001397070141838357E4FED98F2317F4FECC
:104E2000832784FD83D72700A207139707014183B7
:104E30008357E4FED98F2317F4FE0327C4FDB73749
:104E40000140938707C06308F7020327C4FDB73703
:104E50000140938707406300F7020327C4FDB7575B
:104E60000140938707C06308F7000327C4FDB757C5
:104E700001406312F70A0357E4FEFD779387F77F3B
:104E8000F98F2317F4FE832784FD83D7A700A20799
:104E90001397070141838357E4FED98F2317F4FE4C
:104EA0008357E4FE93F7F7BF2317F4FE832784FDAF
:104EB00083D74700A2071397070141838357E4FE76
:104EC000D98F2317F4FE0357C4FEFD77FD17F98F22
:104ED0002316F4FE0357C4FEF977FD17F98F231646
:104EE000F4FE832784FD83D7C70092071397070139
:104EF00041838357C4FED98F2316F4FE832784FD94
:104F000083D7E70092071397070141838357C4FEB5
:104F1000D98F2316F4FE8327C4FD0357C4FE2392C2
:104F2000E7008327C4FD0357A4FE239EE7008327E1
:104F300084FD03D767008327C4FD239EE7028327F0
:104F4000C4FD0357E4FE2390E7020100325445619B
:104F50008280797122D60018232EA4FC232CB4FC65
:104F6000231604FE231504FE231704FE8327C4FD25
:104F700083D70702139707014183FD77FD17F98F48
:104F80001397070141838327C4FD2390E7028327FA
:104F9000C4FD83D707022315F4FE8327C4FD83D7FE
:104FA00047002317F4FE8327C4FD83D7C7012316C8
:104FB000F4FE0357C4FEE577FD17F98F2316F4FEC0
:104FC0008357C4FE93F7F7CF2316F4FE832784FD9F
:104FD00083D70700A2071397070141838357C4FEB5
:104FE000D98F2316F4FE0357A4FEF977FD17F98F26
:104FF0002315F4FE832784FD83D78700B207139718
:10500000070141838357A4FED98F2315F4FE83271C
:1050100084FD83D72700B207139707014183835785
:10502000A4FED98F2315F4FE0327C4FDB737014032
:10503000938707C06308F7020327C4FDB737014011
:10504000938707406300F7020327C4FDB757014069
:10505000938707C06308F7000327C4FDB7570140D3
:105060006316F7020357E4FEF177FD17F98F231754
:10507000F4FE832784FD83D7C7009A07139707019F
:1050800041838357E4FED98F2317F4FE8327C4FDA1
:105090000357E4FE2392E7008327C4FD0357C4FEB1
:1050A000239EE700832784FD03D767008327C4FD81
:1050B0002390E7048327C4FD0357A4FE2390E7024F
:1050C0000100325445618280011122CE0010232656
:1050D000A4FE2324B4FE832784FE8DC38327C4FE4D
:1050E00083D70700C207C18393E71700139707010F
:1050F00041838327C4FE2390E70039A88327C4FE99
:1051000083D70700C207C183F99B13970701418327
:105110008327C4FE2390E70001007244056182806A
:10512000011122CE00102326A4FE2324B4FE8327DF
:1051300084FE95C38327C4FE83D7470413970701D2
:105140004183E177D98F1397070141838327C4FEF9
:105150002392E70415A08327C4FE83D7470413973F
:1051600007014183A167FD17F98F13970701418359
:105170008327C4FE2392E704010072440561828004
:10518000011122CE00102326A4FEAE872322C4FEE6
:105190002315F4FE832744FE9DC38327C4FE83D7D3
:1051A000C7001397070141838357A4FED98F139734
:1051B000070141838327C4FE2396E70035A0832798
:1051C000C4FE83D7C7001397070141838357A4FE0A
:1051D00093C7F7FFC207C183F98F13970701418374
:1051E0008327C4FE2396E700010072440561828094
:1051F000797122D60018232EA4FCAE87231DF4FC5F
:10520000231704FE8327C4FD83D787012317F4FEE9
:105210008357E4FEDD9B2317F4FE0357E4FE835718
:10522000A4FDD98F2317F4FE8327C4FD0357E4FEA2
:10523000239CE7000100325445618280797122D6B7
:105240000018232EA4FCAE87231DF4FC231704FEB4
:105250008327C4FD83D787012317F4FE0357E4FE99
:10526000FD779387F77FF98F2317F4FE8357A4FD0B
:10527000A2071397070141838357E4FED98F2317B1
:10528000F4FE8327C4FD0357E4FE239CE7000100DE
:10529000325445618280797122D60018232EA4FCF5
:1052A000AE87231DF4FC231704FE8327C4FD83D798
:1052B000C7012317F4FE8357E4FEDD9B2317F4FE9A
:1052C0000357E4FE8357A4FDD98F2317F4FE8327E9
:1052D000C4FD0357E4FE239EE700010032544561FC
:1052E0008280797122D60018232EA4FCAE87231D5C
:1052F000F4FC231704FE8327C4FD83D7C7012317BB
:10530000F4FE0357E4FEFD779387F77FF98F2317A9
:10531000F4FE8357A4FDA207139707014183835727
:10532000E4FED98F2317F4FE8327C4FD0357E4FE60
:10533000239EE7000100325445618280797122D6B4
:105340000018232EA4FCAE87231DF4FC231704FEB3
:105350008327C4FD83D787012317F4FE8357E4FE18
:10536000ED9B2317F4FE0357E4FE8357A4FDD98F6A
:105370002317F4FE8327C4FD0357E4FE239CE700B4
:105380000100325445618280797122D60018232EA3
:10539000A4FCAE87231DF4FC231704FE8327C4FD61
:1053A00083D787012317F4FE8357E4FE93F7F7BFF3
:1053B0002317F4FE8357A4FDA20713970701418327
:1053C0008357E4FED98F2317F4FE8327C4FD0357C8
:1053D000E4FE239CE700010032544561828079712C
:1053E00022D60018232EA4FCAE87231DF4FC23171D
:1053F00004FE8327C4FD83D7C7012317F4FE835718
:10540000E4FEED9B2317F4FE0357E4FE8357A4FD4F
:10541000D98F2317F4FE8327C4FD0357E4FE239E90
:10542000E7000100325445618280797122D600186C
:10543000232EA4FCAE87231DF4FC231704FE832730
:10544000C4FD83D7C7012317F4FE8357E4FE93F707
:10545000F7BF2317F4FE8357A4FDA2071397070194
:1054600041838357E4FED98F2317F4FE8327C4FDBD
:105470000357E4FE239EE700010032544561828019
:10548000797122D60018232EA4FCAE87231DF4FCCC
:10549000232604FE231504FE231404FE8327C4FDE3
:1054A00083D707011397070141838357A4FDF98F21
:1054B0002315F4FE8327C4FD83D7C7001397070184
:1054C00041838357A4FDF98F2314F4FE8357A4FE70
:1054D00081CB835784FE89C785472326F4FE19A014
:1054E000232604FE8327C4FE3E8532544561828014
:1054F000011122CE00102326A4FEAE872315F4FE50
:105500008357A4FE93C7F7FF1397070141838327AF
:10551000C4FE2398E70001007244056182805D713A
:1055200086C6A2C48008232EA4FA232CB4FA23260C
:1055300004FE232404FE232204FE232004FE232E43
:1055400004FC8327C4FB232EF4FC8327C4FB83D7EE
:105550000701C207C1832326F4FE0327C4FEB567F3
:10556000FD17F98F2326F4FE832784FB83D767007A
:105570003E878327C4FED98F2326F4FE8327C4FEEB
:105580001397070141838327C4FB2398E7008327F0
:10559000C4FB83D7C700C207C1832326F4FE0327B9
:1055A000C4FEBD679387379FF98F2326F4FE8327B8
:1055B00084FB03D74700832784FB83D78700D98FD9
:1055C000139707014183832784FB83D7A700D98FD3
:1055D000C207C1833E878327C4FED98F2326F4FEEA
:1055E0008327C4FE1397070141838327C4FB2396B7
:1055F000E7008327C4FB83D74701C207C183232663
:10560000F4FE0327C4FEC1679387F7CFF98F2326E3
:10561000F4FE832784FB83D7C7003E878327C4FE1D
:10562000D98F2326F4FE8327C4FE139707014183F5
:105630008327C4FB239AE700930784FC3E85EFE0B1
:10564000BFEE0327C4FDB747014093870780631768
:10565000F700832744FD2324F4FE29A0832704FDBB
:105660002324F4FE8327C4FB83D7C700C207C1836A
:10567000C207C18763D20702032784FEBA87860761
:10568000BA978E073E97832784FB9C438607B357C0
:10569000F7022322F4FE05A0032784FEBA878607BB
:1056A000BA978E073E97832784FB9C438A07B3579C
:1056B000F7022322F4FE032744FE93074006B35764
:1056C000F70292072326F4FE8327C4FE13D7470070
:1056D00093074006B307F702032744FEB307F740DA
:1056E0002320F4FE8327C4FB83D7C700C207C183EE
:1056F000C207C18763D20702832704FE8E07138780
:10570000270393074006B357F7029D8B0327C4FE78
:10571000D98F2326F4FE05A0832704FE9207138762
:10572000270393074006B357F702BD8B0327C4FE38
:10573000D98F2326F4FE8327C4FE139707014183E4
:105740008327C4FB2394E7000100B640264461612F
:105750008280011122CE00102326A4FE2324B4FE51
:10576000832784FE95C38327C4FE83D7C70013977E
:10577000070141838967D98F1397070141838327E5
:10578000C4FE2396E70015A08327C4FE83D7C70075
:10579000139707014183F977FD17F98F13970701D5
:1057A00041838327C4FE2396E7000100724405610C
:1057B0008280797122D60018232EA4FCAE87232A7A
:1057C000C4FC231DF4FC232404FE232204FE232016
:1057D00004FE232604FE8327C4FD2326F4FE8357FC
:1057E000A4FD93F7F70F958393F7F70F2324F4FEA7
:1057F0008357A4FDFD8B2322F4FE832744FE054737
:10580000B317F7002320F4FE032784FE85476318AF
:10581000F7008327C4FEB1072326F4FE0DA003275B
:1058200084FE89476318F7008327C4FEC107232637
:10583000F4FE31A08327C4FED1072326F4FE83277C
:1058400044FD99CB8327C4FE94438327C4FE0327DA
:1058500004FE558F98C321A88327C4FE9443832751
:1058600004FE13C7F7FF8327C4FE758F98C301009A
:10587000325445618280011122CE00102326A4FEFD
:10588000AE872315F4FE8357A4FE93F7F71F1397F3
:10589000070141838327C4FE2392E700010072447D
:1058A00005618280797122D60018232EA4FCAE8770
:1058B000231DF4FC232604FE8327C4FD83D70700A1
:1058C0001397070141838357A4FDF98FC207C18352
:1058D00089C785472326F4FE19A0232604FE8327C3
:1058E000C4FE3E85325445618280797122D600180B
:1058F000232EA4FCAE87231DF4FC232204FE2326C2
:1059000004FE232004FE232404FE8357A4FD93F702
:10591000F70F958393F7F70F2320F4FE8357A4FD29
:10592000FD8B2326F4FE8327C4FE0547B317F7003B
:105930002326F4FE032704FE8547631FF700832711
:10594000C4FD83D7C700C207C1833E878327C4FE37
:10595000F98F2326F4FE3DA8032704FE8947631F21
:10596000F7008327C4FD83D70701C207C1833E87A1
:105970008327C4FEF98F2326F4FE29A88327C4FDBC
:1059800083D74701C207C1833E878327C4FEF98FAF
:105990002326F4FE8357A4FDA183C207C1832322DB
:1059A000F4FE832744FE0547B317F7002322F4FED5
:1059B0008327C4FD83D70700C207C1833E8783279F
:1059C00044FEF98F2322F4FE8327C4FE81CB832774
:1059D00044FE89C785472324F4FE19A0232404FE2E
:1059E000832784FE3E85325445618280797122D6B8
:1059F0000018232EA4FCAE87231DF4FC231704FEFD
:105A0000231604FE8357A4FDA1832317F4FE8357B6
:105A1000E4FE0547B317F7002316F4FE8357C4FED0
:105A200093C7F7FF1397070141838327C4FD239092
:105A3000E7000100325445618280011122CE00103E
:105A4000AA87A307F4FEB70700500347F4FE4207F6
:105A50004183239AE702B707005083C7670313F710
:105A6000F70FB7070050719B1377F70F238BE702EF
:105A70000100724405618280011122CE0010AA87C4
:105A8000A307F4FEB70700500347F4FE4207418323
:105A9000239CE702B707005083C7A70313F7F70F4C
:105AA000B7070050719B1377F70F238DE7020100B2
:105AB000724405618280797106D622D40018AA87C3
:105AC000A30FF4FCA30704FE15A803A7818783474F
:105AD000F4FEBA9703C7070083A681878347F4FEC5
