:100000006F40107113000000130000001300000087
:100010001300000013000000130000001300000094
:100020001300000013000000130000001300000084
:08003000130000007300100032
:1000380000000000000000009E480000AE480000DC
:1000480000000000564E0000000000000000000004
:10005800584E00005A4E000000000000000000004A
:100068005C4E0000000000005E4E00000000000032
:10007800604E0000624E0000644E0000664E0000B4
:10008800684E00006A4E0000423D0000B63D000088
:100098002A3E00009E3E0000123F0000764E0000FF
:1000A800784E00007A4E00007C4E00007E4E000024
:1000B800804E0000824E0000844E0000864E0000F4
:1000C800884E00008A4E00008C4E0000863F0000DB
:1000D800904E00004A410000944E0000964E0000E9
:1000E800DA410000AE4400002E4500009E4E00009C
:1000F800A04E0000A24E0000A44E0000A64E000034
:10010800A84E0000983700001C380000A0380000F6
:100118005E400000B24E0000B44E0000B64E000033
:1001280026470000BA4E0000BC4E0000BE4E00003C
:10013800C04E0000C24E0000AE450000C64E000092
:1001480024390000A83900002E460000A646000009
:10015800D04E0000D24E0000D44E0000D64E000013
:10016800D84E0000DA4E0000DC4E0000DE4E0000E3
:10017800E04E0000E24E0000E44E0000226F000056
:10018800E84E0000EA4E0000B23C00002A3A0000A7
:10019800AE3A0000323C0000F44E0000A6470000D2
:1001A800F84E0000FA4E0000FC4E00002648000001
:1001B800004F0000024F0000044F0000064F0000EF
:1001C800084F00000A4F00000C4F00000E4F0000BF
:1001D8000000000000000000000000000000000017
:1001E8000000000000000000000000000000000007
:0801F8000000000000000000FF
:100200003D432A876373C3029377F700BDEFADE5E3
:10021000937606FF3D8ABA960CC34CC30CC74CC7F5
:100220004107E36BD7FE11E28280B306C3408A0622
:100230009702000096966780A6002307B700A306E2
:10024000B7002306B700A305B7002305B700A30432
:10025000B7002304B700A303B7002303B700A3022A
:10026000B7002302B700A301B7002301B700A30022
:10027000B7002300B700828093F5F50F93968500B1
:10028000D58D93960501D58D61B79396270097027A
:10029000000096968682E78086FA9680C1171D8FA9
:1002A0003E96E374C3F8A5B7011122CE00102326B1
:1002B000A4FE2324B4FE37F600E04C4237F600E0FB
:1002C000F9994CC20326C4FEB2860147032684FE78
:1002D000B287014837F600E03305F702B305D802CC
:1002E000AA953385F602B3B3F6022A83B387750065
:1002F000BE8323286600232A7600B7F700E09843E0
:10030000B7F700E01367070198C3B7F700E0984319
:10031000B7F700E01367170298C30100B7F700E0D2
:10032000DC4313F717008547E31AF7FEB7F700E041
:100330009843B7F700E0799B98C3010072440561C8
:100340008280797106D622D40018232EA4FC232C97
:10035000B4FC8327C4FD93B7070493F7F70F3E87D8
:1003600013067003E1679385478B3A85EF20E06FB2
:10037000832784FD93B7470093F7F70F3E87130653
:100380008003E1679385478B3A85EF20006EA307D2
:1003900004FE0327C4FDA167BA971397270083279C
:1003A00084FDBA97AA072324F4FE231604FE35A081
:1003B0000357C4FE832784FEBA979843B7E739E30F
:1003C000938797336306F7008547A307F4FE21A8B8
:1003D0008357C4FE91072316F4FE0357C4FE930708
:1003E000F03FE3F7E7FC8347F4FE3E85B25022542A
:1003F00045618280797106D622D40018232EA4FC90
:10040000232CB4FC8327C4FD93B7070493F7F70F9D
:100410003E8713064005E1679385478B3A85EF20B9
:10042000C064832784FD93B7470093F7F70F3E8797
:1004300013065005E1679385478B3A85EF20E0620C
:10044000A30704FE0327C4FDA167BA9713972700EB
:10045000832784FDBA97AA072324F4FEEF40503B7C
:1004600013054003EF409051032584FEEF40D03E3A
:100470002A87B707002023A4E72613050002EF40D0
:10048000F04FEF40903BB707002003A78726914726
:100490006305F7008547A307F4FE8347F4FE3E8516
:1004A000B250225445618280797106D622D4001858
:1004B000232EA4FC232CB4FC8327C4FD93B707048C
:1004C00093F7F70F3E871306800BE1679385478B01
:1004D0003A85EF208059832784FD93B7470093F72F
:1004E000F70F3E871306900BE1679385478B3A859C
:1004F000EF20A0570327C4FDA167BA9713972700E1
:10050000832784FDBA97AA072324F4FE231704FE49
:100510003DA08357E4FE8A073E87832784FEBA976F
:100520008356E4FE9843B70700208A069387873CEA
:10053000B69798C38357E4FE85072317F4FE035745
:10054000E4FE9307F00FE3F6E7FC0100B2502254FB
:1005500045618280797106D622D40018232EA4FC2E
:10056000232CB4FC8327C4FD93B7070493F7F70F3C
:100570003E871306D00CE1679385478B3A85EF20C1
:10058000C04E832784FD93B7470093F7F70F3E874C
:100590001306E00CE1679385478B3A85EF20E04C2A
:1005A000A30704FE232404FE231304FE0327C4FD33
:1005B000A167BA9713972700832784FDBA97AA07E4
:1005C0002324F4FE832584FD0325C4FD9D3BAA87D7
:1005D00091C7832584FD0325C4FD293DEF405023A9
:1005E00089A8035764FEB70700200A079387873C52
:1005F000BA979C43BE85032584FEEF40502D2A8781
:10060000B707002023A6E726B707002003A7C726C1
:1006100091476306F7008547A307F4FE0DA08357B3
:1006200064FE85072313F4FE832784FE91072324A9
:10063000F4FE035764FE9307F00FE3F4E7FAEF408C
:10064000D01F8347F4FE3E85B2502254456182801C
:10065000411106C622C40008130600409305F00F9E
:10066000B70700201385873C613E0100B240224459
:1006700041018280011122CE00102326A4FE83278F
:10068000C4FE958313F77700B70700200A07938706
:100690000700BA979C439C470327C4FE7D8B854681
:1006A0003397E600F98FB337F00093F7F70F3E85E5
:1006B000724405618280797106D622D40018232EF7
:1006C000A4FC232CB4FCB2872328D4FCA30BF4FC99
:1006D000232004FE232204FE232404FE8327C4FDDA
:1006E000958393F7F70F9D8BA307F4FE8327C4FD33
:1006F00093F7F70FFD8B2307F4FE8347F4FE91E792
:1007000085451145EF50602391A80347F4FE8547C6
:100710006317F70085452145EF50202281A003474C
:10072000F4FE89476317F70085454145EF50E02007
:1007300035A00347F4FE8D476318F7008545130580
:100740000002EF50801F19A80347F4FE914763177A
:10075000F700854513050004EF50201E8347E4FE93
:100760000547B317F700C207C1832310F4FE032720
:1007700084FD85476317F702832704FDC207C18301
:10078000A183C207C18389E78D472322F4FE11A804
:10079000832704FDC207C183A183C207C18323222B
:1007A000F4FE832704FDC207C18393F7F70F2324C8
:1007B000F4FE0347F4FEB70700200A0793870700FB
:1007C000BA979C43130704FEBA853E85EF40F02795
:1007D000032784FD85476319F7020347F4FEB70733
:1007E00000200A0793870700BA9794438347E4FEE3
:1007F0000547B317F700C207C183034774FD3A8664
:10080000BE853685EF4010470100B2502254456145
:1008100082805D7186C6A2C48008232EA4FAE16797
:1008200003AE4791138747910323470013874791EE
:1008300083288700138747910328C70013874791B0
:10084000084B138747914C4B13874791104F1387E1
:100850004791544F13874791185393874791DC531F
:100860002324C4FD232664FC232814FD232A04FD2D
:10087000232CA4FC232EB4FC2320C4FE2322D4FE6C
:100880002324E4FE2326F4FE8327C4FB8A071307F0
:1008900004FFBA9783A787FD3E85EF20F062010031
:1008A000B6402644616182805D7186C6A2C480081C
:1008B000232EA4FAE16703AE4791138747910323E0
:1008C00047001387479183288700138747910328A0
:1008D000C70013874791084B138747914C4B1387E9
:1008E0004791104F13874791544F138747911853DF
:1008F00093874791DC532324C4FD232664FC2328DB
:1009000014FD232A04FD232CA4FC232EB4FC232055
:10091000C4FE2322D4FE2324E4FE2326F4FE8327F0
:10092000C4FB8A07130704FFBA9783A787FD3E8598
:10093000EF20505B0100B6402644616182801D714A
:1009400086CEA2CC80102326A4FA2324B4FA8545AF
:100950000325C4FAEF00F037AA873E871306D006B6
:10096000E1679385C7933A85EF202010832784FAA7
:10097000B337F00093F7F70F3E871306F006E167F1
:100980009385C7933A85EF20400E832784FABD8371
:100990002315F4FE8357A4FE85073E87832784FA38
:1009A000B3D7E7022314F4FE0325C4FAEF00D038CE
:1009B000B7370140938707C02326F4FE0327C4FA04
:1009C000A54763ECE7088327C4FA13972700E1677C
:1009D000938787FEBA979C438287B73701409387F6
:1009E00007C02326F4FE95A8B70700402326F4FE8F
:1009F000ADA0B7070040938707402326F4FEB1A8B7
:100A0000B7170040938707802326F4FEB9A0B717D5
:100A10000040938707C02326F4FE81A0B71700404B
:100A20002326F4FE1DA8B71700409387074023260E
:100A3000F4FE25A0B7370140938707402326F4FE34
:100A400029A8B7570140938707C02326F4FE31A099
:100A5000B75701402326F4FE0100232E04FC232077
:100A600004FE231204FE835784FE2310F4FE8357F2
:100A7000A4FE231EF4FC231104FE231F04FC230206
:100A800004FE9307C4FDBE850325C4FEEF50E018A5
:100A9000054685450325C4FEEF509028854503256E
:100AA000C4FEEF50F05EE16703AE479113874791B4
:100AB00003234700138747918328870013874791B3
:100AC0000328C70013874791084B138747914C4B66
:100AD00013874791104F13874791544F13874791BE
:100AE000185393874791DC53232AC4FB232C64FAC1
:100AF000232E14FB232004FD2322A4FC2324B4FC76
:100B00002326C4FC2328D4FC232AE4FC232CF4FC55
:100B10008327C4FA93F7F70F8A07130704FFBA97DE
:100B200083A747FC8D453E85EF20903D8327C4FA7F
:100B30008A07130704FFBA9783A747FC3E85EF2077
:100B4000B03885450325C4FEEF5010120100F64071
:100B5000664425618280797106D622D40018232E3E
:100B6000A4FC232CB4FC032784FD896793871771A9
:100B7000B337F70093F7F70F3E8713065003E1678B
:100B8000938587993A85EF10506EB7370140938768
:100B900007C02326F4FE8327C4FDC183BD8B2547F0
:100BA000636EF70613972700E16793870701BA97EB
:100BB0009C438287B7370140938707C02326F4FE02
:100BC000B1A8B70700402326F4FE89A8B707004064
:100BD000938707402326F4FE91A0B7170040938720
:100BE00007802326F4FE1DA8B7170040938707C08F
:100BF0002326F4FE25A0B73701409387074023261C
:100C0000F4FE29A8B7570140938707C02326F4FEB6
:100C100031A0B75701402326F4FE01008327C4FE0C
:100C200083D7C7022315F4FE0357A4FE832784FD50
:100C30003307F702896793870771B357F7022314C5
:100C4000F4FE8327C4FDA1838D8B81EB8327C4FE33
:100C5000035784FE239AE702A9A88327C4FDA18332
:100C600013F7370085476319F7008327C4FE03573E
:100C700084FE239CE70235A88327C4FDA18313F7D4
:100C8000370089476319F7008327C4FE035784FEA2
:100C9000239EE70239A88327C4FDA18313F73700F9
:100CA0008D476318F7008327C4FE035784FE239003
:100CB000E7040100B2502254456182805D7186C60E
:100CC000A2C48008232EA4FA232CB4FA232AC4FA3F
:100CD0008327C4FBC1838D453E85EF00807FAA87B3
:100CE0003E871306D00AE167938587993A85EF100E
:100CF000D057032744FB896793871771B337F700F1
:100D000093F7F70F3E871306F00AE16793858799FB
:100D10003A85EF109055232E04FC232004FE231265
:100D200004FE232604FC232804FC232A04FC232C91
:100D300004FC231504FE8327C4FBC183BD8B3E85C1
:100D4000EF00807F8327C4FB93F7F70F9306803172
:100D5000014685453E85853285450545EF40F03D98
:100D6000B7370140938707C02326F4FE8327C4FBCF
:100D7000C183BD8B2547636EF70613972700E16794
:100D800093878703BA979C438287B737014093873D
:100D900007C02326F4FEB1A8B70700402326F4FEBF
:100DA00089A8B7070040938707402326F4FE91A047
:100DB000B7170040938707802326F4FE1DA8B717B6
:100DC0000040938707C02326F4FE25A0B7370140D3
:100DD000938707402326F4FE29A8B757014093873D
:100DE00007C02326F4FE31A0B75701402326F4FEA6
:100DF00001008327C4FB13D7C7008D47631AF70090
:100E00008545B70716001385070CEF40206A15AA21
:100E10008327C4FB13D7C700C547631AF70085456E
:100E2000B707180013850710EF40406819AA8327F9
:100E3000C4FB13D7C700C947631AF7008545B70736
:100E4000180013850720EF406066E5A88327C4FBE0
:100E500013D7C700CD47631AF7008545B7071800B9
:100E600013850730EF408064E9A88327C4FB13D7BC
:100E7000C70093072002631AF7008545B7171A00C9
:100E800013850780EF4080626DA88327C4FB13D7CA
:100E9000C70093073002631AF7008545B7171A0099
:100EA000138507C0EF40806069A88327C4FB13D770
:100EB000C700930710036317F70085450565EF40EA
:100EC000E05E41A08327C4FB13D7C7009307100738
:100ED000631AF7008545B707008013854700EF4088
:100EE000E05C85A08327C4FB13D7C70093073008B5
:100EF000631AF7008545B707138013850701EF4094
:100F0000E05A81A08327C4FB13D7C70093071009B9
:100F1000631AF7008545B707158013850702EF4070
:100F2000E05805A08327C4FB13D7C70093073009F7
:100F30006319F7008545B707158013850704EF404F
:100F4000E05603A74181832784FBB357F702C1838F
:100F50002315F4FE03A741818357A4FE8507BE86AF
:100F6000832784FBB387F602B357F7022314F4FEFA
:100F7000035784FE832744FB3307F702896793876F
:100F80000771B357F7022313F4FE835784FEFD174E
:100F9000C207C1832310F4FE8357A4FE231EF4FC72
:100FA000231104FE231F04FC230204FE9307C4FD47
:100FB000BE850325C4FEEF40504693070007231665
:100FC000F4FC85472317F4FC231804FC835764FEC4
:100FD0002319F4FC8947231AF4FC8947231BF4FCEA
:100FE000231C04FC231D04FC8327C4FBA1838D8BDD
:100FF0009DE39307C4FCBE850325C4FEEF40D05992
:10100000A1450325C4FEEF50A05891450325C4FE19
:10101000EF50C06C45A08327C4FBA18313F73700B2
:1010200085476315F7029307C4FCBE850325C4FEFC
:10103000EF405070A1450325C4FEEF50205A9305A0
:1010400000400325C4FEEF50206EADA08327C4FBF3
:10105000A18313F7370089476314F7029307C4FC91
:10106000BE850325C4FEEF50000BA1450325C4FE39
:10107000EF50605C91450325C4FEEF5040701DA801
:101080008327C4FBA18313F737008D476314F7024E
:101090009307C4FCBE850325C4FEEF508025A145FF
:1010A0000325C4FEEF50E05D930500400325C4FE18
:1010B000EF50A07185450325C4FEEF506040854583
:1010C0000325C4FEEF50403A0100B640264461615A
:1010D0008280011122CE00102326A4FEAE87A30534
:1010E000F4FEE1670327C4FE0A0793870706BA9751
:1010F0009C433E878347B4FEC207C1832316F70093
:101100000100E1670327C4FE0A0793870706BA9721
:101110009C4383D78700C207C18393F70708F5F381
:10112000E1670327C4FE0A0793870706BA979C4323
:1011300083D7C7000100724405618280011122CE6D
:1011400000102326A4FEAE872315F4FE8357A4FEC9
:10115000A183C207C18393F6F70FE1670327C4FE9B
:101160000A0793870706BA979C433E879397060121
:10117000C1832316F7000100E1670327C4FE0A07B5
:1011800093870706BA979C4383D78700C207C1831A
:1011900093F70708F5F38357A4FE93F6F70FE1677B
:1011A0000327C4FE0A0793870706BA979C433E8726
:1011B00093970601C1832316F7000100E167032717
:1011C000C4FE0A0793870706BA979C4383D7870014
:1011D000C207C18393F70708F5F301007244056164
:1011E00082805D7186C6A2C480082326A4FC2324C5
:1011F000B4FC2322C4FC2320D4FC232EE4FA232CA9
:10120000F4FA232A04FBE1670327C4FC0A07938747
:101210000706BA979C433E85EF40B00385450545D8
:10122000EF40A071032704FC930730126313F70209
:10123000032784FB93074012631DF7000327C4FBB9
:10124000930750126317F70085450545EF400026C8
:101250001DA8032704FC89679387A7146315F70269
:10126000032784FB89679387B714631EF70003275E
:10127000C4FB89679387C7146317F7008545371543
:101280002000EF40A0228327C4FC91E78545056537
:10129000EF40A06A25A00327C4FC85476317F70029
:1012A00085451165EF40C06D11A80327C4FC89472F
:1012B0006316F70085452165EF40806C832704FCA9
:1012C00093F7F70F93068031054685453E85EFF08D
:1012D0008FBE8327C4FB93F7F70F93068031054633
:1012E00085453E85EFF02FBD032784FBC167F917C5
:1012F000630DF700832784FB93F7F70F9306803481
:10130000054681453E85EFF00FBB032744FB93075D
:10131000F00F630DF700832744FB93F7F70F930655
:101320000031014685453E85EFF0EFB8232E04FCE1
:10133000232004FE232204FE232404FE231604FE9D
:10134000231E04FC93074010231FF4FC231004FE0B
:10135000032784FC85476305F702832784FC81CF3C
:10136000032784FC89476303F702032784FC8D4726
:101370006304F7020DA8231104FE231204FE25A026
:10138000231104FE85472312F4FE31A88947231157
:10139000F4FE231204FE01A889472311F4FE8547B9
:1013A0002312F4FE0100231704FE03A741818327C3
:1013B00044FCB357F7022317F4FE03A741818327A8
:1013C00044FCB377F70291E78357E4FEFD17231738
:1013D000F4FE0357E4FE9307F00763F7E700930773
:1013E00080032317F4FE49A80357E4FE9307F00394
:1013F00063F7E700930700032317F4FEB5A803572C
:10140000E4FEFD4763F7E700930780022317F4FE2D
:10141000A5A00357E4FEBD4763F7E700930700026A
:101420002317F4FE91A80357E4FE9D4763F6E700F7
:10143000E1472317F4FE89A00357E4FE8D4763F6C6
:10144000E700C1472317F4FE05A80357E4FE8547CC
:1014500063F6E700A1472317F4FE39A88357E4FE9B
:1014600081C7231704FE09A813067021E16793853D
:10147000479F0145EF10605F8357E4FE2314F4FE9D
:10148000930700202313F4FE231504FE9D47231623
:10149000F4FEE1670327C4FC0A0793870706BA979F
:1014A0009C433E879307C4FDBE853A85EF40C061EB
:1014B000E1670327C4FC0A0793870706BA979C4392
:1014C00085453E85EF40C06F0100B640264461610E
:1014D0008280797122D60018232EA4FC232CB4FC20
:1014E0008547A307F4FE0327C4FD0A07938701D6A7
:1014F000BA979C4399EB0327C4FD0A07938701D64B
:10150000BA97032784FD98C315A00327C4FD0A07D3
:10151000938701D6BA979C43032784FD6316F7008F
:101520008547A307F4FE19A0A30704FE8347F4FE32
:101530003E85325445618280011106CE22CC0010D6
:101540002326A4FE8327C4FE81EB8545856713858A
:101550000780EF40803E6DA80327C4FE85476317D0
:10156000F70085450545EF40A0415DA00327C4FE77
:1015700089476317F70085450945EF40604049A852
:101580000327C4FE8D476317F70085451145EF40DB
:10159000203FBDA80327C4FE91476317F700854588
:1015A0002145EF40E03DADA00327C4FE95476317FA
:1015B000F70085454145EF40A03C99A80327C4FEAC
:1015C00099476318F700854513050002EF40403B3B
:1015D00081A00327C4FE9D476317F7008545096571
:1015E000EF40A03535A00327C4FEA1476318F700DC
:1015F000854537050800EF40403419A80327C4FE8D
:10160000A5476317F700854537051000EF40E03226
:101610000100F240624405618280797122D600188F
:10162000232EA4FCB7370140938707C02326F4FE7E
:10163000231504FE0327C4FDA54763ECE7088327B1
:10164000C4FD13972700E1679387C706BA979C43A9
:101650008287B7370140938707C02326F4FE95A8F9
:10166000B70700402326F4FEADA0B70700409387DC
:1016700007402326F4FEB1A8B717004093870780E0
:101680002326F4FEB9A0B7170040938707C023268E
:10169000F4FE81A0B71700402326F4FE1DA8B7175B
:1016A0000040938707402326F4FE25A0B73701406A
:1016B000938707402326F4FE29A8B7570140938754
:1016C00007C02326F4FE31A0B75701402326F4FEBD
:1016D00001000327C4FD0A07938781D8BA9798436E
:1016E0008947631FF7008327C4FE83D747021397F8
:1016F000070141838D47B357F7022315F4FE39A044
:101700008327C4FE83D747022315F4FE8357A4FE24
:101710003E85325445618280797122D60018232E8D
:10172000A4FCB7370140938707C02326F4FE0327A4
:10173000C4FDA54763ECE7088327C4FD1397270082
:10174000E16793874709BA979C438287B73701407F
:10175000938707C02326F4FE95A8B70700402326E9
:10176000F4FEADA0B7070040938707402326F4FEA0
:10177000B1A8B7170040938707802326F4FEB9A0CD
:10178000B7170040938707C02326F4FE81A0B71740
:1017900000402326F4FE1DA8B7170040938707409A
:1017A0002326F4FE25A0B737014093870740232660
:1017B000F4FE29A8B7570140938707C02326F4FEFB
:1017C00031A0B75701402326F4FE01008327C4FE51
:1017D000239207020100325445618280011122CE1A
:1017E00000102326A4FEAE87A305F4FE0100E167E6
:1017F0000327C4FE0A079387C70BBA979C4383D776
:101800000700C207C18393F70708F5D3E1670327F1
:10181000C4FE0A079387C70BBA979C433E8783474A
:10182000B4FEC207C1832312F700010072440561B0
:101830008280011106CE22CC00102326A4FE232490
:10184000B4FE2322C4FE832784FEB337F00093F74F
:10185000F70F3E8713061004E167938507A53A85C5
:10186000EF10A02029A8832784FE138717002324C4
:10187000E4FE83C70700BE850325C4FE85378327A2
:1018800044FE1387F7FF2322E4FEF1FF0100F2403C
:10189000624405618280011106CE22CC001023260D
:1018A000A4FE2324B4FE832784FEB337F00093F70D
:1018B000F70F3E8713060005E167938507A53A8574
:1018C000EF10A01A39A8832784FE1387170023245A
:1018D000E4FE8387070093F7F70FBE850325C4FE58
:1018E000F53D832784FE83870700F1FF0100F24066
:1018F000624405618280011106CE22CC00102326AD
:10190000A4FEAE87A305F4FEE1670327C4FE0A0721
:101910009387C70BBA979C433E878347B4FE3E86A6
:10192000930550523A85EF50C02213878185832753
:10193000C4FEBA9783C7070081453E85EF10505C0F
:101940008347B4FE81CF138781858327C4FEBA976E
:1019500083C707003E85EF10305719A8138781858C
:101960008327C4FEBA9783C707003E85EF109057C0
:101970000100F240624405618280011122CE001014
:101980002326A4FE2324B4FEE1670327C4FE0A072E
:101990009387C70BBA979C4383D70700C207C183BD
:1019A00093F707028DC7E1670327C4FE0A079387F1
:1019B000C70BBA979C4383D74700C207C18313F76D
:1019C000F70F832784FE2380E700854711A0814716
:1019D0003E85724405618280797106D622D4001852
:1019E000232EA4FC232CB4FC232AC4FC2328D4FCDF
:1019F000032744FD832704FD3D8F8327C4FDB207E1
:101A0000F98F93B7170093F7F70F3E871306A00AD5
:101A1000E167938507A53A85EF102005832744FDEC
:101A200013D78700832704FDA183B307F74093B73B
:101A3000170093F7F70F3E871306B00AE167938507
:101A400007A53A85EF106002832744FD93F7F70F4F
:101A5000E146014685453E85EFE0FFC5832704FD4D
:101A600093F7F70F93068004014681453E85EFE02A
:101A70009FC485450545EF30506C032744FDC16781
:101A8000FD17F98F0D67130707386385E7200D678A
:101A9000130707386369F70405671307571663814F
:101AA000E716056713075716636FF7001307F02251
:101AB000638AE70C130760306381E7101307601235
:101AC0006388E70855A6096713078736638AE71610
:101AD0000D67130707126385E71809671307A71433
:101AE0006380E71451A615671307A738638CE726B0
:101AF00015671307A7386362F70211671307873862
:101B0000638EE71E1567130787126383E722116749
:101B100013074712638AE71A81AE19671307C7389C
:101B20006386E72A19671307C7386368F7001967E0
:101B3000130767106382E72605AE1D671307E710DA
:101B40006380E72C1D671307E7386385E72E29AE0E
:101B5000B7070140D44FB7070140370700FC7D1796
:101B6000758FD8CFB7070140D843B70701406D9BA9
:101B7000D8C3B7070140D843B707014013674700F0
:101B8000D8C3DDA4B7070140D44FB70701403707DA
:101B900000FC7D17758FD8CFB7070140D44FB7072A
:101BA000014037070004558FD8CFB7070140D8430D
:101BB000B70701406D9BD8C345ACB7070140D44F70
:101BC000B7070140370700FC7D17758FD8CFB707DF
:101BD0000140D44FB707014037070004558FD8CFD5
:101BE000B7070140D843B70701406D9BD8C3B7077B
:101BF0000140D843B707014013674700D8C3ADA4DD
:101C0000B7070140D843B70701405D9BD8C3B7076A
:101C10000140D843B707014013678700D8C3A9A480
:101C2000B7070140D843B70701401D9BD8C3B7078A
:101C30000140D843B707014013678700D8C32DA4DC
:101C4000B7070140D843B70701401D9BD8C3B7076A
:101C50000140D843B707014013678701D8C329A4BF
:101C6000B7070140D44FB70701403707FDFF7D1785
:101C7000758FD8CFB7070140D44F832744FDA18388
:101C800013970701B70703007D8FB7070140558FF2
:101C9000D8CFD9AAB7070140D44FB70701403707BB
:101CA000FDFF7D17758FD8CFB7070140D44F83272D
:101CB00044FDA18313970701B70703007D8FB70782
:101CC0000140558FD8CF4DA2B7070140D44FB70779
:101CD00001403707F4FF7D17758FD8CFB707014054
:101CE000D44F832744FDA18313972701B7070C0026
:101CF0007D8FB7070140558FD8CFBDA2B7070140F0
:101D0000D44FB70701403707F4FF7D17758FD8CF41
:101D1000B7070140D44F832744FDA18313972701C0
:101D2000B7070C007D8FB7070140558FD8CF2DAA7C
:101D3000B7070140D44FB70701403707D0FF7D17E1
:101D4000758FD8CFB7070140D44F832744FDA183B7
:101D500013974701B70730007D8FB7070140558FB4
:101D6000D8CF19A2B7070140D44FB70701403707B2
:101D7000D0FF7D17758FD8CFB7070140D44F832789
:101D800044FDA18313974701B70730007D8FB70744
:101D90000140558FD8CFC9A8B7070140D44FB70726
:101DA0000140370740FF7D17758FD8CFB707014037
:101DB000D44F832744FDA18313976701B707C00061
:101DC0007D8FB7070140558FD8CF79A8B70701405D
:101DD000D44FB7070140370740FF7D17758FD8CF25
:101DE000B7070140D44F832744FDA18313976701B0
:101DF000B707C0007D8FB7070140558FD8CFADA082
:101E0000B7070140D44FB7070140370700FD7D17E2
:101E1000758FD8CFB7070140D44F832744FDA183E6
:101E200013978701B70700037D8FB7070140558FD0
:101E3000D8CF1DA8B7070140D44FB70701403707D7
:101E400000FD7D17758FD8CFB7070140D44F83278A
:101E500044FDA18313978701B70700037D8FB70760
:101E60000140558FD8CF01008327C4FD91E78545F8
:101E70001165EF30902C69A80327C4FD85476318CE
:101E8000F700854537050200EF30902F51A003275A
:101E9000C4FD89476318F700854537050400EF3016
:101EA000302EBDA00327C4FD8D476318F70085457C
:101EB00037050800EF30D02CA1A80327C4FD9147B7
:101EC0006318F700854537051000EF30702B89A0A7
:101ED0000327C4FD95476318F700854513050004E3
:101EE000EF30102A35A00327C4FD99476318F70087
:101EF000854513050008EF30B02819A80327C4FD55
:101F00009D476317F700854513050010EF305027F4
:101F1000232004FE232204FE232404FE232604FEA1
:101F2000832784FD2320F4FE231204FE231304FEE2
:101F3000231404FE231604FEB1472315F4FEE167C3
:101F40000327C4FD0A079387C70BBA979C433E87B4
:101F5000930704FEBE853A85EF407016E1670327BC
:101F6000C4FD0A079387C70BBA979C4385453E85F6
:101F7000EF4030380100B250225445618280411157
:101F800006C622C4000883A741870547638BE70084
:101F90006386070C0947638DE7000D47638FE702EF
:101FA000D9A083A701871387170023A8E18665A816
:101FB00083A701871387170023A8E18603A701875A
:101FC000A54763FFE708B7070020938707009C4BEE
:101FD0001167D8CB23A8018661A003A78187854715
:101FE0006312F7081305F008EFE0CFE8AA87B9CF2E
:101FF0001945EFF08FE2AA873E8783A701871D8FDF
:102000009307600963F0E7061945EFF0EFF083A747
:102010000187D3F717D05385F720EF107161E1677F
:1020200003A607AB83A647ABEF00F125AA872E884E
:102030003E85C285EF109148AA8713970701418317
:102040002394E180094723ACE18629A81945EFF0E4
:10205000CFDCAA873E8723A8E18629A0010021A022
:10206000010011A001000100B24022444101828020
:10207000411106C622C4000883A741870947637C33
:10208000F7000D47639AE7001945EFF0EFE80547C1
:1020900023ACE18611A001000100B24022444101BD
:1020A0008280011106CE22CC001083C7D187638ABB
:1020B000070E09A8930734FE0546BE85138501DB8C
:1020C000EF007051930734FEBE851D45EFF0FF8A87
:1020D000AA87EDF3034734FEA9476314F70C994729
:1020E0002322F4FE130744FE930784FE85463A86B6
:1020F000BE85138501DBEF00907D930784FE138777
:1021000037000D46E167938587AB3A85EF20F14EA6
:10211000AA879DEB03A741888947630DF70605470A
:1021200023A2E188138501DBEF00D046AA87232292
:10213000F4FE930744FE81463E869385C1E41385F1
:1021400001DBEF00D078B9A0930784FE1387370036
:102150000D46E1679385C7AB3A85EF20114AAA8700
:1021600095EB03A7018889476306F702054723A07B
:10217000E188138501DBEF00F041AA872322F4FEFA
:10218000930744FE81463E869385C1DC138501DBBF
:10219000EF00F073138501DBEF00F02F0547238E6E
:1021A000E1860100F240624405618280411122C64D
:1021B00000080100324441018280411122C600081A
:1021C000B71702409843B71702401367170098C328
:1021D000B7170240D443B71702403707FFF8758F8F
:1021E000D8C3B71702409443B71702403707F7FE2A
:1021F0007D17758F98C3B71702409443B7170240F5
:102200003707FCFF7D17758F98C3B7170240D4437B
:10221000B7170240370781FF7D17758FD8C3B717EF
:10222000024037079F0098C7010032444101828075
:10223000797122D60018232EA4FC232604FE232421
:1022400004FEB71702409443B71702404167558F09
:1022500098C3B71702409843B7070200F98F2324A9
:10226000F4FE8327C4FE85072326F4FE832784FE1D
:1022700091E70327C4FE8567E31DF7FCB71702400B
:102280009843B7070200F98F89C785472324F4FED6
:1022900019A0232404FE032784FE85476312F71642
:1022A00037170240B71702405843D8C337170240C8
:1022B000B71702405843D8C337170240B717024038
:1022C0005843D8C3B7170240D443B7170240370763
:1022D000C1FF7D17758FD8C30327C4FDB747950885
:1022E00093870740631BF700B7170240D443B71723
:1022F00002404167558FD8C355A80327C4FDB717BF
:102300002707938707E0631CF700B7170240D44301
:10231000B717024037073900558FD8C341A80327A4
:10232000C4FDB7E7B80593870780631CF700B717AC
:102330000240D443B717024037072900558FD8C34E
:10234000B5A00327C4FDB7A74A0493870720631CE1
:10235000F700B7170240D443B717024037071D00F4
:10236000558FD8C3A1A00327C4FDB777DC0293879C
:1023700007C0631CF700B7170240D443B7170240E9
:1023800037071100558FD8C315A00327C4FDB737F1
:102390006E0193870760631BF700B7170240D443B1
:1023A000B717024037070500558FD8C3B71702404B
:1023B0009443B717024037070001558F98C30100B7
:1023C000B71702409843B7070002F98FF5DBB7173C
:1023D0000240D843B7170240719BD8C3B7170240D9
:1023E000D843B717024013672700D8C30100B717B7
:1023F0000240DC4313F7C700A147E31AF7FE11A020
:1024000001A0325445618280011106CE22CC001019
:102410002326A4FE0327C4FE23AAE180793B0325DB
:10242000C4FE3935EF10E0350100F2406244056129
:102430008280411122C6000801000100324441019E
:102440008280011106CE22CC0010232604FE232414
:1024500004FE232604FE25A0232404FE39A0D13F38
:10246000832784FE85072324F4FE032784FEC167A7
:10247000E367F7FE8327C4FE85072326F4FE0327C0
:10248000C4FE9307F00FE3F9E7FC0100F240624459
:1024900005618280411122C60008010032444101D9
:1024A0008280011106CE22CC00102326A4FE8325B3
:1024B000C4FE0945EFF02FBE0100F2406244056101
:1024C0008280130101D92326112623248126232269
:1024D0009126801C232EA4D8232CB4D8232AC4D818
:1024E0002328D4D8231504FE231404FE231304FE4A
:1024F000231204FE231104FE032584D9EF20D10EFC
:10250000AA87C207C1872313F4FE83D7C1EC89C70A
:102510009387C1EC9C4B829783C7818893F7F70F11
:10252000638D074A83D7C1EC638707449387C1EC67
:10253000D447835724FE1397070141879317070158
:10254000C1838507C207C183C207C1872311F4FE77
:1025500093170701C1830326C4D9BE85014582961E
:10256000832784D92326F4FE032584D9EF20D107BD
:10257000AA87C207C1872313F4FE9387C1EC83D7D0
:1025800027003E879387C1EC83C76700B347F702F4
:10259000C207C1872312F4FE01008327C4FE1387FC
:1025A00017002326E4FE83870700E5FB231404FEBF
:1025B000A1A88327C4FEFD172326F4FE8327C4FEAB
:1025C000038707009307F002630AF7008327C4FE1E
:1025D000038707009307C005631BF700835784FE3A
:1025E000C207C1838507C207C1832314F4FE835742
:1025F00064FEC207C187C207C183FD17C207C1833A
:10260000C207C1872313F4FE835784FE1397070183
:102610004183854763E8E700835764FEC207C187AB
:10262000E3D907F8835764FEC207C18763C2070274
:102630008327C4FE85072326F4FE130704EE032632
:10264000C4FEE167938587BA3A85EF2081751DA89E
:10265000835784FEC207C18381EF130704EE03266C
:10266000C4FEE167938547BB3A85EF20817319A8C3
:10267000130704EE0326C4FEE167938587BA3A8503
:10268000EF202172231504FE21AA231404FE59A071
:10269000930704EE3E85EF2021752A87835784FE39
:1026A000C207C183BE868357A4FEC207C1833E868C
:1026B000835744FEC207C187B307F602B697636724
:1026C000F706835784FEC207C1833E878357A4FE63
:1026D000C207C183BE86835744FEC207C187B38742
:1026E000F602BA97035784FE42074183BA8613075E
:1026F00004FFBA97038707EF930704FFB697238871
:10270000E7EA835784FEC207C1838507C207C183F6
:102710002314F4FE835784FEC207C1833E87835788
:1027200044FEC207C187E345F7F611A001008357B5
:1027300084FEC207C183130704FFBA97238807EA00
:102740009387C1EC03A8C7009387C1EC83C77700C8
:10275000139707014183835724FE93960701C1868F
:1027600093970601C1838507C207C183C207C1874A
:102770002311F4FE93970601C183B307F702C20742
:10278000C183130704EA3A86BE8501450298835740
:10279000A4FEC207C1838507C207C1832315F4FEC7
:1027A0008357A4FEC207C183BE84930704EE3E850F
:1027B000EF2081632A87835744FEC207C187B3573E
:1027C000F7028507E3E3F4EC130704EE032644D98C
:1027D000E167938547BC3A85EF20A15C9387C1EC04
:1027E00003A8C7009387C1EC83C77700139707013D
:1027F0004183835724FE93960701C1869397060170
:10280000C1838507C207C183C207C1872311F4FEB4
:1028100093970601C183B307F702C207C183130769
:1028200004EE3A86BE8501450298832704D9638663
:10283000071A231504FE21AA231404FE59A0032518
:1028400004D9EF20615A2A87835784FEC207C183C7
:10285000BE868357A4FEC207C1833E86835744FECB
:10286000C207C187B307F602B6976368F7068357B6
:1028700084FEC207C1833E878357A4FEC207C1837B
:10288000BE86835744FEC207C187B387F602BA9754
:102890003E87832704D9BA97035784FE42074183B2
:1028A000BA8603870700930704FFB6972388E7EAF1
:1028B000835784FEC207C1838507C207C1832314DF
:1028C000F4FE835784FEC207C1833E87835744FECC
:1028D000C207C187E345F7F611A00100835784FEC4
:1028E000C207C183130704FFBA97238807EA9387B7
:1028F000C1EC03A8C7009387C1EC83C77700139787
:1029000007014183835724FE93960701C18693975D
:102910000601C1838507C207C183C207C18723118E
:10292000F4FE93970601C183B307F702C207C18380
:10293000130704EA3A86BE85014502988357A4FE30
:10294000C207C1838507C207C1832315F4FE8357DD
:10295000A4FEC207C183BE84032504D9EF20C14869
:102960002A87835744FEC207C187B357F7028507FA
:10297000E3E4F4EC9DA0930704DA1306001081450C
:102980003E85EFD0FF879387C1EC9C470325C4D9D0
:102990008297832704D999CF130504DA032704D932
:1029A000832644D9032684D9E167938507BDEF20A8
:1029B000413F29A8130704DA832644D9032684D982
:1029C000E1679385C7BE3A85EF20A13D9387C1ECAF
:1029D0009847930704DA3E85029701008320C126B9
:1029E00003248126832441261301012782807971E3
:1029F00006D622D40018232EA4FC232CB4FC232AB0
:102A0000C4FC232604FEA9A00100E1679387C70B3D
:102A10009C47930500043E85EF40C022AA87F5D766
:102A2000E1679387C70B9C47BE86832784FD138786
:102A30001700232CE4FC83870700C207C183BE85EF
:102A40003685EF40401D8327C4FE85072326F4FE0C
:102A50000327C4FE832744FDE348F7FA832744FD98
:102A60003E85B250225445618280011106CE22CCAF
:102A70000010AA872324B4FE2322C4FEA307F4FE79
:102A80008347F4FEB1E383C7818193F7F70F8DCFBE
:102A900083C7918891C301A083C79188850713F7E5
:102AA000F70FA384E188EF00304BEFF0BF9E814623
:102AB000032644FE832584FEE167138547C0EFF0BB
:102AC0005FA0EFF01F98E5B70100F2406244056196
:102AD0008280011122CE00102326A4FE8327C4FE8B
:102AE000239007008327C4FE7D572391E7008327A7
:102AF000C4FE7D572392E7008327C4FE7D572383BE
:102B0000E7008327C4FE7D57A383E7008327C4FE25
:102B100023A407008327C4FE23A607008327C4FE3F
:102B200023A807000100724405618280011122CEB2
:102B300000102326A4FE8327C4FE03D70700239694
:102B4000E1EC8327C4FE03D727009387C1EC2391D0
:102B5000E7008327C4FE03D747009387C1EC239285
:102B6000E7008327C4FE03C767009387C1EC238374
:102B7000E7008327C4FE03C777009387C1ECA383D4
:102B8000E7008327C4FE98479387C1EC98C7832743
:102B9000C4FED8479387C1ECD8C78327C4FE984B9F
:102BA0009387C1EC98CB05472384E18801007244E8
:102BB00005618280797106D622D400189307C4FD7E
:102BC0003E85013FB72700009387274A2322F4FE62
:102BD0009307C4FD3E85993F89679386B70289674D
:102BE0001386A702F167938507200945EFE0DFDE32
:102BF0000100B250225445618280011122CE0010A2
:102C00002326A4FE2324B4FE8327C4FED8478327AB
:102C100084FE3E978327C4FED8C719A88327C4FE25
:102C2000D8478327C4FE9C4F1D8F8327C4FED8C777
:102C30008327C4FE984F8327C4FEDC47E3F0E7FEFA
:102C40000100724405618280011122CE001023260A
:102C5000A4FE2324B4FE8327C4FE984B832784FE5E
:102C60003E978327C4FE98CB19A88327C4FE984BB0
:102C70008327C4FE9C4F1D8F8327C4FE98CB8327D8
:102C8000C4FE984F8327C4FE9C4BE3F0E7FE01008F
:102C9000724405618280797106D622D40018232EF1
:102CA000A4FC8327C4FDB337F00093F7F70F3E87EA
:102CB00013064005E167938507C23A857D332326D5
:102CC00004FE8327C4FD83C70700858B93F7F70FA6
:102CD00089C789472326F4FE7DA08327C4FD83C7C7
:102CE000070093E7170013F7F70F8327C4FD23802E
:102CF000E7008327C4FD23A607008327C4FD23A87C
:102D000007008327C4FD984F8327C4FDD8CB8327B2
:102D1000C4FDDC4305476383E70289C70947638C29
:102D2000E702B9A08327C4FD98478327C4FD9C4FC1
:102D30003E8681453A85EFD0AFCC1DA88327C4FDE0
:102D400098478327C4FD9C4F86073E8681453A8578
:102D5000EFD00FCB31A88327C4FD98478327C4FD4C
:102D60009C4F8A073E8681453A85EFD06FC90100A6
:102D70008327C4FD83C70700F99B13F7F70F832749
:102D8000C4FD2380E7008327C4FE3E85B250225451
:102D900045618280011106CE22CC00102326A4FEBC
:102DA0008327C4FEB337F00093F7F70F3E8713066F
:102DB000C007E167938507C23A8545398327C4FE7A
:102DC000984F8327C4FEDC4BB307F7403E85F240A3
:102DD000624405618280797106D622D40018232EC0
:102DE000A4FC232CB4FC232AC4FC8327C4FDB337E2
:102DF000F00093F7F70F3E871306C00BE16793854A
:102E000007C23A859D31232604FE232404FE83272E
:102E100084FD89E78D472326F4FE5DA48327C4FD46
:102E200083C70700898B93F7F70F89C78547232648
:102E3000F4FE79A48327C4FD83C7070093E7270026
:102E400013F7F70F8327C4FD2380E7008327C4FD12
:102E5000DC4B032744FD63E7E7248327C4FD984F39
:102E60008327C4FDDC47B307F7402324F4FE032780
:102E700044FD832784FE63FDE7168327C4FDDC43FE
:102E80000547638DE70689C709476385E70E09A4EF
:102E90008327C4FD98478327C4FDDC47BA970326E0
:102EA00084FE832584FD3E85EF10C140832584FE8A
:102EB0000325C4FD99338327C4FD98478327C4FDA8
:102EC000DC47B306F700032784FD832784FEB305A0
:102ED000F700032744FD832784FEB307F7403E86AF
:102EE0003685EF10213D032744FD832784FEB30779
:102EF000F740BE850325C4FD093359AA8327C4FDC5
:102F000098478327C4FDDC4786073E97832784FEC6
:102F100086073E86832584FD3A85EF10A1398325F7
:102F200084FE0325C4FDD1398327C4FD9847832738
:102F3000C4FDDC478607B306F700832784FE8607B7
:102F4000032784FDB305F700032744FD832784FE90
:102F5000B307F74086073E863685EF10A135032775
:102F600044FD832784FEB307F740BE850325C4FDD7
:102F7000693139AA8327C4FD98478327C4FDDC47FC
:102F80008A073E97832784FE8A073E86832584FD31
:102F90003A85EF102132832584FE0325C4FDB13923
:102FA0008327C4FD98478327C4FDDC478A07B306FF
:102FB000F700832784FE8A07032784FDB305F70003
:102FC000032744FD832784FEB307F7408A073E8624
:102FD0003685EF10212E032744FD832784FEB30797
:102FE000F740BE850325C4FDEFF03FC101004DA0B1
:102FF0008327C4FDDC430547638CE70289C7094783
:103000006380E70671A08327C4FD98478327C4FD2A
:10301000DC47BA97032644FD832584FD3E85EF10E7
:103020006129832544FD0325C4FDEFF01FBD8DA05C
:103030008327C4FD98478327C4FDDC4786073E9756
:10304000832744FD86073E86832584FD3A85EF105D
:103050006126832544FD0325C4FDEFF01FBA0DA8AA
:103060008327C4FD98478327C4FDDC478A073E9722
:10307000832744FD8A073E86832584FD3A85EF1029
:103080006123832544FD0325C4FDEFF01FB7010034
:103090008327C4FDD84B832744FD1D8F8327C4FDA0
:1030A000D8CB21A091472326F4FE8327C4FD83C7F4
:1030B0000700F59B13F7F70F8327C4FD2380E70074
:1030C0008327C4FE3E85B2502254456182807971C7
:1030D00006D622D40018232EA4FC232CB4FC232AC9
:1030E000C4FC2328D4FC8327C4FDB337F00093F736
:1030F000F70F3E8713067016E167938507C23A857E
:10310000EFF0BF96832744FDB337F00093F7F70F36
:103110003E8713068016E167938507C23A85EFF074
:10312000DF94232604FE832784FD89E78D47232629
:10313000F4FEA1AC8327C4FD83C7070093E74700D3
:1031400013F7F70F8327C4FD2380E7000325C4FD91
:10315000EFF05FC42324A4FE832744FD9C43032790
:1031600084FE637AF700832744FD032784FE98C317
:1031700095472326F4FE8327C4FD984F8327C4FD7B
:103180009C4BB307F7402322F4FE832744FD9C4366
:10319000032744FE6365F7088327C4FDDC43054726
:1031A0006388E70289C709476387E704BDA28327CD
:1031B000C4FD98478327C4FD9C4B3E97832744FD5D
:1031C0009C433E86BA85032584FDEF10A10EB1A273
:1031D0008327C4FD98478327C4FD9C4B86073E97F1
:1031E000832744FD9C4386073E86BA85032584FDDC
:1031F000EF10410C1DA28327C4FD98478327C4FD0F
:103200009C4B8A073E97832744FD9C438A073E8652
:10321000BA85032584FDEF10E1090100FDA883278D
:10322000C4FDDC430547638AE70489C70947638E09
:10323000E708E5A08327C4FD98478327C4FD9C4B7E
:10324000BA97032644FEBE85032584FDEF10810650
:10325000032784FD832744FEB306F7008327C4FDBC
:103260008C47832744FD9843832744FEB307F740E8
:103270003E863685EF1001044DA08327C4FD984794
:103280008327C4FD9C4B86073E97832744FE860711
:103290003E86BA85032584FDEF10C101832744FED5
:1032A0008607032784FDB306F7008327C4FD8C47F8
:1032B000832744FD9843832744FEB307F7408607DE
:1032C0003E863685EF00117F89A88327C4FD984785
:1032D0008327C4FD9C4B8A073E97832744FE8A07B9
:1032E0003E86BA85032584FDEF00D17C832744FE0A
:1032F0008A07032784FDB306F7008327C4FD8C47A4
:10330000832744FD9843832744FEB307F7408A0789
:103310003E863685EF00117A0100832704FDB5E76C
:103320008327C4FD83C70700858B93F7F70F89C7F1
:1033300089472326F4FE91A88327C4FD83C707008D
:1033400093E7170013F7F70F8327C4FD2380E700E7
:10335000832744FD9C43BE850325C4FDEFF0DF8E2B
:103360008327C4FDD84B832744FD9C433E97832786
:10337000C4FDD8CB8327C4FD83C70700F99B13F78F
:10338000F70F8327C4FD2380E7008327C4FD83C78D
:103390000700918B13F7F70F8327C4FD2380E70005
:1033A0008327C4FE3E85B250225445618280597104
:1033B00086D6A2D48018232EA4F8272CA4F8AE8792
:1033C000A30BF4F88327C4F9B337F00093F7F70F92
:1033D0003E8713060013E167938507C83A85EFF02F
:1033E000CFE8232604FE232404FE834774F9A303B5
:1033F000F4FE8327C4F963860720872784F9D397CF
:1034000007C02326F4FE872784F9530700F0D397DB
:10341000E7A081CF8327C4F913871700232EE4F890
:103420001307D0022380E70099A0872784F9530768
:1034300000F0D3A7E7A085CF8327C4F9138717002F
:10344000232EE4F8130700032380E7008327C4F941
:1034500013871700232EE4F81307E0022380E70008
:103460008327C4F9130700032380E70061AA832799
:10347000C4FED3F707D0072784F9D377F708272CA2
:10348000F4F811A8072784F9E16787A747CFD37716
:10349000F710272CF4F8834774FE1387F7FFA30374
:1034A000E4FEEDF3872784F9D39707C02324F4FEC5
:1034B000A30304FE834774FE13871700A303E4FEEF
:1034C000BE860327C4FEA9473367F70293972600F9
:1034D000930604FFB69723AAE7FC0327C4FEA94777
:1034E000B347F7022326F4FE8327C4FEE1F7A1A029
:1034F000834774FEFD178A07130704FFBA9783A753
:1035000047FD13D7F741B98F998F93F7F70F93873B
:10351000070393F6F70F8327C4F913871700232EA9
:10352000E4F81397860161872380E700834774FEE0
:10353000FD17A303F4FE834774FEDDFB834774F994
:10354000F1C3A30304FE8327C4F913871700232EB6
:10355000E4F81307E0022380E700832784FEB9E73D
:103560008327C4F9130700032380E70061A883477A
:1035700074FE13871700A303E4FEBE86032784FEB0
:10358000A9473367F70293972600930604FFB6977F
:1035900023AEE7FA032784FEA947B347F7022324A3
:1035A000F4FE834774F9FD17A30BF4F8834774F90D
:1035B000DDFFA1A0834774FEFD178A07130704FFF0
:1035C000BA9783A7C7FB13D7F741B98F998F93F7A2
:1035D000F70F9387070393F6F70F8327C4F9138731
:1035E0001700232EE4F81397860161872380E700F4
:1035F000834774FEFD17A303F4FE834774FEDDFBCF
:1036000011A001000100B65026546561828041116D
:1036100022C6000899679387870873900780010086
:10362000324441018280411122C60008996773909B
:1036300007800100324441018280011122CE001036
:103640002326A4FE8327C4FEFD8B0547B316F7008F
:1036500037E700E08327C4FE9583938707048A0732
:10366000BA9794C30100724405618280011122CE91
:1036700000102326A4FE8327C4FEFD8B0547B31646
:10368000F70037E700E08327C4FE9583938707069A
:103690008A07BA9794C301007244056182800111C0
:1036A00022CE00102326A4FEAE87A305F4FE37E742
:1036B00000E08327C4FEBA970347B4FE2380E740A7
:1036C0000100724405618280011106CE22CC0010F7
:1036D0002326A4FE0325C4FE8D370100F240624478
:1036E00005618280011106CE22CC00102326A4FEA3
:1036F0000325C4FEA53F0100F240624405618280BB
:10370000011106CE22CC00102326A4FEAE87A3050D
:10371000F4FE8347B4FEBE850325C4FE493701008D
:10372000F240624405618280011106CE22CC001075
:103730002326A4FE8327C4FE99C783A7C1881387C5
:10374000F7FF23A6E18883A7C18891E3C93501006B
:10375000F240624405618280411106C622C400081D
:1037600083A7C18891E3C13583A7C1881387170058
:1037700023A6E18883A7C1883E85B2402244410147
:103780008280411106C622C400080145713F010034
:10379000B2402244410182801D71A2CE82E686E4BD
:1037A0008AE28EE012FE16FC1AFA1EF82AF62EF4B1
:1037B00032F236F03AEE3EEC42EA46E872E676E461
:1037C0007AE27EE0801093055052B747014013859E
:1037D0000780EF30804BAA8789CB93055052B747BB
:1037E000014013850780EF30605A0100764436604F
:1037F000A660166186617272E2725273C27332758C
:10380000A275127682767267E2675268C268326E7B
:10381000A26E126F826F2561730020301D71A2CEDF
:1038200082E686E48AE28EE012FE16FC1AFA1EF8A0
:103830002AF62EF432F236F03AEE3EEC42EA46E850
:1038400072E676E47AE27EE0801093055052B74744
:10385000004013850740EF304043AA8789CB93058A
:103860005052B747004013850740EF302052010007
:1038700076443660A660166186617272E272527397
:10388000C2733275A275127682767267E2675268E9
:10389000C268326EA26E126F826F25617300203093
:1038A0001D71A2CE82E686E48AE28EE012FE16FC4C
:1038B0001AFA1EF82AF62EF432F236F03AEE3EEC00
:1038C00042EA46E872E676E47AE27EE0801093050A
:1038D0005052B757004013850780EF30003BAA874E
:1038E00089CB93055052B757004013850780EF30BE
:1038F000E049010076443660A66016618661727206
:10390000E2725273C2733275A27512768276726752
:10391000E2675268C268326EA26E126F826F2561D2
:10392000730020301D71A2CE82E686E48AE28EE02A
:1039300012FE16FC1AFA1EF82AF62EF432F236F0AF
:103940003AEE3EEC42EA46E872E676E47AE27EE05F
:10395000801093055052B7570040138507C0EF30D1
:10396000C032AA8789CB93055052B75700401385C0
:1039700007C0EF30A041010076443660A6601661B2
:1039800086617272E2725273C2733275A2751276D8
:1039900082767267E2675268C268326EA26E126FF8
:1039A000826F2561730020301D71A2CE82E686E40D
:1039B0008AE28EE012FE16FC1AFA1EF82AF62EF49F
:1039C00032F236F03AEE3EEC42EA46E872E676E44F
:1039D0007AE27EE080109305505237550040EF3078
:1039E000C02AAA8791CB83A7C180829793055052A2
:1039F00037550040EF308039010076443660A660CC
:103A0000166186617272E2725273C2733275A27568
:103A1000127682767267E2675268C268326EA26E70
:103A2000126F826F2561730020301D71A2CE82E675
:103A300086E48AE28EE012FE16FC1AFA1EF82AF6D6
:103A40002EF432F236F03AEE3EEC42EA46E872E606
:103A500076E47AE27EE0801093055052B72700406A
:103A600013850780EF306022AA8789CB93055052D7
:103A7000B727004013850780EF30403101007644BE
:103A80003660A660166186617272E2725273C2730A
:103A90003275A275127682767267E2675268C268E2
:103AA000326EA26E126F826F2561730020305971E1
:103AB000A2D682EE86EC8AEA8EE892E696E49AE254
:103AC0009EE02AFE2EFC32FA36F83AF63EF442F236
:103AD00046F072EE76EC7AEA7EE880189305505252
:103AE000B7270040138507C0EF30201AAA876389E3
:103AF0000710A30F04F883C70195639B070E930774
:103B0000F4F9BE851945EFD05FE70347F4F9930751
:103B100050056315F70283C7E18913871700937671
:103B2000F70F238FD188BE860347F4F9B79700209B
:103B30009387C703B6972380E70049A803C7E189A5
:103B400085476314F704B797002003C7C70393079B
:103B50005005631CF70283C7E1891387170093762A
:103B6000F70F238FD188BE860347F4F9B79700205B
:103B70009387C703B6972380E7008347F4F9139729
:103B8000070141832390E18A91A083D7018A8D07A1
:103B900003C7E18963CCE702B797002003C7C703D7
:103BA000930750056314F70283C7E1891387170051
:103BB0009376F70F238FD188BE860347F4F9B79722
:103BC00000209387C703B6972380E70083D7018A35
:103BD0008D0703C7E18963DDE700238F018805476F
:103BE0002388E1942390018A81451945EFD0BFD005
:103BF00093055052B7270040138507C0EF300019D6
:103C0000010036547660E6605661C6613662A6628F
:103C1000166386637275E2755276C2763277A27742
:103C200012788278726EE26E526FC26F65617300B5
:103C300020301D71A2CE82E686E48AE28EE012FE7A
:103C400016FC1AFA1EF82AF62EF432F236F03AEE84
:103C50003EEC42EA46E872E676E47AE27EE08010E4
:103C60009305505237250040EF302002AA8789CBB8
:103C7000EFE02FC39305505237250040EF3000117D
:103C8000010076443660A660166186617272E27247
:103C90005273C2733275A275127682767267E267CA
:103CA0005268C268326EA26E126F826F2561730015
:103CB00020301D71A2CE82E686E48AE28EE012FEFA
:103CC00016FC1AFA1EF82AF62EF432F236F03AEE04
:103CD0003EEC42EA46E872E676E47AE27EE0801064
:103CE000B707055083C7070193F7F70F918B8DC373
:103CF00083A701818297B707055083C7070113F790
:103D0000F70FB70705506D9B1377F70F2388E70070
:103D1000010076443660A660166186617272E272B6
:103D20005273C2733275A275127682767267E26739
:103D30005268C268326EA26E126F826F2561730084
:103D400020301D71A2CE82E686E48AE28EE012FE69
:103D500016FC1AFA1EF82AF62EF432F236F03AEE73
:103D60003EEC42EA46E872E676E47AE27EE08010D3
:103D70000545EF1080222A8785476315F700054522
:103D8000EF100027010076443660A6601661866158
:103D90007272E2725273C2733275A27512768276B3
:103DA0007267E2675268C268326EA26E126F826FEB
:103DB0002561730020301D71A2CE82E686E48AE27E
:103DC0008EE012FE16FC1AFA1EF82AF62EF432F2D3
:103DD00036F03AEE3EEC42EA46E872E676E47AE203
:103DE0007EE080100945EF10401B2A878547631548
:103DF000F7000945EF10C01F010076443660A66049
:103E0000166186617272E2725273C2733275A27564
:103E1000127682767267E2675268C268326EA26E6C
:103E2000126F826F2561730020301D71A2CE82E671
:103E300086E48AE28EE012FE16FC1AFA1EF82AF6D2
:103E40002EF432F236F03AEE3EEC42EA46E872E602
:103E500076E47AE27EE080101145EF1000142A87A4
:103E600085476315F7001145EF108018010076446F
:103E70003660A660166186617272E2725273C27316
:103E80003275A275127682767267E2675268C268EE
:103E9000326EA26E126F826F2561730020301D7129
:103EA000A2CE82E686E48AE28EE012FE16FC1AFAC0
:103EB0001EF82AF62EF432F236F03AEE3EEC42EAE2
:103EC00046E872E676E47AE27EE080102145EF1063
:103ED000C00C2A8785476315F7002145EF10401174
:103EE000010076443660A660166186617272E272E5
:103EF0005273C2733275A275127682767267E26768
:103F00005268C268326EA26E126F826F25617300B2
:103F100020301D71A2CE82E686E48AE28EE012FE97
:103F200016FC1AFA1EF82AF62EF432F236F03AEEA1
:103F30003EEC42EA46E872E676E47AE27EE0801001
:103F40004145EF1080052A8785476315F7004145F5
:103F5000EF10000A010076443660A66016618661A3
:103F60007272E2725273C2733275A27512768276E1
:103F70007267E2675268C268326EA26E126F826F19
:103F80002561730020301D71A2CE82E686E48AE2AC
:103F90008EE012FE16FC1AFA1EF82AF62EF432F201
:103FA00036F03AEE3EEC42EA46E872E676E47AE231
:103FB0007EE0801013050002EF00307E2A878547DF
:103FC0006316F70013050002EF10800213050004CA
:103FD000EF00B07C2A8785476316F70013050004BD
:103FE000EF10000113050008EF00307B2A8785479A
:103FF0006316F70013050008EF00907F130500100B
:10400000EF00B0792A8785476316F7001305001083
:10401000EF00107E13050020EF0030782A878547D7
:104020006316F70013050020EF00907C0100764432
:104030003660A660166186617272E2725273C27354
:104040003275A275127682767267E2675268C2682C
:10405000326EA26E126F826F2561730020301D7167
:10406000A2CE82E686E48AE28EE012FE16FC1AFAFE
:104070001EF82AF62EF432F236F03AEE3EEC42EA20
:1040800046E872E676E47AE27EE0801013050040AE
:10409000EF00B0702A8785476316F70013050040CC
:1040A000EF001075856713850780EF00106F2A8772
:1040B00085476317F700856713850780EF00507306
:1040C0000565EF00906D2A8785476315F700056544
:1040D000EF0010720965EF00506C2A878547631561
:1040E000F7000965EF00D0701165EF00106B2A87AB
:1040F00085476317F700EFD0BFF71165EF00506FEA
:104100002165EF0090692A8785476317F700EFD094
:104110001FE72165EF00D06D010076443660A66090
:10412000166186617272E2725273C2733275A27541
:10413000127682767267E2675268C268326EA26E49
:10414000126F826F2561730020301D71A2CE82E64E
:1041500086E48AE28EE012FE16FC1AFA1EF82AF6AF
:104160002EF432F236F03AEE3EEC42EA46E872E6DF
:1041700076E47AE27EE080108545B737014013850A
:1041800007C0EF20E069AA8785C38545B73701409E
:10419000138507C0EF20C06FEF30305AEF30B030DA
:1041A000EF802045EF904048010076443660A660DD
:1041B000166186617272E2725273C2733275A275B1
:1041C000127682767267E2675268C268326EA26EB9
:1041D000126F826F2561730020301D71A2CE82E6BE
:1041E00086E48AE28EE012FE16FC1AFA1EF82AF61F
:1041F0002EF432F236F03AEE3EEC42EA46E872E64F
:1042000076E47AE27EE08010854537050040EF20B5
:104210002061AA8763850726854537050040EF2082
:10422000206703D7018983D721896377F72203C7E2
:10423000019589476312F72203D721899547631FA8
:10424000F70083D741891387170093160701C182AE
:10425000239AD188130730066372F72283D7018926
:104260003E87B787002006079387C709BA9783C799
:104270001700E207E18753F707D087A781845377B8
:10428000F710E16787A707D2D377F7185385F72090
:10429000EFA0803BD307A5205385F720EFF05039DE
:1042A000E16703A687D283A6C7D2EFE0C07DAA87C5
:1042B0002E883E85C285E16703A607D383A647D330
:1042C000EFD0905DAA872E883E85C285E16703A660
:1042D00087D383A6C7D3EFD0403BAA872E883E85DD
:1042E000C285E16703A607D483A647D4EFE0A0798F
:1042F000AA872E883E85C285EFF010425307A5207D
:10430000E16787A787D4D377F718B777002093871B
:1043100087D49CEBB7770020938787D49C6BD39787
:1043200017C03E85EF00B014AA873E87239BE18823
:1043300083D7A18989E703D76189239DE18883D742
:1043400001891387170093160701C1822398D1882A
:104350003E87B787002006079387C709BA9783C7A8
:104360000700E207E18753F707D087A74184537717
:10437000F710E16787A707D2D377F7185385F7209F
:10438000EFA0802CD307A520D397F7205385F720E3
:10439000EFF0102AE16703A687D283A6C7D2EFE029
:1043A000806EAA872E883E85C285E16703A607D363
:1043B00083A647D3EFD0504EAA872E883E85C2856C
:1043C000E16703A607D583A647D5EFD0002CAA87BF
:1043D0002E883E85C285E16703A607D483A647D40D
:1043E000EFE0606AAA872E883E85C285EFF0D03262
:1043F0005307A520E16787A787D4D377F718B77746
:104400000020938787D4DCEBB7770020938787D48D
:10441000DC6BD39717C03E85EF007005AA873E87F7
:10442000239CE18883D7C18989E703D78189239EAB
:10443000E188B71700409387078003D76189239AE3
:10444000E702B71700409387078003D78189239E2F
:10445000E702239A018825A005472388E194239841
:104460000188239901888567138607FA8145B787F4
:1044700000201385C709EFB0BFD811A00100764412
:104480003660A660166186617272E2725273C27300
:104490003275A275127682767267E2675268C268D8
:1044A000326EA26E126F826F2561730020301D7113
:1044B000A2CE82E686E48AE28EE012FE16FC1AFAAA
:1044C0001EF82AF62EF432F236F03AEE3EEC42EACC
:1044D00046E872E676E47AE27EE080108545B7072A
:1044E000004013850740EF20A033AA8781CB854584
:1044F000B707004013850740EF208039010076445C
:104500003660A660166186617272E2725273C2737F
:104510003275A275127682767267E2675268C26857
:10452000326EA26E126F826F2561730020301D7192
:10453000A2CE82E686E48AE28EE012FE16FC1AFA29
:104540001EF82AF62EF432F236F03AEE3EEC42EA4B
:1045500046E872E676E47AE27EE080108545B71799
:10456000004013850780EF20A02BAA8781CB8545CB
:10457000B717004013850780EF2080310100764493
:104580003660A660166186617272E2725273C273FF
:104590003275A275127682767267E2675268C268D7
:1045A000326EA26E126F826F2561730020301D7112
:1045B000A2CE82E686E48AE28EE012FE16FC1AFAA9
:1045C0001EF82AF62EF432F236F03AEE3EEC42EACB
:1045D00046E872E676E47AE27EE080108545B71719
:1045E0000040138507C0EF20A023AA8781CB854513
:1045F000B7170040138507C0EF20802901007644DB
:104600003660A660166186617272E2725273C2737E
:104610003275A275127682767267E2675268C26856
:10462000326EA26E126F826F2561730020301D7191
:10463000A2CE82E686E48AE28EE012FE16FC1AFA28
:104640001EF82AF62EF432F236F03AEE3EEC42EA4A
:1046500046E872E676E47AE27EE08010854537151A
:104660000040EF20E01BAA8791C785453715004021
:10467000EF200022010076443660A6601661866154
:104680007272E2725273C2733275A27512768276BA
:104690007267E2675268C268326EA26E126F826FF2
:1046A0002561730020301D71A2CE82E686E48AE285
:1046B0008EE012FE16FC1AFA1EF82AF62EF432F2DA
:1046C00036F03AEE3EEC42EA46E872E676E47AE20A
:1046D0007EE080108545B717004013850740EF2026
:1046E0002014AA8781CB8545B71700401385074062
:1046F000EF20001A010076443660A66016618661DC
:104700007272E2725273C2733275A2751276827639
:104710007267E2675268C268326EA26E126F826F71
:104720002561730020301D71A2CE82E686E48AE204
:104730008EE012FE16FC1AFA1EF82AF62EF432F259
:1047400036F03AEE3EEC42EA46E872E676E47AE289
:104750007EE080108545B737014013850740EF2084
:10476000200CAA8781CB8545B737014013850740C8
:10477000EF200012010076443660A6601661866163
:104780007272E2725273C2733275A27512768276B9
:104790007267E2675268C268326EA26E126F826FF1
:1047A0002561730020301D71A2CE82E686E48AE284
:1047B0008EE012FE16FC1AFA1EF82AF62EF432F2D9
:1047C00036F03AEE3EEC42EA46E872E676E47AE209
:1047D0007EE080108545B7570140138507C0EF2064
:1047E0002004AA8781CB8545B7570140138507C0B0
:1047F000EF20000A010076443660A66016618661EB
:104800007272E2725273C2733275A2751276827638
:104810007267E2675268C268326EA26E126F826F70
:104820002561730020301D71A2CE82E686E48AE203
:104830008EE012FE16FC1AFA1EF82AF62EF432F258
:1048400036F03AEE3EEC42EA46E872E676E47AE288
:104850007EE08010854537550140EF10707CAA87B7
:1048600091C7854537550140EF208002010076440D
:104870003660A660166186617272E2725273C2730C
:104880003275A275127682767267E2675268C268E4
:10489000326EA26E126F826F25617300203041115B
:1048A00022C600080100324441017300203041114A
:1048B00022C6000801A0797106D622D4001823264A
:1048C000A4FEAE872315F4FE8327C4FE850783C7A5
:1048D0000700A2071397070141878327C4FE83C7F8
:1048E0000700C207C1839387F7FAC207C183C207D3
:1048F000C187D98F93960701C1861397060141831B
:104900009375F70F03C7C194018B3A862E87518F99
:104910002386E1941397060141832183131607012F
:10492000418203C7D194018BBA863287558FA38603
:10493000E1948327C4FE8D0783C70700A20713975E
:10494000070141878327C4FE890783C70700C20781
:10495000C187D98FC207C187C207C1831307B003BC
:10496000B307F740C207C18393960701C1869387B7
:10497000C1941397060141839375F70F03C727006E
:10498000018B3A862E87518F2381E700139706010A
:104990004183218313160701418203C73700018B2E
:1049A000BA863287558FA381E7008327C4FE950717
:1049B00083C70700A2070327C4FE110703470700A8
:1049C000D98F9387F7FAD3F707D0B777002027AEB0
:1049D000F70C8327C4FE9D0783C70700A2070327A0
:1049E000C4FE190703470700D98F1307B003B307A5
:1049F000F740D3F707D0B77700209387C70DDCE3E4
:104A00008327C4FEA50783C70700A2070327C4FEA8
:104A1000210703470700D98F9387F7FAD3F707D009
:104A2000B77700209387C70D9CE78327C4FEAD07A7
:104A300083C70700A2070327C4FE2907034707000F
:104A4000D98F1307B003B307F740D3F707D0B77771
:104A500000209387C70DDCE78327C4FEB50783C713
:104A60000700A2070327C4FE310703470700D98FB9
:104A70009387F7FAD3F707D0B77700209387C70D4E
:104A80009CEB8327C4FEBD0783C70700A20703274B
:104A9000C4FE390703470700D98F1307B003B307D4
:104AA000F740D3F707D0B77700209387C70DDCEB2B
:104AB0008327C4FEC50783C70700A2070327C4FED8
:104AC000410703470700D98F9387F7FAD3F707D039
:104AD000B77700209387C70D9CEF8327C4FECD07CF
:104AE00083C70700A2070327C4FE4907034707003F
:104AF000D98F1307B003B307F740D3F707D0B777C1
:104B000000209387C70DDCEF8327C4FE03C747014E
:104B10002381E18A03C7C19483C7D194A207D98FA7
:104B2000C207C187C207C1873E8E1387C19403475E
:104B300027009387C19483C73700A207D98FC20784
:104B4000C187C207C187BE8E8327C4FE950783C76E
:104B50000700A2070327C4FE110703470700B3E5B8
:104B6000E7008327C4FE950783C70700A207032732
:104B7000C4FE11070347070033E5E7008327C4FE9F
:104B8000A50783C70700A2070327C4FE2107034721
:104B9000070033E3E7008327C4FEAD0783C70700A0
:104BA000A2070327C4FE29070347070033E8E700ED
:104BB0008327C4FEB50783C70700A2070327C4FEE7
:104BC000310703470700B3E8E7008327C4FEBD07AA
:104BD00083C70700A2070327C4FE3907034707005E
:104BE000D98F0327C4FE4507034707002207832602
:104BF000C4FEC10683C60600558F8326C4FECD06BB
:104C000083C60600A2060326C4FE49060346060024
:104C1000D18E0326C4FE51060346060032C636C4B2
:104C20003AC23EC09A872A87AE867686F28561654B
:104C3000130585D5EF00C1120100B2502254456121
:104C40008280011106CE22CC00102326A4FEAE875E
:104C50002315F4FE8357A4FE3E868325C4FE194522
:104C6000EFC03FBD0100F24062440561828079716E
:104C700022D60018232EA4FC8327C4FD53F717D097
:104C8000E16787A7C7D7D317F7A081C7930720137A
:104C900025A08327C4FD53F717D0E16787A707D85E
:104CA000D397E7A081C79307A04A39A08327C4FD03
:104CB000D3F717D0D39717C0232EF4FCB7170040B3
:104CC0009387078083D7C7022317F4FE0357E4FEB8
:104CD0008327C4FD3307F702896793870771B357AA
:104CE000F7022316F4FE8357C4FE3E853254456115
:104CF0008280757106C722C50009B717270713857B
:104D000007E0EFD06FF0EFD0FFEAEF8000740545C9
:104D1000EF70007999679386D73899671386C738FB
:104D2000F167938507201945EFC01FCB930784F7E0
:104D30002326F4FEB7570000138627C4B757000098
:104D40009385678B0325C4FEEF90C06085451945A8
:104D5000EFC07FBA03A741818967938707F4B357F0
:104D6000F7029305401F3E85EFB00FD41306B02E17
:104D700093052003B71703001385C706EFB01FF490
:104D80001306D02F93052003B71703001385E726DA
:104D9000EFB0DFF203A741818967938707F4B35728
:104DA000F7029305401F3E85EFB00FD0EF807005EE
:104DB0001307800C239CE190EF60603603A74181CC
:104DC0009307803E3357F702BA878A07BA97860758
:104DD000BE850145EFB0BFB603A741819307803E72
:104DE000B357F7028A07BE850545EFB05FB5930557
:104DF00020021305C002EFE0BF900545EFB0DFAA27
:104E000003C7019585476312F70213064006B7975B
:104E100000209385C7030325C4FEEF90A056238886
:104E2000019485451945EFC01FAD83C7218A91CFF5
:104E300003C701958947630AF700EF80D004EF802C
:104E4000D04EAA873E872399E1885145EF707004C0
:104E500045BF01A001A001A001A001A001A001A0E7
:104E600001A001A001A001A001A001A001A001A03A
:104E700001A001A001A001A001A001A001A001A02A
:104E800001A001A001A001A001A001A001A001A01A
:104E900001A001A001A001A001A001A001A001A00A
:104EA00001A001A001A001A001A001A001A001A0FA
:104EB00001A001A001A001A001A001A001A001A0EA
:104EC00001A001A001A001A001A001A001A001A0DA
:104ED00001A001A001A001A001A001A001A001A0CA
:104EE00001A001A001A001A001A001A001A001A0BA
:104EF00001A001A001A001A001A001A001A001A0AA
:104F000001A001A001A001A001A001A001A001A099
:104F100097C1FF1F938181B5173101201301810EC5
:104F2000176501001305456C97B5FF1F9385850D27
:104F30001386018763FAC5008322050023A055006C
:104F400011059105E3EAC5FE138501879745002009
:104F5000938585156377B500232005001105E36D62
:104F6000B5FEFD42739002BCFD4273904280B76271
:104F700000009382820873A0023097B2FFFF9382F1
:104F8000E20B93E23200739052309702000093825A
:104F900082D67390123473002030797122D60018B3
:104FA000232EA4FC232604FE232404FEB70701407D
:104FB000938707409C430327C4FDF98F2324F4FE05
:104FC000B707014093870740D84B8327C4FDF98F6B
:104FD00081CB832784FE89C785472326F4FE19A049
:104FE000232604FE8327C4FE3E8532544561828019
:104FF000011122CE00102326A4FEB707014093879B
:1050000007400327C4FED8CB0100724405618280AB
:10501000411122C60008B72702403707674513072A
:105020003712D8C3B72702403797EFCD1307B79A87
:10503000D8C30100324441018280411122C60008D8
:10504000B7270240984BB72702401367070898CB51
:105050000100324441018280797106D622D40018C1
:10506000232EA4FC91472326F4FE37050B00512282
:105070002326A4FE0327C4FE91476313F704B72732
:105080000240984BB72702401367270098CBB727F9
:1050900002400327C4FDD8CBB7270240984BB7275F
:1050A00002401367070498CB37050B00992223268B
:1050B000A4FEB7270240984BB7270240759B98CBB8
:1050C0008327C4FE3E85B2502254456182807971A7
:1050D00006D622D40018232EA4FC232CB4FC91471E
:1050E0002326F4FE232404FE156521222326A4FE94
:1050F0000327C4FE9147631CF706B7270240984B6D
:10510000B72702401367170098CB8327C4FD0327F6
:1051100084FD420741832390E7001565D9282326A3
:10512000A4FE0327C4FE9147631CF7028327C4FD36
:1051300089072324F4FE832784FDC183032784FE8B
:10514000C207C1832310F700156565202326A4FE3E
:10515000B7270240984BB7270240799B98CB01A80C
:10516000B7270240984BB7270240799B98CB8327FB
:10517000C4FE3E85B250225445618280011122CE88
:1051800000102326A4FEB72702400327C4FED8C779
:105190000100724405618280011122CE0010914706
:1051A0002326F4FEB7270240DC4713F71700854794
:1051B0006316F70085472326F4FE35A0B727024083
:1051C000DC47918B89C789472326F4FE29A8B72796
:1051D0000240DC47C18B89C78D472326F4FE21A0FE
:1051E00091472326F4FE8327C4FE3E857244056161
:1051F0008280797106D622D40018232EA4FC914710
:105200002326F4FEEFF05FF92326A4FE11A8EFF0A9
:10521000BFF82326A4FE8327C4FDFD17232EF4FC2C
:105220000327C4FE85476315F7008327C4FDE5F314
:105230008327C4FD81E795472326F4FE8327C4FE18
:105240003E85B250225445618280397122DE800051
:105250002326A4FC2324B4FC232604FE232004FEDE
:10526000232404FE232E04FC232204FE232C04FC0E
:10527000832784FC9C47BD8B2326F4FE832784FC74
:105280009C47C18B89CB832784FCDC430327C4FE66
:10529000D98F2326F4FE832784FC83D7070093F756
:1052A000F70FF1CF8327C4FC9C432322F4FE232471
:1052B00004FE65A8832784FE0547B317F700232E55
:1052C000F4FC832784FC83D707003E878327C4FD33
:1052D000F98F2320F4FE032704FE8327C4FD631106
:1052E000F708832784FE8A07232EF4FC8327C4FD56
:1052F0003D47B317F700232CF4FC832784FD93C7A5
:10530000F7FF032744FEF98F2322F4FE8327C4FD11
:105310000327C4FEB317F700032744FED98F2322C7
:10532000F4FE832784FC984793078002631BF700F1
:10533000832784FE05473317F7008327C4FCD8CBA7
:1053400005A0832784FC984793078004631AF7001D
:10535000832784FE05473317F7008327C4FC98CBC7
:10536000832784FE85072324F4FE032784FE9D47BC
:10537000E3F2E7F48327C4FC032744FE98C38327A2
:1053800084FC03D707009307F00F63F1E70E832730
:10539000C4FCDC432322F4FE232404FE75A88327E7
:1053A00084FEA1070547B317F700232EF4FC8327DB
:1053B00084FC83D707003E878327C4FDF98F232011
:1053C000F4FE032704FE8327C4FD6312F708832736
:1053D00084FE8A07232EF4FC8327C4FD3D47B317C0
:1053E000F700232CF4FC832784FD93C7F7FF0327E2
:1053F00044FEF98F2322F4FE8327C4FD0327C4FE55
:10540000B317F700032744FED98F2322F4FE832726
:1054100084FC984793078002631BF700832784FE70
:10542000A10705473317F7008327C4FCD8CB832790
:1054300084FC984793078004631BF700832784FE4E
:10544000A10705473317F7008327C4FC98CB8327B0
:1054500084FE85072324F4FE032784FE9D47E3F0A2
:10546000E7F48327C4FC032744FED8C30100725429
:1054700021618280011122CE00102326A4FEAE8776
:105480002322C4FE2315F4FE832744FE99C7035745
:10549000A4FE8327C4FE98CB31A00357A4FE832724
:1054A000C4FED8CB0100724405618280797122D696
:1054B0000018232EA4FC232CB4FC232404FE232256
:1054C00004FE232604FE232004FE8327C4FD63D8A4
:1054D0000700B7070140DC4F2326F4FE31A0B707D1
:1054E0000140DC432326F4FE8327C4FDC183BD8B2A
:1054F0002320F4FE0327C4FDC167FD17F98F232481
:10550000F4FE8327C4FD63D407080327C4FDB7074F
:1055100030007D8FB70730006314F702832704FE45
:10552000C1070D47B317F7002322F4FE832744FE7B
:1055300093C7F7FF0327C4FEF98F2326F4FEC5A8FF
:105540000327C4FDB7071000F98F95C3832704FE16
:105550000D47B317F7002322F4FE832744FE93C7B9
:10556000F7FF0327C4FEF98F2326F4FEC9A0832783
:10557000C4FDD5839207032784FEB317F70093C7B2
:10558000F7FF0327C4FEF98F2326F4FE4DA003275F
:10559000C4FDB70730007D8FB70730006315F702F1
:1055A0000327C4FEB70700F1FD17F98F2326F4FE89
:1055B000B7070140D443B7070140370700F17D1713
:1055C000758FD8C3ADA00327C4FDB7071000F98FAE
:1055D0008DCB832704FE0D47B317F7002322F4FE7B
:1055E000832744FE93C7F7FF0327C4FEF98F2326C2
:1055F000F4FE0327C4FEB707000FD98F2326F4FE5D
:105600003DA08327C4FDD5839207032784FEB317EB
:10561000F70093C7F7FF0327C4FEF98F2326F4FE94
:105620000327C4FEB707000FD98F2326F4FE832774
:1056300084FD91CF8327C4FDD5839207032784FE81
:10564000B317F7000327C4FED98F2326F4FE832760
:10565000C4FD63D80700B70701400327C4FED8CFB5
:1056600031A0B70701400327C4FED8C3010032545C
:1056700045618280397122DE80002326A4FC23222A
:1056800004FE232604FE232004FE232E04FC2324F0
:1056900004FEB7170240DC43B18B2322F4FE03273C
:1056A00044FE91476303F702032744FEA1476306C4
:1056B000F702832744FE639907148327C4FC371736
:1056C0007A001307072098C389AA8327C4FC3717D9
:1056D0007A001307072098C389A2B7170240D8435E
:1056E000B7073C00F98F2326F4FEB7170240D843D2
:1056F000C167F98F2320F4FE8327C4FEC98389077D
:105700002326F4FEB7F7FF1F9387C770984391676E
:10571000F98F91EB0327C4FEC5476319F704C94706
:105720002326F4FEA1A00327C4FE89476315F700D2
:10573000C9472326F4FE0327C4FEBD476318F700BC
:10574000B5472326F4FE85472324F4FE0327C4FE31
:10575000C1476315F700BD472326F4FE0327C4FEA7
:10576000C5476315F700C1472326F4FE832704FECF
:10577000A1E3B7470240938707809C43C18B89CF41
:105780000327C4FEB7177A00938707203307F70271
:105790008327C4FC98C399A80327C4FEB7173D000C
:1057A000938707903307F7028327C4FC98C33DA86B
:1057B000B7170240D843B7070200F98F89CF0327F4
:1057C000C4FEB7173D00938707903307F70283277E
:1057D000C4FC98C321A80327C4FEB7177A00938797
:1057E00007203307F7028327C4FC98C3032784FEEE
:1057F00085476313F7028327C4FC9C4313D7170024
:105800008327C4FC98C309A88327C4FC37177A00F0
:105810001307072098C311A00100B7170240DC430B
:1058200093F7070F2322F4FE832744FE918323225C
:10583000F4FEB707002013874701832744FEBA9779
:1058400083C7070093F7F70F232EF4FC8327C4FCCC
:1058500098438327C4FD3357F7008327C4FCD8C37C
:10586000B7170240DC4393F707702322F4FE832727
:1058700044FEA1832322F4FEB707002013874701CB
:10588000832744FEBA9783C7070093F7F70F232EA9
:10589000F4FC8327C4FCD8438327C4FD3357F700A7
:1058A0008327C4FC98C7B7170240D84391679387F2
:1058B0000780F98F2322F4FE832744FEAD83232241
:1058C000F4FEB707002013874701832744FEBA97E9
:1058D00083C7070093F7F70F232EF4FC8327C4FC3C
:1058E000D8438327C4FD3357F7008327C4FCD8C7A8
:1058F000B7170240D843B167F98F2322F4FE8327FC
:1059000044FEB9832322F4FE1387C181832744FE1A
:10591000BA9783C7070093F7F70F232EF4FC83276A
:10592000C4FCD8478327C4FD3357F7028327C4FC40
:1059300098CB0100725421618280011122CE0010A7
:105940002326A4FE2324B4FE832784FE99CBB71715
:105950000240944FB71702400327C4FE558F98CFDB
:1059600021A8B7170240944F8327C4FE13C7F7FF3F
:10597000B7170240758F98CF01007244056182808D
:10598000011122CE00102326A4FE2324B4FE832777
:1059900084FE99CBB7170240D44FB71702400327B4
:1059A000C4FE558FD8CF21A8B7170240D44F832704
:1059B000C4FE13C7F7FFB7170240758FD8CF010099
:1059C000724405618280011122CE00102326A4FEBC
:1059D0002324B4FE832784FE99CBB7170240D44713
:1059E000B71702400327C4FE558FD8C721A8B717A1
:1059F0000240D4478327C4FE13C7F7FFB7170240FE
:105A0000758FD8C70100724405618280011122CED2
:105A100000102326A4FE2324B4FE832784FE99CB02
:105A2000B7170240944BB71702400327C4FE558FA7
:105A300098CB21A8B7170240944B8327C4FE13C705
:105A4000F7FFB7170240758F98CB010072440561CC
:105A50008280011106CE22CC00102326A4FE03274B
:105A6000C4FEB7370140631BF70085450565EFF0BD
:105A70009FF581450565EFF01FF591A00327C4FE52
:105A8000B747004093870780631BF7008545116582
:105A9000EFF0DFF781451165EFF05FF70DA0032709
:105AA000C4FEB7470040938707C0631AF7008545D7
:105AB0002165EFF0BFF581452165EFF03FF501006D
:105AC000F240624405618280797122D60018232E4B
:105AD000A4FC232CB4FC231704FE8327C4FD83D726
