:100000006F50504713000000130000001300000061
:100010001300000013000000130000001300000094
:100020001300000013000000130000001300000084
:08003000130000007300100032
:1000380000000000000000002259000032590000B2
:1000480000000000BA5B0000000000000000000093
:10005800BC5B0000BE5B0000000000000000000068
:10006800C05B000000000000C25B00000000000050
:10007800C45B0000C65B0000C85B0000CA5B0000F0
:10008800CC5B0000CE5B0000A84B00005C4C00007D
:10009800104D0000C44D0000784E0000DA5B0000EF
:1000A800DC5B0000DE5B0000E05B0000E25B000060
:1000B800E45B0000E65B0000E85B0000EA5B000030
:1000C800EC5B0000EE5B0000F05B00002C4F0000D2
:1000D800F45B000076510000F85B0000FA5B00005A
:1000E80042520000FA520000F2530000025C000085
:1000F800045C0000065C0000085C00000A5C00006C
:100108000C5C0000D4430000984400005C450000EB
:1001180044500000165C0000185C00001A5C0000E7
:10012800EA5600001E5C0000205C0000225C000013
:10013800245C0000265C0000B25400002A5C000029
:1001480024460000E8460000725500002A560000C8
:10015800345C0000365C0000385C00003A5C00004B
:100168003C5C00003E5C0000405C0000425C00001B
:10017800445C0000465C0000485C0000867C00008F
:100188004C5C00004E5C0000D84A0000A447000008
:1001980068480000184A0000585C0000AA57000090
:1001A8005C5C00005E5C0000605C00006A58000057
:1001B800645C0000665C0000685C00006A5C00002B
:1001C8006C5C00006E5C0000705C0000725C0000FB
:1001D8000000000000000000000000000000000017
:1001E8000000000000000000000000000000000007
:0801F8000000000000000000FF
:100200003D432A876373C3029377F700BDEFADE5E3
:10021000937606FF3D8ABA960CC34CC30CC74CC7F5
:100220004107E36BD7FE11E28280B306C3408A0622
:100230009702000096966780A6002307B700A306E2
:10024000B7002306B700A305B7002305B700A30432
:10025000B7002304B700A303B7002303B700A3022A
:10026000B7002302B700A301B7002301B700A30022
:10027000B7002300B700828093F5F50F93968500B1
:10028000D58D93960501D58D61B79396270097027A
:10029000000096968682E78086FA9680C1171D8FA9
:1002A0003E96E374C3F8A5B7011122CE00102326B1
:1002B000A4FE37F500E08328450037F500E093F809
:1002C000E8FF2322150183A8C1810965130505F400
:1002D00033D5A802AA8601470325C4FEAA87014890
:1002E00037F500E03303F702B308D8029A98338356
:1002F000F60233B6F6029A85B387C8003E860CC96B
:1003000050C9B7F700E09843B7F700E0136707015B
:1003100098C3B7F700E09843B7F700E013671702F8
:1003200098C30100B7F700E0DC4313F717008547D7
:10033000E31AF7FEB7F700E09843B7F700E0799BC0
:1003400098C30100724405618280011122CE001021
:100350002326A4FE37F500E08328450037F500E0AA
:1003600093F8E8FF2322150183A8C18137157A008D
:100370001305052033D5A802AA8601470325C4FE2C
:10038000AA87014837F500E03303F702B308D80223
:100390009A983383F60233B6F6029A85B387C8007B
:1003A0003E860CC950C9B7F700E09843B7F700E0A4
:1003B0001367070198C3B7F700E09843B7F700E069
:1003C0001367170298C30100B7F700E0DC4313F787
:1003D00017008547E31AF7FEB7F700E09843B7F731
:1003E00000E0799B98C301007244056182807971B5
:1003F00006D622D40018232EA4FC232CB4FC832779
:10040000C4FD93B7070493F7F70F3E8713068003E5
:10041000E167938507853A85EF30201C832784FDAB
:1004200093B7470093F7F70F3E8713069003E167F2
:10043000938507853A85EF30401AA30704FE03270A
:10044000C4FDA167BA9713972700832784FDBA9745
:10045000AA072324F4FEEF30B0732322A4FE231650
:1004600004FE35A00357C4FE832784FEBA97984341
:10047000B7E739E3938797336306F7008547A30708
:10048000F4FE21A88357C4FE91072316F4FE0357F8
:10049000C4FE9307F03FE3F7E7FC032544FEEF308B
:1004A000106C8347F4FE3E85B25022544561828031
:1004B000797106D622D40018232EA4FC232CB4FC78
:1004C0008327C4FD93B7070493F7F70F3E871306FE
:1004D000F005E167938507853A85EF3000108327A3
:1004E00084FD93B7470093F7F70F3E871306000686
:1004F000E167938507853A85EF30200EA30704FE58
:100500000327C4FDA167BA9713972700832784FDAB
:10051000BA97AA072324F4FEEF3090672322A4FEA3
:10052000EF50500513054003EF50901B032584FE48
:10053000EF50D0082A87B707002023ACE726130521
:100540000002EF50F019EF509005B707002003A705
:10055000872791476305F7008547A307F4FE032526
:1005600044FEEF30D05F8347F4FE3E85B250225404
:1005700045618280797106D622D40018232EA4FC0E
:10058000232CB4FC8327C4FD93B7070493F7F70F1C
:100590003E871306800DE167938507853A85EF3026
:1005A000C003832784FD93B7470093F7F70F3E8777
:1005B0001306900DE167938507853A85EF30E001DA
:1005C0000327C4FDA167BA9713972700832784FDEB
:1005D000BA97AA072324F4FE231704FE3DA08357ED
:1005E000E4FE8A073E87832784FEBA978356E4FE9B
:1005F0009843B70700208A069387873FB69798C32A
:100600008357E4FE85072317F4FE0357E4FE9307A0
:10061000F00FE3F6E7FC0100B250225445618280FE
:10062000797106D622D40018232EA4FC232CB4FC06
:100630008327C4FD93B7070493F7F70F3E8713068C
:10064000100FE167938507853A85EF20107983279E
:1006500084FD93B7470093F7F70F3E871306200FEB
:10066000E167938507853A85EF203077A30704FE7D
:10067000232404FE231304FE0327C4FDA167BA97B5
:1006800013972700832784FDBA97AA072324F4FE33
:10069000832584FD0325C4FD993BAA8791C7832543
:1006A00084FD0325C4FD2935EF30904E2320A4FEA0
:1006B000EF50406C89A8035764FEB70700200A0773
:1006C0009387873FBA979C43BE85032584FEEF50EE
:1006D00040762A87B707002023AEE726B707002019
:1006E00003A7C72791476306F7008547A307F4FED2
:1006F0000DA0835764FE85072313F4FE832784FE31
:1007000091072324F4FE035764FE9307F00FE3F4EC
:10071000E7FAEF50C068032504FEEF3050448347EA
:10072000F4FE3E85B250225445618280411106C6D6
:1007300022C40008130600409305F00FB7070020FD
:100740001385873F753C0100B240224441018280FD
:10075000011122CE00102326A4FEAE87A305F4FECD
:100760008347B4FE85CB8327C4FEBD8B0547B317F3
:10077000F70093960701C1828327C4FE13D7570061
:10078000B70700200A0793870704BA979C43368768
:1007900098CB3DA08327C4FEBD8B0547B317F70058
:1007A00093960701C1828327C4FE13D75700B7076A
:1007B00000200A0793870704BA979C433687D8CB53
:1007C0000100724405618280011122CE00102326AF
:1007D000A4FE8327C4FE958313F77700B707002094
:1007E0000A0793870704BA979C439C470327C4FED4
:1007F0007D8B85463397E600F98FB337F00093F78A
:10080000F70F3E85724405618280797106D622D445
:100810000018232EA4FC232CB4FCB2872328D4FC7C
:10082000A30BF4FC232004FE232204FE232404FE55
:100830008327C4FD958393F7F70F9D8BA307F4FEE1
:100840008327C4FD93F7F70FFD8B2307F4FE83473F
:10085000F4FE91E785451145EF50706491A8034778
:10086000F4FE85476317F70085452145EF50306357
:1008700081A00347F4FE89476317F700854541458A
:10088000EF50F06135A00347F4FE8D476318F70081
:10089000854513050002EF50906019A80347F4FE48
:1008A00091476317F700854513050004EF50305F4B
:1008B0008347E4FE0547B317F700C207C18323103F
:1008C000F4FE032784FD85476317F702832704FDA1
:1008D000C207C183A183C207C18389E78D47232251
:1008E000F4FE11A8832704FDC207C183A183C207B8
:1008F000C1832322F4FE832704FDC207C18393F73B
:10090000F70F2324F4FE0347F4FEB70700200A077D
:1009100093870704BA979C43130704FEBA853E8564
:10092000EF50E068032784FD85476319F70203470A
:10093000F4FEB70700200A0793870704BA97944389
:100940008347E4FE0547B317F700C207C183034797
:1009500074FD3A86BE853685EF5010080100B2500E
:100960002254456182801D7186CEA2CC8010232640
:10097000A4FA2324B4FA85450325C4FAEF005036BF
:10098000AA873E871306D006E1679385C78C3A8510
:10099000EF20B044832784FAB337F00093F7F70FC2
:1009A0003E871306F006E1679385C78C3A85EF20F2
:1009B000D042832784FABD832315F4FE8357A4FE17
:1009C00085073E87832784FAB3D7E7022314F4FE12
:1009D0000325C4FAEF003037B7370140938707C0CB
:1009E0002326F4FE0327C4FAA54763ECE708832710
:1009F000C4FA13972700E167938707FBBA979C43D4
:100A00008287B7370140938707C02326F4FE95A855
:100A1000B70700402326F4FEADA0B7070040938738
:100A200007402326F4FEB1A8B7170040938707803C
:100A30002326F4FEB9A0B7170040938707C02326EA
:100A4000F4FE81A0B71700402326F4FE1DA8B717B7
:100A50000040938707402326F4FE25A0B7370140C6
:100A6000938707402326F4FE29A8B75701409387B0
:100A700007C02326F4FE31A0B75701402326F4FE19
:100A80000100232E04FC232004FE231204FE8357BE
:100A900084FE2310F4FE8357A4FE231EF4FC2311CE
:100AA00004FE231F04FC230204FE9307C4FDBE853D
:100AB0000325C4FEEF50B06C054685450325C4FEF2
:100AC000EF60407C85450325C4FEEF60B032E167EE
:100AD00003AE478A1387478A032347001387478A51
:100AE000832887001387478A0328C7001387478A0C
:100AF000084B1387478A4C4B1387478A104F13873D
:100B0000478A544F1387478A18539387478ADC5381
:100B1000232AC4FB232C64FA232E14FB232004FD78
:100B20002322A4FC2324B4FC2326C4FC2328D4FCC5
:100B3000232AE4FC232CF4FC8327C4FA93F7F70F51
:100B40008A07130704FFBA9783A747FC8D453E85A4
:100B5000EF30407E8327C4FA8A07130704FFBA9751
:100B600083A747FC3E85EF30207985450325C4FEE9
:100B7000EF60C0650100F6406644256182807971AE
:100B800006D622D40018232EA4FC232CB4FC032761
:100B900084FD896793871771B337F70093F7F70FD1
:100BA0003E8713065003E167938507923A85EF204D
:100BB000D022B7370140938707C02326F4FE83274E
:100BC000C4FDC183BD8B2547636EF70613972700CD
:100BD000E167938787FDBA979C438287B7370140C7
:100BE000938707C02326F4FEB1A8B7070040232649
:100BF000F4FE89A8B7070040938707402326F4FE38
:100C000091A0B7170040938707802326F4FE1DA804
:100C1000B7170040938707C02326F4FE25A0B737F7
:100C20000140938707402326F4FE29A8B7570140C7
:100C3000938707C02326F4FE31A0B757014023262F
:100C4000F4FE01008327C4FE83D7C7022315F4FEF8
:100C50000357A4FE832784FD3307F7028967938730
:100C60000771B357F7022314F4FE8327C4FDA18351
:100C70008D8B81EB8327C4FE035784FE239AE70202
:100C8000A9A88327C4FDA18313F7370085476319FB
:100C9000F7008327C4FE035784FE239CE70235A890
:100CA0008327C4FDA18313F7370089476319F70031
:100CB0008327C4FE035784FE239EE70239A88327B7
:100CC000C4FDA18313F737008D476318F70083270E
:100CD000C4FE035784FE2390E7040100B25022545F
:100CE000456182805D7186C6A2C48008232EA4FA65
:100CF000232CB4FA232AC4FA8327C4FBC1838D456D
:100D00003E85EF00E07DAA873E871306D00AE167A3
:100D1000938507923A85EF20500C032744FB89679F
:100D200093871771B337F70093F7F70F3E871306D2
:100D3000F00AE167938507923A85EF20100A232E87
:100D400004FC232004FE231204FE232604FC232893
:100D500004FC232A04FC232C04FC231504FE832713
:100D6000C4FBC183BD8B3E85EF00E07D8327C4FBC0
:100D700093F7F70F93068031014685453E85713420
:100D800085450545EF50B011B7370140938707C03F
:100D90002326F4FE8327C4FBC183BD8B2547636EE6
:100DA000F70613972700E16793870700BA979C43DC
:100DB0008287B7370140938707C02326F4FEB1A886
:100DC000B70700402326F4FE89A8B70700409387A1
:100DD00007402326F4FE91A0B717004093870780B1
:100DE0002326F4FE1DA8B7170040938707C02326CB
:100DF000F4FE25A0B7370140938707402326F4FE71
:100E000029A8B7570140938707C02326F4FE31A0D5
:100E1000B75701402326F4FE01008327C4FB13D7F4
:100E2000C7008D47631AF7008545B707160013857D
:100E3000070CEF50E03D15AA8327C4FB13D7C7006A
:100E4000C547631AF7008545B707180013850710D3
:100E5000EF50003C19AA8327C4FB13D7C700C9472A
:100E6000631AF7008545B707180013850720EF5070
:100E7000203AE5A88327C4FB13D7C700CD47631AE0
:100E8000F7008545B707180013850730EF50403845
:100E9000E9A88327C4FB13D7C70093072002631A6E
:100EA000F7008545B7171A0013850780EF504036C5
:100EB0006DA88327C4FB13D7C70093073002631ABA
:100EC000F7008545B7171A00138507C0EF50403467
:100ED00069A88327C4FB13D7C700930710036317C0
:100EE000F70085450565EF50A03241A08327C4FB7C
:100EF00013D7C70093071007631AF7008545B70794
:100F0000008013854700EF50A03085A08327C4FBE5
:100F100013D7C70093073008631AF7008545B70752
:100F2000138013850701EF50A02E81A08327C4FBF7
:100F300013D7C70093071009631AF7008545B70751
:100F4000158013850702EF50A02C05A08327C4FB52
:100F500013D7C700930730096319F7008545B70712
:100F6000158013850704EF50A02A03A7C1818327AA
:100F700084FBB357F702C1832315F4FE03A7C18195
:100F80008357A4FE8507BE86832784FBB387F602BA
:100F9000B357F7022314F4FE035784FE832744FB60
:100FA0003307F702896793870771B357F702231353
:100FB000F4FE835784FEFD17C207C1832310F4FE9D
:100FC0008357A4FE231EF4FC231104FE231F04FCFC
:100FD000230204FE9307C4FDBE850325C4FEEF5023
:100FE000101A930700072316F4FC85472317F4FC17
:100FF000231804FC835764FE2319F4FC8947231A41
:10100000F4FC8947231BF4FC231C04FC231D04FC73
:101010008327C4FBA1838D8B9DE39307C4FCBE850E
:101020000325C4FEEF50902DA1450325C4FEEF60BB
:10103000602C91450325C4FEEF60804045A08327C6
:10104000C4FBA18313F7370085476315F7029307A5
:10105000C4FCBE850325C4FEEF501044A145032502
:10106000C4FEEF60E02D930500400325C4FEEF6051
:10107000E041ADA08327C4FBA18313F73700894764
:101080006314F7029307C4FCBE850325C4FEEF502A
:10109000D05EA1450325C4FEEF60203091450325B5
:1010A000C4FEEF6000441DA88327C4FBA18313F78F
:1010B00037008D476314F7029307C4FCBE850325F0
:1010C000C4FEEF505079A1450325C4FEEF60A03166
:1010D000930500400325C4FEEF6060458545032568
:1010E000C4FEEF60201485450325C4FEEF60000EAA
:1010F0000100B640264461618280011122CE0010B9
:101100002326A4FEAE87A305F4FEE1670327C4FEF1
:101110000A0793878702BA979C433E878347B4FEAA
:10112000C207C1832316F7000100E1670327C4FE4D
:101130000A0793878702BA979C4383D78700C20721
:10114000C18393F70708F5F3E1670327C4FE0A0795
:1011500093878702BA979C4383D7C70001007244E4
:1011600005618280011122CE00102326A4FEAE87E5
:101170002315F4FE8357A4FEA183C207C18393F60F
:10118000F70FE1670327C4FE0A0793878702BA9720
:101190009C433E8793970601C1832316F700010005
:1011A000E1670327C4FE0A0793878702BA979C4327
:1011B00083D78700C207C18393F70708F5F38357E6
:1011C000A4FE93F6F70FE1670327C4FE0A0793878F
:1011D0008702BA979C433E8793970601C1832316E3
:1011E000F7000100E1670327C4FE0A07938787021F
:1011F000BA979C4383D78700C207C18393F7070838
:10120000F5F301007244056182805D7186C6A2C457
:1012100080082326A4FC2324B4FC2322C4FC23201E
:10122000D4FC232EE4FA232CF4FA232A04FBE167EE
:101230000327C4FC0A0793878702BA979C433E851D
:10124000EF50605785450545EF506045032704FC86
:1012500093073012631DF7000327C4FB9307501256
:101260006317F70085450545EF40907A25A00327D1
:1012700004FC89679387A714631EF7000327C4FB48
:1012800089679387C7146317F700854537152000D2
:10129000EF4010788327C4FC91E785450565EF5042
:1012A000004025A00327C4FC85476317F700854548
:1012B0001165EF50204311A80327C4FC894763162A
:1012C000F70085452165EF50E041832704FC93F743
:1012D000F70F93068031054685453E85EFF0EFD246
:1012E0008327C4FB93F7F70F9306803105468545A6
:1012F0003E85EFF08FD1032784FBC167F917630D9B
:10130000F700832784FB93F7F70F93068034054695
:1013100081453E85EFF06FCF032744FB9307F00F25
:10132000630DF700832744FB93F7F70F9306003113
:10133000014685453E85EFF04FCD232E04FC23204A
:1013400004FE232204FE232404FE231604FE231E8F
:1013500004FC93074010231FF4FC231004FE032712
:1013600084FC85476305F702832784FC81CF03272C
:1013700084FC89476303F702032784FC8D476304D9
:10138000F7020DA8231104FE231204FE25A0231149
:1013900004FE85472312F4FE31A889472311F4FE89
:1013A000231204FE01A889472311F4FE8547231266
:1013B000F4FE0100231704FE03A7C181832744FC28
:1013C000B357F7022317F4FE03A7C181832744FC18
:1013D000B377F70291E78357E4FEFD172317F4FE76
:1013E0000357E4FE9307F00763F7E70093078003D2
:1013F0002317F4FE49A80357E4FE9307F00363F7AD
:10140000E700930700032317F4FEB5A80357E4FE93
:10141000FD4763F7E700930780022317F4FEA5A0BA
:101420000357E4FEBD4763F7E70093070002231765
:10143000F4FE91A80357E4FE9D4763F6E700E147F9
:101440002317F4FE89A00357E4FE8D4763F6E700F7
:10145000C1472317F4FE05A80357E4FE854763F64A
:10146000E700A1472317F4FE39A88357E4FE81C79C
:10147000231704FE09A813067021E1679385479797
:101480000145EF2080158357E4FE2314F4FE9307F3
:1014900000202313F4FE231504FE9D472316F4FEBB
:1014A000E1670327C4FC0A0793878702BA979C4326
:1014B0003E879307C4FDBE853A85EF502037E1672C
:1014C0000327C4FC0A0793878702BA979C43854584
:1014D0003E85EF5020450100B64026446161828080
:1014E000797122D60018232EA4FC232CB4FC854746
:1014F000A307F4FE0327C4FD0A07938701D8BA9710
:101500009C4399EB0327C4FD0A07938701D8BA9738
:10151000032784FD98C315A00327C4FD0A079387FA
:1015200001D8BA979C43032784FD6316F7008547CB
:10153000A307F4FE19A0A30704FE8347F4FE3E852B
:10154000325445618280011106CE22CC0010232640
:10155000A4FE8327C4FE81EB85458567138507803C
:10156000EF50E0136DA80327C4FE85476317F7000B
:1015700085450545EF5000175DA00327C4FE894748
:101580006317F70085450945EF50C01549A80327A3
:10159000C4FE8D476317F70085451145EF50801451
:1015A000BDA80327C4FE91476317F7008545214571
:1015B000EF504013ADA00327C4FE95476317F70013
:1015C00085454145EF50001299A80327C4FE99476D
:1015D0006318F700854513050002EF50A01081A0A5
:1015E0000327C4FE9D476317F70085450965EF5043
:1015F000000B35A00327C4FEA1476318F7008545FB
:1016000037050800EF50A00919A80327C4FEA54715
:101610006317F700854537051000EF5040080100BB
:10162000F240624405618280797122D60018232E2F
:10163000A4FCB7370140938707C02326F4FE231587
:1016400004FE0327C4FDA54763ECE7088327C4FD18
:1016500013972700E16793874703BA979C438287D4
:10166000B7370140938707C02326F4FE95A8B70734
:1016700000402326F4FEADA0B70700409387074043
:101680002326F4FEB1A8B7170040938707802326CE
:10169000F4FEB9A0B7170040938707C02326F4FED5
:1016A00081A0B71700402326F4FE1DA8B7170040FD
:1016B000938707402326F4FE25A0B7370140938780
:1016C00007402326F4FE29A8B7570140938707C097
:1016D0002326F4FE31A0B75701402326F4FE010073
:1016E0000327C4FD0A07938781DABA97984389478D
:1016F000631FF7008327C4FE83D7470213970701B0
:1017000041838D47B357F7022315F4FE39A0832791
:10171000C4FE83D747022315F4FE8357A4FE3E85FB
:10172000325445618280797122D60018232EA4FCA0
:10173000B7370140938707C02326F4FE0327C4FD73
:10174000A54763ECE7088327C4FD13972700E167EB
:101750009387C705BA979C438287B7370140938721
:1017600007C02326F4FE95A8B70700402326F4FE01
:10177000ADA0B7070040938707402326F4FEB1A829
:10178000B7170040938707802326F4FEB9A0B71748
:101790000040938707C02326F4FE81A0B7170040BE
:1017A0002326F4FE1DA8B717004093870740232681
:1017B000F4FE25A0B7370140938707402326F4FEA7
:1017C00029A8B7570140938707C02326F4FE31A00C
:1017D000B75701402326F4FE01008327C4FE23925D
:1017E00007020100325445618280011122CE0010AF
:1017F0002326A4FEAE87A305F4FE0100E1670327BC
:10180000C4FE0A0793874708BA979C4383D707000B
:10181000C207C18393F70708F5D3E1670327C4FE26
:101820000A0793874708BA979C433E878347B4FECD
:10183000C207C1832312F700010072440561828050
:10184000011106CE22CC00102326A4FE2324B4FED0
:101850002322C4FE832784FEB337F00093F7F70FEB
:101860003E8713061004E1679385879C3A85EF1045
:10187000D05629A8832784FE138717002324E4FE6B
:1018800083C70700BE850325C4FE8537832744FE32
:101890001387F7FF2322E4FEF1FF0100F2406244C8
:1018A00005618280011106CE22CC00102326A4FE01
:1018B0002324B4FE832784FEB337F00093F7F70F99
:1018C0003E8713060005E1679385879C3A85EF10F4
:1018D000D05039A8832784FE138717002324E4FE01
:1018E0008387070093F7F70FBE850325C4FEF53DF8
:1018F000832784FE83870700F1FF0100F2406244E2
:1019000005618280011106CE22CC00102326A4FEA0
:10191000AE87A305F4FEE1670327C4FE0A07938799
:101920004708BA979C433E878347B4FE3E8693059B
:1019300050523A85EF503078138781868327C4FE52
:10194000BA9783C7070081453E85EF20B01E8347C5
:10195000B4FE81CF138781868327C4FEBA9783C7DD
:1019600007003E85EF20501919A813878186832729
:10197000C4FEBA9783C707003E85EF20D019010047
:10198000F240624405618280011122CE00102326BC
:10199000A4FE2324B4FEE1670327C4FE0A0793874D
:1019A0004708BA979C4383D70700C207C18393F7C0
:1019B00007028DC7E1670327C4FE0A07938747081C
:1019C000BA979C4383D74700C207C18313F7F70F29
:1019D000832784FE2380E700854711A081473E8549
:1019E000724405618280797106D622D40018232EB4
:1019F000A4FC232CB4FC232AC4FC2328D4FC0327F6
:101A000044FD832704FD3D8F8327C4FDB207F98F72
:101A100093B7170093F7F70F3E871306A00AE16705
:101A20009385879C3A85EF10503B832744FD13D75D
:101A30008700832704FDA183B307F74093B71700FE
:101A400093F7F70F3E871306B00AE1679385879CEB
:101A50003A85EF109038832744FD93F7F70FE1465E
:101A6000014685453E85EFE05FDA832704FD93F765
:101A7000F70F93068004014681453E85EFE0FFD8CD
:101A800085450545EF40B041032744FDC167FD177B
:101A9000F98F0D67130707386387E7200D67130772
:101AA00007386369F7040567130757166381E7165C
:101AB000056713075716636FF7001307F022638A51
:101AC000E70C130760306381E71013076012638827
:101AD000E70865A6096713078736638BE7160D6766
:101AE000130707126387E71809671307A7146380B2
:101AF000E71461A615671307A738638EE7261567F5
:101B00001307A7386362F7021167130787386380EA
:101B1000E7201567130787126385E722116713070C
:101B20004712638CE71A91AE19671307C7386388A9
:101B3000E72A19671307C7386368F700196713079F
:101B400067106384E72615AE1D671307E7106382ED
:101B5000E72C1D671307E7386387E72E39AEB70711
:101B60000140D44FB7070140370700FC7D17758F40
:101B7000D8CFB7070140D843B70701406D9BD8C302
:101B8000B7070140D843B707014013674700D8C3E0
:101B9000EDA4B7070140D44FB7070140370700FC59
:101BA0007D17758FD8CFB7070140D44FB7070140D5
:101BB00037070004558FD8CFB7070140D843B70780
:101BC00001406D9BD8C355ACB7070140D44FB70750
:101BD0000140370700FC7D17758FD8CFB70701404C
:101BE000D44FB707014037070004558FD8CFB70748
:101BF0000140D843B70701406D9BD8C3B7070140E8
:101C0000D843B707014013674700D8C3BDA4B7073F
:101C10000140D843B70701405D9BD8C3B7070140D7
:101C2000D843B707014013678700D8C3B9A4B707E3
:101C30000140D843B70701401377F7FCD8C3B70773
:101C40000140D843B707014013670701D8C335A443
:101C5000B7070140D843B70701401377F7FCD8C353
:101C6000B7070140D843B707014013670703D8C33C
:101C700029A4B7070140D44FB70701403707FDFF3C
:101C80007D17758FD8CFB7070140D44F832744FD08
:101C9000A18313970701B70703007D8FB7070140A2
:101CA000558FD8CFD9AAB7070140D44FB707014005
:101CB0003707FDFF7D17758FD8CFB7070140D44F89
:101CC000832744FDA18313970701B70703007D8F86
:101CD000B7070140558FD8CF4DA2B7070140D44F69
:101CE000B70701403707F4FF7D17758FD8CFB707C7
:101CF0000140D44F832744FDA18313972701B707E1
:101D00000C007D8FB7070140558FD8CFBDA2B70714
:101D10000140D44FB70701403707F4FF7D17758F97
:101D2000D8CFB7070140D44F832744FDA183139731
:101D30002701B7070C007D8FB7070140558FD8CF1B
:101D40002DAAB7070140D44FB70701403707D0FF8E
:101D50007D17758FD8CFB7070140D44F832744FD37
:101D6000A18313974701B70730007D8FB707014064
:101D7000558FD8CF19A2B7070140D44FB7070140FC
:101D80003707D0FF7D17758FD8CFB7070140D44FE5
:101D9000832744FDA18313974701B70730007D8F48
:101DA000B7070140558FD8CFC9A8B7070140D44F16
:101DB000B7070140370740FF7D17758FD8CFB707AA
:101DC0000140D44F832744FDA18313976701B707D0
:101DD000C0007D8FB7070140558FD8CF79A8B707CE
:101DE0000140D44FB7070140370740FF7D17758F7B
:101DF000D8CFB7070140D44F832744FDA183139761
:101E00006701B707C0007D8FB7070140558FD8CF56
:101E1000ADA0B7070140D44FB7070140370700FD19
:101E20007D17758FD8CFB7070140D44F832744FD66
:101E3000A18313978701B70700037D8FB707014080
:101E4000558FD8CF1DA8B7070140D44FB707014021
:101E5000370700FD7D17758FD8CFB7070140D44FE6
:101E6000832744FDA18313978701B70700037D8F64
:101E7000B7070140558FD8CF01008327C4FD91E7F4
:101E800085451165EF40B00169A80327C4FD85476A
:101E90006318F700854537050200EF40B00451A0F4
:101EA0000327C4FD89476318F700854537050400FB
:101EB000EF405003BDA00327C4FD8D476318F70012
:101EC000854537050800EF40F001A1A80327C4FDB0
:101ED00091476318F700854537051000EF409000E3
:101EE00089A00327C4FD95476318F70085451305AE
:101EF0000004EF40207F35A00327C4FD99476318F5
:101F0000F700854513050008EF40C07D19A8032799
:101F1000C4FD9D476317F700854513050010EF408A
:101F2000607C232004FE232204FE232404FE2326B7
:101F300004FE832784FD2320F4FE231204FE2313D2
:101F400004FE231404FE231604FEB1472315F4FEF9
:101F5000E1670327C4FD0A0793874708BA979C43A4
:101F60003E87930704FEBE853A85EF50806BE1679C
:101F70000327C4FD0A0793874708BA979C43854502
:101F80003E85EF50500D0100B250225445618280D1
:101F9000411106C622C4000883A741880547638B08
:101FA000E7006388070C0947638DE7000D47638FDF
:101FB000E702E9A083A701881387170023A0E1881F
:101FC00075A883A701881387170023A0E18803A7BA
:101FD0000188A54763F1E70AB70700209387070444
:101FE0009C4B1167D8CB23A0018871A003A78188DF
:101FF00085476314F7081305F008EFE0EFFCAA87A4
:10200000ADC31945EFF04FE2AA873E8783A7018849
:102010001D8F9307600963F2E7061945EFF0AFF0F3
:1020200083A70188D3F717D05385F720EF10315AD3
:10203000E16703A607A283A647A2EF00B11EAA8705
:102040002E883E85C285EF105141AA87139707015C
:102050004183B70700202390E728094723A4E1889C
:1020600029A81945EFF04FDCAA873E8723A0E18815
:1020700029A0010021A0010011A001000100B2402F
:10208000224441018280411106C622C4000883A770
:1020900041880947637CF7000D47639AE7001945BB
:1020A000EFF06FE8054723A4E18811A001000100CB
:1020B000B240224441018280011106CE22CC0010A0
:1020C000232204FE83C7D188638A070E09A89307D9
:1020D00034FE0546BE85138501DDEF10B008930779
:1020E00034FEBE851D45EFF03F8AAA87EDF3034716
:1020F00034FEA9476314F70C99472322F4FE130713
:1021000044FE930784FE85463A86BE85138501DD2D
:10211000EF109035930784FE138737000D46E16773
:10212000938587A23A85EF203147AA879DEB03A7C5
:1021300041898947630DF706054723AAE18813857E
:1021400001DDEF10E07DAA872322F4FE930744FE11
:1021500081463E869385C1E6138501DDEF10D030C0
:10216000B9A0930784FE138737000D46E167938576
:10217000C7A23A85EF205142AA8795EB03A70189B0
:1021800089476306F702054723A8E188138501DD27
:10219000EF100079AA872322F4FE930744FE8146BC
:1021A0003E869385C1DE138501DDEF10F02B13858C
:1021B00001DDEF10E06605472386E1880100F2406B
:1021C000624405618280011106CE22CC0010AA87EC
:1021D000A307F4FEB707002093870704DC47130723
:1021E0000008D8CB8347F4FEBE850545EFE0FFF03D
:1021F000B707002093870704DC471307000898CB34
:102200000100F240624405618280011106CE22CCB9
:102210000010AA8736872317F4FEAE872316F4FE34
:10222000B2872315F4FEBA872314F4FE83C7018115
:10223000C207C1830357E4FEB337F70093F7F70FE4
:102240003E8713069008E167938587B13A85EF10C2
:10225000C03883C71181C207C1830357C4FEB33797
:10226000F70093F7F70F3E871306A008E167938501
:1022700087B13A85EF10603683C70181C207C183F9
:102280000357A4FEB337F70093F7F70F3E87130603
:10229000B008E167938587B13A85EF10003483C7B2
:1022A0001181C207C183035784FEB337F70093F748
:1022B000F70F3E871306C008E167938587B13A851B
:1022C000EF10A03183A7C180BDE31305A002E53D57
:1022D0008357E4FE93874703C207C183BE85054544
:1022E000EFE05FE88357A4FE93874703C207C183EB
:1022F000BE850545EFE01FE71305B002E9358357BA
:10230000C4FE93878702C207C183BE850545EFE0FF
:102310007FE5835784FE93878702C207C183BE850A
:102320000545EFE03FE41305C002713D81A203A71C
:10233000C18085476314F7061305A00269358357EA
:10234000E4FE93875703C207C183BE850545EFE0CE
:102350007FE18357A4FE93875703C207C183BE85DD
:102360000545EFE03FE01305B002B13D8357C4FEE1
:1023700093878702C207C183BE850545EFE09FDED4
:10238000835784FE93878702C207C183BE850545B4
:10239000EFE05FDD1305C0023D35C9A803A7C1808A
:1023A00089476314F7061305A002313D8357E4FE05
:1023B00093878702C207C183BE850545EFE09FDA98
:1023C0008357A4FE93878702C207C183BE85054554
:1023D000EFE05FD91305B002FD338357C4FE938746
:1023E0005703C207C183BE850545EFE0BFD78357BA
:1023F00084FE93875703C207C183BE850545EFE07E
:102400007FD61305C002C13395A01305A002653B1A
:102410008357E4FE93878702C207C183BE850545C3
:10242000EFE05FD48357A4FE93878702C207C1837E
:10243000BE850545EFE01FD31305B002693383570E
:10244000C4FE93874703C207C183BE850545EFE0FD
:102450007FD1835784FE93874703C207C183BE851C
:102460000545EFE03FD01305C002B13B0100F2404B
:10247000624405618280797106D622D400189307E0
:10248000C4FD3E85EF10E01B8547231EF4FC83C787
:102490000181C207C183231FF4FC83C71181C207D6
:1024A000C1832310F4FE83A7C1890547638AE7002F
:1024B00099EF99472301F4FEA147A301F4FE09A86F
:1024C000A1472301F4FEC147A301F4FE11A00100BE
:1024D000B73700009387C7892324F4FEB72700008D
:1024E0009387C74F2326F4FE9307C4FD3E85EF1064
:1024F000E01A0100B250225445618280011106CEDB
:1025000022CC001083C701813E8783C71181B307A6
:10251000F7022326F4FEB707002093870704DC4761
:102520004147D8CB83C70181C207C183FD171397E9
:102530000701418383C71181C207C183FD17C20709
:10254000C183BE863A8681450145C13121A883D722
:102550008189BE850545EFE0FFC08327C4FEFD17D6
:102560002326F4FE8327C4FEFDF3B70700209387DC
:102570000704DC47414798CB0100F2406244056103
:102580008280011122CE00102326A4FE0327C4FE60
:1025900023A6E18083A7C18005476376F7000D4736
:1025A0006363F70209A8130770F82388E180415795
:1025B000A388E18009A841572388E180130770F8B8
:1025C000A388E1800100010072440561828001114D
:1025D00022CE0010AA872E872317F4FEBA8723166F
:1025E000F4FE0357E4FE2395E1800357C4FE239CC9
:1025F000E1880100724405618280797106D622D497
:102600000018AA87AE863287231FF4FCB687231EE4
:10261000F4FCBA87A30DF4FC83C70181C207C18310
:102620000357E4FDB337F70093F7F70F3E87130620
:10263000D019E167938587B13A85EF00107A83C797
:102640001181C207C1830357C4FDB337F70093F765
:10265000F70F3E871306E019E167938587B13A8546
:10266000EF00B077A30704FE230704FEB70700209E
:1026700093870704DC474147D8CB83A7C189054727
:10268000638AE70C639F071EA30704FE75A88347B0
:10269000F4FE1397070141838357E4FDBA9713951E
:1026A000070141818347F4FE139707014183835754
:1026B000E4FDBA971397070141838357C4FDA1072F
:1026C00093960701C1828357C4FD3A86BE85EFF019
:1026D000DFB38307B4FD138707FE8346F4FE61660C
:1026E000BA878607BA97860713074669BA97B697D7
:1026F00083C70700A306F4FE230704FE25A883472B
:10270000D4FE858B81CB83D7A180BE850545EFE0C4
:102710007FA539A083D78189BE850545EFE09FA4B9
:102720008347D4FE8583A306F4FE8347E4FE850732
:102730002307F4FE0347E4FE9D47E3F2E7FC8347EB
:10274000F4FE8507A307F4FE0347F4FE9547E3F084
:10275000E7F40DAAA30704FE39AA8347F4FE1397F2
:10276000070141838357E4FDBA971395070141811F
:102770008347F4FE1397070141838357E4FDBA971B
:102780001397070141838357C4FDBD079396070143
:10279000C1828357C4FD3A86BE85EFF01FA7830729
:1027A000B4FD938607FE8347F4FE61679206130724
:1027B000470A3697BA9783C707002306F4FE8307B4
:1027C000B4FD938607FE8347F4FEA1076167920676
:1027D0001307470A3697BA9783C70700A305F4FE85
:1027E000230704FE25A88347C4FE858B81CB83D7AE
:1027F000A180BE850545EFE0FF9639A083D781898A
:10280000BE850545EFE01F968347C4FE85832306FA
:10281000F4FE8347E4FE85072307F4FE0347E4FE46
:102820009D47E3F2E7FC230704FE25A88347B4FE97
:10283000858B81CB83D7A180BE850545EFE09F9234
:1028400039A083D78189BE850545EFE0BF918347D5
:10285000B4FE8583A305F4FE8347E4FE85072307C2
:10286000F4FE0347E4FE9D47E3F2E7FC8347F4FEF2
:102870008507A307F4FE0347F4FE9D47E3FFE7EC5B
:1028800011A00100B707002093870704DC474147E8
:1028900098CB0100B250225445618280797106D6EE
:1028A00022D40018AA872E87232CC4FC231FF4FCF3
:1028B000BA87231EF4FC83C70181C207C183035773
:1028C000E4FDB337F70093F7F70F3E871306101FA9
:1028D000E167938587B13A85EF00305083C7118156
:1028E000C207C1830357C4FDB337F70093F7F70F4F
:1028F0003E871306201FE167938587B13A85EF0075
:10290000D04D231704FE69A083A7C18905476380C2
:10291000E704ADEB0357E4FEBA878607BA9786074C
:102920001397070141838357E4FDBA9793960701F4
:10293000C1828357E4FE032784FDBA97038707000B
:102940008357C4FD3A86BE85368545392DA8835701
:10295000E4FE8E071397070141838357E4FDBA977E
:1029600093960701C1828357E4FE032784FDBA973B
:10297000038707008357C4FD3A86BE853685EFF08E
:10298000DFC711A001008357E4FE85072317F4FE7B
:102990008357E4FE032784FDBA9783870700ADF7CA
:1029A0000100B250225445618280411106C622C402
:1029B00000081308F00FC167F91705671307F7023E
:1029C00085669386D60237A64A04130606208145FB
:1029D0000545EFE09F83C146014685451305700616
:1029E000EFD0BFE2C1460146854513057002EFD026
:1029F000DFE1C1460546854513054006EFD0FFE0FF
:102A0000C1460546854513050006EFD01FE083A7A4
:102A1000C1803E85EFF0FFB603D7A18083D78189BF
:102A2000BE853A85EFF0BFBAB70700209387070449
:102A3000DC4313070008D8CB1305800CEFD0DF86EA
:102A4000B707002093870704DC431307000898CBDF
:102A500013054006EFD05F85B70700209387070472
:102A6000DC474147D8CB13056003EFF0CFF51305E2
:102A70004006EFD07F8383A7C1800547638FE700BF
:102A800081CB09476381E7020D476384E70205A80C
:102A900081450545EFE06FE61DA09305000C054557
:102AA000EFE0AFE529A8930500070545EFE0EFE467
:102AB00039A09305000A0545EFE02FE40100130556
:102AC000A003EFF04FF095450545EFE00FE3130548
:102AD000200BEFF04FEFB1450545EFE00FE2B145B8
:102AE0000545EFE08FE181450545EFE00FE19305F6
:102AF00030030545EFE06FE0930530030545EFE057
:102B0000CFDF1305700BEFF00FEC93055003054575
:102B1000EFE0AFDE1305B00BEFF0EFEA93057003C3
:102B20000545EFE08FDD1305000CEFF0CFE99305CD
:102B3000C0020545EFE06FDC1305200CEFF0AFE8B5
:102B400085450545EFE06FDB1305300CEFF0AFE78F
:102B5000C9450545EFE06FDA1305400CEFF0AFE62D
:102B6000930500020545EFE04FD91305600CEFF027
:102B70008FE5BD450545EFE04FD81305000DEFF09B
:102B80008FE49305400A0545EFE02FD79305100A1F
:102B90000545EFE08FD61305000EEFF0CFE2930569
:102BA000000D0545EFE06FD591450545EFE0EFD409
:102BB000B5450545EFE06FD4C5450545EFE0EFD3DA
:102BC000CD450545EFE06FD39305B0020545EFE035
:102BD000CFD29305F0030545EFE02FD293054005D2
:102BE0000545EFE08FD19305C0040545EFE0EFD038
:102BF000E1450545EFE06FD0B5450545EFE0EFCF86
:102C0000AD450545EFE06FCFFD450545EFE0EFCE63
:102C1000930530020545EFE04FCE1305100EEFF09F
:102C20008FDA9305000D0545EFE02FCD9145054561
:102C3000EFE0AFCCB1450545EFE02FCCC5450545EC
:102C4000EFE0AFCBCD450545EFE02FCB9305C002BC
:102C50000545EFE08FCA9305F0030545EFE0EFC9A6
:102C6000930540040545EFE04FC993051005054560
:102C7000EFE0AFC89305F0020545EFE00FC8FD4552
:102C80000545EFE08FC7FD450545EFE00FC793050C
:102C900000020545EFE06FC6930530020545EFE001
:102CA000CFC513051002EFF00FD24545EFF0AFD1BD
:102CB00013058007EFD04FDF13059002EFF0AFD080
:102CC000B707002093870704DC47414798CBEFF014
:102CD000FF82EFF04FFA0100B240224441018280AE
:102CE000411122C600080100324441018280411195
:102CF00022C60008B71702409843B717024013676F
:102D0000170098C3B7170240D443B71702403707DC
:102D1000FFF8758FD8C3B71702409443B717024026
:102D20003707F7FE7D17758F98C3B7170240944396
:102D3000B71702403707FCFF7D17758F98C3B71789
:102D40000240D443B7170240370781FF7D17758FC4
:102D5000D8C3B717024037079F0098C70100324415
:102D600041018280797106D622D40018232EA4FC5A
:102D7000BD3F232604FE232404FEB71702409443DC
:102D8000B71702404167558F98C3B7170240984361
:102D9000B7070200F98F2324F4FE8327C4FE8507BA
:102DA0002326F4FE832784FE91E70327C4FE85676C
:102DB000E31DF7FCB71702409843B7070200F98FED
:102DC00089C785472324F4FE19A0232404FE032782
:102DD00084FE85476312F71637170240B717024083
:102DE0005843D8C337170240B71702405843D8C3D7
:102DF00037170240B71702405843D8C3B7170240ED
:102E0000D443B71702403707C1FF7D17758FD8C36A
:102E10000327C4FDB747950893870740631BF70056
:102E2000B7170240D443B71702404167558FD8C344
:102E300055A80327C4FDB7172707938707E0631C2E
:102E4000F700B7170240D443B717024037073900DD
:102E5000558FD8C341A80327C4FDB7E7B8059387AA
:102E60000780631CF700B7170240D443B71702402E
:102E700037072900558FD8C3B5A00327C4FDB7A7CE
:102E80004A0493870720631CF700B7170240D44316
:102E9000B717024037071D00558FD8C3A1A00327DD
:102EA000C4FDB777DC02938707C0631CF700B71730
:102EB0000240D443B717024037071100558FD8C3DB
:102EC00015A00327C4FDB7376E0193870760631B06
:102ED000F700B7170240D443B71702403707050081
:102EE000558FD8C3B71702409443B717024037072E
:102EF0000001558F98C30100B71702409843B707E8
:102F00000002F98FF5DBB7170240D843B71702402C
:102F1000719BD8C3B7170240D843B7170240136755
:102F20002700D8C30100B7170240DC4313F7C700DE
:102F3000A147E31AF7FE11A001A0B2502254456147
:102F40008280011106CE22CC00102326A4FE032786
:102F5000C4FE23AEE180EFF09FD90325C4FEEFF05D
:102F60007FE0EF10A0450100F240624405618280DD
:102F7000411122C600080100010032444101828053
:102F8000011106CE22CC0010232604FE232404FEC9
:102F9000232604FE25A0232404FE39A0D13F832745
:102FA00084FE85072324F4FE032784FEC167E367BC
:102FB000F7FE8327C4FE85072326F4FE0327C4FEFD
:102FC0009307F00FE3F9E7FC0100F240624405616A
:102FD0008280411122C600080100324441018280F2
:102FE000011106CE22CC00102326A4FE8325C4FEA8
:102FF0000945EFE03F8B0100F240624405618280A9
:10300000130101D923261126232481262322912668
:10301000801C232EA4D8232CB4D8232AC4D8232838
:10302000D4D8231504FE231404FE231304FE231214
:1030300004FE231104FE032584D9EF10D154AA877E
:10304000C207C1872313F4FE83D781F489C793870E
:1030500081F49C4B829783C7118A93F7F70F638D96
:10306000074A83D781F463870744938781F4D44761
:10307000835724FE13970701418793170701C183E4
:103080008507C207C183C207C1872311F4FE9317C6
:103090000701C1830326C4D9BE85014582968327D3
:1030A00084D92326F4FE032584D9EF10D14DAA87B5
:1030B000C207C1872313F4FE938781F483D72700C7
:1030C0003E87938781F483C76700B347F702C2073F
:1030D000C1872312F4FE01008327C4FE1387170063
:1030E0002326E4FE83870700E5FB231404FEA1A842
:1030F0008327C4FEFD172326F4FE8327C4FE03871F
:1031000007009307F002630AF7008327C4FE0387D2
:1031100007009307C005631BF700835784FEC207AF
:10312000C1838507C207C1832314F4FE835764FE5D
:10313000C207C187C207C183FD17C207C183C20787
:10314000C1872313F4FE835784FE1397070141833D
:10315000854763E8E700835764FEC207C187E3D968
:1031600007F8835764FEC207C18763C2070283273B
:10317000C4FE85072326F4FE130704EE0326C4FECF
:10318000E167938507B83A85EF10913B1DA88357F7
:1031900084FEC207C18381EF130704EE0326C4FE39
:1031A000E1679385C7B83A85EF10913919A81307DD
:1031B00004EE0326C4FEE167938507B83A85EF1055
:1031C0003138231504FE21AA231404FE59A09307C5
:1031D00004EE3E85EF10313B2A87835784FEC207F9
:1031E000C183BE868357A4FEC207C1833E86835730
:1031F00044FEC207C187B307F602B6976367F706B6
:10320000835784FEC207C1833E878357A4FEC2074B
:10321000C183BE86835744FEC207C187B387F602C7
:10322000BA97035784FE42074183BA86130704FF07
:10323000BA97038707EF930704FFB6972388E7EA57
:10324000835784FEC207C1838507C207C183231445
:10325000F4FE835784FEC207C1833E87835744FE32
:10326000C207C187E345F7F611A00100835784FE2A
:10327000C207C183130704FFBA97238807EA93871D
:1032800081F403A8C700938781F483C7770013975D
:1032900007014183835724FE93960701C1869397C4
:1032A0000601C1838507C207C183C207C1872311F5
:1032B000F4FE93970601C183B307F702C207C183E7
:1032C000130704EA3A86BE85014502988357A4FE97
:1032D000C207C1838507C207C1832315F4FE835744
:1032E000A4FEC207C183BE84930704EE3E85EF109F
:1032F00091292A87835744FEC207C187B357F70233
:103300008507E3E3F4EC130704EE032644D9E167F1
:103310009385C7B93A85EF10B122938781F403A84A
:10332000C700938781F483C7770013970701418310
:10333000835724FE93960701C18693970601C183A4
:103340008507C207C183C207C1872311F4FE939783
:103350000601C183B307F702C207C183130704EE56
:103360003A86BE8501450298832704D96386071AE9
:10337000231504FE21AA231404FE59A0032504D911
:10338000EF1071202A87835784FEC207C183BE864F
:103390008357A4FEC207C1833E86835744FEC207FB
:1033A000C187B307F602B6976368F706835784FEB2
:1033B000C207C1833E878357A4FEC207C183BE866E
:1033C000835744FEC207C187B387F602BA973E8788
:1033D000832704D9BA97035784FE42074183BA86EC
:1033E00003870700930704FFB6972388E7EA83570C
:1033F00084FEC207C1838507C207C1832314F4FE7C
:10340000835784FEC207C1833E87835744FEC207A9
:10341000C187E345F7F611A00100835784FEC20778
:10342000C183130704FFBA97238807EA938781F4BF
:1034300003A8C700938781F483C777001397070118
:103440004183835724FE93960701C1869397060113
:10345000C1838507C207C183C207C1872311F4FE58
:1034600093970601C183B307F702C207C18313070D
:1034700004EA3A86BE85014502988357A4FEC20736
:10348000C1838507C207C1832315F4FE8357A4FEB9
:10349000C207C183BE84032504D9EF10D10E2A8749
:1034A000835744FEC207C187B357F7028507E3E499
:1034B000F4EC9DA0930704DA1306001081453E85C5
:1034C000EFC01FD4938781F49C470325C4D982970A
:1034D000832704D999CF130504DA032704D9832657
:1034E00044D9032684D9E167938587BAEF10510543
:1034F00029A8130704DA832644D9032684D9E1676F
:10350000938547BC3A85EF10B103938781F49847C0
:10351000930704DA3E85029701008320C126032425
:10352000812683244126130101278280411106C68A
:1035300022C4000883C7118A93F7F70F81CF9385C0
:10354000018A0945EFE04FC405469385018A13853A
:10355000C1F209290100B2402244410182807971FF
:1035600006D622D40018232EA4FC232CB4FC232A34
:10357000C4FC232604FEA9A00100E1679387470845
:103580009C47930500043E85EF400042AA87F5D78B
:10359000E167938747089C47BE86832784FD13878E
:1035A0001700232CE4FC83870700C207C183BE8574
:1035B0003685EF40803C8327C4FE85072326F4FE32
:1035C0000327C4FE832744FDE348F7FA832744FD1D
:1035D0003E85B250225445618280011106CE22CC34
:1035E0000010AA872324B4FE2322C4FEA307F4FEFE
:1035F0008347F4FEB1E383C7018293F7F70F8DCFC2
:1036000083C7218A91C301A083C7218A850713F745
:10361000F70F2381E18AEF00B057EFF09F9B8146BF
:10362000032644FE832584FEE1671385C7BDEFF0C2
:103630003F9DEFF0FF94E5B70100F2406244056161
:103640008280011122CE00102326A4FE8327C4FE0F
:10365000239007008327C4FE7D572391E70083272B
:10366000C4FE7D572392E7008327C4FE7D57238342
:10367000E7008327C4FE7D57A383E7008327C4FEAA
:1036800023A407008327C4FE23A607008327C4FEC4
:1036900023A807000100724405618280011122CE37
:1036A00000102326A4FE8327C4FE03D7070023941B
:1036B000E1F48327C4FE03D72700938781F4239185
:1036C000E7008327C4FE03D74700938781F4239242
:1036D000E7008327C4FE03C76700938781F4238331
:1036E000E7008327C4FE03C77700938781F4A38391
:1036F000E7008327C4FE9847938781F498C7832700
:10370000C4FED847938781F4D8C78327C4FE984B5B
:10371000938781F498CB0547A380E18A0100724426
:1037200005618280797106D622D400189307C4FD02
:103730003E85013FB7370000938707FE2322F4FE42
:103740009307C4FD3E85993F89679386B7028967D1
:103750001386A702F167938507200945EFE0AFA81C
:10376000930600041386C1EE81451385C1F2EF0074
:10377000A07D85450945EFE0EF980100B250225445
:1037800045618280011122CE00102326A4FE23244D
:10379000B4FE8327C4FED847832784FE3E97832741
:1037A000C4FED8C719A88327C4FED8478327C4FE00
:1037B0009C4F1D8F8327C4FED8C78327C4FE984F14
:1037C0008327C4FEDC47E3F0E7FE01007244056195
:1037D0008280011122CE00102326A4FE2324B4FEF1
:1037E0008327C4FE984B832784FE3E978327C4FE1D
:1037F00098CB19A88327C4FE984B8327C4FE9C4FFF
:103800001D8F8327C4FE98CB8327C4FE984F832740
:10381000C4FE9C4BE3F0E7FE010072440561828028
:10382000797106D622D40018232EA4FC8327C4FD68
:10383000B337F00093F7F70F3E8713064005E167B3
:10384000938587BF3A85EFF05FD9232604FE83274F
:10385000C4FD83C70700858B93F7F70F89C7894796
:103860002326F4FE7DA08327C4FD83C7070093E7CA
:10387000170013F7F70F8327C4FD2380E700832782
:10388000C4FD23A607008327C4FD23A807008327C0
:10389000C4FD984F8327C4FDD8CB8327C4FDDC43E8
:1038A00005476383E70289C70947638CE702B9A02C
:1038B0008327C4FD98478327C4FD9C4F3E868145DE
:1038C0003A85EFC0FF931DA88327C4FD984783273F
:1038D000C4FD9C4F86073E8681453A85EFC05F92C6
:1038E00031A88327C4FD98478327C4FD9C4F8A07CE
:1038F0003E8681453A85EFC0BF9001008327C4FD15
:1039000083C70700F99B13F7F70F8327C4FD2380B4
:10391000E7008327C4FE3E85B25022544561828071
:10392000011106CE22CC00102326A4FE8327C4FE5C
:10393000B337F00093F7F70F3E871306C007E16730
:10394000938587BF3A85EFF05FC98327C4FE984F00
:103950008327C4FEDC4BB307F7403E85F240624448
:1039600005618280797106D622D40018232EA4FC2A
:10397000232CB4FC232AC4FC8327C4FDB337F000F6
:1039800093F7F70F3E871306C00BE167938587BF58
:103990003A85EFF09FC4232604FE232404FE8327E8
:1039A00084FD89E78D472326F4FE45AC8327C4FDBB
:1039B00083C70700898B93F7F70F89C785472326AD
:1039C000F4FE61AC8327C4FD83C7070093E727009B
:1039D00013F7F70F8327C4FD2380E7008327C4FD77
:1039E000DC4B032744FD63ECE7248327C4FD984F99
:1039F0008327C4FDDC47B307F7402324F4FE0327E5
:103A000044FD832784FE63F2E7188327C4FDDC436B
:103A10000547638FE70689C709476389E70E31A425
:103A20008327C4FD98478327C4FDDC47BA97032644
:103A300084FE832584FD3E85EF00B101832584FE4D
:103A40000325C4FDEFF01FD48327C4FD98478327C7
:103A5000C4FDDC47B306F700032784FD832784FEFB
:103A6000B305F700032744FD832784FEB307F7401F
:103A70003E863685EF00E17D032744FD832784FEE3
:103A8000B307F740BE850325C4FDEFF0BFCF71AA91
:103A90008327C4FD98478327C4FDDC4786073E97EC
:103AA000832784FE86073E86832584FD3A85EF00C2
:103AB000417A832584FE0325C4FDEFF0BFCC832724
:103AC000C4FD98478327C4FDDC478607B306F7008B
:103AD000832784FE8607032784FDB305F7000327A9
:103AE00044FD832784FEB307F74086073E8636856C
:103AF000EF002176032744FD832784FEB307F740B8
:103B0000BE850325C4FDEFF0FFC705A28327C4FDD2
:103B100098478327C4FDDC478A073E97832784FEA6
:103B20008A073E86832584FD3A85EF0081728325CE
:103B300084FE0325C4FDEFF0FFC48327C4FD98472E
:103B40008327C4FDDC478A07B306F700832784FE7A
:103B50008A07032784FDB305F700032744FD832765
:103B600084FEB307F7408A073E863685EF00616E14
:103B7000032744FD832784FEB307F740BE85032552
:103B8000C4FDEFF03FC001004DA08327C4FDDC431E
:103B90000547638CE70289C709476380E70671A080
:103BA0008327C4FD98478327C4FDDC47BA970326C3
:103BB00044FD832584FD3E85EF00A169832544FDF6
:103BC0000325C4FDEFF01FBC8DA08327C4FD9847DB
:103BD0008327C4FDDC4786073E97832744FD86077D
:103BE0003E86832584FD3A85EF00A166832544FD4A
:103BF0000325C4FDEFF01FB90DA88327C4FD984726
:103C00008327C4FDDC478A073E97832744FD8A0744
:103C10003E86832584FD3A85EF00A163832544FD1C
:103C20000325C4FDEFF01FB601008327C4FDD84B68
:103C3000832744FD1D8F8327C4FDD8CB21A0914746
:103C40002326F4FE8327C4FD83C70700F59B13F7E3
:103C5000F70F8327C4FD2380E7008327C4FE3E853A
:103C6000B250225445618280797106D622D4001860
:103C7000232EA4FC232CB4FC232AC4FC2328D4FC2C
:103C80008327C4FDB337F00093F7F70F3E87130681
:103C90007016E167938587BF3A85EFF01F948327FD
:103CA00044FDB337F00093F7F70F3E8713068016F5
:103CB000E167938587BF3A85EFF03F92232604FEA4
:103CC000832784FD89E78D472326F4FEA1AC832753
:103CD000C4FD83C7070093E7470013F7F70F832757
:103CE000C4FD2380E7000325C4FDEFF07FC3232438
:103CF000A4FE832744FD9C43032784FE637AF700D8
:103D0000832744FD032784FE98C395472326F4FEAA
:103D10008327C4FD984F8327C4FD9C4BB307F7400E
:103D20002322F4FE832744FD9C43032744FE63655E
:103D3000F7088327C4FDDC4305476388E70289C78A
:103D400009476387E704BDA28327C4FD98478327FB
:103D5000C4FD9C4B3E97832744FD9C433E86BA8519
:103D6000032584FDEF00E14EB1A28327C4FD9847EF
:103D70008327C4FD9C4B86073E97832744FD9C43C5
:103D800086073E86BA85032584FDEF00814C1DA27F
:103D90008327C4FD98478327C4FD9C4B8A073E9721
:103DA000832744FD9C438A073E86BA85032584FD0C
:103DB000EF00214A0100FDA88327C4FDDC4305472D
:103DC000638AE70489C70947638EE708E5A083276C
:103DD000C4FD98478327C4FD9C4BBA97032644FE35
:103DE000BE85032584FDEF00C146032784FD83279C
:103DF00044FEB306F7008327C4FD8C47832744FDA8
:103E00009843832744FEB307F7403E863685EF008C
:103E100041444DA08327C4FD98478327C4FD9C4B94
:103E200086073E97832744FE86073E86BA8503258C
:103E300084FDEF000142832744FE8607032784FDAB
:103E4000B306F7008327C4FD8C47832744FD9843BE
:103E5000832744FEB307F74086073E863685EF008A
:103E6000413F89A88327C4FD98478327C4FD9C4B05
:103E70008A073E97832744FE8A073E86BA85032534
:103E800084FDEF00013D832744FE8A07032784FD5C
:103E9000B306F7008327C4FD8C47832744FD98436E
:103EA000832744FEB307F7408A073E863685EF0036
:103EB000413A0100832704FDB5E78327C4FD83C78A
:103EC0000700858B93F7F70F89C789472326F4FEF0
:103ED00091A88327C4FD83C7070093E7170013F752
:103EE000F70F8327C4FD2380E700832744FD9C430D
:103EF000BE850325C4FDEFF0DF8D8327C4FDD84BBD
:103F0000832744FD9C433E978327C4FDD8CB83275A
:103F1000C4FD83C70700F99B13F7F70F8327C4FD80
:103F20002380E7008327C4FD83C70700918B13F725
:103F3000F70F8327C4FD2380E7008327C4FE3E8557
:103F4000B250225445618280797106D622D400187D
:103F5000232EA4FC232CB4FC232AC4FC2328D4FC49
:103F60008327C4FDB337F00093F7F70F3E8713069E
:103F70008021E167938587BF3A85EFF00FE623261E
:103F800004FE832744FD89E78D472326F4FE89A09C
:103F90008327C4FD032744FD98C78327C4FD2380DE
:103FA00007008327C4FD032784FDD8C38327C4FDEE
:103FB00023A607008327C4FD23A807008327C4FD89
:103FC000032704FDD8CB8327C4FD032704FD98CF26
:103FD0008327C4FE3E85B2502254456182805971C8
:103FE00086D6A2D48018232EA4F8272CA4F8AE8756
:103FF000A30BF4F88327C4F9B337F00093F7F70F56
:104000003E8713060013E167938507C53A85EFF0F5
:10401000CFDC232604FE232404FE834774F9A30384
:10402000F4FE8327C4F963860720872784F9D39792
:1040300007C02326F4FE872784F9530700F0D3979F
:10404000E7A081CF8327C4F913871700232EE4F854
:104050001307D0022380E70099A0872784F953072C
:1040600000F0D3A7E7A085CF8327C4F913871700F3
:10407000232EE4F8130700032380E7008327C4F905
:1040800013871700232EE4F81307E0022380E700CC
:104090008327C4F9130700032380E70061AA83275D
:1040A000C4FED3F707D0072784F9D377F708272C66
:1040B000F4F811A8072784F9E16787A7C7CBD3775E
:1040C000F710272CF4F8834774FE1387F7FFA30338
:1040D000E4FEEDF3872784F9D39707C02324F4FE89
:1040E000A30304FE834774FE13871700A303E4FEB3
:1040F000BE860327C4FEA9473367F70293972600BD
:10410000930604FFB69723AAE7FC0327C4FEA9473A
:10411000B347F7022326F4FE8327C4FEE1F7A1A0EC
:10412000834774FEFD178A07130704FFBA9783A716
:1041300047FD13D7F741B98F998F93F7F70F9387FF
:10414000070393F6F70F8327C4F913871700232E6D
:10415000E4F81397860161872380E700834774FEA4
:10416000FD17A303F4FE834774FEDDFB834774F958
:10417000F1C3A30304FE8327C4F913871700232E7A
:10418000E4F81307E0022380E700832784FEB9E701
:104190008327C4F9130700032380E70061A883473E
:1041A00074FE13871700A303E4FEBE86032784FE74
:1041B000A9473367F70293972600930604FFB69743
:1041C00023AEE7FA032784FEA947B347F702232467
:1041D000F4FE834774F9FD17A30BF4F8834774F9D1
:1041E000DDFFA1A0834774FEFD178A07130704FFB4
:1041F000BA9783A7C7FB13D7F741B98F998F93F766
:10420000F70F9387070393F6F70F8327C4F91387F4
:104210001700232EE4F81397860161872380E700B7
:10422000834774FEFD17A303F4FE834774FEDDFB92
:1042300011A001000100B650265465618280411131
:1042400022C600089967938787087390078001004A
:10425000324441018280411122C60008996773905F
:1042600007800100324441018280011122CE0010FA
:104270002326A4FE8327C4FEFD8B0547B316F70053
:1042800037E700E08327C4FE9583938707048A07F6
:10429000BA9794C30100724405618280011122CE55
:1042A00000102326A4FE8327C4FEFD8B0547B3160A
:1042B000F70037E700E08327C4FE9583938707065E
:1042C0008A07BA9794C30100724405618280011184
:1042D00022CE00102326A4FEAE87A305F4FE37E706
:1042E00000E08327C4FEBA970347B4FE2380E7406B
:1042F0000100724405618280011106CE22CC0010BB
:104300002326A4FE0325C4FEEFF03FF60100F24091
:10431000624405618280011106CE22CC0010232662
:10432000A4FE0325C4FEEFF07FF70100F2406244D3
:1043300005618280011106CE22CC00102326A4FE46
:10434000AE87A305F4FE8347B4FEBE850325C4FEF5
:10435000EFF0FFF70100F240624405618280011135
:1043600006CE22CC00102326A4FE8327C4FE99C7C4
:1043700083A7418A1387F7FF23A2E18A83A7418A93
:1043800099E3EFF0DFEB0100F240624405618280C7
:10439000411106C622C4000883A7418A99E3EFF0C1
:1043A0009FEB83A7418A1387170023A2E18A83A783
:1043B000418A3E85B240224441018280411106C6B5
:1043C00022C400080145EFF09FF90100B2402244E9
:1043D00041018280357106CF16CD1ACB1EC922C786
:1043E0002AC52EC332C1B6DEBADCBEDAC2D8C6D602
:1043F000F2D4F6D2FAD0FECE82E686E48AE28EE0ED
:1044000012FE16FC1AFA1EF82AF62EF432F236F0D4
:104410003AEE3EEC42EA46E872E676E47AE27EE084
:10442000001193055052B747014013850780EF30C4
:10443000005CAA8789CB93055052B747014013858A
:104440000780EF30E06A0100FA40EA425A43CA436B
:104450003A442A459A450A46F6566657D65746586C
:10446000B658265E965E065FF64F3660A660166109
:1044700086617272E2725273C2733275A2751276DD
:1044800082767267E2675268C268326EA26E126FFD
:10449000826F0D6173002030357106CF16CD1ACBB7
:1044A0001EC922C72AC52EC332C1B6DEBADCBEDAA7
:1044B000C2D8C6D6F2D4F6D2FAD0FECE82E686E4D0
:1044C0008AE28EE012FE16FC1AFA1EF82AF62EF484
:1044D00032F236F03AEE3EEC42EA46E872E676E434
:1044E0007AE27EE0001193055052B74700401385F1
:1044F0000740EF30C04FAA8789CB93055052B7478A
:10450000004013850740EF30A05E0100FA40EA4208
:104510005A43CA433A442A459A450A46F6566657CC
:10452000D6574658B658265E965E065FF64F3660FA
:10453000A660166186617272E2725273C27332753E
:10454000A275127682767267E2675268C268326E2E
:10455000A26E126F826F0D6173002030357106CF2D
:1045600016CD1ACB1EC922C72AC52EC332C1B6DE4C
:10457000BADCBEDAC2D8C6D6F2D4F6D2FAD0FECEB3
:1045800082E686E48AE28EE012FE16FC1AFA1EF833
:104590002AF62EF432F236F03AEE3EEC42EA46E8E3
:1045A00072E676E47AE27EE0001193055052B75746
:1045B000004013850780EF308043AA8799CBEFE056
:1045C000FFF693055052B757004013850780EF3030
:1045D00020520100FA40EA425A43CA433A442A456B
:1045E0009A450A46F6566657D6574658B658265E36
:1045F000965E065FF64F3660A6601661866172723F
:10460000E2725273C2733275A27512768276726745
:10461000E2675268C268326EA26E126F826F0D61DD
:1046200073002030357106CF16CD1ACB1EC922C7B4
:104630002AC52EC332C1B6DEBADCBEDAC2D8C6D6AF
:10464000F2D4F6D2FAD0FECE82E686E48AE28EE09A
:1046500012FE16FC1AFA1EF82AF62EF432F236F082
:104660003AEE3EEC42EA46E872E676E47AE27EE032
:10467000001193055052B7570040138507C0EF3023
:104680000037AA8789CB93055052B757004013854E
:1046900007C0EF30E0450100FA40EA425A43CA43FE
:1046A0003A442A459A450A46F6566657D65746581A
:1046B000B658265E965E065FF64F3660A6601661B7
:1046C00086617272E2725273C2733275A27512768B
:1046D00082767267E2675268C268326EA26E126FAB
:1046E000826F0D6173002030357106CF16CD1ACB65
:1046F0001EC922C72AC52EC332C1B6DEBADCBEDA55
:10470000C2D8C6D6F2D4F6D2FAD0FECE82E686E47D
:104710008AE28EE012FE16FC1AFA1EF82AF62EF431
:1047200032F236F03AEE3EEC42EA46E872E676E4E1
:104730007AE27EE000119305505237550040EF3089
:10474000002BAA8799C79305505237550040EF3088
:10475000203A0100FA40EA425A43CA433A442A4501
:104760009A450A46F6566657D6574658B658265EB4
:10477000965E065FF64F3660A660166186617272BD
:10478000E2725273C2733275A275127682767267C4
:10479000E2675268C268326EA26E126F826F0D615C
:1047A00073002030357106CF16CD1ACB1EC922C733
:1047B0002AC52EC332C1B6DEBADCBEDAC2D8C6D62E
:1047C000F2D4F6D2FAD0FECE82E686E48AE28EE019
:1047D00012FE16FC1AFA1EF82AF62EF432F236F001
:1047E0003AEE3EEC42EA46E872E676E47AE27EE0B1
:1047F000001193055052B727004013850780EF3012
:10480000001FAA8789CB93055052B7270040138514
:104810000780EF30E02D0100FA40EA425A43CA43D4
:104820003A442A459A450A46F6566657D657465898
:10483000B658265E965E065FF64F3660A660166135
:1048400086617272E2725273C2733275A275127609
:1048500082767267E2675268C268326EA26E126F29
:10486000826F0D6173002030717106D716D51AD38F
:104870001ED122CF2ACD2ECB32C936C73AC53EC370
:1048800042C1C6DEF2DCF6DAFAD8FED682EE86EC5B
:104890008AEA8EE892E696E49AE29EE02AFE2EFCF0
:1048A00032FA36F83AF63EF442F246F072EE76EC20
:1048B0007AEA7EE8001993055052B7270040138525
:1048C00007C0EF30C012AA87638F070EA30F04F44E
:1048D00083C741966391070E9307F4F5BE8519458A
:1048E000EFD08F8A0347F4F5930750056313F7025F
:1048F00083C7818A138717009376F70F2384D18AA1
:10490000BE860347F4F593870150B6972380E700EE
:1049100049A003C7818A85476310F70403C7015084
:1049200093075005631AF70283C7818A138717001C
:104930009376F70F2384D18ABE860347F4F59387D5
:104940000150B6972380E7008347F4F513970701DA
:1049500041832395E18A35A883D7A18A8D0703C7B0
:10496000818A63C8E70203C70150930750056312A9
:10497000F70283C7818A138717009376F70F238482
:10498000D18ABE860347F4F593870150B6972380FA
:10499000E70083D7A18A8D0703C7818A63DDE7001B
:1049A0002384018A05472382E1962395018A814564
:1049B0001945EFC03FF593055052B72700401385C6
:1049C00007C0EF30E0120100BA50AA521A538A53BE
:1049D0007A446A45DA454A46BA462A479A470A4817
:1049E000F658665ED65E465FB65F7660E6605661F4
:1049F000C6613662A662166386637275E275527688
:104A0000C2763277A27712788278726EE26E526F37
:104A1000C26F4D6173002030357106CF16CD1ACBB1
:104A20001EC922C72AC52EC332C1B6DEBADCBEDA21
:104A3000C2D8C6D6F2D4F6D2FAD0FECE82E686E44A
:104A40008AE28EE012FE16FC1AFA1EF82AF62EF4FE
:104A500032F236F03AEE3EEC42EA46E872E676E4AE
:104A60007AE27EE000119305505237250040EF2096
:104A70001078AA8789CBEFD02FE4930550523725C1
:104A80000040EF30E0060100FA40EA425A43CA43D0
:104A90003A442A459A450A46F6566657D657465826
:104AA000B658265E965E065FF64F3660A6601661C3
:104AB00086617272E2725273C2733275A275127697
:104AC00082767267E2675268C268326EA26E126FB7
:104AD000826F0D6173002030357106CF16CD1ACB71
:104AE0001EC922C72AC52EC332C1B6DEBADCBEDA61
:104AF000C2D8C6D6F2D4F6D2FAD0FECE82E686E48A
:104B00008AE28EE012FE16FC1AFA1EF82AF62EF43D
:104B100032F236F03AEE3EEC42EA46E872E676E4ED
:104B20007AE27EE00011B707055083C7070193F7CB
:104B3000F70F918B8DC383A741818297B7070550EB
:104B400083C7070113F7F70FB70705506D9B13775E
:104B5000F70F2388E7000100FA40EA425A43CA43AC
:104B60003A442A459A450A46F6566657D657465855
:104B7000B658265E965E065FF64F3660A6601661F2
:104B800086617272E2725273C2733275A2751276C6
:104B900082767267E2675268C268326EA26E126FE6
:104BA000826F0D6173002030357106CF16CD1ACBA0
:104BB0001EC922C72AC52EC332C1B6DEBADCBEDA90
:104BC000C2D8C6D6F2D4F6D2FAD0FECE82E686E4B9
:104BD0008AE28EE012FE16FC1AFA1EF82AF62EF46D
:104BE00032F236F03AEE3EEC42EA46E872E676E41D
:104BF0007AE27EE000110545EF1060102A878547B4
:104C00006315F7000545EF10E0140100FA40EA4291
:104C10005A43CA433A442A459A450A46F6566657C5
:104C2000D6574658B658265E965E065FF64F3660F3
:104C3000A660166186617272E2725273C273327537
:104C4000A275127682767267E2675268C268326E27
:104C5000A26E126F826F0D6173002030357106CF26
:104C600016CD1ACB1EC922C72AC52EC332C1B6DE45
:104C7000BADCBEDAC2D8C6D6F2D4F6D2FAD0FECEAC
:104C800082E686E48AE28EE012FE16FC1AFA1EF82C
:104C90002AF62EF432F236F03AEE3EEC42EA46E8DC
:104CA00072E676E47AE27EE000110945EF10200515
:104CB0002A8785476315F7000945EF10A009010011
:104CC000FA40EA425A43CA433A442A459A450A46B8
:104CD000F6566657D6574658B658265E965E065F15
:104CE000F64F3660A660166186617272E272527388
:104CF000C2733275A275127682767267E267526865
:104D0000C268326EA26E126F826F0D617300203026
:104D1000357106CF16CD1ACB1EC922C72AC52EC3A0
:104D200032C1B6DEBADCBEDAC2D8C6D6F2D4F6D20A
:104D3000FAD0FECE82E686E48AE28EE012FE16FC0F
:104D40001AFA1EF82AF62EF432F236F03AEE3EEC5B
:104D500042EA46E872E676E47AE27EE00011114526
:104D6000EF00F0792A8785476315F7001145EF00BA
:104D7000707E0100FA40EA425A43CA433A442A4547
:104D80009A450A46F6566657D6574658B658265E8E
:104D9000965E065FF64F3660A66016618661727297
:104DA000E2725273C2733275A2751276827672679E
:104DB000E2675268C268326EA26E126F826F0D6136
:104DC00073002030357106CF16CD1ACB1EC922C70D
:104DD0002AC52EC332C1B6DEBADCBEDAC2D8C6D608
:104DE000F2D4F6D2FAD0FECE82E686E48AE28EE0F3
:104DF00012FE16FC1AFA1EF82AF62EF432F236F0DB
:104E00003AEE3EEC42EA46E872E676E47AE27EE08A
:104E100000112145EF00B06E2A8785476315F70022
:104E20002145EF0030730100FA40EA425A43CA4379
:104E30003A442A459A450A46F6566657D657465882
:104E4000B658265E965E065FF64F3660A66016611F
:104E500086617272E2725273C2733275A2751276F3
:104E600082767267E2675268C268326EA26E126F13
:104E7000826F0D6173002030357106CF16CD1ACBCD
:104E80001EC922C72AC52EC332C1B6DEBADCBEDABD
:104E9000C2D8C6D6F2D4F6D2FAD0FECE82E686E4E6
:104EA0008AE28EE012FE16FC1AFA1EF82AF62EF49A
:104EB00032F236F03AEE3EEC42EA46E872E676E44A
:104EC0007AE27EE000114145EF0070632A87854752
:104ED0006315F7004145EF00F0670100FA40EA4230
:104EE0005A43CA433A442A459A450A46F6566657F3
:104EF000D6574658B658265E965E065FF64F366021
:104F0000A660166186617272E2725273C273327564
:104F1000A275127682767267E2675268C268326E54
:104F2000A26E126F826F0D6173002030357106CF53
:104F300016CD1ACB1EC922C72AC52EC332C1B6DE72
:104F4000BADCBEDAC2D8C6D6F2D4F6D2FAD0FECED9
:104F500082E686E48AE28EE012FE16FC1AFA1EF859
:104F60002AF62EF432F236F03AEE3EEC42EA46E809
:104F700072E676E47AE27EE0001113050002EF00AB
:104F800010582A8785476316F70013050002EF00C3
:104F9000705C13050004EF0090562A87854763165E
:104FA000F70013050004EF00F05A13050008EF00A6
:104FB00010552A8785476316F70013050008EF0090
:104FC000705913050010EF0090532A878547631628
:104FD000F70013050010EF00F05713050020EF0055
:104FE00010522A8785476316F70013050020EF004B
:104FF00070560100FA40EA425A43CA433A442A45ED
:105000009A450A46F6566657D6574658B658265E0B
:10501000965E065FF64F3660A66016618661727214
:10502000E2725273C2733275A2751276827672671B
:10503000E2675268C268326EA26E126F826F0D61B3
:1050400073002030357106CF16CD1ACB1EC922C78A
:105050002AC52EC332C1B6DEBADCBEDAC2D8C6D685
:10506000F2D4F6D2FAD0FECE82E686E48AE28EE070
:1050700012FE16FC1AFA1EF82AF62EF432F236F058
:105080003AEE3EEC42EA46E872E676E47AE27EE008
:10509000001113050040EF0090462A8785476316EC
:1050A000F70013050040EF00F04A8567138507807D
:1050B000EF00F0442A8785476317F700856713855B
:1050C0000780EF0030490565EF0070432A87854768
:1050D0006315F7000565EF00F0470965EF00304202
:1050E0002A8785476318F70083A78181829709651E
:1050F000EF0050461165EF0090402A8785476317FF
:10510000F700EFC05FF81165EF00D0442165EF00B4
:10511000103F2A8785476317F700EFC07FE72165B7
:10512000EF0050430100FA40EA425A43CA433A446E
:105130002A459A450A46F6566657D6574658B658EF
:10514000265E965E065FF64F3660A6601661866143
:105150007272E2725273C2733275A27512768276DF
:105160007267E2675268C268326EA26E126F826F17
:105170000D6173002030357106CF16CD1ACB1EC9D4
:1051800022C72AC52EC332C1B6DEBADCBEDAC2D807
:10519000C6D6F2D4F6D2FAD0FECE82E686E48AE211
:1051A0008EE012FE16FC1AFA1EF82AF62EF432F2DF
:1051B00036F03AEE3EEC42EA46E872E676E47AE20F
:1051C0007EE000118545B7370140138507C0EF2009
:1051D000603BAA8791CF8545B7370140138507C04B
:1051E000EF204041EF30500D138501FDEF30B05AF4
:1051F0000100FA40EA425A43CA433A442A459A45D2
:105200000A46F6566657D6574658B658265E965EF4
:10521000065FF64F3660A660166186617272E272B2
:105220005273C2733275A275127682767267E26724
:105230005268C268326EA26E126F826F0D61730087
:105240002030357106CF16CD1ACB1EC922C72AC50C
:105250002EC332C1B6DEBADCBEDAC2D8C6D6F2D4AC
:10526000F6D2FAD0FECE82E686E48AE28EE012FE24
:1052700016FC1AFA1EF82AF62EF432F236F03AEE3E
:105280003EEC42EA46E872E676E47AE27EE000111D
:10529000854537050040EF20E02EAA8791C7854558
:1052A00037050040EF2000350100FA40EA425A433A
:1052B000CA433A442A459A450A46F6566657D6578F
:1052C0004658B658265E965E065FF64F3660A66074
:1052D000166186617272E2725273C2733275A27580
:1052E000127682767267E2675268C268326EA26E88
:1052F000126F826F0D6173002030357106CF16CDAD
:105300001ACB1EC922C72AC52EC332C1B6DEBADCEB
:10531000BEDAC2D8C6D6F2D4F6D2FAD0FECE82E633
:1053200086E48AE28EE012FE16FC1AFA1EF82AF6CD
:105330002EF432F236F03AEE3EEC42EA46E872E6FD
:1053400076E47AE27EE000118545B70700401385D8
:105350000740EF202023AA87A1C78545B707004053
:1053600013850740EF200029EF40C018EF30707020
:10537000EF60402603C7419685476311F70203A7F4
:10538000418213064006938501503A85EF70C06450
:105390002382019685451945EFC0CFD6EF300062D4
:1053A0000100FA40EA425A43CA433A442A459A4520
:1053B0000A46F6566657D6574658B658265E965E43
:1053C000065FF64F3660A660166186617272E27201
:1053D0005273C2733275A275127682767267E26773
:1053E0005268C268326EA26E126F826F0D617300D6
:1053F0002030357106CF16CD1ACB1EC922C72AC55B
:105400002EC332C1B6DEBADCBEDAC2D8C6D6F2D4FA
:10541000F6D2FAD0FECE82E686E48AE28EE012FE72
:1054200016FC1AFA1EF82AF62EF432F236F03AEE8C
:105430003EEC42EA46E872E676E47AE27EE000116B
:105440008545B717004013850780EF20A013AA8772
:1054500081CB8545B717004013850780EF20801961
:105460000100FA40EA425A43CA433A442A459A455F
:105470000A46F6566657D6574658B658265E965E82
:10548000065FF64F3660A660166186617272E27240
:105490005273C2733275A275127682767267E267B2
:1054A0005268C268326EA26E126F826F0D61730015
:1054B0002030357106CF16CD1ACB1EC922C72AC59A
:1054C0002EC332C1B6DEBADCBEDAC2D8C6D6F2D43A
:1054D000F6D2FAD0FECE82E686E48AE28EE012FEB2
:1054E00016FC1AFA1EF82AF62EF432F236F03AEECC
:1054F0003EEC42EA46E872E676E47AE27EE00011AB
:105500008545B7170040138507C0EF20A007AA877D
:1055100081CB8545B7170040138507C0EF20800D6C
:105520000100FA40EA425A43CA433A442A459A459E
:105530000A46F6566657D6574658B658265E965EC1
:10554000065FF64F3660A660166186617272E2727F
:105550005273C2733275A275127682767267E267F1
:105560005268C268326EA26E126F826F0D61730054
:105570002030357106CF16CD1ACB1EC922C72AC5D9
:105580002EC332C1B6DEBADCBEDAC2D8C6D6F2D479
:10559000F6D2FAD0FECE82E686E48AE28EE012FEF1
:1055A00016FC1AFA1EF82AF62EF432F236F03AEE0B
:1055B0003EEC42EA46E872E676E47AE27EE00011EA
:1055C000854537150040EF10F07BAA8791C78545C8
:1055D00037150040EF2000020100FA40EA425A432A
:1055E000CA433A442A459A450A46F6566657D6575C
:1055F0004658B658265E965E065FF64F3660A66041
:10560000166186617272E2725273C2733275A2754C
:10561000127682767267E2675268C268326EA26E54
:10562000126F826F0D6173002030357106CF16CD79
:105630001ACB1EC922C72AC52EC332C1B6DEBADCB8
:10564000BEDAC2D8C6D6F2D4F6D2FAD0FECE82E600
:1056500086E48AE28EE012FE16FC1AFA1EF82AF69A
:105660002EF432F236F03AEE3EEC42EA46E872E6CA
:1056700076E47AE27EE000118545B7170040138595
:105680000740EF103070AA8781CB8545B7170040DF
:1056900013850740EF1010760100FA40EA425A43A2
:1056A000CA433A442A459A450A46F6566657D6579B
:1056B0004658B658265E965E065FF64F3660A66080
:1056C000166186617272E2725273C2733275A2758C
:1056D000127682767267E2675268C268326EA26E94
:1056E000126F826F0D6173002030357106CF16CDB9
:1056F0001ACB1EC922C72AC52EC332C1B6DEBADCF8
:10570000BEDAC2D8C6D6F2D4F6D2FAD0FECE82E63F
:1057100086E48AE28EE012FE16FC1AFA1EF82AF6D9
:105720002EF432F236F03AEE3EEC42EA46E872E609
:1057300076E47AE27EE000118545B73701401385B3
:105740000740EF103064AA8781CB8545B737014009
:1057500013850740EF10106A0100FA40EA425A43ED
:10576000CA433A442A459A450A46F6566657D657DA
:105770004658B658265E965E065FF64F3660A660BF
:10578000166186617272E2725273C2733275A275CB
:10579000127682767267E2675268C268326EA26ED3
:1057A000126F826F0D6173002030357106CF16CDF8
:1057B0001ACB1EC922C72AC52EC332C1B6DEBADC37
:1057C000BEDAC2D8C6D6F2D4F6D2FAD0FECE82E67F
:1057D00086E48AE28EE012FE16FC1AFA1EF82AF619
:1057E0002EF432F236F03AEE3EEC42EA46E872E649
:1057F00076E47AE27EE000118545B75701401385D3
:1058000007C0EF103058AA8781CB8545B7570140B4
:10581000138507C0EF10105E0100FA40EA425A43B8
:10582000CA433A442A459A450A46F6566657D65719
:105830004658B658265E965E065FF64F3660A660FE
:10584000166186617272E2725273C2733275A2750A
:10585000127682767267E2675268C268326EA26E12
:10586000126F826F0D6173002030357106CF16CD37
:105870001ACB1EC922C72AC52EC332C1B6DEBADC76
:10588000BEDAC2D8C6D6F2D4F6D2FAD0FECE82E6BE
:1058900086E48AE28EE012FE16FC1AFA1EF82AF658
:1058A0002EF432F236F03AEE3EEC42EA46E872E688
:1058B00076E47AE27EE00011854537550140EF102D
:1058C000704CAA8791C7854537550140EF1090521B
:1058D0000100FA40EA425A43CA433A442A459A45EB
:1058E0000A46F6566657D6574658B658265E965E0E
:1058F000065FF64F3660A660166186617272E272CC
:105900005273C2733275A275127682767267E2673D
:105910005268C268326EA26E126F826F0D617300A0
:105920002030411122C600080100324441017300B9
:105930002030411122C6000801A0011122CE001022
:105940002326A4FEAE872315F4FE8327C4FE850715
:1059500083C70700A2071397070141878327C4FE67
:1059600083C70700C207C187D98F93960701C186F5
:105970001397060141839375F70F03C70196018BB7
:105980003A862E87518F2380E19613970601418333
:10599000218313160701418203C71196018BBA8632
:1059A0003287558FA380E1968327C4FE8D0783C776
:1059B0000700A2071397070141878327C4FE8907C1
:1059C00083C70700C207C187D98F93960701C18695
:1059D000938701961397060141839375F70F03C7C9
:1059E0002700018B3A862E87518F2381E70013977A
:1059F00006014183218313160701418203C7370043
:105A0000018BBA863287558FA381E70003C70196C1
:105A100083C71196A207D98FC207C187C207C18762
:105A2000C207C183B917C207C18393960701C18614
:105A30001397060141839375F70F03C70196018BF6
:105A40003A862E87518F2380E19613970601418372
:105A5000218313160701418203C71196018BBA8671
:105A60003287558FA380E19613870196034727005D
:105A70009387019683C73700A207D98FC207C187D2
:105A8000C207C187C207C183C907C207C1839396F2
:105A90000701C18693870196139706014183937589
:105AA000F70F03C72700018B3A862E87518F23817A
:105AB000E7001397060141832183131607014182F2
:105AC00003C73700018BBA863287558FA381E70061
:105AD0000100724405618280011106CE22CC0010C3
