:100000006F40007713000000130000001300000091
:100010001300000013000000130000001300000094
:100020001300000013000000130000001300000084
:08003000130000007300100032
:10003800000000000000000062430000724300005E
:1000480000000000B64600000000000000000000AC
:10005800B8460000BA46000000000000000000009A
:10006800BC46000000000000BE4600000000000082
:10007800C0460000C2460000C4460000C646000054
:10008800C8460000CA4600001C360000D0360000F2
:100098008437000038380000EC380000D6460000ED
:1000A800D8460000DA460000DC460000DE460000C4
:1000B800E0460000E2460000E4460000E646000094
:1000C800E8460000EA460000EC460000A0390000BF
:1000D800F0460000EA3B0000F4460000F646000047
:1000E800B63C00006E3D0000323E0000FE460000B7
:1000F80000470000024700000447000006470000D0
:1001080008470000442E0000082F0000CC2F0000F4
:10011800B83A0000124700001447000016470000D4
:100128002A4100001A4700001C4700001E47000033
:100138002047000022470000F23E0000264700004A
:100148009430000058310000B23F00006A400000BF
:1001580030470000324700003447000036470000AF
:10016800384700003A4700003C4700003E4700007F
:10017800404700004247000044470000EE6200008C
:10018800484700004A470000483500001432000084
:10019800D83200008834000054470000EA410000CB
:1001A800584700005A4700005C470000AA42000078
:1001B800604700006247000064470000664700008F
:1001C800684700006A4700006C4700006E4700005F
:1001D8000000000000000000000000000000000017
:1001E8000000000000000000000000000000000007
:0801F8000000000000000000FF
:100200003D432A876373C3029377F700BDEFADE5E3
:10021000937606FF3D8ABA960CC34CC30CC74CC7F5
:100220004107E36BD7FE11E28280B306C3408A0622
:100230009702000096966780A6002307B700A306E2
:10024000B7002306B700A305B7002305B700A30432
:10025000B7002304B700A303B7002303B700A3022A
:10026000B7002302B700A301B7002301B700A30022
:10027000B7002300B700828093F5F50F93968500B1
:10028000D58D93960501D58D61B79396270097027A
:10029000000096968682E78086FA9680C1171D8FA9
:1002A0003E96E374C3F8A5B7011122CE00102326B1
:1002B000A4FE37F500E08328450037F500E093F809
:1002C000E8FF2322150183A8C1800965130505F401
:1002D00033D5A802AA8601470325C4FEAA87014890
:1002E00037F500E03303F702B308D8029A98338356
:1002F000F60233B6F6029A85B387C8003E860CC96B
:1003000050C9B7F700E09843B7F700E0136707015B
:1003100098C3B7F700E09843B7F700E013671702F8
:1003200098C30100B7F700E0DC4313F717008547D7
:10033000E31AF7FEB7F700E09843B7F700E0799BC0
:1003400098C30100724405618280011122CE001021
:100350002326A4FEAE87A305F4FE8347B4FE85CB17
:100360008327C4FEBD8B0547B317F700939607019B
:10037000C1828327C4FE13D75700B70700200A079E
:1003800093870704BA979C43368798CB3DA0832771
:10039000C4FEBD8B0547B317F70093960701C182D2
:1003A0008327C4FE13D75700B70700200A07938797
:1003B0000704BA979C433687D8CB01007244056185
:1003C0008280011122CE00102326A4FE8327C4FEC2
:1003D000958313F77700B70700200A079387070470
:1003E000BA979C439C470327C4FE7D8B8546339771
:1003F000E600F98FB337F00093F7F70F3E857244AC
:1004000005618280797106D622D40018232EA4FCBF
:10041000232CB4FCB2872328D4FCA30BF4FC2320A8
:1004200004FE232204FE232404FE8327C4FD9583B7
:1004300093F7F70F9D8BA307F4FE8327C4FD93F773
:10044000F70FFD8B2307F4FE8347F4FE91E7854504
:100450001145EF40B03091A80347F4FE854763177C
:10046000F70085452145EF40702F81A00347F4FE3A
:1004700089476317F70085454145EF40302E35A089
:100480000347F4FE8D476318F70085451305000206
:10049000EF40D02C19A80347F4FE91476317F700EB
:1004A000854513050004EF40702B8347E4FE0547A4
:1004B000B317F700C207C1832310F4FE032784FD9E
:1004C00085476317F702832704FDC207C183A18311
:1004D000C207C18389E78D472322F4FE11A8832731
:1004E00004FDC207C183A183C207C1832322F4FE96
:1004F000832704FDC207C18393F7F70F2324F4FE7B
:100500000347F4FEB70700200A0793870704BA974A
:100510009C43130704FEBA853E85EF402035032730
:1005200084FD85476319F7020347F4FEB7070020EF
:100530000A0793870704BA9794438347E4FE054765
:10054000B317F700C207C183034774FD3A86BE851F
:100550003685EF4040540100B250225445618280FC
:100560001D7186CEA2CC80102326A4FA2324B4FACF
:1005700085450325C4FAEF00A077AA873E871306B6
:10058000D006BD67938547263A85EF103054832700
:1005900084FAB337F00093F7F70F3E871306F0069F
:1005A000BD67938547263A85EF105052832784FA1A
:1005B000BD832315F4FE8357A4FE85073E8783275A
:1005C00084FAB3D7E7022314F4FE0325C4FAEF003C
:1005D0008078B7370140938707C02326F4FE0327AE
:1005E000C4FAA54763ECE7088327C4FA13972700EA
:1005F000BD679387075CBA979C438287B7370140F2
:10060000938707C02326F4FE95A8B707004023264A
:10061000F4FEADA0B7070040938707402326F4FE01
:10062000B1A8B7170040938707802326F4FEB9A02E
:10063000B7170040938707C02326F4FE81A0B717A1
:1006400000402326F4FE1DA8B717004093870740FB
:100650002326F4FE25A0B7370140938707402326C1
:10066000F4FE29A8B7570140938707C02326F4FE5C
:1006700031A0B75701402326F4FE0100232E04FCCD
:10068000232004FE231204FE835784FE2310F4FE6D
:100690008357A4FE231EF4FC231104FE231F04FC35
:1006A000230204FE9307C4FDBE850325C4FEEF406C
:1006B000B013054685450325C4FEEF50402385450C
:1006C0000325C4FEEF50A059BD6703AEC7231387AF
:1006D000C723032347001387C72383288700138773
:1006E000C7230328C7001387C723084B1387C723D3
:1006F0004C4B1387C723104F1387C723544F1387BF
:10070000C72318539387C723DC53232AC4FB232C06
:1007100064FA232E14FB232004FD2322A4FC2324AB
:10072000B4FC2326C4FC2328D4FC232AE4FC232C79
:10073000F4FC8327C4FA93F7F70F8A07130704FF23
:10074000BA9783A747FC8D453E85EF202066832717
:10075000C4FA8A07130704FFBA9783A747FC3E85AC
:10076000EF20406185450325C4FEEF50C00C010019
:10077000F640664425618280797106D622D400183D
:10078000232EA4FC232CB4FC032784FD89679387C4
:100790001771B337F70093F7F70F3E87130650032F
:1007A000BD679385872B3A85EF105032B7370140EC
:1007B000938707C02326F4FE8327C4FDC183BD8B26
:1007C0002547636EF70613972700BD679387875EFB
:1007D000BA979C438287B7370140938707C0232687
:1007E000F4FEB1A8B70700402326F4FE89A8B70796
:1007F0000040938707402326F4FE91A0B7170040DE
:10080000938707802326F4FE1DA8B717004093871F
:1008100007C02326F4FE25A0B73701409387074081
:100820002326F4FE29A8B7570140938707C0232643
:10083000F4FE31A0B75701402326F4FE01008327C0
:10084000C4FE83D7C7022315F4FE0357A4FE8327F3
:1008500084FD3307F702896793870771B357F7025F
:100860002314F4FE8327C4FDA1838D8B81EB8327A2
:10087000C4FE035784FE239AE702A9A88327C4FD78
:10088000A18313F7370085476319F7008327C4FE58
:10089000035784FE239CE70235A88327C4FDA18368
:1008A00013F7370089476319F7008327C4FE0357FE
:1008B00084FE239EE70239A88327C4FDA18313F792
:1008C00037008D476318F7008327C4FE035784FE63
:1008D0002390E7040100B2502254456182805D718B
:1008E00086C6A2C48008232EA4FA232CB4FA232A95
:1008F000C4FA8327C4FBC1838D453E85D52EAA87C4
:100900003E871306D00ABD679385872B3A85EF1083
:10091000F01B032744FB896793871771B337F700F0
:1009200093F7F70F3E871306F00ABD679385872B71
:100930003A85EF10B019232E04FC232004FE231265
:1009400004FE232604FC232804FC232A04FC232C75
:1009500004FC231504FE8327C4FBC183BD8B3E85A5
:10096000DD2E8327C4FB93F7F70F930680310146F2
:1009700085453E85413C85450545EF40205EB737BE
:100980000140938707C02326F4FE8327C4FBC1835D
:10099000BD8B2547636EF70613972700BD679387C6
:1009A0000761BA979C438287B7370140938707C096
:1009B0002326F4FEB1A8B70700402326F4FE89A839
:1009C000B7070040938707402326F4FE91A0B7178E
:1009D0000040938707802326F4FE1DA8B717004028
:1009E000938707C02326F4FE25A0B73701409387DD
:1009F00007402326F4FE29A8B7570140938707C074
:100A00002326F4FE31A0B75701402326F4FE01004F
:100A10008327C4FB13D7C7008D47631AF7008545AA
:100A2000B70716001385070CEF40600A15AA832745
:100A3000C4FB13D7C700C547631AF7008545B7073E
:100A4000180013850710EF40800819AA8327C4FBFC
:100A500013D7C700C947631AF7008545B7071800C1
:100A600013850720EF40A006E5A88327C4FB13D712
:100A7000C700CD47631AF7008545B70718001385EF
:100A80000730EF40C004E9A88327C4FB13D7C70091
:100A900093072002631AF7008545B7171A001385DC
:100AA0000780EF40C0026DA88327C4FB13D7C7009F
:100AB00093073002631AF7008545B7171A001385AC
:100AC00007C0EF40C00069A88327C4FB13D7C70045
:100AD000930710036317F70085450565EF30307FF6
:100AE00041A08327C4FB13D7C70093071007631ADD
:100AF000F7008545B707008013854700EF30307D4C
:100B000085A08327C4FB13D7C70093073008631A57
:100B1000F7008545B707138013850701EF30307B59
:100B200081A08327C4FB13D7C70093071009631A5A
:100B3000F7008545B707158013850702EF30307938
:100B400005A08327C4FB13D7C70093073009631997
:100B5000F7008545B707158013850704EF30307718
:100B600003A7C180832784FBB357F702C1832315F2
:100B7000F4FE03A7C1808357A4FE8507BE868327A2
:100B800084FBB387F602B357F7022314F4FE03572E
:100B900084FE832744FB3307F70289679387077135
:100BA000B357F7022313F4FE835784FEFD17C207E1
:100BB000C1832310F4FE8357A4FE231EF4FC2311EB
:100BC00004FE231F04FC230204FE9307C4FDBE851C
:100BD0000325C4FEEF404041930700072316F4FCB1
:100BE00085472317F4FC231804FC835764FE23195C
:100BF000F4FC8947231AF4FC8947231BF4FC231CCB
:100C000004FC231D04FC8327C4FBA1838D8B9DE37F
:100C10009307C4FCBE850325C4FEEF40C054A14524
:100C20000325C4FEEF40B05391450325C4FEEF40B9
:100C3000D06745A08327C4FBA18313F737008547FE
:100C40006315F7029307C4FCBE850325C4FEEF407D
:100C5000406BA1450325C4FEEF403055930500408D
:100C60000325C4FEEF403069ADA08327C4FBA183F8
:100C700013F7370089476314F7029307C4FCBE8556
:100C80000325C4FEEF401006A1450325C4FEEF4036
:100C9000705791450325C4FEEF40506B1DA8832774
:100CA000C4FBA18313F737008D476314F702930742
:100CB000C4FCBE850325C4FEEF409020A14503255A
:100CC000C4FEEF40F058930500400325C4FEEF40FA
:100CD000B06C85450325C4FEEF40703B8545032578
:100CE000C4FEEF4050350100B64026446161828069
:100CF000797122D60018232EA4FC232CB4FC85473E
:100D0000A307F4FE0327C4FD0A079387418ABA9715
:100D10009C4399EB0327C4FD0A079387418ABA973E
:100D2000032784FD98C315A00327C4FD0A079387F2
:100D3000418ABA979C43032784FD6316F7008547D1
:100D4000A307F4FE19A0A30704FE8347F4FE3E8523
:100D5000325445618280011106CE22CC0010232638
:100D6000A4FE8327C4FE81EB854585671385078034
:100D7000EF40C01E6DA80327C4FE85476317F70028
:100D800085450545EF40E0215DA00327C4FE894766
:100D90006317F70085450945EF40A02049A80327C0
:100DA000C4FE8D476317F70085451145EF40601F6E
:100DB000BDA80327C4FE91476317F7008545214569
:100DC000EF40201EADA00327C4FE95476317F70030
:100DD00085454145EF40E01C99A80327C4FE99478B
:100DE0006318F700854513050002EF40801B81A0C2
:100DF0000327C4FE9D476317F70085450965EF404B
:100E0000E01535A00327C4FEA1476318F700854508
:100E100037050800EF40801419A80327C4FEA54732
:100E20006317F700854537051000EF4020130100D8
:100E3000F240624405618280797122D60018232E27
:100E4000A4FCB7370140938707C02326F4FE23157F
:100E500004FE0327C4FDA54763ECE7088327C4FD10
:100E600013972700BD6793878763BA979C43828750
:100E7000B7370140938707C02326F4FE95A8B7072C
:100E800000402326F4FEADA0B7070040938707403B
:100E90002326F4FEB1A8B7170040938707802326C6
:100EA000F4FEB9A0B7170040938707C02326F4FECD
:100EB00081A0B71700402326F4FE1DA8B7170040F5
:100EC000938707402326F4FE25A0B7370140938778
:100ED00007402326F4FE29A8B7570140938707C08F
:100EE0002326F4FE31A0B75701402326F4FE01006B
:100EF0000327C4FD0A079387C18CBA979843894793
:100F0000631FF7008327C4FE83D7470213970701A7
:100F100041838D47B357F7022315F4FE39A0832789
:100F2000C4FE83D747022315F4FE8357A4FE3E85F3
:100F3000325445618280797122D60018232EA4FC98
:100F4000B7370140938707C02326F4FE0327C4FD6B
:100F5000A54763ECE7088327C4FD13972700BD6707
:100F600093870766BA979C438287B7370140938778
:100F700007C02326F4FE95A8B70700402326F4FEF9
:100F8000ADA0B7070040938707402326F4FEB1A821
:100F9000B7170040938707802326F4FEB9A0B71740
:100FA0000040938707C02326F4FE81A0B7170040B6
:100FB0002326F4FE1DA8B717004093870740232679
:100FC000F4FE25A0B7370140938707402326F4FE9F
:100FD00029A8B7570140938707C02326F4FE31A004
:100FE000B75701402326F4FE01008327C4FE239255
:100FF00007020100325445618280011122CE0010A7
:101000002326A4FEAE87A305F4FE0100BD670327D7
:10101000C4FE0A0793878768BA979C4383D7070063
:10102000C207C18393F70708F5D3BD670327C4FE42
:101030000A0793878768BA979C433E878347B4FE25
:10104000C207C1832312F700010072440561828048
:10105000011106CE22CC00102326A4FE2324B4FEC8
:101060002322C4FE832784FEB337F00093F7F70FE3
:101070003E8713061004BD679385C7303A85EF108D
:10108000E02429A8832784FE138717002324E4FE85
:1010900083C70700BE850325C4FE8537832744FE2A
:1010A0001387F7FF2322E4FEF1FF0100F2406244C0
:1010B00005618280011106CE22CC00102326A4FEF9
:1010C0002324B4FE832784FEB337F00093F7F70F91
:1010D0003E8713060005BD679385C7303A85EF103C
:1010E000E01E39A8832784FE138717002324E4FE1B
:1010F0008387070093F7F70FBE850325C4FEF53DF0
:10110000832784FE83870700F1FF0100F2406244D9
:1011100005618280011106CE22CC00102326A4FE98
:10112000AE87A305F4FEBD670327C4FE0A079387B5
:101130008768BA979C433E878347B4FE3E869305F3
:1011400050523A85EF40D05D138781828327C4FED9
:10115000BA9783C7070081453E85EF103045834726
:10116000B4FE81CF138781828327C4FEBA9783C7D9
:1011700007003E85EF10104019A81387818283274E
:10118000C4FEBA9783C707003E85EF107040010088
:10119000F240624405618280011122CE00102326B4
:1011A000A4FE2324B4FEBD670327C4FE0A07938769
:1011B0008768BA979C4383D70700C207C18393F718
:1011C00007028DC7BD670327C4FE0A079387876898
:1011D000BA979C4383D74700C207C18313F7F70F21
:1011E000832784FE2380E700854711A081473E8541
:1011F000724405618280797106D622D40018232EAC
:10120000A4FC232CB4FC232AC4FC2328D4FC0327ED
:1012100044FD832704FD3D8F8327C4FDB207F98F6A
:1012200093B7170093F7F70F3E871306A00ABD6721
:101230009385C7303A85EF106009832744FD13D7A3
:101240008700832704FDA183B307F74093B71700F6
:1012500093F7F70F3E871306B00ABD679385C73033
:101260003A85EF10A006832744FD93F7F70FE14678
:10127000014685453E85EFF0EF98832704FD93F7FF
:10128000F70F93068004014681453E85EFF08F9766
:1012900085450545EF30904C032744FDC167FD1798
:1012A000F98F0D67130707386387E7200D6713076A
:1012B00007386369F7040567130757166381E71654
:1012C000056713075716636FF7001307F022638A49
:1012D000E70C130760306381E7101307601263881F
:1012E000E70865A6096713078736638BE7160D675E
:1012F000130707126387E71809671307A7146380AA
:10130000E71461A615671307A738638EE7261567EC
:101310001307A7386362F7021167130787386380E2
:10132000E7201567130787126385E7221167130704
:101330004712638CE71A91AE19671307C7386388A1
:10134000E72A19671307C7386368F7001967130797
:1013500067106384E72615AE1D671307E7106382E5
:10136000E72C1D671307E7386387E72E39AEB70709
:101370000140D44FB7070140370700FC7D17758F38
:10138000D8CFB7070140D843B70701406D9BD8C3FA
:10139000B7070140D843B707014013674700D8C3D8
:1013A000EDA4B7070140D44FB7070140370700FC51
:1013B0007D17758FD8CFB7070140D44FB7070140CD
:1013C00037070004558FD8CFB7070140D843B70778
:1013D00001406D9BD8C355ACB7070140D44FB70748
:1013E0000140370700FC7D17758FD8CFB707014044
:1013F000D44FB707014037070004558FD8CFB70740
:101400000140D843B70701406D9BD8C3B7070140DF
:10141000D843B707014013674700D8C3BDA4B70737
:101420000140D843B70701405D9BD8C3B7070140CF
:10143000D843B707014013678700D8C3B9A4B707DB
:101440000140D843B70701401377F7FCD8C3B7076B
:101450000140D843B707014013670701D8C335A43B
:10146000B7070140D843B70701401377F7FCD8C34B
:10147000B7070140D843B707014013670703D8C334
:1014800029A4B7070140D44FB70701403707FDFF34
:101490007D17758FD8CFB7070140D44F832744FD00
:1014A000A18313970701B70703007D8FB70701409A
:1014B000558FD8CFD9AAB7070140D44FB7070140FD
:1014C0003707FDFF7D17758FD8CFB7070140D44F81
:1014D000832744FDA18313970701B70703007D8F7E
:1014E000B7070140558FD8CF4DA2B7070140D44F61
:1014F000B70701403707F4FF7D17758FD8CFB707BF
:101500000140D44F832744FDA18313972701B707D8
:101510000C007D8FB7070140558FD8CFBDA2B7070C
:101520000140D44FB70701403707F4FF7D17758F8F
:10153000D8CFB7070140D44F832744FDA183139729
:101540002701B7070C007D8FB7070140558FD8CF13
:101550002DAAB7070140D44FB70701403707D0FF86
:101560007D17758FD8CFB7070140D44F832744FD2F
:10157000A18313974701B70730007D8FB70701405C
:10158000558FD8CF19A2B7070140D44FB7070140F4
:101590003707D0FF7D17758FD8CFB7070140D44FDD
:1015A000832744FDA18313974701B70730007D8F40
:1015B000B7070140558FD8CFC9A8B7070140D44F0E
:1015C000B7070140370740FF7D17758FD8CFB707A2
:1015D0000140D44F832744FDA18313976701B707C8
:1015E000C0007D8FB7070140558FD8CF79A8B707C6
:1015F0000140D44FB7070140370740FF7D17758F73
:10160000D8CFB7070140D44F832744FDA183139758
:101610006701B707C0007D8FB7070140558FD8CF4E
:10162000ADA0B7070140D44FB7070140370700FD11
:101630007D17758FD8CFB7070140D44F832744FD5E
:10164000A18313978701B70700037D8FB707014078
:10165000558FD8CF1DA8B7070140D44FB707014019
:10166000370700FD7D17758FD8CFB7070140D44FDE
:10167000832744FDA18313978701B70700037D8F5C
:10168000B7070140558FD8CF01008327C4FD91E7EC
:1016900085451165EF30900C69A80327C4FD854787
:1016A0006318F700854537050200EF30900F51A011
:1016B0000327C4FD89476318F700854537050400F3
:1016C000EF30300EBDA00327C4FD8D476318F7002F
:1016D000854537050800EF30D00CA1A80327C4FDCD
:1016E00091476318F700854537051000EF30700B00
:1016F00089A00327C4FD95476318F70085451305A6
:101700000004EF30100A35A00327C4FD9947631881
:10171000F700854513050008EF30B00819A8032726
:10172000C4FD9D476317F700854513050010EF3092
:101730005007232004FE232204FE232404FE232634
:1017400004FE832784FD2320F4FE231204FE2313CA
:1017500004FE231404FE231604FEB1472315F4FEF1
:10176000BD670327C4FD0A0793878768BA979C4320
:101770003E87930704FEBE853A85EF402051BD6742
:101780000327C4FD0A0793878768BA979C4385455A
:101790003E85EF40E0720100B250225445618280E4
:1017A000411106C622C4000883A7C1830547638B85
:1017B000E7006388070C0947638DE7000D47638FD7
:1017C000E702E9A083A781831387170023ACE18296
:1017D00075A883A781831387170023ACE18203A731
:1017E0008183A54763F1E70AB707002093870704C1
:1017F0009C4B1167D8CB23AC018271A003A7018455
:1018000085476314F7081305F008EFE09FBBAA872C
:10181000ADC31945EFF04FE2AA873E8783A78183C6
:101820001D8F9307600963F2E7061945EFF0AFF0EB
:1018300083A78183D3F717D05385F720EF90507D8E
:10184000BD6703A6073683A64736EF80D041AA8737
:101850002E883E85C285EF907064AA871397070192
:101860004183B7070020239CE726094723A0E18492
:1018700029A81945EFF04FDCAA873E8723ACE18207
:1018800029A0010021A0010011A001000100B24027
:10189000224441018280411106C622C4000883A768
:1018A000C1830947637CF7000D47639AE700194538
:1018B000EFF06FE8054723A0E18411A001000100CB
:1018C000B240224441018280011106CE22CC001098
:1018D000232204FE83C75184638A070E09A8930755
:1018E00034FE0546BE851385418FEF009056930761
:1018F00034FEBE851D45EFF03F8AAA87EDF303470E
:1019000034FEA9476314F70C99472322F4FE13070A
:1019100044FE930784FE85463A86BE851385418F33
:10192000EF106002930784FE138737000D46BD67F2
:10193000938587363A85EFA0D069AA879DEB03A7E8
:10194000C1848947630DF706054723A6E184138503
:10195000418FEF00F04BAA872322F4FE930744FE49
:1019600081463E86938501991385418FEF00B07DB6
:10197000B9A0930784FE138737000D46BD67938592
:10198000C7363A85EFA0F064AA8795EB03A7818458
:1019900089476306F702054723A4E1841385418F35
:1019A000EF001047AA872322F4FE930744FE8146E6
:1019B0003E86938501911385418FEF00D078138582
:1019C000418FEF00103505472382E1840100F2408A
:1019D000624405618280411122C600080100324440
:1019E00041018280411122C60008B7170240984386
:1019F000B71702401367170098C3B7170240D443C4
:101A0000B71702403707FFF8758FD8C3B7170240E2
:101A10009443B71702403707F7FE7D17758F98C3B9
:101A2000B71702409443B71702403707FCFF7D17F2
:101A3000758F98C3B7170240D443B71702403707D2
:101A400081FF7D17758FD8C3B717024037079F00F6
:101A500098C70100324441018280797106D622D4B0
:101A60000018232EA4FCBD3F232604FE232404FEDD
:101A7000B71702409443B71702404167558F98C388
:101A8000B71702409843B7070200F98F2324F4FEEA
:101A90008327C4FE85072326F4FE832784FE91E76F
:101AA0000327C4FE8567E31DF7FCB7170240984380
:101AB000B7070200F98F89C785472324F4FE19A0D0
:101AC000232404FE032784FE85476312F716371785
:101AD0000240B71702405843D8C337170240B71720
:101AE00002405843D8C337170240B7170240584343
:101AF000D8C3B7170240D443B71702403707C1FF16
:101B00007D17758FD8C30327C4FDB7479508938702
:101B10000740631BF700B7170240D443B7170240D2
:101B20004167558FD8C355A80327C4FDB7172707AA
:101B3000938707E0631CF700B7170240D443B71739
:101B4000024037073900558FD8C341A80327C4FD89
:101B5000B7E7B80593870780631CF700B717024003
:101B6000D443B717024037072900558FD8C3B5A013
:101B70000327C4FDB7A74A0493870720631CF70017
:101B8000B7170240D443B717024037071D00558FDF
:101B9000D8C3A1A00327C4FDB777DC02938707C091
:101BA000631CF700B7170240D443B717024037074A
:101BB0001100558FD8C315A00327C4FDB7376E0198
:101BC00093870760631BF700B7170240D443B7172A
:101BD000024037070500558FD8C3B717024094431A
:101BE000B717024037070001558F98C30100B71798
:101BF00002409843B7070002F98FF5DBB7170240A0
:101C0000D843B7170240719BD8C3B7170240D843D7
:101C1000B717024013672700D8C30100B717024067
:101C2000DC4313F7C700A147E31AF7FE11A001A098
:101C3000B250225445618280011106CE22CC0010A0
:101C40002326A4FE0327C4FE23A6E180613B0325CF
:101C5000C4FE2135EF10A01D0100F2406244056171
:101C60008280411122C60008010001003244410176
:101C70008280011106CE22CC0010232604FE2324EC
:101C800004FE232604FE25A0232404FE39A0D13F10
:101C9000832784FE85072324F4FE032784FEC1677F
:101CA000E367F7FE8327C4FE85072326F4FE032798
:101CB000C4FE9307F00FE3F9E7FC0100F240624431
:101CC00005618280411122C60008010032444101B1
:101CD0008280011106CE22CC00102326A4FE83258B
:101CE000C4FE0945EFF00FBD0100F24062440561FA
:101CF0008280130101D92326112623248126232241
:101D00009126801C232EA4D8232CB4D8232AC4D8EF
:101D10002328D4D8231504FE231404FE231304FE21
:101D2000231204FE231104FE032584D9EFA05029B9
:101D3000AA87C207C1872313F4FE83D7C1A689C728
:101D40009387C1A69C4B829783C7118593F7F70FA2
:101D5000638D074A83D7C1A6638707449387C1A6CB
:101D6000D447835724FE1397070141879317070130
:101D7000C1838507C207C183C207C1872311F4FE4F
:101D800093170701C1830326C4D9BE8501458296F6
:101D9000832784D92326F4FE032584D9EFA050227B
:101DA000AA87C207C1872313F4FE9387C1A683D7EE
:101DB00027003E879387C1A683C76700B347F70212
:101DC000C207C1872312F4FE01008327C4FE1387D4
:101DD00017002326E4FE83870700E5FB231404FE97
:101DE000A1A88327C4FEFD172326F4FE8327C4FE83
:101DF000038707009307F002630AF7008327C4FEF6
:101E0000038707009307C005631BF700835784FE11
:101E1000C207C1838507C207C1832314F4FE835719
:101E200064FEC207C187C207C183FD17C207C18311
:101E3000C207C1872313F4FE835784FE139707015B
:101E40004183854763E8E700835764FEC207C18783
:101E5000E3D907F8835764FEC207C18763C207024C
:101E60008327C4FE85072326F4FE130704EE03260A
:101E7000C4FEBD67938587453A85EFA010101DA865
:101E8000835784FEC207C18381EF130704EE032644
:101E9000C4FEBD67938547463A85EFA0100E19A88A
:101EA000130704EE0326C4FEBD67938587453A8574
:101EB000EFA0B00C231504FE21AA231404FE59A0A0
:101EC000930704EE3E85EFA0B00F2A87835784FE68
:101ED000C207C183BE868357A4FEC207C1833E8664
:101EE000835744FEC207C187B307F602B6976367FC
:101EF000F706835784FEC207C1833E878357A4FE3B
:101F0000C207C183BE86835744FEC207C187B38719
:101F1000F602BA97035784FE42074183BA86130735
:101F200004FFBA97038707EF930704FFB697238848
:101F3000E7EA835784FEC207C1838507C207C183CE
:101F40002314F4FE835784FEC207C1833E87835760
:101F500044FEC207C187E345F7F611A0010083578D
:101F600084FEC207C183130704FFBA97238807EAD8
:101F70009387C1A603A8C7009387C1A683C777002C
:101F8000139707014183835724FE93960701C18667
:101F900093970601C1838507C207C183C207C18722
:101FA0002311F4FE93970601C183B307F702C2071A
:101FB000C183130704EA3A86BE8501450298835718
:101FC000A4FEC207C1838507C207C1832315F4FE9F
:101FD0008357A4FEC207C183BE84930704EE3E85E7
:101FE000EFA0007E2A87835744FEC207C187B357FC
:101FF000F7028507E3E3F4EC130704EE032644D964
:10200000BD67938547473A85EFA020779387C1A6A0
:1020100003A8C7009387C1A683C77700139707015A
:102020004183835724FE93960701C1869397060147
:10203000C1838507C207C183C207C1872311F4FE8C
:1020400093970601C183B307F702C207C183130741
:1020500004EE3A86BE8501450298832704D963863B
:10206000071A231504FE21AA231404FE59A00325F0
:1020700004D9EFA0E0742A87835784FEC207C18386
:10208000BE868357A4FEC207C1833E86835744FEA3
:10209000C207C187B307F602B6976368F70683578E
:1020A00084FEC207C1833E878357A4FEC207C18353
:1020B000BE86835744FEC207C187B387F602BA972C
:1020C0003E87832704D9BA97035784FE420741838A
:1020D000BA8603870700930704FFB6972388E7EAC9
:1020E000835784FEC207C1838507C207C1832314B7
:1020F000F4FE835784FEC207C1833E87835744FEA4
:10210000C207C187E345F7F611A00100835784FE9B
:10211000C207C183130704FFBA97238807EA93878E
:10212000C1A603A8C7009387C1A683C777001397EA
:1021300007014183835724FE93960701C186939735
:102140000601C1838507C207C183C207C187231166
:10215000F4FE93970601C183B307F702C207C18358
:10216000130704EA3A86BE85014502988357A4FE08
:10217000C207C1838507C207C1832315F4FE8357B5
:10218000A4FEC207C183BE84032504D9EFA0406327
:102190002A87835744FEC207C187B357F7028507D2
:1021A000E3E4F4EC9DA0930704DA130600108145E4
:1021B0003E85EFE0EF849387C1A69C470325C4D9F1
:1021C0008297832704D999CF130504DA032704D90A
:1021D000832644D9032684D9BD6793850748EFA099
:1021E000C05929A8130704DA832644D9032684D9C1
:1021F000BD679385C7493A85EFA020589387C1A64C
:102200009847930704DA3E85029701008320C12690
:102210000324812683244126130101278280411152
:1022200006C622C4000883C7118593F7F70F81CF34
:10223000938501850945EFE03FF6054693850185C5
:10224000138501A539210100B24022444101828059
:10225000797106D622D40018232EA4FC232CB4FCBA
:10226000232AC4FC232604FEA9A00100BD6793878E
:1022700087689C47930500043E85EF309059AA87F4
:10228000F5D7BD67938787689C47BE86832784FD03
:1022900013871700232CE4FC83870700C207C18340
:1022A000BE853685EF3010548327C4FE850723266C
:1022B000F4FE0327C4FE832744FDE348F7FA83278F
:1022C00044FD3E85B250225445618280011106CE04
:1022D00022CC0010AA872324B4FE2322C4FEA30725
:1022E000F4FE8347F4FEB1E383C7018193F7F70F50
:1022F0008DCF83C7218591C301A083C72185850721
:1023000013F7F70F2389E184EF00D02FEFF09F9BA5
:102310008146032644FE832584FEBD671385474B13
:10232000EFF03F9DEFF0FF94E5B70100F24062440B
:1023300005618280011122CE00102326A4FE83278E
:10234000C4FE239007008327C4FE7D572391E70036
:102350008327C4FE7D572392E7008327C4FE7D5761
:102360002383E7008327C4FE7D57A383E7008327E9
:10237000C4FE23A407008327C4FE23A607008327E7
:10238000C4FE23A807000100724405618280011188
:1023900022CE00102326A4FE8327C4FE03D7070005
:1023A0002396E1A68327C4FE03D727009387C1A6FF
:1023B0002391E7008327C4FE03D747009387C1A674
:1023C0002392E7008327C4FE03C767009387C1A653
:1023D0002383E7008327C4FE03C777009387C1A642
:1023E000A383E7008327C4FE98479387C1A698C7B5
:1023F0008327C4FED8479387C1A6D8C78327C4FEC6
:10240000984B9387C1A698CB0547A388E184010028
:10241000724405618280797106D622D40018930730
:10242000C4FD3E85013FB7270000938727CD2322B7
:10243000F4FE9307C4FD3E85993F89679386B702F2
:1024400089671386A702F167938507200945EFE0A6
:102450009FDA93060004138601A18145138501A527
:10246000EF00407C85450945EFE0DFCA0100B2502E
:10247000225445618280011122CE00102326A4FE41
:102480002324B4FE8327C4FED847832784FE3E97C7
:102490008327C4FED8C719A88327C4FED84783273B
:1024A000C4FE9C4F1D8F8327C4FED8C78327C4FE5C
:1024B000984F8327C4FEDC47E3F0E7FE0100724437
:1024C00005618280011122CE00102326A4FE232460
:1024D000B4FE8327C4FE984B832784FE3E97832750
:1024E000C4FE98CB19A88327C4FE984B8327C4FE4B
:1024F0009C4F1D8F8327C4FE98CB8327C4FE984F23
:102500008327C4FE9C4BE3F0E7FE010072440561A3
:102510008280797106D622D40018232EA4FC83274A
:10252000C4FDB337F00093F7F70F3E87130640055D
:10253000BD679385074D3A85513B232604FE8327CB
:10254000C4FD83C70700858B93F7F70F89C78947B9
:102550002326F4FE7DA08327C4FD83C7070093E7ED
:10256000170013F7F70F8327C4FD2380E7008327A5
:10257000C4FD23A607008327C4FD23A807008327E3
:10258000C4FD984F8327C4FDD8CB8327C4FDDC430B
:1025900005476383E70289C70947638CE702B9A04F
:1025A0008327C4FD98478327C4FD9C4F3E86814501
:1025B0003A85EFD0FFC41DA88327C4FD9847832721
:1025C000C4FD9C4F86073E8681453A85EFD05FC3A8
:1025D00031A88327C4FD98478327C4FD9C4F8A07F1
:1025E0003E8681453A85EFD0BFC101008327C4FDF7
:1025F00083C70700F99B13F7F70F8327C4FD2380D8
:10260000E7008327C4FE3E85B25022544561828094
:10261000011106CE22CC00102326A4FE8327C4FE7F
:10262000B337F00093F7F70F3E871306C007BD6777
:102630009385074D3A8559398327C4FE984F8327E0
:10264000C4FEDC4BB307F7403E85F24062440561AF
:102650008280797106D622D40018232EA4FC232C64
:10266000B4FC232AC4FC8327C4FDB337F00093F7DE
:10267000F70F3E871306C00BBD679385074D3A855C
:10268000B131232604FE232404FE832784FD89E739
:102690008D472326F4FE4DA48327C4FD83C707007E
:1026A000898B93F7F70F89C785472326F4FE69A422
:1026B0008327C4FD83C7070093E7270013F7F70FAD
:1026C0008327C4FD2380E7008327C4FDDC4B032759
:1026D00044FD63E5E7248327C4FD984F8327C4FDA9
:1026E000DC47B307F7402324F4FE032744FD832788
:1026F00084FE63FCE7168327C4FDDC430547638D36
:10270000E70689C709476385E70EFDAA8327C4FD4D
:1027100098478327C4FDDC47BA97032684FE8325A8
:1027200084FD3E85EF908056832584FE0325C4FDFD
:1027300099338327C4FD98478327C4FDDC47B3063C
:10274000F700032784FD832784FEB305F7000327E2
:1027500044FD832784FEB307F7403E863685EF901D
:10276000E052032744FD832784FEB307F740BE856C
:102770000325C4FD093349AA8327C4FD984783274D
:10278000C4FDDC4786073E97832784FE86073E8686
:10279000832584FD3A85EF90604F832584FE0325D1
:1027A000C4FDD1398327C4FD98478327C4FDDC4786
:1027B0008607B306F700832784FE8607032784FD78
:1027C000B305F700032744FD832784FEB307F740D2
:1027D00086073E863685EF90604B032744FD8327AE
:1027E00084FEB307F740BE850325C4FD693129AADD
:1027F0008327C4FD98478327C4FDDC478A073E979B
:10280000832784FE8A073E86832584FD3A85EF90E0
:10281000E047832584FE0325C4FDB1398327C4FD29
:1028200098478327C4FDDC478A07B306F700832750
:1028300084FE8A07032784FDB305F700032744FDC0
:10284000832784FEB307F7408A073E863685EF90DC
:10285000E043032744FD832784FEB307F740BE858A
:102860000325C4FD0939010045A08327C4FDDC43CD
:102870000547638BE70289C70947638FE70469A0AF
:102880008327C4FD98478327C4FDDC47BA970326F6
:1028900044FD832584FD3E85EF90403F832544FD24
:1028A0000325C4FDC93E8DA08327C4FD9847832717
:1028B000C4FDDC4786073E97832744FD86073E8696
:1028C000832584FD3A85EF90603C832544FD0325F4
:1028D000C4FDEFF05FBA0DA88327C4FD9847832796
:1028E000C4FDDC478A073E97832744FD8A073E865E
:1028F000832584FD3A85EF906039832544FD0325C7
:10290000C4FDEFF05FB701008327C4FDD84B8327D8
:1029100044FD1D8F8327C4FDD8CB21A091472326DA
:10292000F4FE8327C4FD83C70700F59B13F7F70F59
:102930008327C4FD2380E7008327C4FE3E85B25071
:10294000225445618280797106D622D40018232E44
:10295000A4FC232CB4FC232AC4FC2328D4FC832706
:10296000C4FDB337F00093F7F70F3E8713067016D8
:10297000BD679385074D3A85EFF05F95832744FD4A
:10298000B337F00093F7F70F3E8713068016BD6745
:102990009385074D3A85EFF07F93232604FE832726
:1029A00084FD89E78D472326F4FE99AC8327C4FD77
:1029B00083C7070093E7470013F7F70F8327C4FD8A
:1029C0002380E7000325C4FDA1312324A4FE83272F
:1029D00044FD9C43032784FE637AF700832744FD6C
:1029E000032784FE98C395472326F4FE8327C4FD5E
:1029F000984F8327C4FD9C4BB307F7402322F4FE76
:102A0000832744FD9C43032744FE6365F70883271F
:102A1000C4FDDC4305476388E70289C7094763872C
:102A2000E704BDA28327C4FD98478327C4FD9C4BC0
:102A30003E97832744FD9C433E86BA85032584FD4B
:102A4000EF90C024B1A28327C4FD98478327C4FD1B
:102A50009C4B86073E97832744FD9C4386073E8612
:102A6000BA85032584FDEF9060221DA28327C4FD53
:102A700098478327C4FD9C4B8A073E97832744FDD4
:102A80009C438A073E86BA85032584FDEF9000208B
:102A90000100FDA88327C4FDDC430547638AE704E2
:102AA00089C70947638EE708E5A08327C4FD9847D7
:102AB0008327C4FD9C4BBA97032644FEBE8503259D
:102AC00084FDEF90A01C032784FD832744FEB306FA
:102AD000F7008327C4FD8C47832744FD9843832751
:102AE00044FEB307F7403E863685EF90201A4DA08E
:102AF0008327C4FD98478327C4FD9C4B86073E97D8
:102B0000832744FE86073E86BA85032584FDEF9021
:102B1000E017832744FE8607032784FDB306F700EA
:102B20008327C4FD8C47832744FD9843832744FEB5
:102B3000B307F74086073E863685EF90201589A8B3
:102B40008327C4FD98478327C4FD9C4B8A073E9783
:102B5000832744FE8A073E86BA85032584FDEF90CD
:102B6000E012832744FE8A07032784FDB306F7009B
:102B70008327C4FD8C47832744FD9843832744FE65
:102B8000B307F7408A073E863685EF902010010094
:102B9000832704FDB5E78327C4FD83C70700858B22
:102BA00093F7F70F89C789472326F4FE91A8832757
:102BB000C4FD83C7070093E7170013F7F70F8327B8
:102BC000C4FD2380E700832744FD9C43BE85032585
:102BD000C4FDEFF03F8F8327C4FDD84B832744FD0E
:102BE0009C433E978327C4FDD8CB8327C4FD83C76E
:102BF0000700F99B13F7F70F8327C4FD2380E70035
:102C00008327C4FD83C70700918B13F7F70F832732
:102C1000C4FD2380E7008327C4FE3E85B2502254C2
:102C200045618280797106D622D40018232EA4FC37
:102C3000232CB4FC232AC4FC2328D4FC8327C4FD02
:102C4000B337F00093F7F70F3E8713068021BD6777
:102C50009385074D3A85EFF06FE7232604FE83271F
:102C600044FD89E78D472326F4FE89A08327C4FD10
:102C7000032744FD98C78327C4FD238007008327CB
:102C8000C4FD032784FDD8C38327C4FD23A6070002
:102C90008327C4FD23A807008327C4FD032704FD61
:102CA000D8CB8327C4FD032704FD98CF8327C4FE18
:102CB0003E85B250225445618280411122C60008EF
:102CC0009967938787087390078001003244410118
:102CD0008280411122C60008996773900780010025
:102CE000324441018280011122CE00102326A4FE2D
:102CF0008327C4FEFD8B0547B316F70037E700E0D6
:102D00008327C4FE9583938707048A07BA9794C3E1
:102D10000100724405618280011122CE0010232639
:102D2000A4FE8327C4FEFD8B0547B316F70037E7E3
:102D300000E08327C4FE9583938707068A07BA9726
:102D400094C30100724405618280011122CE0010FB
:102D50002326A4FEAE87A305F4FE37E700E0832711
:102D6000C4FEBA970347B4FE2380E74001007244D3
:102D700005618280011106CE22CC00102326A4FE1C
:102D80000325C4FE8D370100F24062440561828054
:102D9000011106CE22CC00102326A4FE0325C4FE7A
:102DA000A53F0100F240624405618280011106CE18
:102DB00022CC00102326A4FEAE87A305F4FE834791
:102DC000B4FEBE850325C4FE49370100F2406244CB
:102DD00005618280011106CE22CC00102326A4FEBC
:102DE0008327C4FE99C783A741851387F7FF23AACA
:102DF000E18483A7418591E3C9350100F240624433
:102E000005618280411106C622C4000883A741855E
:102E100091E3C13583A741851387170023AAE18475
:102E200083A741853E85B240224441018280411101
:102E300006C622C400080145713F0100B240224489
:102E400041018280357106CF16CD1ACB1EC922C72B
:102E50002AC52EC332C1B6DEBADCBEDAC2D8C6D6A7
:102E6000F2D4F6D2FAD0FECE82E686E48AE28EE092
:102E700012FE16FC1AFA1EF82AF62EF432F236F07A
:102E80003AEE3EEC42EA46E872E676E47AE27EE02A
:102E9000001193055052B747014013850780EF306A
:102EA000A01BAA8789CB93055052B74701401385D1
:102EB0000780EF30802A0100FA40EA425A43CA43B1
:102EC0003A442A459A450A46F6566657D657465812
:102ED000B658265E965E065FF64F3660A6601661AF
:102EE00086617272E2725273C2733275A275127683
:102EF00082767267E2675268C268326EA26E126FA3
:102F0000826F0D6173002030357106CF16CD1ACB5C
:102F10001EC922C72AC52EC332C1B6DEBADCBEDA4C
:102F2000C2D8C6D6F2D4F6D2FAD0FECE82E686E475
:102F30008AE28EE012FE16FC1AFA1EF82AF62EF429
:102F400032F236F03AEE3EEC42EA46E872E676E4D9
:102F50007AE27EE0001193055052B7470040138596
:102F60000740EF30600FAA8789CB93055052B747CF
:102F7000004013850740EF30401E0100FA40EA424E
:102F80005A43CA433A442A459A450A46F656665772
:102F9000D6574658B658265E965E065FF64F3660A0
:102FA000A660166186617272E2725273C2733275E4
:102FB000A275127682767267E2675268C268326ED4
:102FC000A26E126F826F0D6173002030357106CFD3
:102FD00016CD1ACB1EC922C72AC52EC332C1B6DEF2
:102FE000BADCBEDAC2D8C6D6F2D4F6D2FAD0FECE59
:102FF00082E686E48AE28EE012FE16FC1AFA1EF8D9
:103000002AF62EF432F236F03AEE3EEC42EA46E888
:1030100072E676E47AE27EE0001193055052B757EB
:10302000004013850780EF302003AA8799CBEFF08B
:103030000F9F93055052B757004013850780EF301C
:10304000C0110100FA40EA425A43CA433A442A45B1
:103050009A450A46F6566657D6574658B658265EDB
:10306000965E065FF64F3660A660166186617272E4
:10307000E2725273C2733275A275127682767267EB
:10308000E2675268C268326EA26E126F826F0D6183
:1030900073002030357106CF16CD1ACB1EC922C75A
:1030A0002AC52EC332C1B6DEBADCBEDAC2D8C6D655
:1030B000F2D4F6D2FAD0FECE82E686E48AE28EE040
:1030C00012FE16FC1AFA1EF82AF62EF432F236F028
:1030D0003AEE3EEC42EA46E872E676E47AE27EE0D8
:1030E000001193055052B7570040138507C0EF20D9
:1030F000B076AA8789CB93055052B7570040138505
:1031000007C0EF3080050100FA40EA425A43CA4343
:103110003A442A459A450A46F6566657D6574658BF
:10312000B658265E965E065FF64F3660A66016615C
:1031300086617272E2725273C2733275A275127630
:1031400082767267E2675268C268326EA26E126F50
:10315000826F0D6173002030357106CF16CD1ACB0A
:103160001EC922C72AC52EC332C1B6DEBADCBEDAFA
:10317000C2D8C6D6F2D4F6D2FAD0FECE82E686E423
:103180008AE28EE012FE16FC1AFA1EF82AF62EF4D7
:1031900032F236F03AEE3EEC42EA46E872E676E487
:1031A0007AE27EE000119305505237550040EF203F
:1031B000B06AAA8799C79305505237550040EF204F
:1031C000D0790100FA40EA425A43CA433A442A45B8
:1031D0009A450A46F6566657D6574658B658265E5A
:1031E000965E065FF64F3660A66016618661727263
:1031F000E2725273C2733275A2751276827672676A
:10320000E2675268C268326EA26E126F826F0D6101
:1032100073002030357106CF16CD1ACB1EC922C7D8
:103220002AC52EC332C1B6DEBADCBEDAC2D8C6D6D3
:10323000F2D4F6D2FAD0FECE82E686E48AE28EE0BE
:1032400012FE16FC1AFA1EF82AF62EF432F236F0A6
:103250003AEE3EEC42EA46E872E676E47AE27EE056
:10326000001193055052B727004013850780EF20C7
:10327000B05EAA8789CB93055052B72700401385CB
:103280000780EF20906D0100FA40EA425A43CA439A
:103290003A442A459A450A46F6566657D65746583E
:1032A000B658265E965E065FF64F3660A6601661DB
:1032B00086617272E2725273C2733275A2751276AF
:1032C00082767267E2675268C268326EA26E126FCF
:1032D000826F0D6173002030717106D716D51AD335
:1032E0001ED122CF2ACD2ECB32C936C73AC53EC316
:1032F00042C1C6DEF2DCF6DAFAD8FED682EE86EC01
:103300008AEA8EE892E696E49AE29EE02AFE2EFC95
:1033100032FA36F83AF63EF442F246F072EE76ECC5
:103320007AEA7EE8001993055052B72700401385CA
:1033300007C0EF207052AA87638F070EA30F04F413
:1033400083C741896391070E9307F4F5BE8519453C
:10335000EFD09FE40347F4F5930750056313F7029A
:1033600083C78185138717009376F70F238CD18449
:10337000BE860347F4F5938701B8B6972380E7002C
:1033800049A003C7818585476310F70403C701B8C7
:1033900093075005631AF70283C7818513871700C7
:1033A0009376F70F238CD184BE860347F4F5938779
:1033B00001B8B6972380E7008347F4F51397070118
:1033C0004183239DE18435A883D7A1858D0703C759
:1033D000818563C8E70203C701B8930750056312EC
:1033E000F70283C78185138717009376F70F238C25
:1033F000D184BE860347F4F5938701B8B69723803E
:10340000E70083D7A1858D0703C7818563DDE700CA
:10341000238C01840547238AE188239D018481450B
:103420001945EFD03FCF93055052B7270040138581
:1034300007C0EF2090520100BA50AA521A538A5383
:103440007A446A45DA454A46BA462A479A470A48BC
:10345000F658665ED65E465FB65F7660E660566199
:10346000C6613662A662166386637275E27552762D
:10347000C2763277A27712788278726EE26E526FDD
:10348000C26F4D6173002030357106CF16CD1ACB57
:103490001EC922C72AC52EC332C1B6DEBADCBEDAC7
:1034A000C2D8C6D6F2D4F6D2FAD0FECE82E686E4F0
:1034B0008AE28EE012FE16FC1AFA1EF82AF62EF4A4
:1034C00032F236F03AEE3EEC42EA46E872E676E454
:1034D0007AE27EE000119305505237250040EF203C
:1034E000B037AA8789CBEFE02FBE9305505237251E
:1034F0000040EF2090460100FA40EA425A43CA4396
:103500003A442A459A450A46F6566657D6574658CB
:10351000B658265E965E065FF64F3660A660166168
:1035200086617272E2725273C2733275A27512763C
:1035300082767267E2675268C268326EA26E126F5C
:10354000826F0D6173002030357106CF16CD1ACB16
:103550001EC922C72AC52EC332C1B6DEBADCBEDA06
:10356000C2D8C6D6F2D4F6D2FAD0FECE82E686E42F
:103570008AE28EE012FE16FC1AFA1EF82AF62EF4E3
:1035800032F236F03AEE3EEC42EA46E872E676E493
:103590007AE27EE00011B707055083C7070193F771
:1035A000F70F918B9DC3B707002083A7C72782978A
:1035B000B707055083C7070113F7F70FB707055083
:1035C0006D9B1377F70F2388E7000100FA40EA426A
:1035D0005A43CA433A442A459A450A46F65666571C
:1035E000D6574658B658265E965E065FF64F36604A
:1035F000A660166186617272E2725273C27332758E
:10360000A275127682767267E2675268C268326E7D
:10361000A26E126F826F0D6173002030357106CF7C
:1036200016CD1ACB1EC922C72AC52EC332C1B6DE9B
:10363000BADCBEDAC2D8C6D6F2D4F6D2FAD0FECE02
:1036400082E686E48AE28EE012FE16FC1AFA1EF882
:103650002AF62EF432F236F03AEE3EEC42EA46E832
:1036600072E676E47AE27EE000110545EF10A018DC
:103670002A8785476315F7000545EF10201D0100D7
:10368000FA40EA425A43CA433A442A459A450A460E
:10369000F6566657D6574658B658265E965E065F6B
:1036A000F64F3660A660166186617272E2725273DE
:1036B000C2733275A275127682767267E2675268BB
:1036C000C268326EA26E126F826F0D61730020307D
:1036D000357106CF16CD1ACB1EC922C72AC52EC3F7
:1036E00032C1B6DEBADCBEDAC2D8C6D6F2D4F6D261
:1036F000FAD0FECE82E686E48AE28EE012FE16FC66
:103700001AFA1EF82AF62EF432F236F03AEE3EECB1
:1037100042EA46E872E676E47AE27EE00011094584
:10372000EF10600D2A8785476315F7000945EF10F4
:10373000E0110100FA40EA425A43CA433A442A459A
:103740009A450A46F6566657D6574658B658265EE4
:10375000965E065FF64F3660A660166186617272ED
:10376000E2725273C2733275A275127682767267F4
:10377000E2675268C268326EA26E126F826F0D618C
:1037800073002030357106CF16CD1ACB1EC922C763
:103790002AC52EC332C1B6DEBADCBEDAC2D8C6D65E
:1037A000F2D4F6D2FAD0FECE82E686E48AE28EE049
:1037B00012FE16FC1AFA1EF82AF62EF432F236F031
:1037C0003AEE3EEC42EA46E872E676E47AE27EE0E1
:1037D00000111145EF1020022A8785476315F70075
:1037E0001145EF10A0060100FA40EA425A43CA43CD
:1037F0003A442A459A450A46F6566657D6574658D9
:10380000B658265E965E065FF64F3660A660166175
:1038100086617272E2725273C2733275A275127649
:1038200082767267E2675268C268326EA26E126F69
:10383000826F0D6173002030357106CF16CD1ACB23
:103840001EC922C72AC52EC332C1B6DEBADCBEDA13
:10385000C2D8C6D6F2D4F6D2FAD0FECE82E686E43C
:103860008AE28EE012FE16FC1AFA1EF82AF62EF4F0
:1038700032F236F03AEE3EEC42EA46E872E676E4A0
:103880007AE27EE000112145EF00F0762A87854735
:103890006315F7002145EF00707B0100FA40EA4212
:1038A0005A43CA433A442A459A450A46F656665749
:1038B000D6574658B658265E965E065FF64F366077
:1038C000A660166186617272E2725273C2733275BB
:1038D000A275127682767267E2675268C268326EAB
:1038E000A26E126F826F0D6173002030357106CFAA
:1038F00016CD1ACB1EC922C72AC52EC332C1B6DEC9
:10390000BADCBEDAC2D8C6D6F2D4F6D2FAD0FECE2F
:1039100082E686E48AE28EE012FE16FC1AFA1EF8AF
:103920002AF62EF432F236F03AEE3EEC42EA46E85F
:1039300072E676E47AE27EE000114145EF00B06B7A
:103940002A8785476315F7004145EF003070010075
:10395000FA40EA425A43CA433A442A459A450A463B
:10396000F6566657D6574658B658265E965E065F98
:10397000F64F3660A660166186617272E27252730B
:10398000C2733275A275127682767267E2675268E8
:10399000C268326EA26E126F826F0D6173002030AA
:1039A000357106CF16CD1ACB1EC922C72AC52EC324
:1039B00032C1B6DEBADCBEDAC2D8C6D6F2D4F6D28E
:1039C000FAD0FECE82E686E48AE28EE012FE16FC93
:1039D0001AFA1EF82AF62EF432F236F03AEE3EECDF
:1039E00042EA46E872E676E47AE27EE000111305E8
:1039F0000002EF0050602A8785476316F700130521
:103A00000002EF00B06413050004EF00D05E2A87C7
:103A100085476316F70013050004EF0030631305B4
:103A20000008EF00505D2A8785476316F7001305ED
:103A30000008EF00B06113050010EF00D05B2A878B
:103A400085476316F70013050010EF00306013057B
:103A50000020EF00505A2A8785476316F7001305A8
:103A60000020EF00B05E0100FA40EA425A43CA4328
:103A70003A442A459A450A46F6566657D657465856
:103A8000B658265E965E065FF64F3660A6601661F3
:103A900086617272E2725273C2733275A2751276C7
:103AA00082767267E2675268C268326EA26E126FE7
:103AB000826F0D6173002030357106CF16CD1ACBA1
:103AC0001EC922C72AC52EC332C1B6DEBADCBEDA91
:103AD000C2D8C6D6F2D4F6D2FAD0FECE82E686E4BA
:103AE0008AE28EE012FE16FC1AFA1EF82AF62EF46E
:103AF00032F236F03AEE3EEC42EA46E872E676E41E
:103B00007AE27EE0001113050040EF00D04E2A87D4
:103B100085476316F70013050040EF0030538567B3
:103B200013850780EF00304D2A8785476317F7001C
:103B3000856713850780EF0070510565EF00B04B76
:103B40002A8785476315F7000565EF003050096542
:103B5000EF00704A2A8785476318F70083A78180A2
:103B600082970965EF00904E1165EF00D0482A87D3
:103B700085476317F700EFD01FD21165EF00104D96
:103B80002165EF0050472A8785476317F700EFD07C
:103B90003FC12165EF00904B0100FA40EA425A43D1
:103BA000CA433A442A459A450A46F6566657D657B6
:103BB0004658B658265E965E065FF64F3660A6609B
:103BC000166186617272E2725273C2733275A275A7
:103BD000127682767267E2675268C268326EA26EAF
:103BE000126F826F0D6173002030357106CF16CDD4
:103BF0001ACB1EC922C72AC52EC332C1B6DEBADC13
:103C0000BEDAC2D8C6D6F2D4F6D2FAD0FECE82E65A
:103C100086E48AE28EE012FE16FC1AFA1EF82AF6F4
:103C20002EF432F236F03AEE3EEC42EA46E872E624
:103C300076E47AE27EE000118545B73701401385CE
:103C400007C0EF10D07AAA8791CF8545B7370140DA
:103C5000138507C0EF20A000EF30E046138501A8D0
:103C6000EF30C07C0100FA40EA425A43CA433A446A
:103C70002A459A450A46F6566657D6574658B658C4
:103C8000265E965E065FF64F3660A6601661866118
:103C90007272E2725273C2733275A27512768276B4
:103CA0007267E2675268C268326EA26E126F826FEC
:103CB0000D6173002030357106CF16CD1ACB1EC9A9
:103CC00022C72AC52EC332C1B6DEBADCBEDAC2D8DC
:103CD000C6D6F2D4F6D2FAD0FECE82E686E48AE2E6
:103CE0008EE012FE16FC1AFA1EF82AF62EF432F2B4
:103CF00036F03AEE3EEC42EA46E872E676E47AE2E4
:103D00007EE00011854537050040EF10506EAA8710
:103D100091C7854537050040EF1070740100FA40E7
:103D2000EA425A43CA433A442A459A450A46F65655
:103D30006657D6574658B658265E965E065FF64FCB
:103D40003660A660166186617272E2725273C27347
:103D50003275A275127682767267E2675268C2681F
:103D6000326EA26E126F826F0D617300203035715A
:103D700006CF16CD1ACB1EC922C72AC52EC332C103
:103D8000B6DEBADCBEDAC2D8C6D6F2D4F6D2FAD0E3
:103D9000FECE82E686E48AE28EE012FE16FC1AFA75
:103DA0001EF82AF62EF432F236F03AEE3EEC42EAF3
:103DB00046E872E676E47AE27EE000118545B707D0
:103DC000004013850740EF109062AA8791CB85458C
:103DD000B707004013850740EF107068EF3080246C
:103DE0000100FA40EA425A43CA433A442A459A45F6
:103DF0000A46F6566657D6574658B658265E965E19
:103E0000065FF64F3660A660166186617272E272D6
:103E10005273C2733275A275127682767267E26748
:103E20005268C268326EA26E126F826F0D617300AB
:103E30002030357106CF16CD1ACB1EC922C72AC530
:103E40002EC332C1B6DEBADCBEDAC2D8C6D6F2D4D0
:103E5000F6D2FAD0FECE82E686E48AE28EE012FE48
:103E600016FC1AFA1EF82AF62EF432F236F03AEE62
:103E70003EEC42EA46E872E676E47AE27EE0001141
:103E80008545B717004013850780EF105056AA8765
:103E900081CB8545B717004013850780EF10305C54
:103EA0000100FA40EA425A43CA433A442A459A4535
:103EB0000A46F6566657D6574658B658265E965E58
:103EC000065FF64F3660A660166186617272E27216
:103ED0005273C2733275A275127682767267E26788
:103EE0005268C268326EA26E126F826F0D617300EB
:103EF0002030357106CF16CD1ACB1EC922C72AC570
:103F00002EC332C1B6DEBADCBEDAC2D8C6D6F2D40F
:103F1000F6D2FAD0FECE82E686E48AE28EE012FE87
:103F200016FC1AFA1EF82AF62EF432F236F03AEEA1
:103F30003EEC42EA46E872E676E47AE27EE0001180
:103F40008545B7170040138507C0EF10504AAA8770
:103F500081CB8545B7170040138507C0EF1030505F
:103F60000100FA40EA425A43CA433A442A459A4574
:103F70000A46F6566657D6574658B658265E965E97
:103F8000065FF64F3660A660166186617272E27255
:103F90005273C2733275A275127682767267E267C7
:103FA0005268C268326EA26E126F826F0D6173002A
:103FB0002030357106CF16CD1ACB1EC922C72AC5AF
:103FC0002EC332C1B6DEBADCBEDAC2D8C6D6F2D44F
:103FD000F6D2FAD0FECE82E686E48AE28EE012FEC7
:103FE00016FC1AFA1EF82AF62EF432F236F03AEEE1
:103FF0003EEC42EA46E872E676E47AE27EE00011C0
:10400000854537150040EF10903EAA8791C785453A
:1040100037150040EF10B0440100FA40EA425A431D
:10402000CA433A442A459A450A46F6566657D65731
:104030004658B658265E965E065FF64F3660A66016
:10404000166186617272E2725273C2733275A27522
:10405000127682767267E2675268C268326EA26E2A
:10406000126F826F0D6173002030357106CF16CD4F
:104070001ACB1EC922C72AC52EC332C1B6DEBADC8E
:10408000BEDAC2D8C6D6F2D4F6D2FAD0FECE82E6D6
:1040900086E48AE28EE012FE16FC1AFA1EF82AF670
:1040A0002EF432F236F03AEE3EEC42EA46E872E6A0
:1040B00076E47AE27EE000118545B717004013856B
:1040C0000740EF10D032AA8781CB8545B717004053
:1040D00013850740EF10B0380100FA40EA425A4316
:1040E000CA433A442A459A450A46F6566657D65771
:1040F0004658B658265E965E065FF64F3660A66056
:10410000166186617272E2725273C2733275A27561
:10411000127682767267E2675268C268326EA26E69
:10412000126F826F0D6173002030357106CF16CD8E
:104130001ACB1EC922C72AC52EC332C1B6DEBADCCD
:10414000BEDAC2D8C6D6F2D4F6D2FAD0FECE82E615
:1041500086E48AE28EE012FE16FC1AFA1EF82AF6AF
:104160002EF432F236F03AEE3EEC42EA46E872E6DF
:1041700076E47AE27EE000118545B7370140138589
:104180000740EF10D026AA8781CB8545B73701407D
:1041900013850740EF10B02C0100FA40EA425A4361
:1041A000CA433A442A459A450A46F6566657D657B0
:1041B0004658B658265E965E065FF64F3660A66095
:1041C000166186617272E2725273C2733275A275A1
:1041D000127682767267E2675268C268326EA26EA9
:1041E000126F826F0D6173002030357106CF16CDCE
:1041F0001ACB1EC922C72AC52EC332C1B6DEBADC0D
:10420000BEDAC2D8C6D6F2D4F6D2FAD0FECE82E654
:1042100086E48AE28EE012FE16FC1AFA1EF82AF6EE
:104220002EF432F236F03AEE3EEC42EA46E872E61E
:1042300076E47AE27EE000118545B75701401385A8
:1042400007C0EF10D01AAA8781CB8545B757014028
:10425000138507C0EF10B0200100FA40EA425A432C
:10426000CA433A442A459A450A46F6566657D657EF
:104270004658B658265E965E065FF64F3660A660D4
:10428000166186617272E2725273C2733275A275E0
:10429000127682767267E2675268C268326EA26EE8
:1042A000126F826F0D6173002030357106CF16CD0D
:1042B0001ACB1EC922C72AC52EC332C1B6DEBADC4C
:1042C000BEDAC2D8C6D6F2D4F6D2FAD0FECE82E694
:1042D00086E48AE28EE012FE16FC1AFA1EF82AF62E
:1042E0002EF432F236F03AEE3EEC42EA46E872E65E
:1042F00076E47AE27EE00011854537550140EF1003
:10430000100FAA8791C7854537550140EF1030152A
:104310000100FA40EA425A43CA433A442A459A45C0
:104320000A46F6566657D6574658B658265E965EE3
:10433000065FF64F3660A660166186617272E272A1
:104340005273C2733275A275127682767267E26713
:104350005268C268326EA26E126F826F0D61730076
:104360002030411122C6000801003244410173008F
:104370002030411122C6000801A0011106CE22CC36
:1043800000102326A4FEAE872315F4FE8327C4FE67
:10439000850783C70700A207139707014187832773
:1043A000C4FE83C70700C207C187D98F9396070150
:1043B000C1861397060141839375F70F03C70189DF
:1043C000018B3A862E87518F2388E1881397060147
:1043D0004183218313160701418203C71189018B91
:1043E000BA863287558FA388E1888327C4FE8D075C
:1043F00083C70700A2071397070141878327C4FEDD
:10440000890783C70700C207C187D98F9396070121
:10441000C186938701891397060141839375F70F2E
:1044200003C72700018B3A862E87518F2381E7002F
:10443000139706014183218313160701418203C7A5
:104440003700018BBA863287558FA381E70003C7F7
:10445000018983C71189A207D98FC207C187C20703
:10446000C187BE8613870189034727009387018987
:1044700083C73700A207D98FC207C187C207C18788
:104480003E86B685BD6713854752EF80E02A01005E
:10449000F240624405618280011106CE22CC0010F8
:1044A0002326A4FEAE872315F4FE8357A4FE3E8682
:1044B0008325C4FE1945EFC0BFB90100F240624434
:1044C00005618280757106C722C50009B7172707E5
:1044D000138507E0EFD04FF6EFD0FFF3996793868F
:1044E000D73899671386C738F16793850720194530
:1044F000EFC07FD0930784F72326F4FEB747000070
:1045000013868749B74700009385A7370325C4FE64
:10451000EF308070EF30A019EF30206AEF20902E3E
:10452000D30600F0530600F0D30500F0530500F069
:10453000138501A8EF201041EF2030331305007DD3
:10454000EFB09FD6530500F04165EF306019530579
:1045500000F0C16713851710EF308018BD6707A7FB
:10456000C752BD6787A7C7529305007DD305E720D3
:104570005385F720138501A8EF20D05301009387BE
:1045800001A883C7C702E5FF13074006239EE18603
:10459000BD6707A70753BD6787A7C7529305007D6F
:1045A000D305E7205385F720138501A8EF2090500D
:1045B0000100938701A883C7C702E5FF13074006E0
:1045C000239EE186BD6707A70753BD6787A70753EB
:1045D0009305007DD305E7205385F720138501A8B7
:1045E000EF20504D0100938701A883C7C702E5FF64
:1045F00013074006239EE186BD6707A7C752BD6724
:1046000087A707539305007DD305E7205385F7203F
:10461000138501A8EF20104A0100938701A883C7E2
:10462000C702E5FF13074006239EE186BD6707A783
:10463000C752BD6787A7C7529305007DD305E72002
:104640005385F720138501A8EF20D04601009387FA
:1046500001A883C7C702E5FF1307401F239EE18619
:1046600093054006D30500F0530500F0138501A81B
:10467000EF20504485451945EFC0DFA903C74189A4
:104680008547E31DF7FE13064006938501B8032511
:10469000C4FEEF30605B1146938501890325C4FE9B
:1046A000EF306061238A018885451945EFC09FA6D8
:1046B000F1B701A001A001A001A001A001A001A0EB
:1046C00001A001A001A001A001A001A001A001A0E2
:1046D00001A001A001A001A001A001A001A001A0D2
:1046E00001A001A001A001A001A001A001A001A0C2
:1046F00001A001A001A001A001A001A001A001A0B2
:1047000001A001A001A001A001A001A001A001A0A1
:1047100001A001A001A001A001A001A001A001A091
:1047200001A001A001A001A001A001A001A001A081
:1047300001A001A001A001A001A001A001A001A071
:1047400001A001A001A001A001A001A001A001A061
:1047500001A001A001A001A001A001A001A001A051
:1047600001A001A001A001A001A001A001A001A041
:1047700097C1FF1F9381813017B100201301814C35
:1047800017C500001305459E97C5FF1F9385858BB0
:104790001386818363FAC5008322050023A0550098
:1047A00011059105E3EAC5FE13858183938581BEDA
:1047B0006377B500232005001105E36DB5FEFD42CA
:1047C000739002BCFD4273904280B76200009382F6
:1047D000820873A0023097C2FFFF9382228693E281
:1047E000320073905230970200009382E2CD7390B2
:1047F000123473002030797122D60018232EA4FCC5
:10480000232604FE232404FEB707014093870740B4
:104810009C430327C4FDF98F2324F4FEB70701400E
:1048200093870740D84B8327C4FDF98F81CB83271B
:1048300084FE89C785472326F4FE19A0232604FE9B
:104840008327C4FE3E85325445618280011122CE09
:1048500000102326A4FEB7070140938707400327D3
:10486000C4FED8CB0100724405618280397122DE1A
:1048700080002326A4FC2324B4FC232604FE23204A
:1048800004FE232404FE232E04FC232204FE232CF6
:1048900004FC832784FC9C47BD8B2326F4FE8327DE
:1048A00084FC9C47C18B89CB832784FCDC43032792
:1048B000C4FED98F2326F4FE832784FC83D7070008
:1048C00093F7F70FF1CF8327C4FC9C432322F4FE18
:1048D000232404FE65A8832784FE0547B317F70049
:1048E000232EF4FC832784FC83D707003E8783278D
:1048F000C4FDF98F2320F4FE032704FE8327C4FDA3
:104900006311F708832784FE8A07232EF4FC83278C
:10491000C4FD3D47B317F700232CF4FC832784FD27
:1049200093C7F7FF032744FEF98F2322F4FE832762
:10493000C4FD0327C4FEB317F700032744FED98F35
:104940002322F4FE832784FC984793078002631B8D
:10495000F700832784FE05473317F7008327C4FC3D
:10496000D8CB05A0832784FC984793078004631A5B
:10497000F700832784FE05473317F7008327C4FC1D
:1049800098CB832784FE85072324F4FE032784FE27
:104990009D47E3F2E7F48327C4FC032744FE98C352
:1049A000832784FC03D707009307F00F63F1E70E1A
:1049B0008327C4FCDC432322F4FE232404FE75A8D1
:1049C000832784FEA1070547B317F700232EF4FCC5
:1049D000832784FC83D707003E878327C4FDF98F94
:1049E0002320F4FE032704FE8327C4FD6312F70887
:1049F000832784FE8A07232EF4FC8327C4FD3D47CA
:104A0000B317F700232CF4FC832784FD93C7F7FF2B
:104A1000032744FEF98F2322F4FE8327C4FD0327D6
:104A2000C4FEB317F700032744FED98F2322F4FEF8
:104A3000832784FC984793078002631BF700832732
:104A400084FEA10705473317F7008327C4FCD8CBA2
:104A5000832784FC984793078004631BF700832710
:104A600084FEA10705473317F7008327C4FC98CBC2
:104A7000832784FE85072324F4FE032784FE9D47B5
:104A8000E3F0E7F48327C4FC032744FED8C3010006
:104A9000725421618280011122CE00102326A4FECF
:104AA000AE872322C4FE2315F4FE832744FE99C754
:104AB0000357A4FE8327C4FE98CB31A00357A4FE5E
:104AC0008327C4FED8CB01007244056182807971CE
:104AD00022D60018232EA4FC232CB4FC232404FE8D
:104AE000232204FE232604FE232004FE8327C4FD84
:104AF00063D80700B7070140DC4F2326F4FE31A03E
:104B0000B7070140DC432326F4FE8327C4FDC1839D
:104B1000BD8B2320F4FE0327C4FDC167FD17F98F69
:104B20002324F4FE8327C4FD63D407080327C4FDB0
:104B3000B70730007D8FB70730006314F702832773
:104B400004FEC1070D47B317F7002322F4FE8327A5
:104B500044FE93C7F7FF0327C4FEF98F2326F4FE14
:104B6000C5A80327C4FDB7071000F98F95C3832795
:104B700004FE0D47B317F7002322F4FE832744FEFB
:104B800093C7F7FF0327C4FEF98F2326F4FEC9A0BD
:104B90008327C4FDD5839207032784FEB317F7004C
:104BA00093C7F7FF0327C4FEF98F2326F4FE4DA019
:104BB0000327C4FDB70730007D8FB70730006315AA
:104BC000F7020327C4FEB70700F1FD17F98F23266C
:104BD000F4FEB7070140D443B7070140370700F19F
:104BE0007D17758FD8C3ADA00327C4FDB70710008C
:104BF000F98F8DCB832704FE0D47B317F7002322CF
:104C0000F4FE832744FE93C7F7FF0327C4FEF98F02
:104C10002326F4FE0327C4FEB707000FD98F2326EF
:104C2000F4FE3DA08327C4FDD5839207032784FEAD
:104C3000B317F70093C7F7FF0327C4FEF98F2326A6
:104C4000F4FE0327C4FEB707000FD98F2326F4FE16
:104C5000832784FD91CF8327C4FDD5839207032743
:104C600084FEB317F7000327C4FED98F2326F4FE72
:104C70008327C4FD63D80700B70701400327C4FE9C
:104C8000D8CF31A0B70701400327C4FED8C3010025
:104C9000325445618280397122DE80002326A4FCD3
:104CA000232204FE232604FE232004FE232E04FCDC
:104CB000232404FEB7170240DC43B18B2322F4FE09
:104CC000032744FE91476303F702032744FEA147ED
:104CD0006306F702832744FE639907148327C4FC05
:104CE00037177A001307072098C389AA8327C4FCC3
:104CF00037177A001307072098C389A2B717024015
:104D0000D843B7073C00F98F2326F4FEB7170240BB
:104D1000D843C167F98F2320F4FE8327C4FEC983DB
:104D200089072326F4FEB7F7FF1F9387C7709843C0
:104D30009167F98F91EB0327C4FEC5476319F70408
:104D4000C9472326F4FEA1A00327C4FE89476315A3
:104D5000F700C9472326F4FE0327C4FEBD476318A6
:104D6000F700B5472326F4FE85472324F4FE0327E6
:104D7000C4FEC1476315F700BD472326F4FE032791
:104D8000C4FEC5476315F700C1472326F4FE8327F9
:104D900004FEA1E3B7470240938707809C43C18B81
:104DA00089CF0327C4FEB7177A00938707203307FC
:104DB000F7028327C4FC98C399A80327C4FEB7173A
:104DC0003D00938707903307F7028327C4FC98C3FD
:104DD0003DA8B7170240D843B7070200F98F89CF23
:104DE0000327C4FEB7173D00938707903307F702E8
:104DF0008327C4FC98C321A80327C4FEB7177A00F1
:104E0000938707203307F7028327C4FC98C303273F
:104E100084FE85476313F7028327C4FC9C4313D7A2
:104E200017008327C4FC98C309A88327C4FC37173D
:104E30007A001307072098C311A00100B71702409A
:104E4000DC4393F7070F2322F4FE832744FE91836C
:104E50002322F4FEB707002013874705832744FE6B
:104E6000BA9783C7070093F7F70F232EF4FC832725
:104E7000C4FC98438327C4FD3357F7008327C4FC41
:104E8000D8C3B7170240DC4393F707702322F4FE20
:104E9000832744FEA1832322F4FEB7070020138753
:104EA0004705832744FEBA9783C7070093F7F70F98
:104EB000232EF4FC8327C4FCD8438327C4FD335737
:104EC000F7008327C4FC98C7B7170240D8439167FF
:104ED00093870780F98F2322F4FE832744FEAD8356
:104EE0002322F4FEB707002013874705832744FEDB
:104EF000BA9783C7070093F7F70F232EF4FC832795
:104F0000C4FCD8438327C4FD3357F7008327C4FC70
:104F1000D8C7B7170240D843B167F98F2322F4FEF0
:104F2000832744FEB9832322F4FE1387418183271C
:104F300044FEBA9783C7070093F7F70F232EF4FCBC
:104F40008327C4FCD8478327C4FD3357F702832740
:104F5000C4FC98CB0100725421618280011122CEE1
:104F600000102326A4FE2324B4FE832784FE99CBBD
:104F7000B7170240944FB71702400327C4FE558F5E
:104F800098CF21A8B7170240944F8327C4FE13C7B8
:104F9000F7FFB7170240758F98CF01007244056183
:104FA0008280011122CE00102326A4FE2324B4FE09
:104FB000832784FE99CBB7170240D44FB71702401E
:104FC0000327C4FE558FD8CF21A8B7170240D44F6E
:104FD0008327C4FE13C7F7FFB7170240758FD8CFDA
:104FE0000100724405618280797122D60018232E57
:104FF000A4FC232CB4FC231704FE8327C4FD83D711
:1050000007002317F4FE0327C4FDB7370140938739
:1050100007C06306F7060327C4FDB7070040630017
:10502000F7060327C4FDB7070040938707406308CE
:10503000F7040327C4FDB717004093870780630078
:10504000F7040327C4FDB7170040938707C0630820
:10505000F7020327C4FDB737014093870740630079
:10506000F7020327C4FDB7570140938707C06308C1
:10507000F7000327C4FDB75701406311F7028357B8
:10508000E4FE93F7F7F82317F4FE832784FD03D794
:1050900027008357E4FED98F2317F4FE0327C4FDAE
:1050A000B71700406309F7020327C4FDB717004094
:1050B000938707406301F7028357E4FE93F7F7CF26
:1050C0002317F4FE832784FD03D767008357E4FE8C
:1050D000D98F2317F4FE8327C4FD0357E4FE2390E2
:1050E000E700832784FD03D747008327C4FD239669
:1050F000E702832784FD03D707008327C4FD239499
:10510000E7020327C4FDB7370140938707C0630850
:10511000F7020327C4FDB7370140938707406300B8
:10512000F7020327C4FDB7570140938707C0630800
:10513000F7000327C4FDB7570140631DF70083271D
:1051400084FD83C787001397070141838327C4FD2C
:105150002398E7028327C4FD0547239AE70001004F
:10516000325445618280797122D60018232EA4FC26
:10517000232CB4FC231504FE231704FE231604FE7F
:105180008327C4FD83D70702C207C183F99B139706
:10519000070141838327C4FD2390E7028327C4FDD1
:1051A00083D707022317F4FE8327C4FD83D7470064
:1051B0002316F4FE8327C4FD83D787012315F4FE4D
:1051C0008357A4FE93F7F7F82315F4FE8357A4FE44
:1051D000F19B2315F4FE832784FD03D70700835733
:1051E000A4FED98F2315F4FE8357E4FEF59B231705
:1051F000F4FE832784FD03D787008357E4FED98F0D
:105200002317F4FE832784FD03D727008357E4FE8A
:10521000D98F2317F4FE0327C4FDB73701409387C6
:1052200007C06308F7020327C4FDB737014093871F
:1052300007406300F7020327C4FDB7570140938777
:1052400007C06308F7000327C4FDB7570140631C7C
:10525000F7068357E4FEDD9B2317F4FE832784FDC6
:1052600003D7A7008357E4FED98F2317F4FE835793
:10527000E4FEED9B2317F4FE832784FD03D747004C
:105280008357E4FED98F2317F4FE8357C4FE93F7A8
:10529000F7EF2316F4FE8357C4FE93F7F7DF2316C8
:1052A000F4FE832784FD03D7C7008357C4FED98F3C
:1052B0002316F4FE832784FD03D7E7008357C4FE3B
:1052C000D98F2316F4FE8327C4FD0357C4FE23920F
:1052D000E7008327C4FD0357A4FE239CE700832730
:1052E00084FD03D767008327C4FD239AE702832741
:1052F000C4FD0357E4FE2390E702010032544561E8
:105300008280797122D60018232EA4FC232CB4FCB1
:10531000231504FE231704FE231604FE8327C4FD71
:1053200083D70702C207C183BD9B1397070141833F
:105330008327C4FD2390E7028327C4FD83D7070298
:105340002317F4FE8327C4FD83D747002316F4FEFA
:105350008327C4FD83D787012315F4FE0357A4FEDA
:10536000E577FD17F98F2315F4FE8357A4FE93F715
:10537000F7CF2315F4FE832784FD83D70700A20708
:105380001397070141838357A4FED98F2315F4FE99
:105390008357E4FE93F7F7FD2317F4FE832784FD7C
:1053A00083D7870092071397070141838357E4FE51
:1053B000D98F2317F4FE832784FD83D72700920714
:1053C0001397070141838357E4FED98F2317F4FE17
:1053D0000327C4FDB7370140938707C06308F7026E
:1053E0000327C4FDB7370140938707406300F702E6
:1053F0000327C4FDB7570140938707C06308F70030
:105400000327C4FDB75701406310F70A8357E4FE32
:1054100093F7F7F72317F4FE832784FD83D7A700BC
:1054200092071397070141838357E4FED98F23170F
:10543000F4FE8357E4FE93F7F7FB2317F4FE83276C
:1054400084FD83D747009207139707014183835751
:10545000E4FED98F2317F4FE8357C4FE93F7F7BFFA
:105460002316F4FE0357C4FEFD779387F77FF98F69
:105470002316F4FE832784FD83D7C7008A0713977A
:10548000070141838357C4FED98F2316F4FE832777
:1054900084FD83D7E7008A07139707014183835769
:1054A000C4FED98F2316F4FE8327C4FD0357C4FE20
:1054B0002392E7008327C4FD0357A4FE239CE70043
:1054C000832784FD03D767008327C4FD239CE7025D
:1054D0008327C4FD0357E4FE2390E7020100325402
:1054E00045618280797122D60018232EA4FC232CDA
:1054F000B4FC231504FE231704FE231604FE8327A1
:10550000C4FD83D70702C207C18393F7F7EF139750
:10551000070141838327C4FD2390E7028327C4FD4D
:1055200083D707022317F4FE8327C4FD83D74700E0
:105530002316F4FE8327C4FD83D7C7012315F4FE89
:105540008357A4FE93F7F7F82315F4FE8357A4FEC0
:10555000F19B2315F4FE832784FD03D707008357AF
:10556000A4FED98F2315F4FE8357E4FE93F7F7DFEB
:105570002317F4FE832784FD83D78700A2071397A0
:10558000070141838357E4FED98F2317F4FE832755
:1055900084FD83D72700A207139707014183835710
:1055A000E4FED98F2317F4FE0327C4FDB73701406B
:1055B000938707C06308F7020327C4FDB73701408C
:1055C000938707406300F7020327C4FDB7570140E4
:1055D000938707C06308F7000327C4FDB75701404E
:1055E0006312F70A0357E4FEFD779387F77FF98F7D
:1055F0002317F4FE832784FD83D7A700A207139700
:10560000070141838357E4FED98F2317F4FE8357A4
:10561000E4FE93F7F7BF2317F4FE832784FD83D7B7
:105620004700A2071397070141838357E4FED98FF0
:105630002317F4FE0357C4FEFD77FD17F98F2316D9
:10564000F4FE0357C4FEF977FD17F98F2316F4FE15
:10565000832784FD83D7C7009207139707014183EF
:105660008357C4FED98F2316F4FE832784FD83D786
:10567000E70092071397070141838357C4FED98F30
:105680002316F4FE8327C4FD0357C4FE2392E700CC
:105690008327C4FD0357A4FE239EE700832784FDD0
:1056A00003D767008327C4FD239EE7028327C4FD39
:1056B0000357E4FE2390E7020100325445618280E3
:1056C000797122D60018232EA4FC232CB4FC2316B7
:1056D00004FE231504FE231704FE8327C4FD83D78D
:1056E0000702139707014183FD77FD17F98F139781
:1056F000070141838327C4FD2390E7028327C4FD6C
:1057000083D707022315F4FE8327C4FD83D7470000
:105710002317F4FE8327C4FD83D7C7012316F4FEA5
:105720000357C4FEE577FD17F98F2316F4FE835760
:10573000C4FE93F7F7CF2316F4FE832784FD83D7A7
:105740000700A2071397070141838357C4FED98F2F
:105750002316F4FE0357A4FEF977FD17F98F2315DE
:10576000F4FE832784FD83D78700B20713970701D0
:1057700041838357A4FED98F2315F4FE832784FD2C
:1057800083D72700B2071397070141838357A4FEED
:10579000D98F2315F4FE0327C4FDB7370140938743
:1057A00007C06308F7020327C4FDB737014093879A
:1057B00007406300F7020327C4FDB75701409387F2
:1057C00007C06308F7000327C4FDB75701406316FD
:1057D000F7020357E4FEF177FD17F98F2317F4FE64
:1057E000832784FD83D7C7009A0713970701418356
:1057F0008357E4FED98F2317F4FE8327C4FD035794
:10580000E4FE2392E7008327C4FD0357C4FE239ED2
:10581000E700832784FD03D767008327C4FD239017
:10582000E7048327C4FD0357A4FE2390E702010089
:10583000325445618280011122CE00102326A4FE3D
:105840002324B4FE832784FE8DC38327C4FE83D71D
:105850000700C207C18393E717001397070141832D
:105860008327C4FE2390E70039A88327C4FE83D78B
:105870000700C207C183F99B139707014183832760
:10588000C4FE2390E700010072440561828001118B
:1058900022CE00102326A4FE2324B4FE832784FEF8
:1058A00095C38327C4FE83D7470413970701418319
:1058B000E177D98F1397070141838327C4FE239291
:1058C000E70415A08327C4FE83D747041397070175
:1058D0004183A167FD17F98F139707014183832740
:1058E000C4FE2392E7040100724405618280011125
:1058F00022CE00102326A4FEAE872322C4FE231549
:10590000F4FE832744FE9DC38327C4FE83D7C700CC
:105910001397070141838357A4FED98F139707017B
:1059200041838327C4FE2396E70035A08327C4FE66
:1059300083D7C7001397070141838357A4FE93C7FA
:10594000F7FFC207C183F98F1397070141838327AC
:10595000C4FE2396E70001007244056182807971DC
:1059600022D60018232EA4FCAE87231DF4FC231797
:1059700004FE8327C4FD83D787012317F4FE8357D2
:10598000E4FEDD9B2317F4FE0357E4FE8357A4FDDA
:10599000D98F2317F4FE8327C4FD0357E4FE239C0D
:1059A000E7000100325445618280797122D60018E7
:1059B000232EA4FCAE87231DF4FC231704FE8327AB
:1059C000C4FD83D787012317F4FE0357E4FEFD7758
:1059D0009387F77FF98F2317F4FE8357A4FDA2075F
:1059E0001397070141838357E4FED98F2317F4FEF1
:1059F0008327C4FD0357E4FE239CE70001003254D3
:105A000045618280797122D60018232EA4FCAE87CE
:105A1000231DF4FC231704FE8327C4FD83D7C7018D
:105A20002317F4FE8357E4FEDD9B2317F4FE035790
:105A3000E4FE8357A4FDD98F2317F4FE8327C4FD0A
:105A40000357E4FE239EE700010032544561828043
:105A5000797122D60018232EA4FCAE87231DF4FCF6
:105A6000231704FE8327C4FD83D7C7012317F4FE41
:105A70000357E4FEFD779387F77FF98F2317F4FE32
:105A80008357A4FDA2071397070141838357E4FEC0
:105A9000D98F2317F4FE8327C4FD0357E4FE239E0A
:105AA000E7000100325445618280797122D60018E6
:105AB000232EA4FCAE87231DF4FC231704FE8327AA
:105AC000C4FD83D787012317F4FE8357E4FEED9BC3
:105AD0002317F4FE0357E4FE8357A4FDD98F231741
