:100000006F40C057130000001300000013000000F1
:100010001300000013000000130000001300000094
:100020001300000013000000130000001300000084
:08003000130000007300100032
:100038000000000000000000BE420000CE420000A8
:1000480000000000C24400000000000000000000A2
:10005800C4440000C6440000000000000000000086
:10006800C844000000000000CA440000000000006E
:10007800CC440000CE440000D0440000D24400002C
:10008800D4440000D6440000803500003436000017
:10009800E83600009C37000050380000E2440000B9
:1000A800E4440000E6440000E8440000EA4400009C
:1000B800EC440000EE440000F0440000F24400006C
:1000C800F4440000F6440000F8440000043900003D
:1000D800FC4400004E3B00000045000002450000C3
:1000E800123C0000CA3C00008E3D00000A4500009A
:1000F8000C4500000E4500001045000012450000A8
:1001080014450000A22D0000662E00002A2F0000D2
:100118001C3A00001E450000204500002245000052
:100128008640000026450000284500002A450000BA
:100138002C4500002E4500004E3E000032450000D0
:10014800F22F0000B63000000E3F0000C63F00004E
:100158003C4500003E450000404500004245000087
:100168004445000046450000484500004A45000057
:100178004C4500004E45000050450000F860000066
:100188005445000056450000B03400007C310000A2
:1001980040320000F0330000604500004641000096
:1001A80064450000664500006845000006420000FE
:1001B8006C4500006E450000704500007245000067
:1001C8007445000076450000784500007A45000037
:1001D8000000000000000000000000000000000017
:1001E8000000000000000000000000000000000007
:0801F8000000000000000000FF
:100200003D432A876373C3029377F700BDEFADE5E3
:10021000937606FF3D8ABA960CC34CC30CC74CC7F5
:100220004107E36BD7FE11E28280B306C3408A0622
:100230009702000096966780A6002307B700A306E2
:10024000B7002306B700A305B7002305B700A30432
:10025000B7002304B700A303B7002303B700A3022A
:10026000B7002302B700A301B7002301B700A30022
:10027000B7002300B700828093F5F50F93968500B1
:10028000D58D93960501D58D61B79396270097027A
:10029000000096968682E78086FA9680C1171D8FA9
:1002A0003E96E374C3F8A5B7011122CE00102326B1
:1002B000A4FEAE87A305F4FE8347B4FE85CB832757
:1002C000C4FEBD8B0547B317F70093960701C182A3
:1002D0008327C4FE13D75700B70700200A07938768
:1002E0000704BA979C43368798CB3DA08327C4FE6A
:1002F000BD8B0547B317F70093960701C18283278B
:10030000C4FE13D75700B70700200A0793870704D6
:10031000BA979C433687D8CB01007244056182802E
:10032000011122CE00102326A4FE8327C4FE95834C
:1003300013F77700B70700200A0793870704BA97D7
:100340009C439C470327C4FE7D8B85463397E6007C
:10035000F98FB337F00093F7F70F3E8572440561CC
:100360008280797106D622D40018232EA4FC232C77
:10037000B4FCB2872328D4FCA30BF4FC232004FE96
:10038000232204FE232404FE8327C4FD958393F7D0
:10039000F70F9D8BA307F4FE8327C4FD93F7F70F98
:1003A000FD8B2307F4FE8347F4FE91E78545114555
:1003B000EF40901B91A80347F4FE85476317F700B1
:1003C00085452145EF40501A81A00347F4FE894737
:1003D0006317F70085454145EF40101935A00347E5
:1003E000F4FE8D476318F700854513050002EF40C2
:1003F000B01719A80347F4FE91476317F700854526
:1004000013050004EF4050168347E4FE0547B31779
:10041000F700C207C1832310F4FE032784FD85473C
:100420006317F702832704FDC207C183A183C207B4
:10043000C18389E78D472322F4FE11A8832704FD99
:10044000C207C183A183C207C1832322F4FE83278D
:1004500004FDC207C18393F7F70F2324F4FE03477B
:10046000F4FEB70700200A0793870704BA979C4356
:10047000130704FEBA853E85EF400020032784FD64
:1004800085476319F7020347F4FEB70700200A0700
:1004900093870704BA9794438347E4FE0547B3174D
:1004A000F700C207C183034774FD3A86BE853685CF
:1004B000EF40203F0100B2502254456182801D71FF
:1004C00086CEA2CC80102326A4FA2324B4FA854534
:1004D0000325C4FAEF00A077AA873E871306D0064B
:1004E000B567938587683A85EF103054832784FA7F
:1004F000B337F00093F7F70F3E871306F006B567A2
:10050000938587683A85EF105052832784FABD831C
:100510002315F4FE8357A4FE85073E87832784FABC
:10052000B3D7E7022314F4FE0325C4FAEF00807862
:10053000B7370140938707C02326F4FE0327C4FA88
:10054000A54763ECE7088327C4FA13972700B96728
:100550009387C798BA979C438287B73701409387A0
:1005600007C02326F4FE95A8B70700402326F4FE13
:10057000ADA0B7070040938707402326F4FEB1A83B
:10058000B7170040938707802326F4FEB9A0B7175A
:100590000040938707C02326F4FE81A0B7170040D0
:1005A0002326F4FE1DA8B717004093870740232693
:1005B000F4FE25A0B7370140938707402326F4FEB9
:1005C00029A8B7570140938707C02326F4FE31A01E
:1005D000B75701402326F4FE0100232E04FC2320FC
:1005E00004FE231204FE835784FE2310F4FE835777
:1005F000A4FE231EF4FC231104FE231F04FC23028B
:1006000004FE9307C4FDBE850325C4FEEF40807E33
:10061000054685450325C4FEEF50200E854503257C
:10062000C4FEEF508044B56703AE076613870766C4
:10063000032347001387076683288700138707660D
:100640000328C70013870766084B138707664C4BC0
:1006500013870766104F13870766544F1387076683
:10066000185393870766DC53232AC4FB232C64FAB0
:10067000232E14FB232004FD2322A4FC2324B4FCFA
:100680002326C4FC2328D4FC232AE4FC232CF4FCDA
:100690008327C4FA93F7F70F8A07130704FFBA9763
:1006A00083A747FC8D453E85EF2020668327C4FA4B
:1006B0008A07130704FFBA9783A747FC3E85EF20FC
:1006C000406185450325C4FEEF40B0770100F64048
:1006D000664425618280797106D622D40018232EC3
:1006E000A4FC232CB4FC032784FD8967938717712E
:1006F000B337F70093F7F70F3E8713065003B5673C
:100700009385876D3A85EF105032B7370140938754
:1007100007C02326F4FE8327C4FDC183BD8B254774
:10072000636EF70613972700B9679387479BBA97BD
:100730009C438287B7370140938707C02326F4FE86
:10074000B1A8B70700402326F4FE89A8B7070040E8
:10075000938707402326F4FE91A0B71700409387A4
:1007600007802326F4FE1DA8B7170040938707C013
:100770002326F4FE25A0B7370140938707402326A0
:10078000F4FE29A8B7570140938707C02326F4FE3B
:1007900031A0B75701402326F4FE01008327C4FE91
:1007A00083D7C7022315F4FE0357A4FE832784FDD5
:1007B0003307F702896793870771B357F70223144A
:1007C000F4FE8327C4FDA1838D8B81EB8327C4FEB8
:1007D000035784FE239AE702A9A88327C4FDA183B7
:1007E00013F7370085476319F7008327C4FE0357C3
:1007F00084FE239CE70235A88327C4FDA18313F759
:10080000370089476319F7008327C4FE035784FE26
:10081000239EE70239A88327C4FDA18313F737007D
:100820008D476318F7008327C4FE035784FE239087
:10083000E7040100B2502254456182805D7186C692
:10084000A2C48008232EA4FA232CB4FA232AC4FAC3
:100850008327C4FBC1838D453E85D52EAA873E875D
:100860001306D00AB5679385876D3A85EF10F01BA4
:10087000032744FB896793871771B337F70093F712
:10088000F70F3E871306F00AB5679385876D3A85A3
:10089000EF10B019232E04FC232004FE231204FEC3
:1008A000232604FC232804FC232A04FC232C04FC18
:1008B000231504FE8327C4FBC183BD8B3E85DD2E3B
:1008C0008327C4FB93F7F70F9306803101468545D4
:1008D0003E85413C85450545EF400049B73701401D
:1008E000938707C02326F4FE8327C4FBC183BD8BF7
:1008F0002547636EF70613972700B9679387C79D4F
:10090000BA979C438287B7370140938707C0232655
:10091000F4FEB1A8B70700402326F4FE89A8B70764
:100920000040938707402326F4FE91A0B7170040AC
:10093000938707802326F4FE1DA8B71700409387EE
:1009400007C02326F4FE25A0B73701409387074050
:100950002326F4FE29A8B7570140938707C0232612
:10096000F4FE31A0B75701402326F4FE010083278F
:10097000C4FB13D7C7008D47631AF7008545B70737
:1009800016001385070CEF30507515AA8327C4FB9A
:1009900013D7C700C547631AF7008545B707180086
:1009A00013850710EF30707319AA8327C4FB13D780
:1009B000C700C947631AF7008545B70718001385B4
:1009C0000720EF309071E5A88327C4FB13D7C70039
:1009D000CD47631AF7008545B70718001385073020
:1009E000EF30B06FE9A88327C4FB13D7C700930784
:1009F0002002631AF7008545B7171A001385078090
:100A0000EF30B06D6DA88327C4FB13D7C7009307E1
:100A10003002631AF7008545B7171A00138507C01F
:100A2000EF30B06B69A88327C4FB13D7C7009307C7
:100A300010036317F70085450565EF30106A41A084
:100A40008327C4FB13D7C70093071007631AF70067
:100A50008545B707008013854700EF30106885A0F3
:100A60008327C4FB13D7C70093073008631AF70026
:100A70008545B707138013850701EF30106681A005
:100A80008327C4FB13D7C70093071009631AF70025
:100A90008545B707158013850702EF30106405A060
:100AA0008327C4FB13D7C700930730096319F700E6
:100AB0008545B707158013850704EF30106203A73B
:100AC0000181832784FBB357F702C1832315F4FE0A
:100AD00003A701818357A4FE8507BE86832784FB75
:100AE000B387F602B357F7022314F4FE035784FECC
:100AF000832744FB3307F702896793870771B3574E
:100B0000F7022313F4FE835784FEFD17C207C18347
:100B10002310F4FE8357A4FE231EF4FC231104FECD
:100B2000231F04FC230204FE9307C4FDBE85032596
:100B3000C4FEEF40202C930700072316F4FC8547E2
:100B40002317F4FC231804FC835764FE2319F4FCD8
:100B50008947231AF4FC8947231BF4FC231C04FC5B
:100B6000231D04FC8327C4FBA1838D8B9DE3930786
:100B7000C4FCBE850325C4FEEF40A03FA14503256C
:100B8000C4FEEF40903E91450325C4FEEF40B052B5
:100B900045A08327C4FBA18313F73700854763155E
:100BA000F7029307C4FCBE850325C4FEEF40205620
:100BB000A1450325C4FEEF401040930500400325E6
:100BC000C4FEEF401054ADA08327C4FBA18313F7EC
:100BD000370089476314F7029307C4FCBE850325D9
:100BE000C4FEEF40E070A1450325C4FEEF40504233
:100BF00091450325C4FEEF4030561DA88327C4FB52
:100C0000A18313F737008D476314F7029307C4FCE1
:100C1000BE850325C4FEEF40700BA1450325C4FE2D
:100C2000EF40D043930500400325C4FEEF409057AA
:100C300085450325C4FEEF40502685450325C4FEA7
:100C4000EF4030200100B640264461618280797116
:100C500022D60018232EA4FC232CB4FC8547A3071E
:100C6000F4FE0327C4FD0A079387C189BA979C4302
:100C700099EB0327C4FD0A079387C189BA97032715
:100C800084FD98C315A00327C4FD0A079387C18973
:100C9000BA979C43032784FD6316F7008547A30793
:100CA000F4FE19A0A30704FE8347F4FE3E853254E8
:100CB00045618280011106CE22CC00102326A4FEBD
:100CC0008327C4FE81EB8545856713850780EF4048
:100CD000A0096DA80327C4FE85476317F700854563
:100CE0000545EF40C00C5DA00327C4FE894763178C
:100CF000F70085450945EF40800B49A80327C4FE4E
:100D00008D476317F70085451145EF40400ABDA8A0
:100D10000327C4FE91476317F70085452145EF403F
:100D20000009ADA00327C4FE95476317F70085456A
:100D30004145EF40C00799A80327C4FE99476318AF
:100D4000F700854513050002EF40600681A00327E8
:100D5000C4FE9D476317F70085450965EF40C00055
:100D600035A00327C4FEA1476318F7008545370562
:100D70000800EF30707F19A80327C4FEA54763174A
:100D8000F700854537051000EF30107E0100F24076
:100D9000624405618280797122D60018232EA4FC5A
:100DA000B7370140938707C02326F4FE231504FEBE
:100DB0000327C4FDA54763ECE7088327C4FD139709
:100DC0002700B967938747A0BA979C438287B737B4
:100DD0000140938707C02326F4FE95A8B70700407B
:100DE0002326F4FEADA0B7070040938707402326D3
:100DF000F4FEB1A8B7170040938707802326F4FEBE
:100E0000B9A0B7170040938707C02326F4FE81A03E
:100E1000B71700402326F4FE1DA8B717004093879C
:100E200007402326F4FE25A0B737014093870740EB
:100E30002326F4FE29A8B7570140938707C023262D
:100E4000F4FE31A0B75701402326F4FE010003272A
:100E5000C4FD0A079387418CBA9798438947631F5B
:100E6000F7008327C4FE83D7470213970701418306
:100E70008D47B357F7022315F4FE39A08327C4FE2C
:100E800083D747022315F4FE8357A4FE3E853254D0
:100E900045618280797122D60018232EA4FCB737D1
:100EA0000140938707C02326F4FE0327C4FDA5470E
:100EB00063ECE7088327C4FD13972700B96793877E
:100EC000C7A2BA979C438287B7370140938707C070
:100ED0002326F4FE95A8B70700402326F4FEADA014
:100EE000B7070040938707402326F4FEB1A8B71741
:100EF0000040938707802326F4FEB9A0B71700406F
:100F0000938707C02326F4FE81A0B717004023264D
:100F1000F4FE1DA8B7170040938707402326F4FE70
:100F200025A0B7370140938707402326F4FE29A860
:100F3000B7570140938707C02326F4FE31A0B75767
:100F400001402326F4FE01008327C4FE23920702FA
:100F50000100325445618280011122CE0010232607
:100F6000A4FEAE87A305F4FE0100B9670327C4FE03
:100F70000A07938747A5BA979C4383D70700C20700
:100F8000C18393F70708F5D3B9670327C4FE0A079F
:100F9000938747A5BA979C433E878347B4FEC20711
:100FA000C1832312F70001007244056182800111A0
:100FB00006CE22CC00102326A4FE2324B4FE232236
:100FC000C4FE832784FEB337F00093F7F70F3E8704
:100FD00013061004B567938587723A85EF10E024F5
:100FE00029A8832784FE138717002324E4FE83C7E0
:100FF0000700BE850325C4FE8537832744FE13877B
:10100000F7FF2322E4FEF1FF0100F2406244056194
:101010008280011106CE22CC00102326A4FE2324B8
:10102000B4FE832784FEB337F00093F7F70F3E87B3
:1010300013060005B567938587723A85EF10E01EA9
:1010400039A8832784FE138717002324E4FE8387AF
:10105000070093F7F70FBE850325C4FEF53D8327F0
:1010600084FE83870700F1FF0100F24062440561BE
:101070008280011106CE22CC00102326A4FEAE876A
:10108000A305F4FEB9670327C4FE0A07938747A5A3
:10109000BA979C433E878347B4FE3E8693055052E1
:1010A0003A85EF40B0481387C1828327C4FEBA97C0
:1010B00083C7070081453E85EF1030458347B4FE66
:1010C00081CF1387C1828327C4FEBA9783C70700E5
:1010D0003E85EF10104019A81387C1828327C4FEF4
:1010E000BA9783C707003E85EF1070400100F240B9
:1010F000624405618280011122CE00102326A4FEE5
:101100002324B4FEB9670327C4FE0A07938747A5C3
:10111000BA979C4383D70700C207C18393F707029E
:101120008DC7B9670327C4FE0A07938747A5BA97F7
:101130009C4383D74700C207C18313F7F70F832768
:1011400084FE2380E700854711A081473E857244D5
:1011500005618280797106D622D40018232EA4FC62
:10116000232CB4FC232AC4FC2328D4FC032744FDED
:10117000832704FD3D8F8327C4FDB207F98F93B702
:10118000170093F7F70F3E871306A00AB5679385FC
:1011900087723A85EF106009832744FD13D78700D3
:1011A000832704FDA183B307F74093B7170093F794
:1011B000F70F3E871306B00AB567938587723A85A5
:1011C000EF10A006832744FD93F7F70FE146014691
:1011D00085453E85EFF0EF98832704FD93F7F70FE1
:1011E00093068004014681453E85EFF08F97854543
:1011F0000545EF307037032744FDC167FD17F98FB0
:101200000D67130707386387E7200D671307073853
:101210006369F7040567130757166381E7160567C7
:1012200013075716636FF7001307F022638AE70C62
:10123000130760306381E710130760126388E708C3
:1012400065A6096713078736638BE7160D671307D3
:1012500007126387E71809671307A7146380E71469
:1012600061A615671307A738638EE726156713076E
:10127000A7386362F7021167130787386380E72096
:101280001567130787126385E72211671307471253
:10129000638CE71A91AE19671307C7386388E72A8A
:1012A00019671307C7386368F700196713076710D2
:1012B0006384E72615AE1D671307E7106382E72CEA
:1012C0001D671307E7386387E72E39AEB70701407C
:1012D000D44FB7070140370700FC7D17758FD8CF73
:1012E000B7070140D843B70701406D9BD8C3B70784
:1012F0000140D843B707014013674700D8C3EDA4A6
:10130000B7070140D44FB7070140370700FC7D17EE
:10131000758FD8CFB7070140D44FB70701403707C3
:101320000004558FD8CFB7070140D843B707014015
:101330006D9BD8C355ACB7070140D44FB7070140E8
:10134000370700FC7D17758FD8CFB7070140D44F02
:10135000B707014037070004558FD8CFB7070140C2
:10136000D843B70701406D9BD8C3B7070140D843A6
:10137000B707014013674700D8C3BDA4B7070140B2
:10138000D843B70701405D9BD8C3B7070140D84396
:10139000B707014013678700D8C3B9A4B707014056
:1013A000D843B70701401377F7FCD8C3B70701400C
:1013B000D843B707014013670701D8C335A4B7075F
:1013C0000140D843B70701401377F7FCD8C3B707EC
:1013D0000140D843B707014013670703D8C329A4C6
:1013E000B7070140D44FB70701403707FDFF7D170E
:1013F000758FD8CFB7070140D44F832744FDA18311
:1014000013970701B70703007D8FB7070140558F7A
:10141000D8CFD9AAB7070140D44FB7070140370743
:10142000FDFF7D17758FD8CFB7070140D44F8327B5
:1014300044FDA18313970701B70703007D8FB7070A
:101440000140558FD8CF4DA2B7070140D44FB70701
:1014500001403707F4FF7D17758FD8CFB7070140DC
:10146000D44F832744FDA18313972701B7070C00AE
:101470007D8FB7070140558FD8CFBDA2B707014078
:10148000D44FB70701403707F4FF7D17758FD8CFCA
:10149000B7070140D44F832744FDA1831397270149
:1014A000B7070C007D8FB7070140558FD8CF2DAA05
:1014B000B7070140D44FB70701403707D0FF7D176A
:1014C000758FD8CFB7070140D44F832744FDA18340
:1014D00013974701B70730007D8FB7070140558F3D
:1014E000D8CF19A2B7070140D44FB707014037073B
:1014F000D0FF7D17758FD8CFB7070140D44F832712
:1015000044FDA18313974701B70730007D8FB707CC
:101510000140558FD8CFC9A8B7070140D44FB707AE
:101520000140370740FF7D17758FD8CFB7070140BF
:10153000D44F832744FDA18313976701B707C000E9
:101540007D8FB7070140558FD8CF79A8B7070140E5
:10155000D44FB7070140370740FF7D17758FD8CFAD
:10156000B7070140D44F832744FDA1831397670138
:10157000B707C0007D8FB7070140558FD8CFADA00A
:10158000B7070140D44FB7070140370700FD7D176B
:10159000758FD8CFB7070140D44F832744FDA1836F
:1015A00013978701B70700037D8FB7070140558F59
:1015B000D8CF1DA8B7070140D44FB7070140370760
:1015C00000FD7D17758FD8CFB7070140D44F832713
:1015D00044FDA18313978701B70700037D8FB707E9
:1015E0000140558FD8CF01008327C4FD91E7854581
:1015F0001165EF30607769A80327C4FD854763183C
:10160000F700854537050200EF30607A51A00327C7
:10161000C4FD89476318F700854537050400EF309E
:101620000079BDA00327C4FD8D476318F7008545E9
:1016300037050800EF30A077A1A80327C4FD914724
:101640006318F700854537051000EF30407689A014
:101650000327C4FD95476318F7008545130500046B
:10166000EF30E07435A00327C4FD99476318F700F5
:10167000854513050008EF30807319A80327C4FDC2
:101680009D476317F700854513050010EF30207262
:10169000232004FE232204FE232404FE232604FE2A
:1016A000832784FD2320F4FE231204FE231304FE6B
:1016B000231404FE231604FEB1472315F4FEB96774
:1016C0000327C4FD0A07938747A5BA979C433E8723
:1016D000930704FEBE853A85EF40003CB9670327B7
:1016E000C4FD0A07938747A5BA979C4385453E8565
:1016F000EF40C05D0100B25022544561828041112B
:1017000006C622C4000883A741840547638BE7000F
:101710006388070C0947638DE7000D47638FE70275
:10172000E9A083A701841387170023A0E18475A88B
:1017300083A701841387170023A0E18403A70184F2
:10174000A54763F1E70AB7070020938707049C4B7E
:101750001167D8CB23A0018471A003A7818485479A
:101760006314F7081305F008EFE09FBBAA87ADC329
:101770001945EFF04FE2AA873E8783A701841D8FAA
:101780009307600963F2E7061945EFF0AFF083A70E
:101790000184D3F717D05385F720EF80807BB5679E
:1017A00003A6877783A6C777EF700040AA872E88A5
:1017B0003E85C285EF80A062AA8713970701418307
:1017C000B7070020239CE726094723A4E18429A822
:1017D0001945EFF04FDCAA873E8723A0E18429A0BA
:1017E000010021A0010011A001000100B24022442B
:1017F00041018280411106C622C4000883A74184AA
:101800000947637CF7000D47639AE7001945EFF03D
:101810006FE8054723A4E18411A001000100B24054
:10182000224441018280011106CE22CC00102322E5
:1018300004FE83C7D184638A070E09A8930734FE88
:101840000546BE851385C18EEF009056930734FE82
:10185000BE851D45EFF03F8AAA87EDF3034734FEAE
:10186000A9476314F70C99472322F4FE130744FE9B
:10187000930784FE85463A86BE851385C18EEF1098
:101880006002930784FE138737000D46B567938582
:1018900007783A85EF902036AA879DEB03A741850C
:1018A0008947630DF706054723AAE1841385C18E96
:1018B000EF00F04BAA872322F4FE930744FE8146F3
:1018C0003E86938581981385C18EEF00B07DB9A0C7
:1018D000930784FE138737000D46B56793854778D5
:1018E0003A85EF904031AA8795EB03A70185894798
:1018F0006306F702054723A8E1841385C18EEF0034
:101900001047AA872322F4FE930744FE81463E86B1
:10191000938581901385C18EEF00D0781385C18E99
:10192000EF00103505472386E1840100F240624450
:1019300005618280411122C6000801003244410144
:101940008280411122C60008B71702409843B7179A
:1019500002401367170098C3B7170240D443B71764
:1019600002403707FFF8758FD8C3B717024094437A
:10197000B71702403707F7FE7D17758F98C3B71763
:1019800002409443B71702403707FCFF7D17758F5D
:1019900098C3B7170240D443B7170240370781FFF7
:1019A0007D17758FD8C3B717024037079F0098C7B8
:1019B0000100324441018280797106D622D4001898
:1019C000232EA4FCBD3F232604FE232404FEB717C8
:1019D00002409443B71702404167558F98C3B71729
:1019E00002409843B7070200F98F2324F4FE8327AF
:1019F000C4FE85072326F4FE832784FE91E7032790
:101A0000C4FE8567E31DF7FCB71702409843B7078C
:101A10000200F98F89C785472324F4FE19A02324E7
:101A200004FE032784FE85476312F716371702402A
:101A3000B71702405843D8C337170240B7170240C0
:101A40005843D8C337170240B71702405843D8C38A
:101A5000B7170240D443B71702403707C1FF7D17BD
:101A6000758FD8C30327C4FDB747950893870740F0
:101A7000631BF700B7170240D443B7170240416712
:101A8000558FD8C355A80327C4FDB71727079387D9
:101A900007E0631CF700B7170240D443B7170240B2
:101AA00037073900558FD8C341A80327C4FDB7E7CE
:101AB000B80593870780631CF700B7170240D4432B
:101AC000B717024037072900558FD8C3B5A00327A1
:101AD000C4FDB7A74A0493870720631CF700B71714
:101AE0000240D443B717024037071D00558FD8C3B3
:101AF000A1A00327C4FDB777DC02938707C0631C4E
:101B0000F700B7170240D443B71702403707110058
:101B1000558FD8C315A00327C4FDB7376E0193872F
:101B20000760631BF700B7170240D443B7170240A2
:101B300037070500558FD8C3B71702409443B7172E
:101B4000024037070001558F98C30100B7170240C4
:101B50009843B7070002F98FF5DBB7170240D84367
:101B6000B7170240719BD8C3B7170240D843B717C5
:101B7000024013672700D8C30100B7170240DC43B7
:101B800013F7C700A147E31AF7FE11A001A0B25056
:101B9000225445618280011106CE22CC00102326FA
:101BA000A4FE0327C4FE23A8E180613B0325C4FEF5
:101BB0002135EF10A01D0100F240624405618280D2
:101BC000411122C600080100010032444101828017
:101BD000011106CE22CC0010232604FE232404FE8D
:101BE000232604FE25A0232404FE39A0D13F832709
:101BF00084FE85072324F4FE032784FEC167E36780
:101C0000F7FE8327C4FE85072326F4FE0327C4FEC0
:101C10009307F00FE3F9E7FC0100F240624405612D
:101C20008280411122C600080100324441018280B5
:101C3000011106CE22CC00102326A4FE8325C4FE6B
:101C40000945EFF00FBD0100F2406244056182805A
:101C5000130101D92326112623248126232291262C
:101C6000801C232EA4D8232CB4D8232AC4D82328FC
:101C7000D4D8231504FE231404FE231304FE2312D8
:101C800004FE231104FE032584D9EF80B075AA87D2
:101C9000C207C1872313F4FE83D741A689C7938760
:101CA00041A69C4B829783C7918593F7F70F638D6D
:101CB000074A83D741A663870744938741A6D44741
:101CC000835724FE13970701418793170701C183A8
:101CD0008507C207C183C207C1872311F4FE93178A
:101CE0000701C1830326C4D9BE8501458296832797
:101CF00084D92326F4FE032584D9EF80B06EAA8709
:101D0000C207C1872313F4FE938741A683D7270018
:101D10003E87938741A683C76700B347F702C20790
:101D2000C1872312F4FE01008327C4FE1387170026
:101D30002326E4FE83870700E5FB231404FEA1A805
:101D40008327C4FEFD172326F4FE8327C4FE0387E2
:101D500007009307F002630AF7008327C4FE038796
:101D600007009307C005631BF700835784FEC20773
:101D7000C1838507C207C1832314F4FE835764FE21
:101D8000C207C187C207C183FD17C207C183C2074B
:101D9000C1872313F4FE835784FE13970701418301
:101DA000854763E8E700835764FEC207C187E3D92C
:101DB00007F8835764FEC207C18763C207028327FF
:101DC000C4FE85072326F4FE130704EE0326C4FE93
:101DD000B967938507873A85EF80705C1DA88357A4
:101DE00084FEC207C18381EF130704EE0326C4FEFD
:101DF000B9679385C7873A85EF80705A19A813078A
:101E000004EE0326C4FEB967938507873A85EF8001
:101E10001059231504FE21AA231404FE59A0930788
:101E200004EE3E85EF80105C2A87835784FEC2074C
:101E3000C183BE868357A4FEC207C1833E868357F3
:101E400044FEC207C187B307F602B6976367F70679
:101E5000835784FEC207C1833E878357A4FEC2070F
:101E6000C183BE86835744FEC207C187B387F6028B
:101E7000BA97035784FE42074183BA86130704FFCB
:101E8000BA97038707EF930704FFB6972388E7EA1B
:101E9000835784FEC207C1838507C207C183231409
:101EA000F4FE835784FEC207C1833E87835744FEF6
:101EB000C207C187E345F7F611A00100835784FEEE
:101EC000C207C183130704FFBA97238807EA9387E1
:101ED00041A603A8C700938741A683C7770013973D
:101EE00007014183835724FE93960701C186939788
:101EF0000601C1838507C207C183C207C1872311B9
:101F0000F4FE93970601C183B307F702C207C183AA
:101F1000130704EA3A86BE85014502988357A4FE5A
:101F2000C207C1838507C207C1832315F4FE835707
:101F3000A4FEC207C183BE84930704EE3E85EF80F2
:101F4000704A2A87835744FEC207C187B357F702F6
:101F50008507E3E3F4EC130704EE032644D9B967DD
:101F60009385C7883A85EF809043938741A603A85D
:101F7000C700938741A683C7770013970701418362
:101F8000835724FE93960701C18693970601C18368
:101F90008507C207C183C207C1872311F4FE939747
:101FA0000601C183B307F702C207C183130704EE1A
:101FB0003A86BE8501450298832704D96386071AAD
:101FC000231504FE21AA231404FE59A0032504D9D5
:101FD000EF8050412A87835784FEC207C183BE86A3
:101FE0008357A4FEC207C1833E86835744FEC207BF
:101FF000C187B307F602B6976368F706835784FE76
:10200000C207C1833E878357A4FEC207C183BE8631
:10201000835744FEC207C187B387F602BA973E874B
:10202000832704D9BA97035784FE42074183BA86AF
:1020300003870700930704FFB6972388E7EA8357CF
:1020400084FEC207C1838507C207C1832314F4FE3F
:10205000835784FEC207C1833E87835744FEC2076D
:10206000C187E345F7F611A00100835784FEC2073C
:10207000C183130704FFBA97238807EA938741A611
:1020800003A8C700938741A683C77700139707016A
:102090004183835724FE93960701C18693970601D7
:1020A000C1838507C207C183C207C1872311F4FE1C
:1020B00093970601C183B307F702C207C1831307D1
:1020C00004EA3A86BE85014502988357A4FEC207FA
:1020D000C1838507C207C1832315F4FE8357A4FE7D
:1020E000C207C183BE84032504D9EF80B02F2A879D
:1020F000835744FEC207C187B357F7028507E3E45D
:10210000F4EC9DA0930704DA1306001081453E8588
:10211000EFE00F8F938741A69C470325C4D9829790
:10212000832704D999CF130504DA032704D983261A
:1021300044D9032684D9B96793858789EF803026EF
:1021400029A8130704DA832644D9032684D9B9675A
:102150009385478B3A85EF809024938741A69847D3
:10216000930704DA3E85029701008320C1260324E9
:10217000812683244126130101278280411106C64E
:1021800022C4000883C7918593F7F70F81CF938509
:1021900081850945EFE03FF60546938581851385E6
:1021A00081A439210100B240224441018280797129
:1021B00006D622D40018232EA4FC232CB4FC232AF8
:1021C000C4FC232604FEA9A00100B967938747A594
:1021D0009C47930500043E85EF307044AA87F5D7ED
:1021E000B967938747A59C47BE86832784FD1387DD
:1021F0001700232CE4FC83870700C207C183BE8538
:102200003685EF30F03E8327C4FE85072326F4FE93
:102210000327C4FE832744FDE348F7FA832744FDE0
:102220003E85B250225445618280011106CE22CCF7
:102230000010AA872324B4FE2322C4FEA307F4FEC1
:102240008347F4FEB1E383C7418193F7F70F8DCF46
:1022500083C7A18591C301A083C7A185850713F713
:10226000F70F238DE184EF00D02FEFF09F9B814685
:10227000032644FE832584FEB9671385C78CEFF0DF
:102280003F9DEFF0FF94E5B70100F2406244056125
:102290008280011122CE00102326A4FE8327C4FED3
:1022A000239007008327C4FE7D572391E7008327EF
:1022B000C4FE7D572392E7008327C4FE7D57238306
:1022C000E7008327C4FE7D57A383E7008327C4FE6E
:1022D00023A407008327C4FE23A607008327C4FE88
:1022E00023A807000100724405618280011122CEFB
:1022F00000102326A4FE8327C4FE03D707002392E1
:10230000E1A68327C4FE03D72700938741A6239124
:10231000E7008327C4FE03D74700938741A6239293
:10232000E7008327C4FE03C76700938741A6238382
:10233000E7008327C4FE03C77700938741A6A383E2
:10234000E7008327C4FE9847938741A698C7832751
:10235000C4FED847938741A6D8C78327C4FE984BAD
:10236000938741A698CB0547A38CE1840100724472
:1023700005618280797106D622D400189307C4FDC6
:102380003E85013FB7270000938707C32322F4FE51
:102390009307C4FD3E85993F89679386B702896795
:1023A0001386A702F167938507200945EFE09FDABE
:1023B00093060004138681A08145138581A4EF0054
:1023C000407C85450945EFE0DFCA0100B250225448
:1023D00045618280011122CE00102326A4FE232411
:1023E000B4FE8327C4FED847832784FE3E97832705
:1023F000C4FED8C719A88327C4FED8478327C4FEC4
:102400009C4F1D8F8327C4FED8C78327C4FE984FD7
:102410008327C4FEDC47E3F0E7FE01007244056158
:102420008280011122CE00102326A4FE2324B4FEB4
:102430008327C4FE984B832784FE3E978327C4FEE0
:1024400098CB19A88327C4FE984B8327C4FE9C4FC2
:102450001D8F8327C4FE98CB8327C4FE984F832704
:10246000C4FE9C4BE3F0E7FE0100724405618280EC
:10247000797106D622D40018232EA4FC8327C4FD2C
:10248000B337F00093F7F70F3E8713064005B9679F
:102490009385878E3A85513B232604FE8327C4FD0E
:1024A00083C70700858B93F7F70F89C789472326D2
:1024B000F4FE7DA08327C4FD83C7070093E71700C0
:1024C00013F7F70F8327C4FD2380E7008327C4FD9C
:1024D00023A607008327C4FD23A807008327C4FD84
:1024E000984F8327C4FDD8CB8327C4FDDC43054721
:1024F0006383E70289C70947638CE702B9A0832792
:10250000C4FD98478327C4FD9C4F3E8681453A858C
:10251000EFD01FCF1DA88327C4FD98478327C4FD94
:102520009C4F86073E8681453A85EFD07FCD31A806
:102530008327C4FD98478327C4FD9C4F8A073E86A6
:1025400081453A85EFD0DFCB01008327C4FD83C7E7
:102550000700F99B13F7F70F8327C4FD2380E700DB
:102560008327C4FE3E85B25022544561828001110A
:1025700006CE22CC00102326A4FE8327C4FEB33748
:10258000F00093F7F70F3E871306C007B9679385EE
:10259000878E3A8559398327C4FE984F8327C4FE16
:1025A000DC4BB307F7403E85F24062440561828010
:1025B000797106D622D40018232EA4FC232CB4FC57
:1025C000232AC4FC8327C4FDB337F00093F7F70F29
:1025D0003E871306C00BB9679385878E3A85B13164
:1025E000232604FE232404FE832784FD89E78D47E8
:1025F0002326F4FE4DA48327C4FD83C70700898BDF
:1026000093F7F70F89C785472326F4FE69A483272C
:10261000C4FD83C7070093E7270013F7F70F83274D
:10262000C4FD2380E7008327C4FDDC4B032744FD62
:1026300063E5E7248327C4FD984F8327C4FDDC4767
:10264000B307F7402324F4FE032744FD832784FEC9
:1026500063FCE7168327C4FDDC430547638DE7066B
:1026600089C709476385E70EFDAA8327C4FD9847FC
:102670008327C4FDDC47BA97032684FE832584FDA7
:102680003E85EF70F022832584FE0325C4FD993337
:102690008327C4FD98478327C4FDDC47B306F700B2
:1026A000032784FD832784FEB305F700032744FD39
:1026B000832784FEB307F7403E863685EF70501FB0
:1026C000032744FD832784FEB307F740BE85032517
:1026D000C4FD093349AA8327C4FD98478327C4FD55
:1026E000DC4786073E97832784FE86073E86832540
:1026F00084FD3A85EF70D01B832584FE0325C4FD3D
:10270000D1398327C4FD98478327C4FDDC4786075A
:10271000B306F700832784FE8607032784FDB305ED
:10272000F700032744FD832784FEB307F74086079D
:102730003E863685EF70D017032744FD832784FE3D
:10274000B307F740BE850325C4FD693129AA832755
:10275000C4FD98478327C4FDDC478A073E9783273B
:1027600084FE8A073E86832584FD3A85EF705014E7
:10277000832584FE0325C4FDB1398327C4FD984712
:102780008327C4FDDC478A07B306F700832784FE4E
:102790008A07032784FDB305F700032744FD832739
:1027A00084FEB307F7408A073E863685EF705010E7
:1027B000032744FD832784FEB307F740BE85032526
:1027C000C4FD0939010045A08327C4FDDC4305474A
:1027D000638BE70289C70947638FE70469A08327F2
:1027E000C4FD98478327C4FDDC47BA97032644FD00
:1027F000832584FD3E85EF70B00B832544FD0325C2
:10280000C4FDC93E8DA08327C4FD98478327C4FD1E
:10281000DC4786073E97832744FD86073E8683254F
:1028200084FD3A85EF70D008832544FD0325C4FD5F
:10283000EFF05FBA0DA88327C4FD98478327C4FD36
:10284000DC478A073E97832744FD8A073E86832517
:1028500084FD3A85EF70D005832544FD0325C4FD32
:10286000EFF05FB701008327C4FDD84B832744FDF9
:102870001D8F8327C4FDD8CB21A091472326F4FECA
:102880008327C4FD83C70700F59B13F7F70F832742
:10289000C4FD2380E7008327C4FE3E85B250225446
:1028A00045618280797106D622D40018232EA4FCBB
:1028B000232CB4FC232AC4FC2328D4FC8327C4FD86
:1028C000B337F00093F7F70F3E8713067016B9671A
:1028D0009385878E3A85EFF05F95832744FDB33764
:1028E000F00093F7F70F3E8713068016B9679385BC
:1028F000878E3A85EFF07F93232604FE832784FD9D
:1029000089E78D472326F4FE99AC8327C4FD83C74E
:10291000070093E7470013F7F70F8327C4FD2380D1
:10292000E7000325C4FDA1312324A4FE832744FD31
:102930009C43032784FE637AF700832744FD032723
:1029400084FE98C395472326F4FE8327C4FD984F41
:102950008327C4FD9C4BB307F7402322F4FE832753
:1029600044FD9C43032744FE6365F7088327C4FDA9
:10297000DC4305476388E70289C709476387E704A3
:10298000BDA28327C4FD98478327C4FD9C4B3E9777
:10299000832744FD9C433E86BA85032584FDEF7062
:1029A0002071B1A28327C4FD98478327C4FD9C4BA7
:1029B00086073E97832744FD9C4386073E86BA855B
:1029C000032584FDEF70C06E1DA28327C4FD9847C8
:1029D0008327C4FD9C4B8A073E97832744FD9C4375
:1029E0008A073E86BA85032584FDEF70606C01007E
:1029F000FDA88327C4FDDC430547638AE70489C734
:102A00000947638EE708E5A08327C4FD984783271D
:102A1000C4FD9C4BBA97032644FEBE85032584FD66
:102A2000EF700069032784FD832744FEB306F70097
:102A30008327C4FD8C47832744FD9843832744FEA6
:102A4000B307F7403E863685EF7080664DA083273A
:102A5000C4FD98478327C4FD9C4B86073E97832778
:102A600044FE86073E86BA85032584FDEF704064E8
:102A7000832744FE8607032784FDB306F7008327D8
:102A8000C4FD8C47832744FD9843832744FEB30746
:102A9000F74086073E863685EF70806189A88327D8
:102AA000C4FD98478327C4FD9C4B8A073E97832724
:102AB00044FE8A073E86BA85032584FDEF70405F99
:102AC000832744FE8A07032784FDB306F700832784
:102AD000C4FD8C47832744FD9843832744FEB307F6
:102AE000F7408A073E863685EF70805C01008327B9
:102AF00004FDB5E78327C4FD83C70700858B93F7E3
:102B0000F70F89C789472326F4FE91A88327C4FDC0
:102B100083C7070093E7170013F7F70F8327C4FD58
:102B20002380E700832744FD9C43BE850325C4FD25
:102B3000EFF03F8F8327C4FDD84B832744FD9C4390
:102B40003E978327C4FDD8CB8327C4FD83C70700E6
:102B5000F99B13F7F70F8327C4FD2380E700832732
:102B6000C4FD83C70700918B13F7F70F8327C4FDBC
:102B70002380E7008327C4FE3E85B250225445617E
:102B80008280797106D622D40018232EA4FC232C2F
:102B9000B4FC232AC4FC2328D4FC8327C4FDB33708
:102BA000F00093F7F70F3E8713068021B9679385EE
:102BB000878E3A85EFF06FE7232604FE832744FDD6
:102BC00089E78D472326F4FE89A08327C4FD0327C8
:102BD00044FD98C78327C4FD238007008327C4FDD5
:102BE000032784FDD8C38327C4FD23A607008327BA
:102BF000C4FD23A807008327C4FD032704FDD8CB09
:102C00008327C4FD032704FD98CF8327C4FE3E8598
:102C1000B250225445618280411122C60008996752
:102C200093878708739007800100324441018280B6
:102C3000411122C600089967739007800100324451
:102C400041018280011122CE00102326A4FE832799
:102C5000C4FEFD8B0547B316F70037E700E0832776
:102C6000C4FE9583938707048A07BA9794C301002B
:102C7000724405618280011122CE00102326A4FE39
:102C80008327C4FEFD8B0547B316F70037E700E046
:102C90008327C4FE9583938707068A07BA9794C350
:102CA0000100724405618280011122CE00102326AA
:102CB000A4FEAE87A305F4FE37E700E08327C4FE39
:102CC000BA970347B4FE2380E740010072440561D0
:102CD0008280011106CE22CC00102326A4FE0325FB
:102CE000C4FE8D370100F24062440561828001110B
:102CF00006CE22CC00102326A4FE0325C4FEA53F49
:102D00000100F240624405618280011106CE22CCAE
:102D100000102326A4FEAE87A305F4FE8347B4FE6D
:102D2000BE850325C4FE49370100F24062440561B7
:102D30008280011106CE22CC00102326A4FE832718
:102D4000C4FE99C783A7C1851387F7FF23AEE1842B
:102D500083A7C18591E3C9350100F2406244056152
:102D60008280411106C622C4000883A7C18591E371
:102D7000C13583A7C1851387170023AEE18483A7DC
:102D8000C1853E85B240224441018280411106C680
:102D900022C400080145713F0100B24022444101B4
:102DA0008280357106CF16CD1ACB1EC922C72AC51F
:102DB0002EC332C1B6DEBADCBEDAC2D8C6D6F2D471
:102DC000F6D2FAD0FECE82E686E48AE28EE012FEE9
:102DD00016FC1AFA1EF82AF62EF432F236F03AEE03
:102DE0003EEC42EA46E872E676E47AE27EE00011E2
:102DF00093055052B747014013850780EF30800696
:102E0000AA8789CB93055052B747014013850780A5
:102E1000EF3060150100FA40EA425A43CA433A448F
:102E20002A459A450A46F6566657D6574658B65822
:102E3000265E965E065FF64F3660A6601661866176
:102E40007272E2725273C2733275A2751276827612
:102E50007267E2675268C268326EA26E126F826F4A
:102E60000D6173002030357106CF16CD1ACB1EC907
:102E700022C72AC52EC332C1B6DEBADCBEDAC2D83A
:102E8000C6D6F2D4F6D2FAD0FECE82E686E48AE244
:102E90008EE012FE16FC1AFA1EF82AF62EF432F212
:102EA00036F03AEE3EEC42EA46E872E676E47AE242
:102EB0007EE0001193055052B7470040138507404C
:102EC000EF20507AAA8789CB93055052B74700402C
:102ED00013850740EF3020090100FA40EA425A43C7
:102EE000CA433A442A459A450A46F6566657D65783
:102EF0004658B658265E965E065FF64F3660A66068
:102F0000166186617272E2725273C2733275A27573
:102F1000127682767267E2675268C268326EA26E7B
:102F2000126F826F0D6173002030357106CF16CDA0
:102F30001ACB1EC922C72AC52EC332C1B6DEBADCDF
:102F4000BEDAC2D8C6D6F2D4F6D2FAD0FECE82E627
:102F500086E48AE28EE012FE16FC1AFA1EF82AF6C1
:102F60002EF432F236F03AEE3EEC42EA46E872E6F1
:102F700076E47AE27EE0001193055052B7570040A4
:102F800013850780EF20106EAA8799CBEFF00F9F73
:102F900093055052B757004013850780EF20B07C4F
:102FA0000100FA40EA425A43CA433A442A459A4544
:102FB0000A46F6566657D6574658B658265E965E67
:102FC000065FF64F3660A660166186617272E27225
:102FD0005273C2733275A275127682767267E26797
:102FE0005268C268326EA26E126F826F0D617300FA
:102FF0002030357106CF16CD1ACB1EC922C72AC57F
:103000002EC332C1B6DEBADCBEDAC2D8C6D6F2D41E
:10301000F6D2FAD0FECE82E686E48AE28EE012FE96
:1030200016FC1AFA1EF82AF62EF432F236F03AEEB0
:103030003EEC42EA46E872E676E47AE27EE000118F
:1030400093055052B7570040138507C0EF20906199
:10305000AA8789CB93055052B7570040138507C004
:10306000EF2070700100FA40EA425A43CA433A44E2
:103070002A459A450A46F6566657D6574658B658D0
:10308000265E965E065FF64F3660A6601661866124
:103090007272E2725273C2733275A27512768276C0
:1030A0007267E2675268C268326EA26E126F826FF8
:1030B0000D6173002030357106CF16CD1ACB1EC9B5
:1030C00022C72AC52EC332C1B6DEBADCBEDAC2D8E8
:1030D000C6D6F2D4F6D2FAD0FECE82E686E48AE2F2
:1030E0008EE012FE16FC1AFA1EF82AF62EF432F2C0
:1030F00036F03AEE3EEC42EA46E872E676E47AE2F0
:103100007EE000119305505237550040EF20905556
:10311000AA8781CFB707002083A7C7278297930587
:10312000505237550040EF2010640100FA40EA4247
:103130005A43CA433A442A459A450A46F6566657C0
:10314000D6574658B658265E965E065FF64F3660EE
:10315000A660166186617272E2725273C273327532
:10316000A275127682767267E2675268C268326E22
:10317000A26E126F826F0D6173002030357106CF21
:1031800016CD1ACB1EC922C72AC52EC332C1B6DE40
:10319000BADCBEDAC2D8C6D6F2D4F6D2FAD0FECEA7
:1031A00082E686E48AE28EE012FE16FC1AFA1EF827
:1031B0002AF62EF432F236F03AEE3EEC42EA46E8D7
:1031C00072E676E47AE27EE0001193055052B7276A
:1031D000004013850780EF20F048AA8789CB93052C
:1031E0005052B727004013850780EF20D0570100C9
:1031F000FA40EA425A43CA433A442A459A450A46A3
:10320000F6566657D6574658B658265E965E065FFF
:10321000F64F3660A660166186617272E272527372
:10322000C2733275A275127682767267E26752684F
:10323000C268326EA26E126F826F0D617300203011
:10324000717106D716D51AD31ED122CF2ACD2ECB17
:1032500032C936C73AC53EC342C1C6DEF2DCF6DA31
:10326000FAD8FED682EE86EC8AEA8EE892E696E4FA
:103270009AE29EE02AFE2EFC32FA36F83AF63EF446
:1032800042F246F072EE76EC7AEA7EE80019930597
:103290005052B7270040138507C0EF20B03CAA87E3
:1032A000638F070EA30F04F483C7C1886391070ED1
:1032B0009307F4F5BE851945EFD0FFE30347F4F516
:1032C000930750056313F70283C70186138717001E
:1032D0009376F70F2380D186BE860347F4F5938754
:1032E00081B4B6972380E70049A003C701868547CC
:1032F0006310F70403C781B493075005631AF702FC
:1033000083C70186138717009376F70F2380D18632
:10331000BE860347F4F5938781B4B6972380E70010
:103320008347F4F51397070141832391E18635A87C
:1033300083D721868D0703C7018663C8E70203C7C9
:1033400081B4930750056312F70283C70186138780
:1033500017009376F70F2380D186BE860347F4F5D6
:10336000938781B4B6972380E70083D721868D07A2
:1033700003C7018663DDE7002380018605472386B6
:10338000E1882391018681451945EFD09FCE9305B1
:103390005052B7270040138507C0EF20D03C0100F2
:1033A000BA50AA521A538A537A446A45DA454A46B1
:1033B000BA462A479A470A48F658665ED65E465F7E
:1033C000B65F7660E6605661C6613662A6621663D5
:1033D00086637275E2755276C2763277A27712787A
:1033E0008278726EE26E526FC26F4D617300203050
:1033F000357106CF16CD1ACB1EC922C72AC52EC3DA
:1034000032C1B6DEBADCBEDAC2D8C6D6F2D4F6D243
:10341000FAD0FECE82E686E48AE28EE012FE16FC48
:103420001AFA1EF82AF62EF432F236F03AEE3EEC94
:1034300042EA46E872E676E47AE27EE0001193051D
:10344000505237250040EF20F021AA8789CBEFE0CA
:103450008FBD9305505237250040EF20D03001003A
:10346000FA40EA425A43CA433A442A459A450A4630
:10347000F6566657D6574658B658265E965E065F8D
:10348000F64F3660A660166186617272E272527300
:10349000C2733275A275127682767267E2675268DD
:1034A000C268326EA26E126F826F0D61730020309F
:1034B000357106CF16CD1ACB1EC922C72AC52EC319
:1034C00032C1B6DEBADCBEDAC2D8C6D6F2D4F6D283
:1034D000FAD0FECE82E686E48AE28EE012FE16FC88
:1034E0001AFA1EF82AF62EF432F236F03AEE3EECD4
:1034F00042EA46E872E676E47AE27EE00011B70737
:10350000055083C7070193F7F70F918B8DC383A7EE
:1035100081808297B707055083C7070113F7F70F1C
:10352000B70705506D9B1377F70F2388E70001005D
:10353000FA40EA425A43CA433A442A459A450A465F
:10354000F6566657D6574658B658265E965E065FBC
:10355000F64F3660A660166186617272E27252732F
:10356000C2733275A275127682767267E26752680C
:10357000C268326EA26E126F826F0D6173002030CE
:10358000357106CF16CD1ACB1EC922C72AC52EC348
:1035900032C1B6DEBADCBEDAC2D8C6D6F2D4F6D2B2
:1035A000FAD0FECE82E686E48AE28EE012FE16FCB7
:1035B0001AFA1EF82AF62EF432F236F03AEE3EEC03
:1035C00042EA46E872E676E47AE27EE000110545DA
:1035D000EF1020032A8785476315F7000545EF1094
:1035E000A0070100FA40EA425A43CA433A442A4536
:1035F0009A450A46F6566657D6574658B658265E36
:10360000965E065FF64F3660A6601661866172723E
:10361000E2725273C2733275A27512768276726745
:10362000E2675268C268326EA26E126F826F0D61DD
:1036300073002030357106CF16CD1ACB1EC922C7B4
:103640002AC52EC332C1B6DEBADCBEDAC2D8C6D6AF
:10365000F2D4F6D2FAD0FECE82E686E48AE28EE09A
:1036600012FE16FC1AFA1EF82AF62EF432F236F082
:103670003AEE3EEC42EA46E872E676E47AE27EE032
:1036800000110945EF00F0772A8785476315F70099
:103690000945EF00707C0100FA40EA425A43CA43F0
:1036A0003A442A459A450A46F6566657D65746582A
:1036B000B658265E965E065FF64F3660A6601661C7
:1036C00086617272E2725273C2733275A27512769B
:1036D00082767267E2675268C268326EA26E126FBB
:1036E000826F0D6173002030357106CF16CD1ACB75
:1036F0001EC922C72AC52EC332C1B6DEBADCBEDA65
:10370000C2D8C6D6F2D4F6D2FAD0FECE82E686E48D
:103710008AE28EE012FE16FC1AFA1EF82AF62EF441
:1037200032F236F03AEE3EEC42EA46E872E676E4F1
:103730007AE27EE000111145EF00B06C2A878547E0
:103740006315F7001145EF0030710100FA40EA42BD
:103750005A43CA433A442A459A450A46F65666579A
:10376000D6574658B658265E965E065FF64F3660C8
:10377000A660166186617272E2725273C27332750C
:10378000A275127682767267E2675268C268326EFC
:10379000A26E126F826F0D6173002030357106CFFB
:1037A00016CD1ACB1EC922C72AC52EC332C1B6DE1A
:1037B000BADCBEDAC2D8C6D6F2D4F6D2FAD0FECE81
:1037C00082E686E48AE28EE012FE16FC1AFA1EF801
:1037D0002AF62EF432F236F03AEE3EEC42EA46E8B1
:1037E00072E676E47AE27EE000112145EF00706136
:1037F0002A8785476315F7002145EF00F065010032
:10380000FA40EA425A43CA433A442A459A450A468C
:10381000F6566657D6574658B658265E965E065FE9
:10382000F64F3660A660166186617272E27252735C
:10383000C2733275A275127682767267E267526839
:10384000C268326EA26E126F826F0D6173002030FB
:10385000357106CF16CD1ACB1EC922C72AC52EC375
:1038600032C1B6DEBADCBEDAC2D8C6D6F2D4F6D2DF
:10387000FAD0FECE82E686E48AE28EE012FE16FCE4
:103880001AFA1EF82AF62EF432F236F03AEE3EEC30
:1038900042EA46E872E676E47AE27EE000114145CB
:1038A000EF0030562A8785476315F7004145EF0042
:1038B000B05A0100FA40EA425A43CA433A442A4500
:1038C0009A450A46F6566657D6574658B658265E63
:1038D000965E065FF64F3660A6601661866172726C
:1038E000E2725273C2733275A27512768276726773
:1038F000E2675268C268326EA26E126F826F0D610B
:1039000073002030357106CF16CD1ACB1EC922C7E1
:103910002AC52EC332C1B6DEBADCBEDAC2D8C6D6DC
:10392000F2D4F6D2FAD0FECE82E686E48AE28EE0C7
:1039300012FE16FC1AFA1EF82AF62EF432F236F0AF
:103940003AEE3EEC42EA46E872E676E47AE27EE05F
:10395000001113050002EF00D04A2A87854763163D
:10396000F70013050002EF00304F13050004EF00CD
:1039700050492A8785476316F70013050004EF00B6
:10398000B04D13050008EF00D0472A87854763161E
:10399000F70013050008EF00304C13050010EF008E
:1039A00050462A8785476316F70013050010EF007D
:1039B000B04A13050020EF00D0442A8785476316DC
:1039C000F70013050020EF0030490100FA40EA42F9
:1039D0005A43CA433A442A459A450A46F656665718
:1039E000D6574658B658265E965E065FF64F366046
:1039F000A660166186617272E2725273C27332758A
:103A0000A275127682767267E2675268C268326E79
:103A1000A26E126F826F0D6173002030357106CF78
:103A200016CD1ACB1EC922C72AC52EC332C1B6DE97
:103A3000BADCBEDAC2D8C6D6F2D4F6D2FAD0FECEFE
:103A400082E686E48AE28EE012FE16FC1AFA1EF87E
:103A50002AF62EF432F236F03AEE3EEC42EA46E82E
:103A600072E676E47AE27EE0001113050040EF0092
:103A700050392A8785476316F70013050040EF0089
:103A8000B03D856713850780EF00B0372A878547EB
:103A90006317F700856713850780EF00F03B056526
:103AA000EF0030362A8785476315F7000565EF007C
:103AB000B03A0965EF00F0342A8785476318F700AC
:103AC00083A7C18082970965EF0010391165EF0067
:103AD00050332A8785476317F700EFD0BFD11165B0
:103AE000EF0090372165EF00D0312A8785476317B3
:103AF000F700EFD0DFC02165EF0010360100FA407B
:103B0000EA425A43CA433A442A459A450A46F65677
:103B10006657D6574658B658265E965E065FF64FED
:103B20003660A660166186617272E2725273C27369
:103B30003275A275127682767267E2675268C26841
:103B4000326EA26E126F826F0D617300203035717C
:103B500006CF16CD1ACB1EC922C72AC52EC332C125
:103B6000B6DEBADCBEDAC2D8C6D6F2D4F6D2FAD005
:103B7000FECE82E686E48AE28EE012FE16FC1AFA97
:103B80001EF82AF62EF432F236F03AEE3EEC42EA15
:103B900046E872E676E47AE27EE000118545B737C2
:103BA0000140138507C0EF105065AA8791CB85456A
:103BB000B7370140138507C0EF10306BEF3040314D
:103BC0000100FA40EA425A43CA433A442A459A4518
:103BD0000A46F6566657D6574658B658265E965E3B
:103BE000065FF64F3660A660166186617272E272F9
:103BF0005273C2733275A275127682767267E2676B
:103C00005268C268326EA26E126F826F0D617300CD
:103C10002030357106CF16CD1ACB1EC922C72AC552
:103C20002EC332C1B6DEBADCBEDAC2D8C6D6F2D4F2
:103C3000F6D2FAD0FECE82E686E48AE28EE012FE6A
:103C400016FC1AFA1EF82AF62EF432F236F03AEE84
:103C50003EEC42EA46E872E676E47AE27EE0001163
:103C6000854537050040EF105059AA8791C7854513
:103C700037050040EF10705F0100FA40EA425A43F6
:103C8000CA433A442A459A450A46F6566657D657D5
:103C90004658B658265E965E065FF64F3660A660BA
:103CA000166186617272E2725273C2733275A275C6
:103CB000127682767267E2675268C268326EA26ECE
:103CC000126F826F0D6173002030357106CF16CDF3
:103CD0001ACB1EC922C72AC52EC332C1B6DEBADC32
:103CE000BEDAC2D8C6D6F2D4F6D2FAD0FECE82E67A
:103CF00086E48AE28EE012FE16FC1AFA1EF82AF614
:103D00002EF432F236F03AEE3EEC42EA46E872E643
:103D100076E47AE27EE000118545B707004013851E
:103D20000740EF10904DAA8791CB8545B70700401B
:103D300013850740EF107053EF30600F0100FA4019
:103D4000EA425A43CA433A442A459A450A46F65635
:103D50006657D6574658B658265E965E065FF64FAB
:103D60003660A660166186617272E2725273C27327
:103D70003275A275127682767267E2675268C268FF
:103D8000326EA26E126F826F0D617300203035713A
:103D900006CF16CD1ACB1EC922C72AC52EC332C1E3
:103DA000B6DEBADCBEDAC2D8C6D6F2D4F6D2FAD0C3
:103DB000FECE82E686E48AE28EE012FE16FC1AFA55
:103DC0001EF82AF62EF432F236F03AEE3EEC42EAD3
:103DD00046E872E676E47AE27EE000118545B717A0
:103DE000004013850780EF105041AA8781CB85459D
:103DF000B717004013850780EF1030470100FA40E5
:103E0000EA425A43CA433A442A459A450A46F65674
:103E10006657D6574658B658265E965E065FF64FEA
:103E20003660A660166186617272E2725273C27366
:103E30003275A275127682767267E2675268C2683E
:103E4000326EA26E126F826F0D6173002030357179
:103E500006CF16CD1ACB1EC922C72AC52EC332C122
:103E6000B6DEBADCBEDAC2D8C6D6F2D4F6D2FAD002
:103E7000FECE82E686E48AE28EE012FE16FC1AFA94
:103E80001EF82AF62EF432F236F03AEE3EEC42EA12
:103E900046E872E676E47AE27EE000118545B717DF
:103EA0000040138507C0EF105035AA8781CB8545A8
:103EB000B7170040138507C0EF10303B0100FA40F0
:103EC000EA425A43CA433A442A459A450A46F656B4
:103ED0006657D6574658B658265E965E065FF64F2A
:103EE0003660A660166186617272E2725273C273A6
:103EF0003275A275127682767267E2675268C2687E
:103F0000326EA26E126F826F0D61730020303571B8
:103F100006CF16CD1ACB1EC922C72AC52EC332C161
:103F2000B6DEBADCBEDAC2D8C6D6F2D4F6D2FAD041
:103F3000FECE82E686E48AE28EE012FE16FC1AFAD3
:103F40001EF82AF62EF432F236F03AEE3EEC42EA51
:103F500046E872E676E47AE27EE0001185453715A0
:103F60000040EF109029AA8791C78545371500407A
:103F7000EF10B02F0100FA40EA425A43CA433A44D4
:103F80002A459A450A46F6566657D6574658B658B1
:103F9000265E965E065FF64F3660A6601661866105
:103FA0007272E2725273C2733275A27512768276A1
:103FB0007267E2675268C268326EA26E126F826FD9
:103FC0000D6173002030357106CF16CD1ACB1EC996
:103FD00022C72AC52EC332C1B6DEBADCBEDAC2D8C9
:103FE000C6D6F2D4F6D2FAD0FECE82E686E48AE2D3
:103FF0008EE012FE16FC1AFA1EF82AF62EF432F2A1
:1040000036F03AEE3EEC42EA46E872E676E47AE2D0
:104010007EE000118545B717004013850740EF107B
:10402000D01DAA8781CB8545B7170040138507406F
:10403000EF10B0230100FA40EA425A43CA433A441F
:104040002A459A450A46F6566657D6574658B658F0
:10405000265E965E065FF64F3660A6601661866144
:104060007272E2725273C2733275A27512768276E0
:104070007267E2675268C268326EA26E126F826F18
:104080000D6173002030357106CF16CD1ACB1EC9D5
:1040900022C72AC52EC332C1B6DEBADCBEDAC2D808
:1040A000C6D6F2D4F6D2FAD0FECE82E686E48AE212
:1040B0008EE012FE16FC1AFA1EF82AF62EF432F2E0
:1040C00036F03AEE3EEC42EA46E872E676E47AE210
:1040D0007EE000118545B737014013850740EF109A
:1040E000D011AA8781CB8545B7370140138507409A
:1040F000EF10B0170100FA40EA425A43CA433A446B
:104100002A459A450A46F6566657D6574658B6582F
:10411000265E965E065FF64F3660A6601661866183
:104120007272E2725273C2733275A275127682761F
:104130007267E2675268C268326EA26E126F826F57
:104140000D6173002030357106CF16CD1ACB1EC914
:1041500022C72AC52EC332C1B6DEBADCBEDAC2D847
:10416000C6D6F2D4F6D2FAD0FECE82E686E48AE251
:104170008EE012FE16FC1AFA1EF82AF62EF432F21F
:1041800036F03AEE3EEC42EA46E872E676E47AE24F
:104190007EE000118545B7570140138507C0EF1039
:1041A000D005AA8781CB8545B7570140138507C045
:1041B000EF10B00B0100FA40EA425A43CA433A44B6
:1041C0002A459A450A46F6566657D6574658B6586F
:1041D000265E965E065FF64F3660A66016618661C3
:1041E0007272E2725273C2733275A275127682765F
:1041F0007267E2675268C268326EA26E126F826F97
:104200000D6173002030357106CF16CD1ACB1EC953
:1042100022C72AC52EC332C1B6DEBADCBEDAC2D886
:10422000C6D6F2D4F6D2FAD0FECE82E686E48AE290
:104230008EE012FE16FC1AFA1EF82AF62EF432F25E
:1042400036F03AEE3EEC42EA46E872E676E47AE28E
:104250007EE00011854537550140EF10007AAA87AE
:1042600091C7854537550140EF1030000100FA40F5
:10427000EA425A43CA433A442A459A450A46F65600
:104280006657D6574658B658265E965E065FF64F76
:104290003660A660166186617272E2725273C273F2
:1042A0003275A275127682767267E2675268C268CA
:1042B000326EA26E126F826F0D6173002030411159
:1042C00022C6000801003244410173002030411130
:1042D00022C6000801A0011106CE22CC0010232620
:1042E000A4FEAE872315F4FE8327C4FE850783C78B
:1042F0000700A2071397070141878327C4FE83C7DE
:104300000700C207C187D98F93960701C18613970B
:10431000060141839375F70F03C78188018B3A86A5
:104320002E87518F2384E1881397060141832183CF
:1043300013160701418203C79188018BBA86328721
:10434000558FA384E1888327C4FE8D0783C70700A8
:10435000A2071397070141878327C4FE890783C7F4
:104360000700C207C187D98F93960701C18693873B
:1043700081881397060141839375F70F03C72700C0
:10438000018B3A862E87518F2381E7001397060110
:104390004183218313160701418203C73700018B34
:1043A000BA863287558FA381E70003C7818883C708
:1043B0009188A207D98FC207C187C207C187BE866D
:1043C00013878188034727009387818883C7370035
:1043D000A207D98FC207C187C207C1873E86B685AB
:1043E000B96713858793EF6060770100F2406244FC
:1043F00005618280011106CE22CC00102326A4FE86
:10440000AE872315F4FE8357A4FE3E868325C4FEA3
:104410001945EFC0DFB90100F240624405618280B6
:10442000757106C722C50009B7172707138507E06E
:10443000EFD06FF6EFD01FF499679386D73899675E
:104440001386C738F167938507201945EFC09FD0C1
:10445000930784F72326F4FEB74700001386473FEF
:10446000B74700009385672D0325C4FEEF20906EAB
:10447000EF20B02BEF203068EF207019EF20901F55
:1044800085451945EFC0FFBE03C7C1888547E31DB9
:10449000F7FE13064006938581B40325C4FEEF2082
:1044A000706E1146938581880325C4FEEF207074D9
:1044B0002386018885451945EFC0BFBBF1B701A030
:1044C00001A001A001A001A001A001A001A001A0E4
:1044D00001A001A001A001A001A001A001A001A0D4
:1044E00001A001A001A001A001A001A001A001A0C4
:1044F00001A001A001A001A001A001A001A001A0B4
:1045000001A001A001A001A001A001A001A001A0A3
:1045100001A001A001A001A001A001A001A001A093
:1045200001A001A001A001A001A001A001A001A083
:1045300001A001A001A001A001A001A001A001A073
:1045400001A001A001A001A001A001A001A001A063
:1045500001A001A001A001A001A001A001A001A053
:1045600001A001A001A001A001A001A001A001A043
:1045700001A001A001A001A001A001A097C1FF1FFF
:104580009381C14F17B100201301C16B17A5000023
:10459000130585AF97C5FF1F9385C5AA13860184B0
:1045A00063FAC5008322050023A05500110591057B
:1045B000E3EAC5FE13850184938501BB6377B500EB
:1045C000232005001105E36DB5FEFD42739002BC8A
:1045D000FD4273904280B76200009382820873A00C
:1045E000023097C2FFFF938262A593E2320073907C
:1045F0005230970200009382E2E27390123473000B
:104600002030797122D60018232EA4FC232604FE24
:10461000232404FEB7070140938707409C430327E8
:10462000C4FDF98F2324F4FEB707014093870740A8
:10463000D84B8327C4FDF98F81CB832784FE89C79C
:1046400085472326F4FE19A0232604FE8327C4FEF3
:104650003E85325445618280011122CE001023260E
:10466000A4FEB7070140938707400327C4FED8CBB9
:104670000100724405618280397122DE80002326A8
:10468000A4FC2324B4FC232604FE232004FE2324BC
:1046900004FE232E04FC232204FE232C04FC832787
:1046A00084FC9C47BD8B2326F4FE832784FC9C4717
:1046B000C18B89CB832784FCDC430327C4FED98FBD
:1046C0002326F4FE832784FC83D7070093F7F70F94
:1046D000F1CF8327C4FC9C432322F4FE232404FE51
:1046E00065A8832784FE0547B317F700232EF4FC43
:1046F000832784FC83D707003E878327C4FDF98F77
:104700002320F4FE032704FE8327C4FD6311F7086A
:10471000832784FE8A07232EF4FC8327C4FD3D47AC
:10472000B317F700232CF4FC832784FD93C7F7FF0E
:10473000032744FEF98F2322F4FE8327C4FD0327B9
:10474000C4FEB317F700032744FED98F2322F4FEDB
:10475000832784FC984793078002631BF700832715
:1047600084FE05473317F7008327C4FCD8CB05A088
:10477000832784FC984793078004631AF7008327F4
:1047800084FE05473317F7008327C4FC98CB8327A3
:1047900084FE85072324F4FE032784FE9D47E3F26D
:1047A000E7F48327C4FC032744FE98C3832784FCD3
:1047B00003D707009307F00F63F1E70E8327C4FCCC
:1047C000DC432322F4FE232404FE75A8832784FE01
:1047D000A1070547B317F700232EF4FC832784FCB9
:1047E00083D707003E878327C4FDF98F2320F4FE7B
:1047F000032704FE8327C4FD6312F708832784FE82
:104800008A07232EF4FC8327C4FD3D47B317F70026
:10481000232CF4FC832784FD93C7F7FF032744FE72
:10482000F98F2322F4FE8327C4FD0327C4FEB317A8
:10483000F700032744FED98F2322F4FE832784FC4C
:10484000984793078002631BF700832784FEA10724
:1048500005473317F7008327C4FCD8CB832784FC94
:10486000984793078004631BF700832784FEA10702
:1048700005473317F7008327C4FC98CB832784FEB2
:1048800085072324F4FE032784FE9D47E3F0E7F425
:104890008327C4FC032744FED8C30100725421615E
:1048A0008280011122CE00102326A4FEAE8723228F
:1048B000C4FE2315F4FE832744FE99C70357A4FEC4
:1048C0008327C4FE98CB31A00357A4FE8327C4FEE0
:1048D000D8CB0100724405618280797122D600181C
:1048E000232EA4FC232CB4FC232404FE232204FE48
:1048F000232604FE232004FE8327C4FD63D807007B
:10490000B7070140DC4F2326F4FE31A0B707014072
:10491000DC432326F4FE8327C4FDC183BD8B232003
:10492000F4FE0327C4FDC167FD17F98F2324F4FEAD
:104930008327C4FD63D407080327C4FDB7073000ED
:104940007D8FB70730006314F702832704FEC10789
:104950000D47B317F7002322F4FE832744FE93C7C5
:10496000F7FF0327C4FEF98F2326F4FEC5A803270B
:10497000C4FDB7071000F98F95C3832704FE0D47C8
:10498000B317F7002322F4FE832744FE93C7F7FFF3
:104990000327C4FEF98F2326F4FEC9A08327C4FD94
:1049A000D5839207032784FEB317F70093C7F7FF59
:1049B0000327C4FEF98F2326F4FE4DA00327C4FD70
:1049C000B70730007D8FB70730006315F702032764
:1049D000C4FEB70700F1FD17F98F2326F4FEB707D1
:1049E0000140D443B7070140370700F17D17758FA9
:1049F000D8C3ADA00327C4FDB7071000F98F8DCB36
:104A0000832704FE0D47B317F7002322F4FE832704
:104A100044FE93C7F7FF0327C4FEF98F2326F4FE55
:104A20000327C4FEB707000FD98F2326F4FE3DA04D
:104A30008327C4FDD5839207032784FEB317F700AD
:104A400093C7F7FF0327C4FEF98F2326F4FE03273D
:104A5000C4FEB707000FD98F2326F4FE832784FDF9
:104A600091CF8327C4FDD5839207032784FEB31714
:104A7000F7000327C4FED98F2326F4FE8327C4FD45
:104A800063D80700B70701400327C4FED8CF31A081
:104A9000B70701400327C4FED8C301003254456163
:104AA0008280397122DE80002326A4FC232204FEAA
:104AB000232604FE232004FE232E04FC232404FECC
:104AC000B7170240DC43B18B2322F4FE032744FED8
:104AD00091476303F702032744FEA1476306F702E9
:104AE000832744FE639907148327C4FC37177A0091
:104AF0001307072098C389AA8327C4FC37177A00B5
:104B00001307072098C389A2B7170240D843B707F5
:104B10003C00F98F2326F4FEB7170240D843C16743
:104B2000F98F2320F4FE8327C4FEC9838907232637
:104B3000F4FEB7F7FF1F9387C77098439167F98F0B
:104B400091EB0327C4FEC5476319F704C947232621
:104B5000F4FEA1A00327C4FE89476315F700C947E7
:104B60002326F4FE0327C4FEBD476318F700B547AC
:104B70002326F4FE85472324F4FE0327C4FEC14701
:104B80006315F700BD472326F4FE0327C4FEC5477F
:104B90006315F700C1472326F4FE832704FEA1E333
:104BA000B7470240938707809C43C18B89CF032777
:104BB000C4FEB7177A00938707203307F7028327CD
:104BC000C4FC98C399A80327C4FEB7173D00938778
:104BD00007903307F7028327C4FC98C33DA8B71793
:104BE0000240D843B7070200F98F89CF0327C4FEDC
:104BF000B7173D00938707903307F7028327C4FC5C
:104C000098C321A80327C4FEB7177A00938707200B
:104C10003307F7028327C4FC98C3032784FE854724
:104C20006313F7028327C4FC9C4313D71700832721
:104C3000C4FC98C309A88327C4FC37177A0013075C
:104C4000072098C311A00100B7170240DC4393F777
:104C5000070F2322F4FE832744FE91832322F4FED0
:104C6000B707002013874705832744FEBA9783C7F9
:104C7000070093F7F70F232EF4FC8327C4FC984317
:104C80008327C4FD3357F7008327C4FCD8C3B71765
:104C90000240DC4393F707702322F4FE832744FE8F
:104CA000A1832322F4FEB70700201387470583273B
:104CB00044FEBA9783C7070093F7F70F232EF4FC3F
:104CC0008327C4FCD8438327C4FD3357F7008327C9
:104CD000C4FC98C7B7170240D843916793870780F1
:104CE000F98F2322F4FE832744FEAD832322F4FEB2
:104CF000B707002013874705832744FEBA9783C769
:104D0000070093F7F70F232EF4FC8327C4FCD84346
:104D10008327C4FD3357F7008327C4FCD8C7B717D0
:104D20000240D843B167F98F2322F4FE832744FE63
:104D3000B9832322F4FE13878181832744FEBA9727
:104D400083C7070093F7F70F232EF4FC8327C4FCD7
:104D5000D8478327C4FD3357F7028327C4FC98CB79
:104D60000100725421618280011122CE001023269D
:104D7000A4FE2324B4FE832784FE99CBB7170240F8
:104D8000944FB71702400327C4FE558F98CF21A830
:104D9000B7170240944F8327C4FE13C7F7FFB71716
:104DA0000240758F98CF0100724405618280011125
:104DB00022CE00102326A4FE2324B4FE832784FEE3
:104DC00099CBB7170240D44FB71702400327C4FE50
:104DD000558FD8CF21A8B7170240D44F8327C4FEE0
:104DE00013C7F7FFB7170240758FD8CF0100724481
:104DF00005618280797122D60018232EA4FC232C11
:104E0000B4FC231704FE8327C4FD83D707002317B0
:104E1000F4FE0327C4FDB7370140938707C063063C
:104E2000F7060327C4FDB70700406300F706032712
:104E3000C4FDB7070040938707406308F7040327C2
:104E4000C4FDB7170040938707806300F70403276A
:104E5000C4FDB7170040938707C06308F702032714
:104E6000C4FDB7370140938707406300F70203276B
:104E7000C4FDB7570140938707C06308F7000327B5
:104E8000C4FDB75701406311F7028357E4FE93F75F
:104E9000F7F82317F4FE832784FD03D727008357F1
:104EA000E4FED98F2317F4FE0327C4FDB717004093
:104EB0006309F7020327C4FDB71700409387074033
:104EC0006301F7028357E4FE93F7F7CF2317F4FE4D
:104ED000832784FD03D767008357E4FED98F231708
:104EE000F4FE8327C4FD0357E4FE2390E7008327E5
:104EF00084FD03D747008327C4FD2396E702832759
:104F000084FD03D707008327C4FD2394E70203270A
:104F1000C4FDB7370140938707C06308F702032732
:104F2000C4FDB7370140938707406300F7020327AA
:104F3000C4FDB7570140938707C06308F7000327F4
:104F4000C4FDB7570140631DF700832784FD83C765
:104F500087001397070141838327C4FD2398E70245
:104F60008327C4FD0547239AE700010032544561B9
:104F70008280797122D60018232EA4FC232CB4FC45
:104F8000231504FE231704FE231604FE8327C4FD05
:104F900083D70702C207C183F99B13970701418397
:104FA0008327C4FD2390E7028327C4FD83D707022C
:104FB0002317F4FE8327C4FD83D747002316F4FE8E
:104FC0008327C4FD83D787012315F4FE8357A4FEEE
:104FD00093F7F7F82315F4FE8357A4FEF19B2315EE
:104FE000F4FE832784FD03D707008357A4FED98FDF
:104FF0002315F4FE8357E4FEF59B2317F4FE832765
:1050000084FD03D787008357E4FED98F2317F4FE6E
:10501000832784FD03D727008357E4FED98F231706
:10502000F4FE0327C4FDB7370140938707C0630828
:10503000F7020327C4FDB737014093870740630099
:10504000F7020327C4FDB7570140938707C06308E1
:10505000F7000327C4FDB7570140631CF7068357C9
:10506000E4FEDD9B2317F4FE832784FD03D7A7000E
:105070008357E4FED98F2317F4FE8357E4FEED9B9C
:105080002317F4FE832784FD03D747008357E4FEEC
:10509000D98F2317F4FE8357C4FE93F7F7EF231637
:1050A000F4FE8357C4FE93F7F7DF2316F4FE83273D
:1050B00084FD03D7C7008357C4FED98F2316F4FE9F
:1050C000832784FD03D7E7008357C4FED98F2316B7
:1050D000F4FE8327C4FD0357C4FE2392E700832711
:1050E000C4FD0357A4FE239CE700832784FD03D758
:1050F00067008327C4FD239AE7028327C4FD035773
:10510000E4FE2390E7020100325445618280797108
:1051100022D60018232EA4FC232CB4FC231504FE55
:10512000231704FE231604FE8327C4FD83D707023A
:10513000C207C183BD9B1397070141838327C4FD29
:105140002390E7028327C4FD83D707022317F4FEC9
:105150008327C4FD83D747002316F4FE8327C4FDAD
:1051600083D787012315F4FE0357A4FEE577FD17C7
:10517000F98F2315F4FE8357A4FE93F7F7CF231579
:10518000F4FE832784FD83D70700A2071397070146
:1051900041838357A4FED98F2315F4FE8357E4FE81
:1051A00093F7F7FD2317F4FE832784FD83D7870049
:1051B00092071397070141838357E4FED98F231782
:1051C000F4FE832784FD83D72700920713970701F6
:1051D00041838357E4FED98F2317F4FE0327C4FDD0
:1051E000B7370140938707C06308F7020327C4FD60
:1051F000B7370140938707406300F7020327C4FDD8
:10520000B7570140938707C06308F7000327C4FD21
:10521000B75701406310F70A8357E4FE93F7F7F797
:105220002317F4FE832784FD83D7A70092071397E3
:10523000070141838357E4FED98F2317F4FE835778
:10524000E4FE93F7F7FB2317F4FE832784FD83D74F
:10525000470092071397070141838357E4FED98FD4
:105260002317F4FE8357C4FE93F7F7BF2316F4FE0B
:105270000357C4FEFD779387F77FF98F2316F4FE5B
:10528000832784FD83D7C7008A07139707014183CB
:105290008357C4FED98F2316F4FE832784FD83D75A
:1052A000E7008A071397070141838357C4FED98F0C
:1052B0002316F4FE8327C4FD0357C4FE2392E700A0
:1052C0008327C4FD0357A4FE239CE700832784FDA6
:1052D00003D767008327C4FD239CE7028327C4FD0F
:1052E0000357E4FE2390E7020100325445618280B7
:1052F000797122D60018232EA4FC232CB4FC23158C
:1053000004FE231704FE231604FE8327C4FD83D75F
:105310000702C207C18393F7F7EF13970701418391
:105320008327C4FD2390E7028327C4FD83D70702A8
:105330002317F4FE8327C4FD83D747002316F4FE0A
:105340008327C4FD83D7C7012315F4FE8357A4FE2A
:1053500093F7F7F82315F4FE8357A4FEF19B23156A
:10536000F4FE832784FD03D707008357A4FED98F5B
:105370002315F4FE8357E4FE93F7F7DF2317F4FEBB
:10538000832784FD83D78700A207139707014183F2
:105390008357E4FED98F2317F4FE832784FD83D738
:1053A0002700A2071397070141838357E4FED98F93
:1053B0002317F4FE0327C4FDB7370140938707C0C6
:1053C0006308F7020327C4FDB737014093870740FE
:1053D0006300F7020327C4FDB7570140938707C056
:1053E0006308F7000327C4FDB75701406312F70AAB
:1053F0000357E4FEFD779387F77FF98F2317F4FEB9
:10540000832784FD83D7A700A20713970701418351
:105410008357E4FED98F2317F4FE8357E4FE93F7F6
:10542000F7BF2317F4FE832784FD83D74700A20725
:105430001397070141838357E4FED98F2317F4FEA6
:105440000357C4FEFD77FD17F98F2316F4FE0357AB
:10545000C4FEF977FD17F98F2316F4FE832784FD28
:1054600083D7C70092071397070141838357C4FE70
:10547000D98F2316F4FE832784FD83D7E700920794
:105480001397070141838357C4FED98F2316F4FE77
:105490008327C4FD0357C4FE2392E7008327C4FD7E
:1054A0000357A4FE239EE700832784FD03D76700EC
:1054B0008327C4FD239EE7028327C4FD0357E4FE30
:1054C0002390E7020100325445618280797122D62F
:1054D0000018232EA4FC232CB4FC231604FE231551
:1054E00004FE231704FE8327C4FD83D70702139706
:1054F00007014183FD77FD17F98F1397070141835A
:105500008327C4FD2390E7028327C4FD83D70702C6
:105510002315F4FE8327C4FD83D747002317F4FE29
:105520008327C4FD83D7C7012316F4FE0357C4FEA7
:10553000E577FD17F98F2316F4FE8357C4FE93F722
:10554000F7CF2316F4FE832784FD83D70700A20735
:105550001397070141838357C4FED98F2316F4FEA6
:105560000357A4FEF977FD17F98F2315F4FE83275F
:1055700084FD83D78700B2071397070141838357C0
:10558000A4FED98F2315F4FE832784FD83D727003B
:10559000B2071397070141838357A4FED98F2315C0
:1055A000F4FE0327C4FDB7370140938707C06308A3
:1055B000F7020327C4FDB737014093870740630014
:1055C000F7020327C4FDB7570140938707C063085C
:1055D000F7000327C4FDB75701406316F7020357CE
:1055E000E4FEF177FD17F98F2317F4FE832784FD7E
:1055F00083D7C7009A071397070141838357E4FEB7
:10560000D98F2317F4FE8327C4FD0357E4FE2392AA
:10561000E7008327C4FD0357C4FE239EE7008327CA
:1056200084FD03D767008327C4FD2390E704832705
:10563000C4FD0357A4FE2390E702010032544561E4
:105640008280011122CE00102326A4FE2324B4FE62
:10565000832784FE8DC38327C4FE83D70700C20738
:10566000C18393E717001397070141838327C4FE83
:105670002390E70039A88327C4FE83D70700C20719
:10568000C183F99B1397070141838327C4FE2390AD
:10569000E7000100724405618280011122CE0010F2
:1056A0002326A4FE2324B4FE832784FE95C38327E8
:1056B000C4FE83D74704139707014183E177D98F4D
:1056C0001397070141838327C4FE2392E70415A0A3
:1056D0008327C4FE83D74704139707014183A1673B
:1056E000FD17F98F1397070141838327C4FE239287
:1056F000E7040100724405618280011122CE00108E
:105700002326A4FEAE872322C4FE2315F4FE83279E
:1057100044FE9DC38327C4FE83D7C70013970701A8
:1057200041838357A4FED98F1397070141838327B1
:10573000C4FE2396E70035A08327C4FE83D7C700A5
:105740001397070141838357A4FE93C7F7FFC2074E
:10575000C183F98F1397070141838327C4FE2396E2
:10576000E7000100724405618280797122D6001839
:10577000232EA4FCAE87231DF4FC231704FE8327ED
:10578000C4FD83D787012317F4FE8357E4FEDD9B16
:105790002317F4FE0357E4FE8357A4FDD98F231784
:1057A000F4FE8327C4FD0357E4FE239CE7000100B9
:1057B000325445618280797122D60018232EA4FCD0
:1057C000AE87231DF4FC231704FE8327C4FD83D773
:1057D00087012317F4FE0357E4FEFD779387F77FD5
:1057E000F98F2317F4FE8357A4FDA207139707012F
:1057F00041838357E4FED98F2317F4FE8327C4FD2A
:105800000357E4FE239CE700010032544561828087
:10581000797122D60018232EA4FCAE87231DF4FC38
:10582000231704FE8327C4FD83D7C7012317F4FE83
:105830008357E4FEDD9B2317F4FE0357E4FE8357F2
:10584000A4FDD98F2317F4FE8327C4FD0357E4FE7C
:10585000239EE7000100325445618280797122D68F
:105860000018232EA4FCAE87231DF4FC231704FE8E
:105870008327C4FD83D7C7012317F4FE0357E4FE33
:10588000FD779387F77FF98F2317F4FE8357A4FDE5
:10589000A2071397070141838357E4FED98F23178B
:1058A000F4FE8327C4FD0357E4FE239EE7000100B6
:1058B000325445618280797122D60018232EA4FCCF
:1058C000AE87231DF4FC231704FE8327C4FD83D772
:1058D00087012317F4FE8357E4FEED9B2317F4FEA4
:1058E0000357E4FE8357A4FDD98F2317F4FE8327C3
:1058F000C4FD0357E4FE239CE700010032544561D8
:105900008280797122D60018232EA4FCAE87231D35
:10591000F4FC231704FE8327C4FD83D787012317D4
:10592000F4FE8357E4FE93F7F7BF2317F4FE835783
:10593000A4FDA2071397070141838357E4FED98F83
:105940002317F4FE8327C4FD0357E4FE239CE700DE
:105950000100325445618280797122D60018232ECD
:10596000A4FCAE87231DF4FC231704FE8327C4FD8B
:1059700083D7C7012317F4FE8357E4FEED9B23175B
:10598000F4FE0357E4FE8357A4FDD98F2317F4FEDA
:105990008327C4FD0357E4FE239EE7000100325431
:1059A00045618280797122D60018232EA4FCAE872F
:1059B000231DF4FC231704FE8327C4FD83D7C701EE
:1059C0002317F4FE8357E4FE93F7F7BF2317F4FE83
:1059D0008357A4FDA2071397070141838357E4FE71
:1059E000D98F2317F4FE8327C4FD0357E4FE239EBB
:1059F000E7000100325445618280797122D6001897
:105A0000232EA4FCAE87231DF4FC232604FE2315BD
:105A100004FE231404FE8327C4FD83D707011397D4
:105A2000070141838357A4FDF98F2315F4FE8327D3
:105A3000C4FD83D7C7001397070141838357A4FD93
:105A4000F98F2314F4FE8357A4FE81CB835784FE81
:105A500089C785472326F4FE19A0232604FE832741
:105A6000C4FE3E85325445618280011122CE001071
:105A70002326A4FEAE872315F4FE8357A4FE93C706
:105A8000F7FF1397070141838327C4FE2398E7009C
:105A900001007244056182805D7186C6A2C48008DF
:105AA000232EA4FA232CB4FA232604FE232404FE76
:105AB000232204FE232004FE232E04FC8327C4FBA0
:105AC000232EF4FC8327C4FB83D70701C207C183BD
:105AD0002326F4FE0327C4FEB567FD17F98F23269E
